:020000040001F9
:10800000B83D0020558101006F81010071810100A0
:108010000000000000000000000000000000000060
:10802000000000000000000000000000738101005B
:108030000000000000000000758101007781010050
:108040007981010079810100D1F401003DE2010054
:1080500069E201000000000031B101003589010032
:108060007981010079810100798101007981010024
:108070007981010079810100798101007981010014
:108080007981010019DA010079810100798101000B
:1080900079E20100CDE20100E5E201007981010011
:1080A00079810100798101000000000000000000DA
:1080B00000000000000000000000000000000000C0
:1080C0000348854600F024FC00480047519E02000A
:1080D000B83D0020401E00BF00BF00BF00BF00BF72
:1080E00000BF00BF00BF00BF00BF00BF00BFF1D195
:1080F00070470000401E00BF00BF00BF00BF00BFB0
:1081000000BF00BF00BF00BF00BF00BF00BFF1D174
:1081100070470000401E00BF00BF00BF00BF00BF8F
:1081200000BF00BF00BF00BF00BF00BF00BFF1D154
:1081300070470000401E00BF00BF00BF00BF00BF6F
:1081400000BF00BF00BF00BF00BF00BF00BFF1D134
:10815000704700000321094802680A43026008488A
:1081600002680A4302600748804707480047FEE765
:10817000FEE7FEE7FEE7FEE7FEE70000240500401D
:10818000540500400DEA0100C180010030B50B46E6
:10819000014600202022012409E00D46D5409D42E1
:1081A00005D31D469540491B254695404019154667
:1081B000521E002DF1DC30BD70B50024254600288C
:1081C00001DA01244042002901DA01254942FFF782
:1081D000DDFFAC4200D04042002C00D0494270BDCF
:1081E00010B5431A934209D28318881803E0401E41
:1081F00001785B1E1970521EF9D210BD03460B4365
:108200009B0703D009E008C9121F08C0042AFAD24C
:1082100003E00B780370401C491C521EF9D210BDBC
:10822000D2B201E00270401C491EFBD2704700220E
:10823000F6E710B513460A4604461946FFF7F0FF65
:10824000204610BD421C0178401C0029FBD1801A39
:10825000704710B5002200E0521C835C8C5CA34286
:1082600001D1002BF8D1D8B2E1B2401A10BD30B51F
:1082700004460020034600E05B1C934203D2E05C0E
:10828000CD5C401BF8D030BD30B50546002003461C
:1082900000E05B1C934205D2EC5CC85C201A01D163
:1082A000002CF6D130BD0000F0B507460846584016
:1082B00087B0C00F049048000E4659004008490896
:1082C000BC1A884105D2384631461E4617460B4631
:1082D00002465800400810434CD0300D0390400532
:1082E0005900400D490D0590401A0290402872DA5D
:1082F00018030121000B090508430190049800921E
:10830000002805D001995242002088410092019036
:10831000029840210A1A0199009800F015FA0546C2
:108320000C466B4607CB00F030FAC0197141039A36
:108330000E0D0023D71756401A467A40164344D0F4
:10834000049A002A2DD0029A012A039A15DC1205FC
:10835000C01A914101263605001C7141D20F059EBD
:10836000D2070093019202962A46234600F02DFA86
:1083700007B0F0BD38463146FAE71605224A0F46E7
:10838000B218C01AB74101210905001C4F4100185D
:108390007F41114618187941E20F10436D1964416D
:1083A00013E0E2076D0815436408C2071443039AFB
:1083B00001261205C01A91413605001C7141CE07F5
:1083C000400830434908C01851412A46234600F06E
:1083D000EFF9CDE7FFE7049801224000C117121A18
:1083E00000238B4104983146C417381AA141EEE7A7
:1083F00030B40124E407634030BC55E730B40124B5
:10840000E407614030BC4FE70000E0FFF0B51FB467
:1084100088B00B990998002448400999C00F490079
:1084200049080991C0070B990090490049080B9130
:1084300009990898A64608431CD00B990A98084346
:1084400018D0099801244000420D4800410D0998B8
:1084500024050003000B204309900B980003000B38
:1084600020430B9050181C494018002201901446DC
:10847000104605E0002001460DB0F0BD032801DAEA
:10848000034600E003239C46C11A0AAE0AE05F00DF
:1084900008ADED5B4F00F75B7D430027AA187C41D8
:1084A000491C5B1E6145F2DD410004AB5A522104B8
:1084B000120C0A43240C401C0828DFDB01980290B0
:1084C0000099704601910090059B049A07990698BF
:1084D00000F07BF9D0E700000DFCFFFFF0B50C4683
:1084E0005C4085B0E40FE40703944C000026640868
:1084F00059009446490802460296224321D062461A
:108500000A431ED06200570D4A000E032303550D87
:10851000012402462C492405781B1B0B360B4018FE
:1085200023432643614600901C46501AB44103D3AE
:108530000098401C009002E0921800985B410028CF
:1085400003DA0020014605B0F0BD00200121090535
:108550000746864611E064461D46141BB54106D306
:108560006546521BB341744607430C43A646CD07EC
:1085700040084908284392185B4105460D43EAD15B
:108580001046184313D060461946504071400843C6
:1085900006D06046101AB34106D20122002306E03D
:1085A00000220123DB0702E00122D243531000988E
:1085B00074460105381C6141029C039D0019694104
:1085C00000F0F6F8BFE70000FD03000070B54B00B7
:1085D0005B0803430BD04B005C0D0026334665421D
:1085E000B341D417AD1AA34102DB0020014670BD90
:1085F00012053018514170BD0EB5C217C10F504061
:10860000CA0740180021054B0293019200910A46C7
:108610000B4600F0DAF803B000BD000033040000A0
:108620000EB505490291002100910A460B460191C1
:1086300000F0CBF803B000BD3304000070B5CD0FDF
:108640004A0009030123090B1B0519430B4BED07D6
:108650000024520D9A4201DA002070BD074B3433DA
:108660009A4203DC9A1A00F07FF802E0044951189C
:1086700088402C43F1D0404270BD0000FF03000051
:10868000CDFBFFFF4A0009030123090B1B0519431A
:10869000094B10B5520D9A4201DA002010BD064B6D
:1086A00034339A4203DC9A1A00F05EF810BD034995
:1086B0005118884010BD0000FF030000CDFBFFFFF4
:1086C00010B5002904DB0124E40740428C41214617
:1086D000002B04DB1C460123DB075242A3418B42E3
:1086E00000D1824210BD0000F0B51FB40646002044
:1086F00082B005464024019100901BE0019922467A
:108700000F46304600F030F8049A059B801A9941D4
:1087100010D310461946224600F016F8361A8F413B
:108720000197224601200021009F00F00DF8381823
:108730004D4100902046641E0028DFDC019B00981C
:108740002946324607B0F0BD10B5202A04DB0146A9
:10875000203A9140002010BD914020239C1A0346EE
:10876000E3401943904010BD10B5202A04DB0846B1
:10877000203AD040002110BD0B46D340D0402024E9
:10878000A21A91400843194610BD10B5202A06DBF5
:10879000CB170846203A1041C1170B4306E00B46A1
:1087A0001341D0402024A21A91400843194610BD1D
:1087B00010B5002B08DA0024401C614192185B417F
:1087C0001A4301D14008400010BDF0B51FB482B07B
:1087D00005460C0003D0084607F090FF02E007F0C2
:1087E0008DFF20300246009021462846FFF7ACFF5F
:1087F000049B059A04460F4618431143084314D0BE
:10880000184610431BD0009840210A1A18460599B3
:10881000FFF7AAFF05460E46009A05990498FFF750
:1088200093FF084305D0012004E02046394607B0F5
:10883000F0BD0020C11705430E432C433743009978
:108840000E986305401A7905E40A00220C43FD0ADC
:108850000A3002D500200146E9E7010510196941F7
:108860000C9C0D9D00196941FFF7A2FFDFE7FEB5E3
:1088700000231A461B1A8A4103DB0020014603B07D
:10888000F0BD4A000D0301212D0B0905520D0D43CA
:10889000D10702D100186D41521E5110FF31FF3136
:1088A0000131002704463E463846009701910246B2
:1088B000012100200905FFF757FFC3197141F8187E
:1088C000324684468E464A4161462846611A9041A6
:1088D00004D36046241A954176461F462419009811
:1088E0006D41401C00903428E1DDF919304670419B
:1088F000091BA84103D20022D243134601E0002203
:10890000134601980105381C7141FFF751FFB6E786
:10891000064C0125064E05E0E36807CC2B430C3CD2
:1089200098471034B442F7D3FFF7CEFB1815030075
:1089300038150300044802680021002A03D00122F0
:1089400001600248426070470071004000700040C2
:10895000F0B50E4601468DB0FF310746E5311546AC
:1089600068460C9100F05EF91C46103C2AD4314652
:1089700008A800F057F908A80FC8079304AB07C36D
:1089800004A9384600F066F800990498103C484065
:1089900000BA2860019905981036484000BA68600E
:1089A00002990698484000BAA86003990798484081
:1089B00000BAE86008A80FC803936B4607C31035D8
:1089C000002CD4DA08A90C9800F02CF90DB0F0BDF9
:1089D000F0B5054600881435800032E02C681A4B4B
:1089E0001A4E610031402246E609DF091A403E4036
:1089F000921B174EFF43324051400E464A001E4024
:108A00003A40F709F61B124F3E40724017461F408E
:108A10000E4B56001E40FB09FB1A0D4F3B405E40BB
:108A20000B4674405340734061401826F141594051
:108A300062401023DA414A400821CC41544010C51D
:108A4000401E0428CADCF0BD80808080FEFEFEFE51
:108A50001B1B1B1BF0B50E4695B001880791090141
:108A60000F18042014378100891980393F1FCA6FFD
:108A70003B685A40CA67401EF5D18FE00423481E68
:108A80001090D81C8007000F3058010E47484068EE
:108A9000425C991C8907090F71580902090E415C53
:108AA0000491591C8907090F715A0904090E455C84
:108AB0009907090F715C445C1099059888424FDA58
:108AC000049910464840039000F030F9049906904C
:108AD00069400846119100F029F904902846604049
:108AE00000F024F908902046504000F01FF9139040
:108AF00004990698484000F019F90B9004990898D9
:108B0000484000F013F90B990A90484000F00EF924
:108B1000844611990B986140414060464140069857
:108B20006A4041400A986240424060464240049890
:108B30004240039844400B984440604644400898A3
:108B40004440039845400A98454060464540139884
:108B5000454008061104084321020843284306E063
:108B600004991006090408432902084320439A0087
:108B70000CA951188039C8675B1E82D104200CAA49
:108B800081008B18803B3F1FDB6F3C688919634075
:108B90008039CB67401EF3D10598401C079905909A
:108BA000884200DA6AE715B0F0BD0000002000201E
:108BB000F0B5C1B004F0B2F9194BC11DF93103C3CE
:108BC000002201216C46FF27CE091C37A1544D001D
:108BD0007E4375406940521CFF2AF4D96325002367
:108BE0000570FF27F91A615C0A020A431109560948
:108BF000714096097140D60971405140E25C69406C
:108C00005B1C8154FF2BEDD3054900200A6849689D
:108C1000135CC854401CFF28FAD941B0F0BD0000D5
:108C2000002000200A6812BA02604A6812BA426044
:108C30008A6812BA8260C96809BAC16070470000C8
:108C4000FEB505460C463748FF2100901E46F5311B
:108C50002846FFF7ECFA002E11D0012E61D10E202C
:108C6000288021462846082610311430FFF7DAFF05
:108C70002146281DFFF7D6FF6E80374644E00A20C4
:108C800028800426F4E7B80001902C583146384675
:108C9000FFF792FA002918D12348E2B20068825CFB
:108CA00013022204120E825C12041A4323021B0ECA
:108CB000C35C1B061343220E805C009A1843127893
:108CC000140644400098401C0090082E13D104293B
:108CD00011D1154822040068120EE1B2825C415C99
:108CE00012020A432102090E415C09041143220EBB
:108CF000805C04060C43B81B800040194168019851
:108D0000614040197F1C416028888000001DB842E6
:108D1000B9DC0020FF350146E135401C29711028DF
:108D2000FBDBFEBDF4C00200002000200106400075
:108D3000002901DA1B214840C0B27047002800DA40
:108D40004042704710B500231A4606E0C40701D020
:108D50005B1CDBB24008521CD2B28A42F6D31846E2
:108D600010BD10B511F0C2F910BD10B5FFF744FCED
:108D700012F014FCFFF762FC10BD00000648817A77
:108D8000022907D0C17C142902D8807C782801D917
:108D90000020704701207047FC24002007498A7A90
:108DA000022A09D00A46AC3A127F002A04D18A7CF2
:108DB000782A01D81018887470470000FC2400201D
:108DC00004498A7A022A04D0CA7C142A01D81018CD
:108DD000C8747047FC240020F0B5A5B002F01AFF5B
:108DE000002810D102F024FF00280CD100F0AAF8CE
:108DF0002C4D002802D00020688304E0688BFF21FE
:108E00002D31884202D2002025B0F0BD00F09DF93E
:108E100000F0B4FA234CC03C26468036A03400282B
:108E20001DD0E07DE37EA27E617E6F460FC7A37DED
:108E3000B28E1DA104A807F04DFCC7B204A8C0194A
:108E40001EA107F047FCC019C0B204A9081825A14B
:108E500007F040FC04A806F04BFB00F0A3F9E07D0E
:108E6000E37EA27E617E6F460FC7A37DB28E0EA108
:108E700004A807F02FFCC4B20A486B8BC038027CF0
:108E800004AD281918A107F025FC0019C0B2281854
:108E900014A107F01FFC04A806F02AFB02F0D4F985
:108EA0000120B1E7F024002025642D25642D2564E0
:108EB0002C2025643A25643A256420005B525443F3
:108EC0005D20646973636F6E6E6563742C20756ECC
:108ED000617574686F72697A656420646576696328
:108EE000650000000D0A00005B424154545D2055AE
:108EF0006E617574686F72697A65642C20534420C2
:108F0000284C6576656C3A2025642C2074696D6563
:108F10003A20256429000000094800B500220146D6
:108F20000274C0310A824A8300F00CF8002804D091
:108F300002208875CA778A7700BD8A7500BD000057
:108F40003024002004480069800CC007C00F01D005
:108F500000207047012070470005005000B5FFF762
:108F6000F1FF002803D10448007C132801D9002018
:108F700000BD012000BD00003024002010B50A4CC7
:108F800000F0E0FD0146E07A002809D0012806D073
:108F9000022804D1204607F007FE0020E07210BD31
:108FA000204607F091FE10BDFC24002030B5A5B08E
:108FB00002F00EFA102011F073F812496D46488243
:108FC000012048770220C87508462038C17DC47E3C
:108FD000837E427E1EC5837D2038828E0AA104A82E
:108FE00007F078FBC4B228190CA107F073FB001935
:108FF000C0B2281810A107F06DFB04A806F078FA9B
:1090000025B030BDF024002025642D25642D256475
:109010002C2025643A25643A256420005B424154A3
:10902000545D207374617274206669727374206D6C
:1090300065617375726500000D0A000000B5024697
:10904000FFF780FF002808D00449088A801880B202
:10905000034A0882904200D90A8200BDF024002011
:10906000302A000010B51F4B002286B000282FD0F8
:1090700016292DD14178E1290BD0E22904D0E3292A
:1090800004D0E42904D023E0012202E0022200E01F
:109090000322142469460C820024D1000094019418
:1090A0000294C91803948A8B69460A8001228A7047
:1090B0008C8004A9801C02910390988A6946A6DFDF
:1090C00008494031002806D0074A904200D10C7769
:1090D000002006B010BD087F012801D9401E087786
:1090E0000120F6E7AC2700200430000070B5FEB088
:1090F00015460E460446FFF75BFD00231A4621463F
:109100006846FFF79DFD6846FFF762FC40232A464C
:1091100031466846FFF71CFC7EB070BD30B50C468A
:109120008DB01546014610226846FFF759F8102207
:10913000214604A8FFF754F868464DDF1022284660
:1091400008A9FFF74DF80DB030BD704710B508788D
:10915000152818DD212804D0222807D0232812D171
:109160000AE010000FD009A20D490AE010000AD051
:10917000E52106A2890004E0100004D0084903A2FA
:10918000891D0FF0CDF9002010BD00002E2E5C735C
:109190006F757263655C62746C652E63000000001D
:1091A0009103000070B51748A4B0C17DC57E837ED1
:1091B000427E6E462EC6837D2038828E104C12A1D0
:1091C00004A807F087FAC5B2701914A107F082FA53
:1091D0004019C0B230181BA107F07CFA04A806F0B1
:1091E00087F9A08A132176DF002803D016A2D621A2
:1091F0000FF096F902204034607724B070BD000073
:10920000AC270020D024002025642D25642D256462
:109210002C2025643A25643A256420005B42544C96
:10922000455D20646973636F6E6E65637420424CA4
:109230004520666F7220736F6D6520726561736F74
:109240006E0000000D0A00002E2E5C736F757263B5
:10925000655C62746C652E6300000000F1B5A4B01B
:10926000FFF770FE2C4CDF21890025466618002789
:109270008035A0344036002826D1FFF76FFE002845
:1092800022D002F0C7FC00281ED0E37EA27E617EC1
:10929000E07D03936B4607C3A37DAA8E1FA104A89C
:1092A00007F018FAC4B204AD281921A107F012FA88
:1092B0000019C0B2281824A107F00CFA04A806F07F
:1092C00017F9777725B0F0BD2498002801D0B7773B
:1092D00001E00120B07702F091F805207077E07D81
:1092E000E37EA27E617E6F460FC7A37DAA8E0BA18F
:1092F00004A807F0EFF9C4B204AD281913A107F0D0
:10930000E9F90019C0B228180FA107F0E3F904A881
:1093100006F0EEF8D6E700003024002025642D2565
:10932000642D25642C2025643A25643A25642000A8
:109330005B42544C455D20424C45206C6F77207059
:109340006F776572000000000D0A00005B42544C0C
:10935000455D20737461727420616476657274690E
:1093600073696E672E0000001CB50446684666DF10
:1093700068468088207001201CBD00000348407FA3
:10938000042801D00020704701207047EC270020FE
:109390000348407F002801D000207047012070471B
:1093A000EC270020F0B5514DA5B02E46A03507881A
:1093B000E97E0091A97E4C4C80368E466A7EE97D1E
:1093C000B38EA4460493AB7D4034172F48D009DCFC
:1093D000012F2BD0102F2ED0112F01D10CF05CFAC1
:1093E00025B0F0BD192F53D0392F03D0502F34D0D2
:1093F000552FF5D1009803907446684616C03CA1DD
:1094000005A8049A07F066F9C4B205AD28193DA174
:1094100007F060F90019C0B2281842A107F05AF904
:1094200005A806F065F8FFF7BDFED9E7217F007AB1
:1094300008182077D4E765468088A88204206077E2
:1094400000F080FB28600020E07700F07BFB2749DC
:10945000486028465C3062DFC2E70CF06FFABFE775
:10946000009803907446684616C021A105A8049A86
:1094700007F030F9C4B205AD28192BA107F02AF97D
:109480000019C0B2281827A107F024F905A824E084
:1094900080790028A4D1607F0528A1D1A07F02286F
:1094A0001ED00020FFF7DAFEE87DEB7EAA7E697E03
:1094B0006C460FC4AB7DB28E0DA104A807F00AF96B
:1094C000C4B204AD281920A107F004F90019C0B2F4
:1094D000281814A107F0FEF804A806F009F87FE7A1
:1094E00000206077E0E70000AC2700203024002057
:1094F00025642D25642D25642C2025643A25643AA5
:10950000256420005B42544C455D20474154545330
:10951000202D20424C4520646973636F6E6E656335
:10952000740000000D0A00005B424C455D2041556F
:1095300054482047415020455654202D20777269C9
:1095400074652043434344005B42544C455D2041D5
:1095500064766572746973696E672074696D656F8E
:109560007574200005480021017641768181C18112
:109570000348817A4906490E81727047AC27002062
:109580003024002038B51E4C0CF07EFF20465C30A5
:1095900062DF0121684681701F21C9430180224694
:1095A000123269460120A0DF002827D10121154889
:1095B0000FF092F913480221401C0FF08DF9114869
:1095C0000321801C0FF088F90E480421C01C0FF005
:1095D00083F90C480521001D0FF07EF9094806218A
:1095E000401D0FF079F907480721801D0FF074F92D
:1095F00004480821C01D0FF06FF9002038BD00009D
:10960000AC270020E1FF000010B5104804464034AC
:10961000617F0B0007F089F8050F040F0F120F0090
:10962000C08A002801D008F0C5FEA07F002803D022
:109630000020FFF713FE10BD0120FAE702F0EAFA5E
:109640000028F8D000F004F810BD0000AC2700207E
:10965000F0B5A5B000F076FA0746584C03F08EFB43
:10966000574D2E468036A035002822D05549206817
:109670004018B8421CD2E87DEB7EAA7E697E6C461B
:109680000FC4AB7DB28E50A104A807F023F8C4B27A
:1096900004AD281951A107F01DF80019C0B228180F
:1096A0005BA107F017F804A805F022FF05F06AF99E
:1096B00081E0A07E0A2802D901F062FF7BE05549D3
:1096C00020684018B8422AD2FFF74CFF01F058FF3B
:1096D0005148007E022803D0032801D0042823D15A
:1096E000EB7EAA7E697EE87D03936B4607C3AB7D64
:1096F000B28E35A104A806F0EDFFC5B204AE701914
:1097000046A106F0E7FF4019C0B2301840A106F0AC
:10971000E1FF04A805F0ECFEFFF744FD04E0A0899A
:10972000002801D100F098F82548807A000642D53B
:10973000E089A189884205D20120C00300F0EAFB3C
:1097400000280DD1607E217E884226D2208A012504
:109750002D03FF2807D8284600F01EFB002802D062
:10976000012025B0F0BD607E401CC0B26076217E35
:1097700088420DD2002020820122052130A001F074
:1097800067FAA060002808D0284600F005FBE7E74C
:10979000012205212AA001F05BFA7D216068C90041
:1097A0004018B84207D201F0EBFE00F0AFFA676054
:1097B000A07E401CA0760020D3E70000AC2700204C
:1097C000302400203075000025642D25642D25648B
:1097D0002C2025643A25643A256420005B42544CD1
:1097E000455D204F5441206E6F20726573706F6E1F
:1097F000736520666F72203330207365636F6E640B
:1098000073202D3E207265626F6F7420000000008F
:109810000D0A0000204E0000502B00205B42544CEB
:10982000455D204E4F205041434B455453202D2041
:10983000424C4520646973636F6E6E65637400000B
:1098400065706F63680000000248007F002800D048
:1098500001207047EC270020F0B51D4C0120A5B079
:10986000C002A0810025E58105211AA000F0CEFFED
:1098700020761A486576C17DC67E837E427E6F461D
:109880004EC7837D2038828E15A104A806F022FFE2
:10989000C6B2237EA289B81916A106F01BFF801953
:1098A000C0B238181DA106F015FF04A805F020FE6F
:1098B000207E002806D00022052106A001F0C8F96C
:1098C000A060258216480575457525B0F0BD0000DD
:1098D000AC27002065706F6368000000D024002072
:1098E00025642D25642D25642C2025643A25643AB1
:1098F0002564200053747265616D696E6720616D27
:109900006F756E742C20666C6173683A2025642C28
:109910002066696C653A2025640000000D0A00008D
:1099200010260020F0B59BB006460F46302237497E
:1099300002A8FEF755FC3549302230310EA8FEF75B
:109940004FFC334C0525E8000019B821BC22034622
:109950000958125880335A6419648030DA6899685B
:109960006D1E19612D0642612D0EECD1204680300E
:10997000476106616038417A002909D000214172AF
:10998000C020065180343046394667641BB0F0BDB4
:10999000002000900EAE0190E8000119902252586C
:1099A00080314B69311803C9FEF730FD019B009AE5
:1099B000FEF77AFC6D1CEDB201910090062DEBD301
:1099C00000252E460127F8000119C0225258803187
:1099D0004B6C02A9091803C9FEF718FD2A46334645
:1099E000FEF762FC7F1CFFB205460E46062FEAD347
:1099F000019B009AFEF702FDC02210518034616481
:109A0000FEF71CFE00B2FEF7F7FDBFE720C3020021
:109A1000402A0020164830B50146012220310A7242
:109A20004A720021CA00121800231363536313669D
:109A30001546536680352B616B618032491C2B645F
:109A4000C9B253640629EDD301463022E0310A74CD
:109A50004A740346074A80330021DA6799678033E6
:109A600006C30A46FF30034901301A60C16030BDA9
:109A7000402A00200000F03FF0B59BB006460F469C
:109A800030222E4902A8FEF7ABFB2C4930223031A0
:109A90000EA8FEF7A5FB2A4C0525E8000019C26DAB
:109AA000816D42660166C26A816A6D1E42632D063F
:109AB00001632D0EF1D12046676320302663017AC1
:109AC000002907D0002101726766304639462666B4
:109AD0001BB0F0BD002000900EAE0190E80001190F
:109AE0004B6B0A6B311803C9FEF790FC019B009A7F
:109AF000FEF7DAFB6D1CEDB201910090062DEDD35F
:109B000000252E460127F80001194B6E0A6E02A9A6
:109B1000091803C9FEF77AFC2A463346FEF7C4FB50
:109B20007F1CFFB205460E46062FECD3019B009A20
:109B3000FEF764FC61662066CAE70000C0C202004E
:109B4000402A002010B504F0E3FB10BD70B5214A97
:109B500001781346A03B0902198044781E4D09196B
:109B600089B200241980A9420DD114605460817813
:109B7000C01C9970002903D0012903D10EF00CFA02
:109B800000F072F870BD144D6D1CA9420FD1146025
:109B90005460C17809025960027911430902596081
:109BA0004279114359608179997000220DE00A4A87
:109BB000921C914202D0521C9142E3D1C1780A0218
:109BC00001791143427909020A43811D18460DF0BB
:109BD000FDFB70BDE0260020E5FF0000F8B5204841
:109BE0000090051D80792F46401CA870FF20E8706A
:109BF000E2202871A87868718037072078620020F9
:109C0000A871E871072129722E46A036F861707399
:109C1000B8622C4630700B221934025501216A704B
:109C2000297000980F4B0170987A0855DA7A032151
:109C3000317302200255E01C04221946FEF7D0FAC7
:109C4000072030732846102221460930FEF7C8FA53
:109C500010207073F861009802210170F8BD0000B7
:109C60006425002090270020F8B5154E10213446B9
:109C7000FF343934A0782746401CA070FF20DD3027
:109C80008151FF20E070E1202071A037254601229C
:109C900019353A73002149553146681C09220A31A9
:109CA000261FFEF79DFA0A223A73002060700120F9
:109CB0002070022030702946601DFEF791FAF8BD31
:109CC0003024002070B5104B10221846FF30393078
:109CD0008178FF24491C8170FF21DD31CA50FF21AA
:109CE000C170E1210171E5340122E25401460026F0
:109CF00018251931755445700270031F02241C7019
:109D0000401DFEF76DFA70BD3024002070B5204C68
:109D10002546FF35F1352879FF34FB34002836D14C
:109D2000FF202070E12060701620A070184880305D
:109D3000816A090EE170816A090C2171018D090A9D
:109D40006171008D1249A0714A6C886C8018020EF6
:109D5000E271020C2272020A6272A0720D48028E37
:109D60001212E272008E2073086D0009020A6273FB
:109D7000A073C86C0009010AE17320740548E0383B
:109D80004078607404F01AFFA0740120287170BD3F
:109D900030240020302B0020F0B58DB006466846F8
:109DA0000C9004A80B9068460890584C04A80990A1
:109DB0002079002802D16079002802D001200DB05E
:109DC000F0BDA079524D002820D0002719E0A889C5
:109DD00000010A90B04217D2696804220818694647
:109DE00000F0F2FF009804224000400800906968EB
:109DF0000A980818694601F041F8A889401CA88112
:109E00007F1C2089B842E2D80020A071A8890701F0
:109E1000B74201D30020D2E70120208115E0686815
:109E20001022C0190C9900F0CFFF0C980078FF2881
:109E300006D00098002803DA40004008009006E0B1
:109E4000A889401C80B2A8810701B742E7D3B74276
:109E50004BD2A889070145E068681022C0190B9908
:109E600000F0B2FF0B980078FF283ED0049800283D
:109E70003BDA4000400800990490884235D909989F
:109E8000017A0898007A81422FD10998417A08987E
:109E9000407A814229D10998817A0898807A814252
:109EA00023D10998C17A0898C07A81421DD10998B6
:109EB000017B0898007B814217D10998C1880898D6
:109EC000C088814211D10998417B0898407B81422A
:109ED0000BD10998817B0898807B814205D120892C
:109EE000401C20811037B742B6D32389012B01D9FA
:109EF000092201E00023082220460A30089909F0CF
:109F0000C7FB01202071607158E700002026002067
:109F1000B0270020F0B591B0064601A8079008A828
:109F20000C9001A80690574C08A80D9020790028A5
:109F300002D16079002802D0012011B0F0BDA079D3
:109F4000514D00281ED0002717E068890001B0425B
:109F500016D204221303C01801A9009000F0ECFEF1
:109F60000198042240004008019001A9009800F0E7
:109F700049FF6889401C68817F1C2089B842E4D869
:109F80000020A07168890701B74201D30020D4E7FF
:109F90000120208115E0102290023818079900F066
:109FA000CBFE07980078FF2806D00198002803DA36
:109FB00040004008019006E06889401C80B268813A
:109FC0000701B742E7D3B7424BD26889050145E0A4
:109FD0001022900228180C9900F0AEFE0C98007820
:109FE000FF283ED0089800283BDA4000400801993D
:109FF0000890884235D90D98017A0698007A8142F6
:10A000002FD10D98417A0698407A814229D10D9836
:10A01000817A0698807A814223D10D98C17A069878
:10A02000C07A81421DD10D98017B0698007B814248
:10A0300017D10D98C1880698C088814211D10D981A
:10A04000417B0698407B81420BD10D98817B06981D
:10A05000807B814205D12089401C20811035B5428A
:10A06000B6D32389012B01D9092201E0002308225C
:10A0700020460A30069909F00BFB0120207160711F
:10A080005AE7000020260020B027002010B5002449
:10A0900007F086FB002803D0641CE4B2052CF7D33C
:10A0A00010BD0000F0B5044610460022084E0AE03C
:10A0B0002578070A7D406D00755B00024540521C03
:10A0C000A8B292B2641C8A42F2D35840F0BD00009C
:10A0D000B0C30200F0B51A4CE1B0607B00282CD070
:10A0E00000206073A17B002900D0A073E17B0029D0
:10A0F00023D0E073124A217C1132684605F0FCF946
:10A10000002635466F4609E020A87A5D80190DA12A
:10A1100006F0E0FA80196D1CC6B2EDB2207CA842B0
:10A12000F2D8207B002808D020AA08A140A806F079
:10A13000D1FAC1B240A800F0BBF861B0F0BD000098
:10A1400030250020253032782C0000005B44424747
:10A150005D20257300000000F0B53A4CA7B0224600
:10A160002546077880320646A0350492E87E697E4F
:10A170008646A87E928E8446E87D0592FF34AB7DAC
:10A180000134002F2AD00122012F3AD0022F57D1BB
:10A190006273E273727820462274B11C1130FEF7AC
:10A1A0001FF8E87DEB7EAA7E697E6F460FC7049894
:10A1B000AB7D828E24A105A806F08CFA227CC5B264
:10A1C00005AC7378601925A106F084FA4019C0B275
:10A1D000201829A106F07EFA05A82FE072782273D4
:10A1E000724665466F46039223C717A106A8059AD3
:10A1F00006F070FA227BC5B206AC737860191FA115
:10A2000013E06273A27372782274724665466F46D9
:10A21000039223C70CA106A8059A06F05BFA227CDC
:10A22000C5B206AC737860191BA106F053FA401949
:10A23000C0B2201810A106F04DFA06A805F058F992
:10A2400027B0F0BD3024002025642D25642D256421
:10A250002C2025643A25643A256420005B4442475B
:10A260005D3A204F54412057726974653A20256445
:10A270002C202564000000000D0A00005B444247CA
:10A280005D3A20656E61626C65204F54413A20252D
:10A29000642C2025640000005B4442475D3A204F57
:10A2A000544120524541443A2025642C2025640025
:10A2B000F3B5234E84463446FF343934261F3078B4
:10A2C00081B001283AD02078002837D1A0782746DD
:10A2D000401CA070803702987862FF20E070E22076
:10A2E0002071A07860710020A071E0710299217244
:10A2F0002546A035F8612246687319320121009283
:10A30000297314238354204661461A30029AFDF7BC
:10A3100067FF297B029810220818287314206070A8
:10A32000012020703070204609300099FDF758FF59
:10A33000F8691030F861687B10306873FEBD00006A
:10A340003024002010B50C460DF086F80448017941
:10A3500002464900303254520121417110BD0000C3
:10A36000F42000200348132100888903C001081A43
:10A3700070470000F420002070470000F8B52B4A19
:10A380002B4E9078134685011446D1781B883034C3
:10A3900010E04F00E75BB7420BD126484E00A053B8
:10A3A00068185B1C1380491CD170012180B2517167
:10A3B000F8BD491C4029ECD31321C9018B4233D08D
:10A3C0001A494979002903D01849303100F042FD7B
:10A3D0000027164C25E0A078884225D2401C13495E
:10A3E000C0B24035A070ADB2303100F0D3FC0F48A0
:10A3F000002130304A00825AB2420ED10B4A0D4839
:10A400004B003032D05222886818521C2280491CDE
:10A41000E170012180B26171F8BD491C4029E9D386
:10A420007F1CE168B942D6D80020F8BDF420002096
:10A43000FF7F0000FF3F000010B50DF00DF803484E
:10A440000249007940003031085A10BDF420002044
:10A45000F0B5194CA1B0A18BA069FDF797FE0025BE
:10A46000264620803036154F17E06946284600F012
:10A4700091FC1148802269463030FDF7B1FE002082
:10A480004100715AB94202D02188491C2180401CE8
:10A4900080B24028F4D36D1CADB2E068A842E4D885
:10A4A00000250549A5703031284600F073FCE570A1
:10A4B000657121B0F0BD0000F4200020FF7F000096
:10A4C00070B5C0B0344C6946002000F04DFC8020CF
:10A4D00020816D4620A9032000F046FC3FA80230F1
:10A4E00001F068FB2D49002688424CD128463630C1
:10A4F00001F065FB2A490002884244D102A80330DA
:10A5000001F058FB218988423DD105A8023001F0B5
:10A5100051FBE0606846007CA077012833D1684693
:10A52000407BA08304A8013001F044FB208404A8F0
:10A53000033001F03FFB608403A8023001F03AFBD6
:10A54000A084012021890004FDF720FE0546608CCF
:10A55000A84218D3A18B401BFDF718FEE08402200F
:10A56000A071A561A08C2061208C00280CD0680807
:10A570006061E08C21894000401E0818FDF706FE4E
:10A58000E168884202D9002040B070BD0020C0437D
:10A59000A062A6850120F7E7F420002055AA00005C
:10A5A0000046415410B530210248FDF740FE00F04E
:10A5B00003F810BDF4200020F0B5A7B05A4C0220DB
:10A5C0006D46A07180212846FDF731FE2946012005
:10A5D00000F031FC2946022000F02DFC8026268167
:10A5E00066810120A0831320C00160840427F0004D
:10A5F000A784208441100F20C001E0841E20E06069
:10A600000120A0772761A16100026061F022802112
:10A6100028462592FDF70BFE0B2244A12846FDF7A4
:10A62000DFFD6946CE720020087301224A738F73E2
:10A63000C8730A7448748F74CE7409220A75259AF7
:10A640004A753F220A764876FF228A76C8760877CE
:10A6500048778877C8770FF05DFA08A9C871020AB1
:10A660000A72020C4A72000E8872A08969468875C7
:10A67000000AC87508A90E7129208871284613227E
:10A680002DA12B30FDF7ACFD2946002000F0D3FBB7
:10A6900021892846FDF7CBFD552018A98877AA20E7
:10A6A000C8772946032000F0C6FB00207F262490AF
:10A6B00035E0FF2280212846FDF7B2FD01202E540F
:10A6C000801C8028FBD3FF212598C94301432970B2
:10A6D0001E4A010A11436970010C12121143A9703C
:10A6E000000EFF210843E8702946002000F0B2FB6D
:10A6F00001270EE0FF2280212846FDF791FD012071
:10A700002E54801C8028FBD32946384600F0A2FB3B
:10A710007F1CE068B842EDD82498401C2490A17FAB
:10A720008142C6D827B0F0BDF4200020EBFE904D4A
:10A7300053444F53352E30004E4F204E414D45204F
:10A74000202020464154202020202000FFFFFF0031
:10A7500010B505484179002904D00349807830318B
:10A7600000F078FB10BD0000F4200020F1B50026B9
:10A77000A8B0354600F0F2F803F0F2F807460021E1
:10A780002898002F016001D0002415E0002029B096
:10A79000F0BD20A9204603F09DF800280AD0761CC1
:10A7A000B6B26946204603F0A9F86846FDF74AFDAF
:10A7B00045190835641CA4B2BC42EAD32898056048
:10A7C0003046E4E770B5A8B0064600F0C7F803F0DD
:10A7D000C7F8050018D0002414E020A9204603F093
:10A7E00079F800280CD06946204603F087F83146F6
:10A7F0006846FDF72EFD002802D1204603F04CF8F4
:10A80000641CA4B2AC42E8D328B070BDF3B5D3B099
:10A81000539800250F4600284BD0002F49D000F058
:10A820009DF803F09DF8060043D00AA80024049088
:10A830003DE0A0B24AA903F04DF8002836D0A0B2FE
:10A840000AA903F05BF8002006E004990A5C53991A
:10A85000095C8A422AD1401CB842F6D3164B6D1CC3
:10A860009C46DA7E997E587EDB7D009301AB07C360
:10A87000114863462038828E9B7D10A12AA805F0DE
:10A8800029FFC0B22AA9009008182A4610A1049BEB
:10A8900005F020FF014600980818C0B22AA9081840
:10A8A00013A105F017FF2AA804F022FE641CB4428D
:10A8B000BFD3284655B0F0BDD024002025642D25F7
:10A8C000642D25642C2025643A25643A25642000F3
:10A8D0002D2D2D20466F756E64202564206D696EC8
:10A8E0007574652066696C65733A202573000000F5
:10A8F0000D0A000010B504002DD0E07C00282AD1FC
:10A90000A07C002802D020460DF00AFDE08903F06B
:10A9100003F8E2890146104603F050F8218AE089E5
:10A9200003F034F80C48808E02040B482030817DFF
:10A9300011430A02C17DE089114303F033F8E08935
:10A94000216802F06FFFFFF703FF03F043F80020D8
:10A95000207502F0EBFF10BDB024002010B50548B3
:10A96000007D002805D00348FFF7C4FF002002F057
:10A970009BFA10BDA4210020002803D00068002805
:10A9800000D0012070470000F0B5CDB00D4624A9DD
:10A99000019104A900910146802204A8FDF720FC42
:10A9A000FFF7DCFF324C0026E574012D26D0FFF7BF
:10A9B0004FFDFFF7D7FC0521C90288424CD3FFF7B2
:10A9C000DDFC050048D0FFF7D9FC6946088102008C
:10A9D00044D02946009802F031FF411C40D0711E3E
:10A9E0002182A6742081694609896181A18126603E
:10A9F000E081012020751E484DB0F0BD02F0B0FF8F
:10AA0000070029D0002510E0A8B244A902F062FF97
:10AA1000002809D0A8B2019902F070FF00990198AE
:10AA2000FDF717FC002802D06D1CBD42ECD3BD42DF
:10AA300012D2A8B2E08103AA02A902F097FF8020F7
:10AA4000A074E0892081684600896081A081039814
:10AA5000206060602675CEE70020CDE7284604E040
:10AA60002846FFF789FC68460089FFF785FCF3E775
:10AA7000A4210020F8B516460F46050007D0286827
:10AA8000B04200D2C6B2A87C802802D004E00020E8
:10AA9000F8BD28460BF000FDA87C1C498219802ACD
:10AAA00009D2411832463846FDF79AFBA87C344655
:10AAB0008019A8741EE08022121AD4B241182246CE
:10AAC0003846FDF78DFB381900901BE0301BC7B2EC
:10AAD000802F00D380273A460C490098FDF780FB71
:10AAE000E019C4B20098C0190090802F0AD0AF744A
:10AAF000B442EBD32868A04200D2C4B2001B286045
:10AB00002046F8BD28460BF0C7FCF1E73C220020A8
:10AB1000F8B516460F46050014D02A8A3146384645
:10AB200003F066FC2882A87C1F498219802A0BD278
:10AB3000401832463946FDF753FBA87C344680194D
:10AB4000A87427E00020F8BD8022121AD4B2401861
:10AB500022463946FDF744FB381900908020A8743E
:10AB600028460DF0DDFB002812D113E0301BC7B2E0
:10AB7000802F00D380273A460B480099FDF730FB21
:10AB8000E019C4B20098C0190090802F04D0AF74AF
:10AB9000B442EBD32046F8BD8020A87428460DF0BF
:10ABA000BFFB0028F4D1F5E7BC210020F7B5A8B021
:10ABB0000E460024FFF7D2FE02F0D2FE0746002523
:10ABC00042E06946284602F085FE00283AD02898DF
:10ABD000844235D1019808AF010E2A98315401986A
:10ABE0002A9C000C641C30550198641C000A3055E6
:10ABF000641C0198305568460089641C000A305571
:10AC000068460089641C305539462846641C02F0A9
:10AC100075FE3846FDF716FB401C85B27F20001BF1
:10AC200080B2854200D90546002078553555641C10
:10AC300030192A463946FDF7D3FA60192BB0F0BD1A
:10AC4000641CA4B26D1CADB2BD42BAD32A98F5E71C
:10AC5000F7B5AAB00020009001200F460190FFF741
:10AC60007DFE02F07DFE050024D002AE00241FE030
:10AC7000A0B222A902F02EFE002818D0A0B202A98C
:10AC800002F03CFE002005E02A99325C095C8A4211
:10AC90000DD1401CB842F7D32C9800280DD0019854
:10ACA00000280AD0A0B202F0F7FD00200190641C39
:10ACB000AC42DDD300982DB0F0BD01213046FFF746
:10ACC00063FE002805D081890122C9011204891878
:10ACD0000091FFF70FFEEDE770B5A8B00646FFF74D
:10ACE0003DFE02F03DFE050014D0002410E0A0B2AD
:10ACF00020A902F0EFFD002809D0A0B2694602F0B9
:10AD0000FDFD31466846FDF7A4FA002805D0641C15
:10AD1000AC42ECD3002028B070BD0120FBE700005E
:10AD200010B518210348FDF782FAFFF791FB02F0F6
:10AD300061FE10BDA421002070B50D460446C10976
:10AD40001646042000F0BCF8002807D0132080032A
:10AD500020183246294601F097FA70BDFF22802163
:10AD60002846FDF75DFA70BD70B504460D462146D4
:10AD7000002000F0A5F8002805D0E0018022294637
:10AD800001F082FA70BDFF2280212846FDF748FAC3
:10AD900070BD000070B504460D462146012000F04C
:10ADA0008FF8002808D0074880220069294600193A
:10ADB000C00101F069FA70BDFF2280212846FDF72D
:10ADC0002FFA70BDF420002010B501F05DFA10BD1F
:10ADD00070B504460D462146022000F071F80028A7
:10ADE00008D007488022406929460019C00101F0B7
:10ADF0004BFA70BDFF2280212846FDF711FA70BD85
:10AE0000F420002070B50E460446C109A0B01546D6
:10AE1000042000F055F800280BD02A463146684639
:10AE2000FDF7DEF91320800320182A46694601F059
:10AE300048FA20B070BD70B504460D46214600208A
:10AE400000F03EF8002804D0E0018022294601F0FD
:10AE500038FA70BD70B504460D462146012000F059
:10AE60002FF8002807D004488022006929460019DD
:10AE7000C00101F026FA70BDF420002030B5A1B069
:10AE8000054614466846FDF7ABF922466946284652
:10AE900001F017FA21B030BD70B504460D462146C9
:10AEA000022000F00DF8002807D0044880224069F5
:10AEB00029460019C00101F004FA70BDF4200020F9
:10AEC00010B5030005F031FC0504070A0D10210040
:10AED00004290DD219E0FC290AD216E0FF2907D86F
:10AEE00013E00F20C00101E00120400281420CD399
:10AEF00000F090FE002801D0002000E0012000F0CA
:10AF00000EF803F023FD002010BD012010BD132119
:10AF1000890310B54018032101F0BDF910BD70B5CB
:10AF2000054600F014F80446284600F003F800191E
:10AF300080B270BD014610B50020002906D0132153
:10AF400010248903204606F0CBFC204610BD10B526
:10AF50004C240021204606F0C3FC204610BD000012
:10AF600070B504460D4621460320FFF7A9FF0028CF
:10AF700008D007488022806929460019C00101F0E5
:10AF800083F970BDFF2280212846FDF749F970BD85
:10AF9000F420002070B504460D4621460320FFF73B
:10AFA0008FFF002807D004488022806929460019B5
:10AFB000C00101F086F970BDF4200020FFB585B016
:10AFC0005A480024009026460698FDF73BF9C0B287
:10AFD0000490069802900798002703903D46019739
:10AFE0000298FDF72FF9C1B212E00298405D2038B7
:10AFF0005E2803D87F1C6D1CFFB2EDB20298405D45
:10B00000C00905D00198401CC0B2ED1CEDB2019002
:10B010008D42EAD30398102803D0082806D00025D3
:10B0200070E00198F9000001081800E0F800C5B2CE
:10B0300068E00698405C0246203A5E2A44D80799A8
:10B04000102902D0082928D017E01021009A08F012
:10B05000E1FC0898012813D0E0003101411805985F
:10B0600008220F1838460099FDF7BAF800993846BB
:10B07000803008220831FDF7B3F8641CE4B241E0E7
:10B080008020401B4010E100401831014118059814
:10B090000818074608220099E6E70821009A08F0F8
:10B0A00065FC0898012806D00620059960434018E1
:10B0B00006220099DFE78020401B411006206043F4
:10B0C000091805980818F3E7C00921D00698009AD6
:10B0D0000818202108F0EAFC089801281DD0E0009B
:10B0E0003101411805981022081807460099FDF70C
:10B0F00077F800993846803010221031FDF770F84B
:10B10000761CF6B27000301801190498814290D371
:10B11000802D08D8284609B0F0BD8020401B401083
:10B12000E1004018DCE7FF20F5E70000B82B002025
:10B130000348C16B002901D00021C16370470000A2
:10B140004061004010B50021132009F027FA642067
:10B15000FDF707FE0121132009F020FA10BD0000C1
:10B1600010B52F4802240460001D04600121204610
:10B1700009F014FA2A480C300460001D0460001D18
:10B1800004600121062009F009FA0121072009F0D5
:10B1900005FA2348203004600021092009F0FEF957
:10B1A0001F4828300460032211460B2009F0E8F9FB
:10B1B0001B4830300460001D0460001D0460001D49
:10B1C000046000220221102009F0DAF9144844300A
:10B1D000046003220021122009F0D2F9012113207A
:10B1E00009F0DCF903221146152009F0C9F9012103
:10B1F000162009F0D3F90A485C300460084864302E
:10B20000046007486C300460001D0460001D046089
:10B21000001D046000211F2009F0C0F910BD0000CE
:10B220000007005001200449C007486003210620A0
:10B2300033DF06202EDF70470063004010B500F0BA
:10B240000FFA03F069FC10BD10B50021142009F0BD
:10B25000A5F91E49002008721D4902200860091D39
:10B260000860091D08601A4910310860091D08604E
:10B27000091D0860091D0860091D0860091D086096
:10B28000091D0860091D0860091D0860091D086086
:10B29000091D0860091D0860091D0860091D086076
:10B2A0000B4958310860091D0860091D0860091D17
:10B2B0000860091D0860091D0860091D0860091D56
:10B2C0000860091D0860091D086010BD30240020B9
:10B2D0000007005010B50121142009F05FF9024960
:10B2E0000120087210BD0000302400201CB5044964
:10B2F000086A496A0090019168460EF0B1FE1CBDD3
:10B3000020C2020001490220086070473C0700503B
:10B3100010B501210F2009F041F910BD1CB500281E
:10B3200012D0012810D10949094C086949690191D5
:10B330000090207D002807D068460EF015FF002001
:10B3400020750120FDF70DFD1CBD000020C202008C
:10B35000302400201CB5002811D001280FD1084945
:10B36000084C8868C96801910090207D002806D1AA
:10B3700068460EF011FF01202075FDF7F2FC1CBDA0
:10B3800020C202003024002000B587B0002819D068
:10B390000D49002203C90490CD20C00405910290FC
:10B3A000182000901A20019003206946087304A811
:10B3B0000EF026FF04A80EF0EFFE044901200875E8
:10B3C000FDF7CFFC07B000BD20C2020030240020F2
:10B3D0001CB504498869C9690090019168460EF05E
:10B3E0003FFE1CBD20C2020010B5002801D0012183
:10B3F00000E00021092009F0D1F810BD10B5174870
:10B400009AB000681890062430216846FCF70FFFB8
:10B410006846C4700121018218A8059030210CA84B
:10B42000FCF705FF022108A801740CA968460DF07D
:10B4300025FA002804D0FF2109A288310DF070F808
:10B4400005F04CFE0A4873DF002804D0FF2104A257
:10B45000CC310DF065F81AB010BD000048C20200F2
:10B460002E2E5C736F757263655C68616C2E630071
:10B4700090230020F0B5A5B0164CFEF763FB2546DF
:10B480004035E87F002823D013486F46C17DC67E33
:10B49000837E427E4EC7837D2038828E0FA104A812
:10B4A00005F018F9C6B2B81911A105F013F9801901
:10B4B000C0B2381819A105F00DF904A804F018F865
:10B4C0000020A877FDF76EFEE08A02210843E082A3
:10B4D00025B0F0BDAC270020D024002025642D2508
:10B4E000642D25642C2025643A25643A25642000C7
:10B4F0005B48414C5D20646973636F6E6E65637475
:10B5000020424C4520666F72206120666173742072
:10B51000636F6E6E656374696F6E00000D0A0000E4
:10B5200010B5FFF7D7FE03F0D5FF05F043FEFFF798
:10B5300017FE0022104910460FF0AEFC0F49012003
:10B54000C874FFF721FF04F01FFF01F08DFD00F02C
:10B55000BFFE02F033FFFFF765FE02F0F9FCFDF7D6
:10B56000DBFC03F07DFA00F0A9FA4B20C000FDF7E8
:10B57000F8FB03F029FB10BDF1AC020030240020E1
:10B5800070B5A6B0254CFEF7DDFA054601F0F6FBD6
:10B5900000280AD126464036F07F00283CD12048BA
:10B5A000204A41688918A94202D9002026B070BDFE
:10B5B0004560C82168460182FF2141314182042152
:10B5C00081824B21C900C18204A80DF005FA002830
:10B5D00022D10120F07712486E46A030C17DC57E91
:10B5E000837E427E2EC6837D2038828E0EA106A8E1
:10B5F00005F070F8C5B206AE701910A105F06AF832
:10B600004019C0B2301815A105F064F806A803F07F
:10B610006FFF20465C3062DF0120C7E7AC270020C7
:10B62000302400201027000025642D25642D25647A
:10B630002C2025643A25643A256420005B48414C5F
:10B640005D20636F6E6E656374696F6E20706172EA
:10B65000616D7320534C4F57000000000D0A00002D
:10B66000F0B55248504E0069A5B00025400DC00706
:10B67000C00F00D001253078A84271D0FEF762FAE1
:10B6800004903570A90089190498494C4860E07D00
:10B69000E37EA27E617E6F460FC72746203FA37DD3
:10B6A000BA8E44A105A805F015F8C1B205A8401846
:10B6B00000912B4644A1049A05F00CF8009940181B
:10B6C000C0B205A908184AA105F004F805A803F0BE
:10B6D0000FFF02F065FE3078002860D10498F0601A
:10B6E00000F098FA00285AD0E07DE37EA27E617EC9
:10B6F0006D460FC5A37DBA8E2EA104A804F0EAFF03
:10B70000C5B204AE70193BA104F0E4FF4019C0B209
:10B71000301837A104F0DEFF04A803F0E9FE01F0C1
:10B720008BFA40490120C875FEF70CFA3E4948667D
:10B7300004F002F9002814D000210A2004F0A0FB34
:10B74000E07DE37EA27E617E6D460FC5A37DBA8E4D
:10B7500018A104A804F0BEFFC4B2281933A113E055
:10B7600020E00021072004F08BFBE07DE37EA27E39
:10B77000617E6D460FC5A37DBA8E0EA104A804F0AC
:10B78000A9FFC4B2281933A104F0A4FF0019C0B264
:10B79000281817A104F09EFF04A803F0A9FE0120B9
:10B7A00025B0F0BD0020FBE7A02B002000050050D5
:10B7B000D024002025642D25642D25642C202564AB
:10B7C0003A25643A256420005B484F4D454B455966
:10B7D0005D202D2D2D20425554544F4E2045766529
:10B7E0006E742061742025642D2D2D282564290078
:10B7F0000D0A00005B544F5543485D202D2D2D2D23
:10B800002D2D2D2D2D2D2D2D205455524E204F4EAA
:10B810002053435245454E202D2D2D2D2D2D2D2DC0
:10B8200000000000102A0020B02700205B4B455983
:10B830005D207365742055493A20627574746F6E8B
:10B8400020636C69636B65642028676C616E636557
:10B85000290000005B4B45595D20736574205549F4
:10B860003A20627574746F6E20636C69636B6564F3
:10B87000202873656E73696E67290000F0B5A7B064
:10B88000664800907D20400106906548624D1B236C
:10B890006A782978064604465B018036A034C718CA
:10B8A0008A4238D1002938D100F0B4F9002830D0CC
:10B8B000FEF748F96968401A06990490884228D32F
:10B8C000E87C401CE8740120B8750920F875E37E17
:10B8D000A27E617EE07D03936B4607C3A37DB28E9B
:10B8E00050A107A804F0F6FEC4B20698009007AD78
:10B8F000281951A1049B059A04F0ECFE0019C0B26E
:10B90000281857A104F0E6FE07A803F0F1FDFEF7A2
:10B91000D9F927B0F0BD002932D0A8680599091AD5
:10B920000A29F6D36968401A297C00296ED000994B
:10B9300088426BD200202874687C401C6874012007
:10B94000B8750720F875E37EA27E617EE07D0393E3
:10B950006B4607C3A37DB28E32A104A804F0BAFEE1
:10B96000C4B204AD28193FA104F0B4FE0019C0B25E
:10B9700028183BA104F0AEFE04A803F0B9FDC8E707
:10B98000FEF7E0F86968401A04900A28C1D30099CC
:10B99000884239D3002068702874A87C401CA874A1
:10B9A0000120B8750820F875E37EA27E617EE07DF7
:10B9B00003936B4607C3A37DB28E1AA106A804F0B9
:10B9C00089FEC4B2FEF7BEF86968009106AD019029
:10B9D00028192DA1059B049A04F07CFE0019C0B221
:10B9E00028181FA104F076FE06A803F081FD0C487C
:10B9F000007A002805D0FF2109482D31C03041834D
:10BA000087E702F0BFFF84E7012002E001206870B1
:10BA1000002028747DE70000A02B0020DC0500003A
:10BA20003024002025642D25642D25642C202564D8
:10BA30003A25643A256420005B484F4D454B4559F3
:10BA40005D202B2B2B20627574746F6E2028534F52
:10BA500053292C2025642C2025642C2025640000EB
:10BA60000D0A00005B484F4D454B45595D202B2B7F
:10BA70002B20627574746F6E2073696E676C65201D
:10BA8000636C69636B0000005B484F4D454B455943
:10BA90005D202B2B2B20627574746F6E2070726585
:10BAA000737320616E6420686F6C643A2025642C87
:10BAB0002025642C2025642C2025640070B50948BD
:10BAC000074D00690024400DC007C00F00D00124BD
:10BAD0006C702C70FEF736F8A1004919486070BDF3
:10BAE000A02B002000050050F1B52C4C82B025465B
:10BAF000E035687C2874FF20FF21013005310059B2
:10BB00000959274A274BFCF7CFFB22468032D167E1
:10BB10009067287CFCF784FD0F4606460022224BE6
:10BB2000FCF7C2FB02460B4630463946FCF7D6FC12
:10BB3000E21DF932D160906006460F46287C0299DA
:10BB40000090081AFCF758FD32463B46FCF75EFCB5
:10BB500006460F460098FCF763FD32463B46FCF76D
:10BB6000A3FB0022114BFCF79FFBFCF78BFD6874D5
:10BB7000E01DF930C368826800200D49FCF738FCED
:10BB8000F822FC2312591B59FCF740FCFF2201321A
:10BB90001051A4186160687CFEBD0000402A00209E
:10BBA0002D431CEBE2363A3F000070400000E03FBE
:10BBB0000000F03F41780078090208437047C178DF
:10BBC0000A02817811430A02417800781143090280
:10BBD0000843704710B5074C0020FFF798F9012083
:10BBE0000003FFF794F90020207620606060A060D9
:10BBF00010BD00008427002010B5054C0C22214602
:10BC00000020FFF799F80020E0752076A07510BDA0
:10BC10008427002004480549808A884201D10120F8
:10BC2000704700207047000070270020A57F0000AB
:10BC30000148007A7047000090270020F0B585B0D9
:10BC4000FA4CFDF77FFF0546022002F091FEF8480E
:10BC5000217E03466E3B039018460A300290163050
:10BC600001901B22F3485201861803221202871802
:10BC70001846403000900B0004F057FD110A2B5677
:10BC80007484BDCEFAF9F8F7F6F5F4F3F2F1F500A5
:10BC9000E848807A810607D5E748C560012020760C
:10BCA0002020607505B0F0BD410605D5E248C560AD
:10BCB0000520207640200AE0800707D5DE48DF49CE
:10BCC000C56001610D202076022000E00020707226
:10BCD000E8E701203072D84EFF207D663070D448EE
:10BCE000F5606E3802F0EEFCD148D5495A387061E3
:10BCF00004F0F0FCCE490A226E3908466430FCF7A5
:10BD00006FFA0621039807F025FCC9492C200A394F
:10BD1000887209F065FAC64A0A3A11460846143094
:10BD2000FDF7FCF9022006E1C149C34855394161DC
:10BD3000084610224B3004F0AFFCBD480A220A38F6
:10BD40000299FCF74DFA0621039807F003FCB84965
:10BD50002C200A39887208460A461430FDF7DEF9AD
:10BD60000320E8E001992C204876B149B24D3439DE
:10BD7000084610222A30696104F08EFC04202076E7
:10BD8000002076E1022002F0C9FC002826D005F050
:10BD90003BFC0021ABA0FEF7F7FDA54907465A2260
:10BDA0006E39FEF7B5FE3846FEF7A4FD022002F01C
:10BDB000DFFD0020A04920768D609E4A0870937AAE
:10BDC000DF252B4093728880707A202880D1012053
:10BDD000A075801EE060FDF701FF63E79649888843
:10BDE000421C8A807D21C9008842F6D90B2020762A
:10BDF0000E20E07556E7012030728E487D66807A0D
:10BE00004006EAD50620207600218B48FF2281706B
:10BE100042708180C56045E7022002F07FFC002867
:10BE20004ED0854E0025B5808BA0FEF755FF01282A
:10BE300008D00B20207675700320E075022002F0F8
:10BE400097FD2FE7012184A0FEF79EFD054640687F
:10BE5000622828460DD0FEF74DFD04201AE04BE184
:10BE60003EE121E107E151E1BDE075E065E04BE035
:10BE700033E06F4962226E39FEF7FCFD2846FEF77B
:10BE800039FD019800782C2803D1009840782C289F
:10BE900004D00520E0750B202076CFE764492022EE
:10BEA0000A390846643804F091FB09F099F9604AB0
:10BEB0000A3A114608461430FDF718F90720EBE757
:10BEC0005D488188491C89B281807D20C000814203
:10BED00090D90B2020760F208BE755486E3801460D
:10BEE00064312EC92EC0014620225431113004F095
:10BEF0006DFB09F075F94E4A0A3A114608461430AE
:10BF0000FDF7F4F8082016E0494910220A39029892
:10BF1000FCF766F9464920220A390846223804F01F
:10BF200055FB09F05DF9424A0A3A114608461430B9
:10BF3000FDF7DCF809202076B4E63D486E3801466E
:10BF400064312EC920302EC00A20207603F094FAE6
:10BF5000012001F07BF8A5E6354814216E380BF07E
:10BF600089FC334E2C206E3E307515252020315C27
:10BF70002C2906D071556D1C401CC0B2EDB22D2885
:10BF8000F5D32D48C580009802F09CFB2848142268
:10BF90006E380099FCF778F90004000C05D02748AA
:10BFA000B8650920E0750B20C5E700200127224B6A
:10BFB0006D1EE9B218610EE0725C303A0B2A04D3B0
:10BFC0000A21E1750B21217607E07A4310180A2235
:10BFD0005743491EC9B21529EED21861207E0B289D
:10BFE000AAD00D20A7E7144D00262E706E700220F7
:10BFF00002F094FB002804D1A8887D21C900884262
:10C0000036D9022002F0B4FC0A492676887A9D22AD
:10C01000104088722E706E70AE800420A075401F94
:10C02000E060FDF7DBFD05F0EFFA3BE6842700203A
:10C03000162400203024002014200020FFFFFF7F62
:10C040004CC2020073656375726974795F646576CA
:10C050006963652E747874007365637572697479A9
:10C060005F736572766963652E74787400000000F2
:10C07000401CA88016E60120307226487D66806A42
:10C08000F865254825490069B8652548BD228182A3
:10C090002449C1821F490E2020768039887A1040B9
:10C0A000887203F0EDF9FDE50F202076707A4028C4
:10C0B0000ED0022812D00420A075B86DE060FDF704
:10C0C0008DFDFDF73FFD1449C86000203072E9E5A1
:10C0D0000220A075104900204870EEE70320EBE72E
:10C0E0000020FEF714FF0C2221460020FEF78AFEF6
:10C0F000102030737D66D5E50B49786E4018A84254
:10C1000093D202F03FFC00203073CBE50B20207669
:10C1100011206EE6B024002014200020A57F00002E
:10C1200070270020341200008813000010B5312061
:10C1300008F086F90148407810BD0000C2310020A7
:10C1400010B5392008F07CF90148407810BD000096
:10C15000C231002010B5472120200AF0EDFC01205B
:10C16000FCF7FFFD092121200AF0E6FC40212220F6
:10C170000AF0E2FC002123200AF0DEFC4821242002
:10C180000AF0DAFC082132200AF0D6FC0121332023
:10C190000AF0D2FC262008F053F92A2130200AF0B8
:10C1A000CBFC312008F04CF9002010BD10B500F098
:10C1B0000DF810BD10B52F2008F042F90248407864
:10C1C000C006C00E10BD0000C231002010B5214CC9
:10C1D0006078002813D03F2138200AF0ADFC3021D0
:10C1E0003A200AF0A9FC10213B200AF0A5FC0A2104
:10C1F0003C200AF0A1FC20213D200AF09DFC0021FA
:10C2000032200AF099FC002133200AF095FC4721E6
:10C2100020200AF091FC002121200AF08DFC60789A
:10C22000002801D0842100E0042122200AF084FCAF
:10C23000182123200AF080FC482124200AF07CFCED
:10C2400099212E200AF078FC002125200AF074FCA8
:10C25000002010BD3025002010B50446282008F02D
:10C260008FF8062202492046FBF7BAFF10BD0000F6
:10C27000C331002010B50F2008F0E2F801484078E3
:10C2800010BD0000C2310020134610B50A46194601
:10C2900000F04CF910BD10B5032905D0022907D0D4
:10C2A000012908D0002909D000F078F8002010BD3D
:10C2B00000F040F8FAE700F0A5F8F7E700F00CF816
:10C2C000F4E7134610B50A46194600F0E5F810BD2C
:10C2D00010B500F0CBF810BD30B5134D0024287810
:10C2E00085B0002802D02C7000F0A4F900F0BAF953
:10C2F0000E49C720087016200D49002301910490B3
:10C300000294039401220094084918460FF004F99E
:10C310000BF028FE2878002803D10120287000F0B7
:10C32000EDF805B030BD00002C200020B831002011
:10C33000C231002070B5164E04463078002586B014
:10C34000002802D0357000F075F900F08BF9114823
:10C3500052210170210C4170210A8170C470162095
:10C360000D49002301910490029503950422009544
:10C37000084918460FF0D0F80BF0F4FD307800288B
:10C3800003D10120307000F0B9F806B070BD000094
:10C390002C200020B8310020C231002070B5164E8C
:10C3A00004463078002586B0002802D0357000F0B1
:10C3B00041F900F057F9114820210170210C41701A
:10C3C000210A8170C47016200D4900230191049048
:10C3D0000295039504220095084918460FF09CF831
:10C3E0000BF0C0FD3078002803D10120307000F040
:10C3F00085F806B070BD00002C200020B831002068
:10C40000C231002070B5164E04463078002586B043
:10C41000002802D0357000F00DF900F023F9114822
:10C42000D8210170210C4170210A8170C47016203E
:10C430000D49002301910490029503950422009573
:10C44000084918460FF068F80BF08CFD307800288A
:10C4500003D10120307000F051F806B070BD00002B
:10C460002C200020B8310020C23100200EB500F091
:10C4700045F8074901200870684600F087F86946CA
:10C4800004480978C1746946497801750EBD0000F9
:10C490002C20002050240020F7B50F46164E0446ED
:10C4A000C51930786D1E002803D00020307000F0D0
:10C4B000C1F8200A290A00020902884203D139463C
:10C4C0002046029A0DE0FF21201A01310D1AA9B26F
:10C4D0002046029A09F0E4FA029A791B601952196F
:10C4E00089B209F0DDFA3078002803D101203070DC
:10C4F00000F004F8FEBD00002C20002000B5094922
:10C5000085B0B920087000201621074A01920491D5
:10C510000290039003460090012202490EF0FCFFB6
:10C5200005B000BDB8310020C2310020F7B5154D6F
:10C5300004462878002686B00F46002802D02E70C8
:10C5400000F078F8104803210170210C4170210A95
:10C550008170C4700898042201AC85C416210023A0
:10C5600004910096084918460EF0D6FF0EF00EFD15
:10C570002878002803D101202870FFF7BFFF09B0F9
:10C58000F0BD00002C200020B8310020F0B5174D80
:10C5900006462878002485B0002802D02C7000F0D0
:10C5A00049F81349902008704C708C70CC700C7155
:10C5B0004C71162006210F4F002303910490029422
:10C5C0000122019700940A4918460EF0A5FF0EF0CB
:10C5D000DDFC38793070787970702878002803D1C4
:10C5E00001202870FFF78AFF05B0F0BD2C20002045
:10C5F000B8310020C231002010B50C4886B00521AA
:10C600000170AA214170002016210222084C0491D9
:10C610000290034601940392009004490EF07CFFBF
:10C620000EF0B4FC607806B010BD0000B8310020F8
:10C63000C231002000B5094985B0AB200870002048
:10C640001621074A0192049102900390034600903C
:10C65000012202490EF060FF05B000BDB831002094
:10C66000C231002010B50E480024017886B00029A0
:10C6700002D00470FFF7DEFF0A490620087016207A
:10C68000094900230191049002940394012200942B
:10C69000044918460EF040FF0BF064FC06B010BDD4
:10C6A0002C200020B8310020C231002010B50846EF
:10C6B000024904F00FF8C0B210BD00008012030060
:10C6C00010B50A46002809D0012809D002280CD04C
:10C6D00003280CD0042807D106A102E008A100E03D
:10C6E00009A1104603F0F6FF10BD09A1F9E70AA160
:10C6F000F7E70000CEB4BDD3C0B4B5E7000000003A
:10C70000BEA9B6AB00000000636C696E6700000054
:10C71000B6CCD0C500000000CEA2D0C500000000FD
:10C7200005207047F0B5A5B016460D46040007D0A9
:10C73000012C01D0022801D100F08AF925B0F0BD0A
:10C74000084600F08FF81148C77E837E427EC17D87
:10C7500003976F460EC7837D2038828E0CA104A8F4
:10C7600003F0B8FF0094C7B204ACE01933462A4680
:10C770000CA103F0AFFFC019C0B2201812A103F042
:10C78000A9FF04A802F0B4FED8E70000D0240020DE
:10C7900025642D25642D25642C2025643A25643AD2
:10C7A000256420004E4F5449464943202D20534DC7
:10C7B0004152542050484F4E4520402025642C20A3
:10C7C00025642C20256400000D0A000030B5A5B0BA
:10C7D00014480021C172032141730121124CC1731D
:10C7E000E07DE37EA27E617E6D460FC52046203847
:10C7F000828EA37D0DA104A803F06CFFA37E627E50
:10C80000C5B204AC60190EA103F064FF4019C0B2B8
:10C81000201813A103F05EFF04A802F069FE25B002
:10C8200030BD0000902B0020D024002025642D2551
:10C83000642D25642C2025643A25643A2564200063
:10C840004E4F5449464943202D2049444C452041F0
:10C850004C45525420402025643A256400000000D5
:10C860000D0A000010B508490022CA7201220128F1
:10C8700007D04A738873CA730449002003F012FB7F
:10C8800010BD0F234B73F5E7902B0020B80B000071
:10C89000F0B5A5B0FDF756F94A4C0546E07B0028F7
:10C8A00001D001F07DFD484807231B02E77B0146CC
:10C8B000C61800228031A0303B0003F036FF061F6F
:10C8C0000419212F5F1F0223E3732273C27DC67EEA
:10C8D000857E437E6F466CC7837D8A8E3BA104A80C
:10C8E00003F0F8FE627BC5B204AC60193CA165E0C0
:10C8F00001207566FEF778FD0320E07325B0F0BDDA
:10C90000706E6430A842F9D20020FEF76DFD04205D
:10C91000E0737566E07A401CE072EFE7726EFF32FA
:10C920009132AA42EAD2E27A032A06D30520E073C2
:10C93000207B401C20737566E0E70222E273C77E0D
:10C94000867E437EC27D03976F464CC7837D8A8E69
:10C950001EA104A803F0BEFEE27AC6B204ACA01980
:10C960002B4627A103F0B6FE8019C0B220182DA1D6
:10C9700003F0B0FE04A802F0BBFDBFE7736E7D2696
:10C9800036019B19AB42B9D2237B657BAB4201D305
:10C99000E273B3E70223E373E272C27DC67E857E53
:10C9A000437E6F466CC7837D8A8E08A104A803F07E
:10C9B00091FE227BC5B204AC60191BA103F08AFE74
:10C9C0004019D2E7902B00203024002025642D252B
:10C9D000642D25642C2025643A25643A25642000C2
:10C9E0005B4E4F54494649435D207365636F6E64E7
:10C9F000206E6F746966206D61783A2025642C0082
:10CA00005B4E4F54494649435D20766962726174BA
:10CA10006F72207265706561742C2025642C20254E
:10CA2000640000000D0A00005B4E4F544946494324
:10CA30005D204E6F74696679207365636F6E642044
:10CA400072656D696E646572202D2025640000009A
:10CA500030B51248A5B0C17DC47E837E427E6D464E
:10CA60001EC5837D2038828E0DA104A803F032FEFE
:10CA7000C4B228190FA103F02DFE0019C0B2281866
:10CA800013A103F027FE04A802F032FD1149002093
:10CA9000C873FEF7A9FC25B030BD0000D0240020EB
:10CAA00025642D25642D25642C2025643A25643ABF
:10CAB000256420005B4E4F54494649435D20537422
:10CAC0006F70206E6F74696679696E670000000090
:10CAD0000D0A0000902B00208307FF22DB0E9A40F6
:10CAE0008907090E994000280BDA0007000F083863
:10CAF000830808489B001818C36993430B43C3611C
:10CB00007047830804489B001B181868904308432B
:10CB10001860704700ED00E000E400E070B50546E5
:10CB200000242046B030C0B20AF020F810200AF0ED
:10CB30001DF800200AF01AF81F200DF02BFC2946E2
:10CB4000802009F0E1FF641CE4B28035042CE8D3B6
:10CB500070BD10B50446AE200AF008F8D5200AF0E2
:10CB600005F8C1200AF002F8A82009F0FFFF1F20F5
:10CB700009F0FCFFAD2009F0F9FF002009F0F6FFF5
:10CB8000202009F0F3FF022009F0F0FFD32009F084
:10CB9000EDFF002009F0EAFF402009F0E7FF8D20BB
:10CBA00009F0E4FF8D2009F0E1FF142009F0DEFF19
:10CBB000A02009F0DBFFC82009F0D8FFDA2009F037
:10CBC000D5FF122009F0D2FF204600F019F8D92035
:10CBD00009F0CCFF222009F0C9FFDB2009F0C6FFD5
:10CBE000002009F0C3FFA42009F0C0FFA62009F02F
:10CBF000BDFF10BD01498020C8607047000500508E
:10CC000010B50446812009F0B1FF204609F0AEFFBF
:10CC100010BD10B5002801D0AF2000E0AE2009F013
:10CC2000A5FF10BD034806210171024900201C39EF
:10CC3000C87270472C2A002030B5A5B0164CFCF7FE
:10CC4000A7FB002802D00120FCF708FB2079002870
:10CC500002D0002025B030BD012020710F486D4664
:10CC6000C17DC47E837E427E1EC5837D2038828E38
:10CC70000BA104A803F02EFDC4B228190DA103F0E6
:10CC800029FD0019C0B2281811A103F023FD04A842
:10CC900002F02EFC0120DDE72C2A0020D024002009
:10CCA00025642D25642D25642C2025643A25643ABD
:10CCB000256420005B4F4C45445D2070616E656CBF
:10CCC000206973207475726E6564206F6E000000B9
:10CCD0000D0A000070B5264CFCF734FF054620799C
:10CCE000002801D001F05CFB20790126030003F04D
:10CCF0001CFD0835050D1C21352B3635FCF722FFB0
:10CD0000206007200DF046FB022026E02068281A4C
:10CD1000672823D917498020C8600220FCF721F832
:10CD200007200DF037FB032017E0CC20FFF711FFA1
:10CD3000042012E00E4D1C3DEE72FCF703FF0E497D
:10CD4000C8656E75052008E00020FFF762FFFFF759
:10CD500051FFFCF7F7FE20600720207170BDFCF743
:10CD6000F1FE2168401A6728F8D90020F5E7000095
:10CD70002C2A002000050050B02700200248007A2D
:10CD8000002800D001207047302A0020F0B5A5B05F
:10CD900027A0FDF7A1FF00282AD0294C6D46E07D91
:10CDA000E37EA27E617E0FC52646203EA37DB28E25
:10CDB00024A104A803F08EFCC5B204AF781926A103
:10CDC00003F088FC4019C0B238182AA103F082FC95
:10CDD00004A802F08DFB28A0FDF77EFF012809D0F2
:10CDE00027A0FDF779FF012802D027A0FDF774FFE7
:10CDF00025B0F0BDE07DE37EA27E617E6D460FC56D
:10CE0000A37DB28E0FA104A803F064FCC4B228195C
:10CE10001FA103F05FFC0019C0B2281815A103F090
:10CE200059FC04A802F064FB09F0D8FFE0E7000019
:10CE30006F74615F73746172742E74787400000093
:10CE4000D024002025642D25642D25642C20256404
:10CE50003A25643A256420005B4D41494E5D2066C9
:10CE60006F756E643A206F74615F73746172742EB3
:10CE7000747874000D0A00006170702E62696E0093
:10CE800073642E62696E000063792E62696E000021
:10CE90005B4D41494E5D20666F756E643A2061704E
:10CEA000702E62696E00000010B5064900280872F5
:10CEB00007D00548007C5A2803D90021072002F03A
:10CEC000F1FF10BD302A00203024002010B55D2174
:10CED00009010E48FBF7ABF90C49322048600C49B8
:10CEE000642008800220E031087307208031087137
:10CEF000084A0021117406490822A039CA70087036
:10CF0000024805498030416610BD0000E82B002032
:10CF1000682F002028310020CCCC0000004870474A
:10CF2000E82B00200148C07870470000C82E002080
:10CF3000F7B5414C86B020684049401C2060096E1E
:10CF40000026401AFF21F5313D4F884203D90020C9
:10CF5000387204F033FB38483A49083001900091A8
:10CF600006A80EC802A808F0B5F802AB07CB6834D3
:10CF700007C4314D00237435743C04F09DFB69688F
:10CF800000290FD029686960401AC010081828606D
:10CF900005F0EAF8002807D000200226387204F0D5
:10CFA0000DFB0AE06860F2E7234861688030808FFB
:10CFB000884202D9304609B0F0BD08F04DFC06ABFE
:10CFC00007CB03F039FD1D489838014620310EC9C2
:10CFD0000EC00AF079F91C4D00280ED006AF07CF1D
:10CFE000012304F0BBFA15480121A038017509F0AE
:10CFF00013FC2868401C286004E006AF07CF00231C
:10D0000004F0ACFA08F0CEFB00280ED00C48A03893
:10D010008178002909D1C0780326002802D06868E9
:10D02000401C6860012000F011F806AD07CDE36FE9
:10D030000AF0BEFBBEE70000E82B0020682D0020B0
:10D04000682F002096C202003020002003490028EB
:10D0500001D0034800E0034888607047302000207A
:10D06000C0390600300B01003EB5AA2168460170A8
:10D07000BB210171CC210172124C6A4601210020B2
:10D080000DF072FA012101AA08460DF06DFA02AA0C
:10D09000012102200DF068FA0DF0D8F9FCF7BAFC76
:10D0A0000020207446206074E074FCF74BFD606043
:10D0B00000202A212218401CC0B211770828F9D379
:10D0C0003EBD0000402A00200C48C17840785A2913
:10D0D00001D25A2811D3884207D9421AD2B20A2A59
:10D0E0000BD35007400F081806E00A1AD2B2102AD4
:10D0F00003D35007400F081AC0B27047502A0020CF
:10D10000F0B5584D584E287CF76BA5B0002813D0C9
:10D11000022813D034462034032816D0042812D114
:10D1200001F098FD00280ED02868381A009007F00A
:10D1300091FD002837D133E0042091E003202F60D7
:10D1400028740DF003FA25B0F0BD01F029F9287A12
:10D150000028F8D00020287228683F1A022F01D931
:10D1600008F07EFE192FEED90DF070F90420287416
:10D17000E37EA27E617EE07D03936B4607C3A37DC1
:10D18000B28E3AA104A803F0A5FAC4B2354804ADA2
:10D190003038037A28193A4639A103F09BFA19E08E
:10D1A0002078002820D000980128CCD902202874AB
:10D1B000E07DE37EA27E617E6F460FC7A37DB28EC7
:10D1C0002AA104A803F086FAC4B204AD281936A136
:10D1D00003F080FA0019C0B228183AA103F07AFAD5
:10D1E00004A802F085F9AEE737484B21007EC9005C
:10D1F000022803D0032801D0042801D1F06E810A4F
:10D20000009888429FD318486038007F00289AD041
:10D21000FCF798FC14492D4A8039896B89188142A2
:10D2200091D8E37EA27E617EE07D03936B4607C3C7
:10D23000A37DB28E0DA104A803F04CFAC4B204AED3
:10D2400030193A4622A12B6803F044FA0019C0B203
:10D2500030181CA103F03EFA04A802F049F902209C
:10D26000287470E7402A0020B024002025642D2572
:10D27000642D25642C2025643A25643A2564200019
:10D280005B5050475D20505047202854494D452061
:10D290004F555429205374617465206F66662C20A5
:10D2A00025642C20256400005B5050475D205050C1
:10D2B00047205374617465206F6E2028666F726317
:10D2C000652900000D0A0000502B00208813000083
:10D2D0005B5050475D207374617274207070672CCE
:10D2E0002025642C20256400F0B50646C9B0032033
:10D2F000402229A98003FDF71FFD29A8304C069084
:10D30000E07DE37EA27E617E6D460FC52046A37D53
:10D3100020380890828E2BA109A803F0DBF9C7B250
:10D320002D4D09A8EA7FC01933462CA103F0D2F98C
:10D33000C019C0B209A9081831A103F0CBF909A896
:10D3400002F0D6F8E87F002833D0B0421ED8E07D46
:10D35000E37EA27E617E6F460FC70898A37D828E12
:10D3600018A109A803F0B6F9C4B209AFEA7F3819C9
:10D37000334624A103F0AEF90019C0B2381820A139
:10D3800003F0A8F909A802F0B3F800260699700086
:10D39000069A095C80184078182901D23C2805D3E8
:10D3A000FF206877A877002049B0F0BD6977A8779B
:10D3B00003E0FF206877A87700263046F4E70000F6
:10D3C000D024002025642D25642D25642C2025647F
:10D3D0003A25643A25642000702B00205B52454DAD
:10D3E000494E4445525D206D6178696D756D2065CB
:10D3F0006E7472793A2025642C20256400000000A8
:10D400000D0A00005B52454D494E4445525D207265
:10D410006573657420656E7472793A2025642C20DA
:10D4200025640000F0B5CDB02DAEFEF7F3FB504DF6
:10D43000002808D04F484F4CC07A603C002808D0E4
:10D44000207E042805D90020A876287668764DB07D
:10D45000F0BD4848E97F80380990002946D0032074
:10D4600040222DA98003FDF767FC00203AE03778C1
:10D4700070780C90E37EA27E617EE07D03936B4624
:10D4800007C30998A37D828E3BA10DA8B61C03F0AB
:10D4900021F9C1B207910C98019000970DA840188E
:10D4A000A37E627E39A103F015F907994018C0B236
:10D4B0000DA9081841A103F00DF90DA802F018F804
:10D4C000182F13D20C983C2810D2607EB84204D199
:10D4D000A17E0C98814230D301E0B8422DD30B9845
:10D4E000401CC0B20B90E97F8142C0D80020A876D2
:10D4F00028766876E07DE37EA27E617E6E460FC66A
:10D500000998A37D828E1CA10AA803F0E3F8C4B297
:10D510000AAE30192AA103F0DDF80019C0B23018A4
:10D5200026A103F0D7F80AA801F0E2FFE87F00285F
:10D530008DD00020FFF7D8FE89E70120A8762F764E
:10D540000C986876E07DE37EA27E617E6E460FC613
:10D550000998A37D828E08A10AA803F0BBF8C4B283
:10D560000AAE6B7E2A7E30191EA103F0B3F8D4E711
:10D57000702B00203025002025642D25642D256486
:10D580002C2025643A25643A256420005B52454DE1
:10D59000494E4445525D2063757272656E74207405
:10D5A000696D653A2025643A25642C2072656D69A1
:10D5B0006E6465723A2025643A2564000D0A000005
:10D5C0005B52454D494E4445525D204E6F206E657D
:10D5D000772072656D696E64657220697320666F6D
:10D5E000756E64005B52454D494E4445525D206660
:10D5F0006F756E642072656D696E6465723A202580
:10D60000643A256400000000F0B50327C5B0044665
:10D61000BF0324AE3846FDF77AFC20781D4D400844
:10D62000E877202802D92020E87701E0002802D0FE
:10D630000020FFF759FE4022611C3046FAF7D0FD6A
:10D64000402231463846FDF7DDFB13486E46C17D6A
:10D65000C47E837E427E1EC6837D2038828E0FA1CB
:10D6600004A803F037F8EA7FC4B204AD281910A16A
:10D6700003F030F80019C0B2281815A103F02AF8F9
:10D6800004A801F035FF034906202031087045B099
:10D69000F0BD0000702B0020D024002025642D2533
:10D6A000642D25642C2025643A25643A25642000E5
:10D6B0005B43505D2072656D696E646572207570A4
:10D6C000646174652C206C656E3A2025640000004E
:10D6D0000D0A0000F0B5A5B0FCF734FA3F4D064640
:10D6E0002878002801D000F05BFE3D4B07200002A7
:10D6F0001F181D242A781846A4011C190121A030E6
:10D70000130003F012F80705141A27573465340084
:10D71000A27E002A2BD0427E237E9A4227D3807E8F
:10D72000627E904223D329700020E0761EE0012023
:10D730007E65FDF759FE02204DE0786DC830B0429D
:10D7400015D20020FDF750FE032028707E65E07E94
:10D75000401C3BE07A6DFF329132B24207D2E27E4A
:10D76000032A06D304202870207F401C207725B090
:10D77000F0BD2970C17DC57E837E427E6F462EC777
:10D78000837D174817A18030828E04A802F0A2FF83
:10D79000E27EC5B204AC6019334617A102F09AFFCD
:10D7A0004019C0B220181DA102F094FF04A801F096
:10D7B0009FFEDCE71A4A786D8018B042D7D2207FEE
:10D7C000022801D3062006E029700020E076CEE78B
:10D7D000FFF728FE00202870C9E70000902B0020EA
:10D7E0003024002025642D25642D25642C202564FB
:10D7F0003A25643A256420005B52454D494E444524
:10D80000525D207669627261746F72207265706514
:10D8100061742C2025642C20256400000D0A000072
:10D820003075000010B50C4609F034FE024801685E
:10D830004C600121817210BD3C230020F8B5154CCD
:10D840000E460746E088012189021546884202D328
:10D850000020C043F8BD09F01DFE216800200860CB
:10D86000216848602168C87321688D8121684E81D4
:10D870002168887721682020887321687F20C877F5
:10D880000120A072206839464089FDF783FB0620FD
:10D89000205EF8BD3C23002010B50D4CE18881428C
:10D8A00015D309F0F7FD20688089002801D0FCF726
:10D8B00063FD20684089FCF75FFD2068C17F7F29F8
:10D8C00005D13F21C1770120A07200F083F810BD7F
:10D8D0003C23002010B50C4609F0DCFD0649096820
:10D8E000C87F7F2801D0002010BD20222046FAF7F3
:10D8F00077FC012010BD00003C23002010B50C4631
:10D9000009F0C8FD0348214600684089FDF728FB5F
:10D91000012010BD3C23002010B509F0BBFD0248DA
:10D920000068C07B10BD00003C23002070B50020C3
:10D930000A4C0126E0800546B602284609F0AAFDF9
:10D940002068C07FFF2806D0E0886D1C401CADB267
:10D95000E080B542F1D3E08870BD00003C23002098
:10D960000148C088704700003C23002070B5144671
:10D970000D4609F08FFD04480168898929800068F7
:10D980004068206070BD00003C23002010B50C46AC
:10D9900009F080FD024801680C810121817210BDEF
:10D9A0003C23002010B50C4609F074FD02480168C4
:10D9B0000C600121817210BD3C23002010B50C4683
:10D9C00009F068FD02480168CC730121817210BD25
:10D9D0003C23002010B5064CA07A002807D02089EF
:10D9E000214680088039FDF757FA0020A07210BD4B
:10D9F0003C23002010B507490020FDF7E9F905494F
:10DA00000846803001600021818001818172FFF72A
:10DA10008DFF10BDBC22002010B506490020086013
:10DA200048608860C86003494039086048600DF06C
:10DA300073FF10BD4011014010B5064A0121064890
:10DA40000AF02EFE002803D004A21D210AF068FD72
:10DA5000002010BD65DD01003C2000202E2E5C73EF
:10DA60006F757263655C5254432E630010B50248B3
:10DA700000F004F8002010BD8F020000F0B505464C
:10DA8000A7B00020334C04900590606CA84204D1EC
:10DA9000FCF758F8A06427B0F0BDFCF753F80690E7
:10DAA0006564FCF74FF8A06404A80AF0F1FD05AA2C
:10DAB000E16A04980AF0E6FD216C0598E26B08180B
:10DAC000A18D254E4904490C4118C80B1218C003FA
:10DAD000081AE263206430680AF0A4FE0022294696
