:020000040001F9
:10800000D03F0020558101006F8101007181010086
:108010000000000000000000000000000000000060
:10802000000000000000000000000000738101005B
:108030000000000000000000758101007781010050
:10804000798101007981010071DE010089D101008F
:10805000B5D10100000000007DAA01004D8901009A
:108060007981010079810100798101007981010024
:108070007981010079810100798101007981010014
:10808000B1E801001DCA0100798101007981010078
:10809000C5D1010019D2010031D20100798101005E
:1080A00079810100798101000000000000000000DA
:1080B00000000000000000000000000000000000C0
:1080C0000348854600F012FC00480047196A020088
:1080D000D03F0020401E00BF00BF00BF00BF00BF58
:1080E00000BF00BF00BF00BF00BF00BF00BFF1D195
:1080F00070470000401E00BF00BF00BF00BF00BFB0
:1081000000BF00BF00BF00BF00BF00BF00BFF1D174
:1081100070470000401E00BF00BF00BF00BF00BF8F
:1081200000BF00BF00BF00BF00BF00BF00BFF1D154
:1081300070470000401E00BF00BF00BF00BF00BF6F
:1081400000BF00BF00BF00BF00BF00BF00BFF1D134
:10815000704700000321094802680A43026008488A
:1081600002680A4302600748804707480047FEE765
:10817000FEE7FEE7FEE7FEE7FEE70000240500401D
:1081800054050040BDD50100C180010030B50B464B
:10819000014600202022012409E00D46D5409D42E1
:1081A00005D31D469540491B254695404019154667
:1081B000521E002DF1DC30BD70B50024254600288C
:1081C00001DA01244042002901DA01254942FFF782
:1081D000DDFFAC4200D04042002C00D0494270BDCF
:1081E00010B5431A934209D28318881803E0401E41
:1081F00001785B1E1970521EF9D210BD03460B4365
:108200009B0703D009E008C9121F08C0042AFAD24C
:1082100003E00B780370401C491C521EF9D210BDBC
:10822000D2B201E00270401C491EFBD2704700220E
:10823000F6E710B513460A4604461946FFF7F0FF65
:10824000204610BD421C0178401C0029FBD1801A39
:10825000704710B5002200E0521C835C8C5CA34286
:1082600001D1002BF8D1D8B2E1B2401A10BD30B51F
:1082700004460020034600E05B1C934203D2E05C0E
:10828000CD5C401BF8D030BD30B50546002003461C
:1082900000E05B1C934205D2EC5CC85C201A01D163
:1082A000002CF6D130BD0321001D401E03781202C0
:1082B0001A43491EF9D5104670470000F0B507462D
:1082C0000846584087B0C00F049048000E46590039
:1082D00040084908BC1A884105D2384631461E4636
:1082E00017460B4602465800400810434CD0300D4C
:1082F000039040055900400D490D0590401A029029
:10830000402872DA18030121000B09050843019087
:1083100004980092002805D001995242002088411B
:1083200000920190029840210A1A0199009800F0E9
:10833000F9F905460C466B4607CB00F014FAC01954
:108340007141039A0E0D0023D71756401A467A4002
:10835000164344D0049A002A2DD0029A012A039A87
:1083600015DC1205C01A914101263605001C714129
:10837000D20F059ED2070093019202962A46234609
:1083800000F011FA07B0F0BD38463146FAE716059D
:10839000224A0F46B218C01AB74101210905001C34
:1083A0004F4100187F41114618187941E20F1043E0
:1083B0006D19644113E0E2076D0815436408C207B4
:1083C0001443039A01261205C01A91413605001C78
:1083D0007141CE07400830434908C01851412A4630
:1083E000234600F0D3F9CDE7FFE7049801224000CF
:1083F000C117121A00238B4104983146C417381A4A
:10840000A141EEE730B40124E407634030BC55E7F6
:1084100030B40124E407614030BC4FE70000E0FFC6
:10842000F0B51FB488B00B99099800244840099909
:10843000C00F490049080991C0070B9900904900F5
:1084400049080B9109990898A64608431CD00B9936
:108450000A98084318D0099801244000420D4800AA
:10846000410D099824050003000B204309900B9847
:108470000003000B20430B9050181C4940180022A9
:1084800001901446104605E0002001460DB0F0BDF5
:10849000032801DA034600E003239C46C11A0AAE12
:1084A0000AE05F0008ADED5B4F00F75B7D430027FE
:1084B000AA187C41491C5B1E6145F2DD410004ABFA
:1084C0005A522104120C0A43240C401C0828DFDBFA
:1084D000019802900099704601910090059B049AC2
:1084E0000799069800F05FF9D0E700000DFCFFFF48
:1084F000F0B50C465C4085B0E40FE40703944C00F3
:108500000026640859009446490802460296224310
:1085100021D062460A431ED06200570D4A000E0366
:108520002303550D012402462C492405781B1B0BFF
:10853000360B401823432643614600901C46501AD0
:10854000B44103D30098401C009002E092180098B8
:108550005B41002803DA0020014605B0F0BD002091
:10856000012109050746864611E064461D46141B95
:10857000B54106D36546521BB341744607430C43CD
:10858000A646CD0740084908284392185B41054696
:108590000D43EAD11046184313D0604619465040A7
:1085A0007140084306D06046101AB34106D201223A
:1085B000002306E000220123DB0702E00122D24370
:1085C0005310009874460105381C6141029C039DBC
:1085D0000019694100F0DAF8BFE70000FD03000070
:1085E00070B54B005B0803430BD04B005C0D0026BD
:1085F00033466542B341D417AD1AA34102DB0020D4
:10860000014670BD12053018514170BD0EB5C2173C
:10861000C10F5040CA0740180021054B0293019238
:1086200000910A460B4600F0BEF803B000BD000002
:10863000330400000EB505490291002100910A465D
:108640000B46019100F0AFF803B000BD3304000009
:1086500070B5CD0F4A0009030123090B1B0519430F
:108660000B4BED070024520D9A4201DA002070BD39
:10867000074B34339A4203DC9A1A00F063F802E0A5
:108680000449511888402C43F1D0404270BD00008D
:10869000FF030000CDFBFFFF4A0009030123090B84
:1086A0001B051943094B10B5520D9A4201DA0020FF
:1086B00010BD064B34339A4203DC9A1A00F042F89C
:1086C00010BD03495118884010BD0000FF03000091
:1086D000CDFBFFFF10B5002904DB0124E407404275
:1086E0008C412146002B04DB1C460123DB07524250
:1086F000A3418B4200D1824210BD000010B5002979
:1087000004DB0124E40740428C412146002B04DBBA
:108710001C460123DB075242A341994200D19042FB
:1087200010BD000010B5202A04DB0146203A91401C
:10873000002010BD914020239C1A0346E3401943BA
:10874000904010BD10B5202A04DB0846203AD040E6
:10875000002110BD0B46D340D0402024A21A9140E6
:108760000843194610BD10B5202A06DBCB17084672
:10877000203A1041C1170B4306E00B461341D0408D
:108780002024A21A91400843194610BD10B5002BB1
:1087900008DA0024401C614192185B411A4301D160
:1087A0004008400010BDF0B51FB482B005460C0073
:1087B00003D0084606F0A2F902E006F09FF9203047
:1087C0000246009021462846FFF7ACFF049B059A1D
:1087D00004460F4618431143084314D0184610436B
:1087E0001BD0009840210A1A18460599FFF7AAFFE6
:1087F00005460E46009A05990498FFF793FF084333
:1088000005D0012004E02046394607B0F0BD002025
:10881000C11705430E432C43374300990E98630557
:10882000401A7905E40A00220C43FD0A0A3002D5F9
:1088300000200146E9E70105101969410C9C0D9DD6
:1088400000196941FFF7A2FFDFE7FEB500231A46D2
:108850001B1A8A4103DB0020014603B0F0BD4A0029
:108860000D0301212D0B0905520D0D43D10702D136
:1088700000186D41521E5110FF31FF3101310027A8
:1088800004463E46384600970191024601210020E9
:108890000905FFF757FFC3197141F818324684469E
:1088A0008E464A4161462846611A904104D360468B
:1088B000241A954176461F46241900986D41401CA4
:1088C00000903428E1DDF91930467041091BA841B8
:1088D00003D20022D243134601E00022134601983E
:1088E0000105381C7141FFF751FFB6E7064C012521
:1088F000064E05E0E36807CC2B430C3C9847103448
:10890000B442F7D3FFF7E0FB689B0200889B0200AC
:1089100030B58C180278401C13071B0F01D1037867
:10892000401C120906D10278401C03E005780D7046
:10893000401C491C5B1EF9D101E00B70491C521E02
:10894000FBD1A142E6D3002030BD000004480268FC
:108950000021002A03D001220160024842607047D2
:108960000071004000700040F0B50E4601468DB029
:10897000FF310746E531154668460C9100F05EF977
:108980001C46103C2AD4314608A800F057F908A824
:108990000FC8079304AB07C304A9384600F066F874
:1089A00000990498103C484000BA28600199059845
:1089B0001036484000BA686002990698484000BAEC
:1089C000A86003990798484000BAE86008A80FC853
:1089D00003936B4607C31035002CD4DA08A90C9812
:1089E00000F02CF90DB0F0BDF0B505460088143547
:1089F000800032E02C681A4B1A4E6100314022464A
:108A0000E609DF091A403E40921B174EFF433240F1
:108A100051400E464A001E403A40F709F61B124FDD
:108A20003E40724017461F400E4B56001E40FB0949
:108A3000FB1A0D4F3B405E400B4674405340734061
:108A400061401826F141594062401023DA414A4002
:108A50000821CC41544010C5401E0428CADCF0BD9A
:108A600080808080FEFEFEFE1B1B1B1BF0B50E46A9
:108A700095B00188079109010F180420143781006F
:108A8000891980393F1FCA6F3B685A40CA67401E28
:108A9000F5D18FE00423481E1090D81C8007000FEA
:108AA0003058010E47484068425C991C8907090FFD
:108AB00071580902090E415C0491591C8907090F7C
:108AC000715A0904090E455C9907090F715C445CF1
:108AD0001099059888424FDA04991046484003904F
:108AE00000F030F90499069069400846119100F0B1
:108AF00029F904902846604000F024F908902046A7
:108B0000504000F01FF9139004990698484000F077
:108B100019F90B9004990898484000F013F90B9943
:108B20000A90484000F00EF9844611990B98614074
:108B300041406046414006986A4041400A98624080
:108B400042406046424004984240039844400B989B
:108B500044406046444008984440039845400A9881
:108B600045406046454013984540080611040843B7
:108B700021020843284306E004991006090408432B
:108B80002902084320439A000CA951188039C8676C
:108B90005B1E82D104200CAA81008B18803B3F1FF2
:108BA000DB6F3C68891963408039CB67401EF3D185
:108BB0000598401C07990590884200DA6AE715B0CD
:108BC000F0BD000000200020F0B5C1B003F0BCFBF8
:108BD000194BC11DF93103C3002201216C46FF2747
:108BE000CE091C37A1544D007E4375406940521C8C
:108BF000FF2AF4D9632500230570FF27F91A615C69
:108C00000A020A4311095609714096097140D609B2
:108C100071405140E25C69405B1C8154FF2BEDD3F5
:108C2000054900200A684968135CC854401CFF28A5
:108C3000FAD941B0F0BD0000002000200A6812BA45
:108C400002604A6812BA42608A6812BA8260C968D1
:108C500009BAC16070470000FEB505460C463748AA
:108C6000FF2100901E46F5312846FFF7E0FA002E5E
:108C700011D0012E61D10E202880214628460826D9
:108C800010311430FFF7DAFF2146281DFFF7D6FF19
:108C90006E80374644E00A2028800426F4E7B800B6
:108CA00001902C5831463846FFF786FA002918D132
:108CB0002348E2B20068825C13022204120E825C36
:108CC00012041A4323021B0EC35C1B061343220E1D
:108CD000805C009A18431278140644400098401CA7
:108CE0000090082E13D1042911D1154822040068E0
:108CF000120EE1B2825C415C12020A432102090EAB
:108D0000415C09041143220E805C04060C43B81B2D
:108D10008000401941680198614040197F1C416002
:108D200028888000001DB842B9DC0020FF350146CC
:108D3000E135401C29711028FBDBFEBDE6920200E4
:108D40000020002001064000002901DA1B214840D4
:108D5000C0B2704770B50A490546097F0D2000036F
:108D600009020C18FF3C013C80222946204601F0F4
:108D7000F1FC204680228030A91801F0EBFC70BD88
:108D8000282A00201FB51D491D4863DF002803D095
:108D90001CA221490BF0DBFE194801AC1030A11CCC
:108DA00063DF002804D01C4916A2C91C0BF0CFFEBB
:108DB0001348A11C203063DF002804D0352111A204
:108DC00009010BF0C4FE0E48A11C303063DF0028FF
:108DD00004D011490BA209310BF0B9FE0F480290E3
:108DE0000F48039002A90F480CF02EF8002804D079
:108DF000094904A211310BF0AAFE1FBD0B2000206F
:108E0000F29202002E2E5C736F757263655C616E68
:108E100063732E63000000004A030000AD7002007F
:108E2000AD4D02003829002070B500F0DFF90028B0
:108E300010D0094C0025607F012805D10748416A00
:108E4000006A0CF04DF86577A07F012802D106F08A
:108E500039F8A57770BD0000282A002008200020DE
:108E6000002800DA4042704710B500231A4606E099
:108E7000C40701D05B1CDBB24008521CD2B28A424C
:108E8000F6D3184610BD10B50DF0FAFE10BD10B5A2
:108E9000FFF7BCFB0FF088FCFFF7DAFB10BD00000A
:108EA0000848817A022907D0017D1E2902D8C07C9A
:108EB000782804D90020704700210175C174012071
:108EC000704700004826002004498A7A022A04D00C
:108ED0000A7D1E2A01D81018087570474826002000
:108EE00010B502F0E1F9002810D102F0EBF90028EA
:108EF0000CD100F045F80D49002802D00020C881AF
:108F000004E0C889FF212D31884201D2002010BD24
:108F100000F06CF9002802D0072000F01BF901F0E6
:108F200039FE03F0D3FE012010BD000048260020CA
:108F300007498A7A022A09D00A46A03A127E002AF4
:108F400004D1CA7C782A01D81018C8747047000070
:108F500048260020094800B5002201468273C0312E
:108F60008A80CA8100F00CF8002804D002208872A0
:108F70000A75CA7400BD8A7200BD000088250020F1
:108F800004480069800CC007C00F01D00020704762
:108F9000012070470005005000B5FFF7F1FF0028E1
:108FA00003D10448807B0F2801D9002000BD012097
:108FB00000BD000088250020F8B5194C274600F0B8
:108FC000C3FB0146E07A002819D001281AD00228F4
:108FD00018D10D4608F060FB2074617C2646C03E27
:108FE000002914D00020607402F05EF9002802D03D
:108FF000B87C002807D00020B874207C0AE0204606
:1090000005F088FFF8BDA07A022805D005E0B17B05
:10901000884202D2B073F6E725600020E072F8BD06
:109020004826002010B501F08BFE10200DF002FE46
:109030000349C880012048740220C87210BD000096
:109040004826002000B50246FFF79AFF002809D005
:1090500005498888801880B2E122520188809042B8
:1090600000D98A8000BD00004826002010B51F4BA3
:10907000002286B000282FD016292DD14178E12971
:109080000BD0E22904D0E32904D0E42904D023E062
:10909000012202E0022200E00322142469460C822D
:1090A0000024D100009401940294C91803948A8B7F
:1090B00069460A8001228A708C8004A9801C029172
:1090C0000390988A6946A6DF08494031002806D0F7
:1090D000074A904200D10C77002006B010BD087FEF
:1090E000012801D9401E08770120F6E7D428002086
:1090F0000430000070B5FEB015460E460446FFF77A
:1091000063FD00231A4621466846FFF7A5FD684621
:10911000FFF76AFC40232A4631466846FFF724FCE5
:109120007EB070BD30B50C468DB01546014610229C
:109130006846FFF755F81022214604A8FFF750F8BB
:1091400068464DDF1022284608A9FFF749F80DB000
:1091500030BD000010B5074C1321A08A76DF00282F
:1091600003D005A2C5210BF0F2FC02204034607749
:1091700010BD0000D42800202E2E5C736F75726322
:10918000655C62746C652E630000000070B5064675
:10919000FFF7F6FE00250E4C002809D1FFF7FCFE74
:1091A000002805D002F080F8002801D0657770BD56
:1091B000084880790028FAD0002E01D0A57701E078
:1091C0000120A07701F0D2FD0520607770BD00007E
:1091D00014290020882500201CB50446684666DF57
:1091E00068468088207001201CBD00000348407F35
:1091F000042801D000207047012070471429002066
:109200000348407F002801D00020704701207047AC
:109210001429002070B52D4A034600881146002508
:10922000403117281AD01ADC012824D0102827D062
:10923000112813D1681E90820120144648770AF045
:10924000F9F800F047F802F0CBFEA07D800705D4C6
:1092500003F00CF8002801D004F0A6F970BD19281D
:1092600024D0392803D050281CD05528F6D1052009
:10927000FFF770FF70BD087F1A7A8018087770BDFD
:1092800098889082042014460E46487700F05CFAD5
:109290002060F57700F058FA0D49086020465C30F0
:1092A00062DF70BD184609F043FC70BD9879002854
:1092B000FBD1487F0528F8D1887F022803D0002001
:1092C000FFF764FF70BD4D7770BD0000D42800200B
:1092D0008825002005480021017641768181C181E1
:1092E0000348017A4906490E01727047D4280020CC
:1092F0008825002038B51E4C0AF09CF820465C30CA
:1093000062DF0121684681701F21C9430180224626
:10931000123269460120A0DF002827D1012115481B
:109320000BF02EFE13480221401C0BF029FE1148C1
:109330000321801C0BF024FE0E480421C01C0BF0FE
:109340001FFE0C480521001D0BF01AFE09480621DE
:10935000401D0BF015FE07480721801D0BF010FE85
:1093600004480821C01D0BF00BFE002038BD000092
:10937000D4280020E1FF000010B510480446403416
:10938000617F0B0005F0D1FB050F040F0F120F00DA
:10939000C08A002801D006F04FFEA07F002803D02D
:1093A0000020FFF7F3FE10BD0120FAE701F07CFF7B
:1093B0000028F8D000F004F810BD0000D4280020E8
:1093C00070B500F0C1F905463A4C02F04FFF002895
:1093D00007D0394920684018A84268D204F0E4F860
:1093E00065E0A07E0A2802D901F0C4FD5FE03349A0
:1093F00020684018A8420FD2FFF76CFF01F0BAFDB9
:109400002F48007E022803D0032801D0042808D169
:109410000620FFF79FFE04E0A089002801D100F09C
:109420005FF82848007A000641D5E089A189884282
:1094300005D20120C00300F085FB00280DD1607E1D
:10944000217E884225D2208A01263603FF2806D8AD
:10945000304600F0ADFA002801D0012070BD607EDA
:10946000401CC0B26076217E88420DD2002020824E
:109470000122052114A001F093F8A060002808D073
:10948000304600F095FAE8E7012205210EA001F030
:1094900087F87D216068C9004018A84207D201F012
:1094A00069FD00F035FA6560A07E401CA0760020C2
:1094B00070BD0000D428002030750000204E000050
:1094C000882D00208825002065706F6368000000EB
:1094D0000248007F002800D0012070471429002096
:1094E00070B50D4D0120C002A8810024EC8105213A
:1094F0000AA000F077FE0006000E28766C7606D0F3
:109500000022052105A001F04BF8A8602C82054837
:109510000471447170BD0000D428002065706F6331
:109520006800000048270020F0B59BB006460F46B3
:109530003022374902A8FEF753FE35493022303138
:109540000EA8FEF74DFE334C0525E8000019B821A2
:10955000BC2203460958125880335A64196480307B
:10956000DA6899686D1E19612D0642612D0EECD1E5
:1095700020468030476106616038417A002909D071
:1095800000214172C020065180343046394667645C
:109590001BB0F0BD002000900EAE0190E800011954
:1095A0009022525880314B69311803C9FEF738FFB9
:1095B000019B009AFEF782FE6D1CEDB201910090B6
:1095C000062DEBD300252E460127F8000119C022F5
:1095D000525880314B6C02A9091803C9FEF720FFCD
:1095E0002A463346FEF76AFE7F1CFFB205460E464A
:1095F000062FEAD3019B009AFEF70AFFC022105102
:1096000080346164FFF724F800B2FEF7FFFFBFE784
:1096100050950200782C0020164830B501460122F2
:1096200020310A724A720021CA0012180023136303
:10963000536313661546536680352B616B61803228
:10964000491C2B64C9B253640629EDD3014630226C
:10965000E0310A744A740346074A80330021DA670E
:109660009967803306C30A46FF30034901301A6008
:10967000C16030BD782C00200000F03FF0B59BB0F9
:1096800006460F4630222E4902A8FEF7A9FD2C49B6
:10969000302230310EA8FEF7A3FD2A4C0525E80044
:1096A0000019C26D816D42660166C26A816A6D1ED3
:1096B00042632D0601632D0EF1D1204667632030F1
:1096C0002663017A002907D00021017267663046BF
:1096D000394626661BB0F0BD002000900EAE01900A
:1096E000E80001194B6B0A6B311803C9FEF798FEAD
:1096F000019B009AFEF7E2FD6D1CEDB20191009016
:10970000062DEDD300252E460127F80001194B6EDA
:109710000A6E02A9091803C9FEF782FE2A463346DB
:10972000FEF7CCFD7F1CFFB205460E46062FECD39C
:10973000019B009AFEF76CFE61662066CAE7000096
:10974000F0940200782C002010B503F087FD10BDC6
:1097500070B5214A01781346A03B0902198044786C
:109760001E4D091989B200241980A9420DD1146037
:1097700054608178C01C9970002903D0012903D15D
:109780000AF0D0FF00F072F870BD144D6D1CA942B4
:109790000FD114605460C1780902596002791143F5
:1097A0000902596042791143596081799970002208
:1097B0000DE00A4A921C914202D0521C9142E3D120
:1097C000C1780A0201791143427909020A43811DD5
:1097D00018460AF063FB70BD08280020E5FF000072
:1097E000F8B520480090051D80792F46401CA870D0
:1097F000FF20E870E2202871A87868718037072080
:1098000078620020A871E871072129722E46A036DF
:10981000F8617073B8622C4630700B22193402550F
:1098200001216A702970009801700F48827E0A55E4
:10983000C27E03213173022002550B49E01C042231
:109840001031FEF7CDFC0720307328461022214648
:109850000930FEF7C5FC10207073F86100980221F2
:109860000170F8BD8C260020A8280020F8B5154E00
:1098700010213446FF340934A0782746401CA070DC
:10988000FF20AD308151FF20E070E1202071A03732
:109890002546012219353A73002149553146681C85
:1098A00009220831261FFEF79BFC0A223A7300208A
:1098B000607001202070022030702946601DFEF784
:1098C0008FFCF8BD8825002070B5104B102218467B
:1098D000FF3009308178FF24491C8170FF21AD31B0
:1098E000CA50FF21C170E1210171B5340122E25457
:1098F0000146002618251931755445700270031F62
:1099000002241C70401DFEF76BFC70BD88250020F2
:1099100070B5244C2546FF35C1352879FF34CB344A
:1099200000283DD1FF202070E12060701620A0703B
:109930001C488030016A090EE170016A090C21712E
:10994000018C090A6171008C1649A071CA6B086C00
:109950008018020EE271020C2272020A6272A07278
:109960001148028A1212E272007C2073886C00098E
:10997000020A6273A073486C0009010AE173207443
:109980000A48C07F607403F017FFA07406480A21DC
:109990006030807D401DFEF7F9FBE07401202871E6
:1099A00070BD000088250020882D0020682C002034
:1099B000F0B593B0064601A8009005A80B9001A849
:1099C0000A905E4C05A80D902079002802D160799C
:1099D000002802D0012013B0F0BD0D22584892019A
:1099E000851803221202A17980180E90002923D035
:1099F00000271CE0A88B00010C90B0421AD20E98F0
:109A00000422416D0C98081801A900F085FE019808
:109A100004224000400801900E98416D0C980818EF
:109A200001A900F0D3FEA88B401CA8837F1C2089CD
:109A3000B842DFD80020A071A88B0701B74201D33C
:109A40000020C8E70120208116E00E981022406D0A
:109A50000099C01900F060FE00980078FF2806D039
:109A60000198002803DA40004008019006E0A88B26
:109A7000401C80B2A8830701B742E6D3B7424CD25C
:109A8000A88B050146E00E981022406D0B994019F5
:109A900000F042FE0B980078FF283ED00598002881
:109AA0003BDA4000400801990590884235D90D986D
:109AB000017A0A98007A81422FD10D98417A0A984A
:109AC000407A814229D10D98817A0A98807A814220
:109AD00023D10D98C17A0A98C07A81421DD10D9880
:109AE000017B0A98007B814217D10D98C1880A98A2
:109AF000C088814211D10D98417B0A98407B8142F8
:109B00000BD10D98817B0A98807B814205D12089F9
:109B1000401C20811035B542B5D32389012B01D9D2
:109B2000092201E00023082220460A300A9907F0A2
:109B3000D9F90120207160714CE70000482700200E
:109B400088250020F0B591B0064601A8079008A826
:109B50000C9001A80690574C08A80D902079002879
:109B600002D16079002802D0012011B0F0BDA079A7
:109B7000514D00281ED0002717E0688B0001B0422D
:109B800016D204221303C01801A9009000F07CFD36
:109B90000198042240004008019001A9009800F0BB
:109BA000D9FD688B401C68837F1C2089B842E4D8AB
:109BB0000020A071688B0701B74201D30020D4E7D1
:109BC0000120208115E0102290023818079900F03A
:109BD0005BFD07980078FF2806D00198002803DA7B
:109BE00040004008019006E0688B401C80B268830A
:109BF0000701B742E7D3B7424BD2688B050145E076
:109C00001022900228180C9900F03EFD0C98007864
:109C1000FF283ED0089800283BDA40004008019910
:109C20000890884235D90D98017A0698007A8142C9
:109C30002FD10D98417A0698407A814229D10D980A
:109C4000817A0698807A814223D10D98C17A06984C
:109C5000C07A81421DD10D98017B0698007B81421C
:109C600017D10D98C1880698C088814211D10D98EE
:109C7000417B0698407B81420BD10D98817B0698F1
:109C8000807B814205D12089401C20811035B5425E
:109C9000B6D32389012B01D9092201E00023082230
:109CA00020460A30069907F01DF9012020716071E5
:109CB0005AE7000048270020C828002010B50024DB
:109CC00005F02AFC002803D0641CE4B2052CF7D36D
:109CD00010BD0000F0B5044610460022084E0AE010
:109CE0002578070A7D406D00755B00024540521CD7
:109CF000A8B292B2641C8A42F2D35840F0BD000070
:109D0000E095020010B50C460AF00EF90448017AFD
:109D100002464900103254520121417210BD000028
:109D20005822002003481321C08A8903C001081A61
:109D3000704700003822002070470000F8B52B4C17
:109D4000A0792346203B85011E468446E179DA8AC4
:109D500030360DE04800305A254FB84207D1401048
:109D60004F00F0536818521C80B2DA8230E0491C70
:109D70004029EFD31320C001824235D0607A0028F9
:109D800004D01A496046103100F00CFD174E002730
:109D9000203E26E0A079884226D2401C1349C0B25A
:109DA0004035A071ADB2103100F09CFC104800218C
:109DB0000E4A4B001032D25A82420ED10B4A0D4845
:109DC0004B001032D0526818F28A80B2521CF282D4
:109DD000491CE17101216172F8BD491C4029E7D39A
:109DE0007F1CF168B942D5D80020F8BD5822002068
:109DF000FF7F0000FF3F000010B50AF095F8034810
:109E00000249007A40001031085A10BD5822002043
:109E1000F0B51A4CA1B0A18BA068FEF7B7F90025E8
:109E20002646E0823036164F17E06946284600F095
:109E300059FC1248802269463030FEF7D1F90020E3
:109E40004100715AB94202D0E18A491CE182401CAA
:109E500080B24028F4D36D1CADB2E068A842E4D8CB
:109E6000064D002420352946AC711031204600F003
:109E700039FCEC716C7221B0F0BD0000382200207A
:109E8000FF7F0000F0B5C1B0354C6946002000F0FE
:109E900013FC802020836D4620A9032000F00CFCD9
:109EA0003FA8023001F0D0F92E49002788424ED158
:109EB0002846363001F0CDF92B490002884246D1C0
:109EC00002A8033001F0C0F9218B88423FD105A8D8
:109ED000023001F0B9F9E06068462646007C203681
:109EE0003073012833D16846407BA08304A8013039
:109EF00001F0AAF9E08304A8033001F0A5F9208459
:109F000003A8023001F0A0F960840120218B000435
:109F1000FEF73CF90546208CA84218D3A18B401BC4
:109F2000FEF734F9A0840220B072A560608C206036
:109F3000E08B00280CD068086060A08C218B40006A
:109F4000401E0818FEF722F9E168884202D9002075
:109F500041B0F0BD0020C0432061A7820120F7E797
:109F60003822002055AA00000046415410B5302187
:109F70000248FEF75CF900F003F810BD382200201B
:109F8000F0B55F4CA7B020462030022126902290E9
:109F900081726D4680212846FEF749F92946012045
:109FA00000F0F1FB2946022000F0EDFB802626831D
:109FB00066830120A0831320C001208404206084D4
:109FC0000002E08341100F20C001A0841E20E06049
:109FD00022980127077304202060A160800160603F
:109FE000F022802128462592FEF721F90B2245A177
:109FF0002846FEF7F5F86946CE72002008734F73C5
:10A0000004228A73C8730F7448748A74CE74092248
:10A010000A75259A4A753F220A764876FF228A7683
:10A02000C876087748778877C8770CF035FB08A999
:10A03000C871020A0A72020C4A72000E8872A08964
:10A0400069468875000AC87508A90E7129208871AB
:10A05000284613222EA12B30FEF7C2F829460020F5
:10A0600000F091FB218B2846FEF7E1F8552018A956
:10A070008877AA20C8772946032000F084FB0020B7
:10A080007F26249035E0FF2280212846FEF7C8F87D
:10A0900001202E54801C8028FBD3FF212598C94322
:10A0A000014329701F4A010A11436970010C121201
:10A0B0001143A970000EFF210843E87029460020D3
:10A0C00000F070FB01270EE0FF2280212846FEF7FA
:10A0D000A7F801202E54801C8028FBD3294638463F
:10A0E00000F060FB7F1CE068B842EDD82498401C6B
:10A0F00024902698017B24988142C4D827B0F0BDD3
:10A1000038220020EBFE904D53444F53352E300043
:10A110004E4F204E414D45202020204641542020C6
:10A1200020202000FFFFFF0010B50548417A0029DC
:10A1300004D003498079103100F034FB10BD0000D9
:10A1400058220020F1B50026A8B0354600F0AEF840
:10A1500002F008FC074600212898002F016001D07A
:10A16000002415E0002029B0F0BD20A9204602F00F
:10A17000B3FB00280AD0761CB6B26946204602F02E
:10A18000BFFB6846FEF75EF845190835641CA4B2AB
:10A19000BC42EAD3289805603046E4E770B5A8B021
:10A1A000064600F083F802F0DDFB050018D000241D
:10A1B00014E020A9204602F08FFB00280CD069464D
:10A1C000204602F09DFB31466846FEF742F8002823
:10A1D00002D1204602F062FB641CA4B2AC42E8D378
:10A1E00028B070BDF3B5A9B0299800260F46002805
:10A1F00024D0002F22D000F059F802F0B3FB050064
:10A200001CD001A80024009016E0A0B221A902F001
:10A2100063FB00280FD0A0B201A902F071FB00205F
:10A2200006E000990A5C2999095C8A4203D1401C26
:10A23000B842F6D3761C641CAC42E6D330462BB051
:10A24000F0BD000010B504002DD0E07C00282AD11C
:10A25000A07C002802D020460AF07AFBE08902F0B8
:10A260005DFBE2890146104602F0AAFB218AE089E3
:10A2700002F08EFB0C48808D02040B482030817B5D
:10A2800011430A02C17BE089114302F08DFBE08992
:10A29000216802F0C9FAFFF747FF02F09DFB00209A
:10A2A000207502F045FB10BD0826002010B50548BA
:10A2B000007D002805D00348FFF7C4FF002002F00E
:10A2C00009F810BDE8220020002803D0006800280B
:10A2D00000D0012070470000F0B5CDB00D4624A994
:10A2E000019104A900910146802204A8FDF778FF9E
:10A2F000FFF7DCFF324C0026E574012D26D0FFF776
:10A3000087FDFFF70FFD0521C90288424CD3FFF7F7
:10A3100015FD050048D0FFF711FD694608810200D0
:10A3200044D02946009802F08BFA411C40D0711E9F
:10A330002182A6742081694609896181A1812660F4
:10A34000E081012020751E484DB0F0BD02F00AFBEF
:10A35000070029D0002510E0A8B244A902F0BCFAF9
:10A36000002809D0A8B2019902F0CAFA0099019810
:10A37000FDF76FFF002802D06D1CBD42ECD3BD423B
:10A3800012D2A8B2E08103AA02A902F0F1FA802059
:10A39000A074E0892081684600896081A0810398CB
:10A3A000206060602675CEE70020CDE7284604E0F7
:10A3B0002846FFF7C1FC68460089FFF7BDFCF3E7BC
:10A3C000E8220020F8B516460F46050007D0286899
:10A3D000B04200D2C6B2A87C802802D004E000209F
:10A3E000F8BD284609F02EF8A87C1C498219802A5D
:10A3F00009D2411832463846FDF7F2FEA87C3446B1
:10A400008019A8741EE08022121AD4B24118224684
:10A410003846FDF7E5FE381900901BE0301BC7B247
:10A42000802F00D380273A460C490098FDF7D8FECC
:10A43000E019C4B20098C0190090802F0AD0AF7400
:10A44000B442EBD32868A04200D2C4B2001B2860FB
:10A450002046F8BD284608F0F5FFF1E780230020EC
:10A46000F8B516460F46050014D02A8A31463846FC
:10A4700002F03CFF2882A87C1F498219802A0BD257
:10A48000401832463946FDF7ABFEA87C34468019A9
:10A49000A87427E00020F8BD8022121AD4B2401818
:10A4A00022463946FDF79CFE381900908020A8749A
:10A4B00028460AF04DFA002812D113E0301BC7B22B
:10A4C000802F00D380273A460B480099FDF788FE7D
:10A4D000E019C4B20098C0190090802F04D0AF7466
:10A4E000B442EBD32046F8BD8020A87428460AF079
:10A4F0002FFA0028F4D1F5E700230020F7B5A8B023
:10A500000E460024FFF7D2FE02F02CFA0746002583
:10A5100042E06946284602F0DFF900283AD0289840
:10A52000844235D1019808AF010E2A983154019820
:10A530002A9C000C641C30550198641C000A30559C
:10A54000641C0198305568460089641C000A305527
:10A5500068460089641C305539462846641C02F060
:10A56000CFF93846FDF76EFE401C85B27F20001BF8
:10A5700080B2854200D90546002078553555641CC7
:10A5800030192A463946FDF72BFE60192BB0F0BD75
:10A59000641CA4B26D1CADB2BD42BAD32A98F5E7D3
:10A5A000F7B5AAB00020009001200F460190FFF7F8
:10A5B0007DFE02F0D7F9050024D002AE00241FE092
:10A5C000A0B222A902F088F9002818D0A0B202A9EE
:10A5D00002F096F9002005E02A99325C095C8A4273
:10A5E0000DD1401CB842F7D32C9800280DD001980B
:10A5F00000280AD0A0B202F051F900200190641C9A
:10A60000AC42DDD300982DB0F0BD01213046FFF7FC
:10A6100063FE002805D081890122C901120489182E
:10A620000091FFF70FFEEDE770B5A8B00646FFF703
:10A630003DFE02F097F9050014D0002410E0A0B20E
:10A6400020A902F049F9002809D0A0B2694602F019
:10A6500057F931466846FDF7FCFD002805D0641C1B
:10A66000AC42ECD3002028B070BD0120FBE7000015
:10A6700010B518210348FDF7DAFDFFF7C9FB02F01A
:10A68000BBF910BDE822002070B50D460446C10993
:10A690001646042000F0BCF8002807D013208003E1
:10A6A00020183246294601F023F970BDFF2280218F
:10A6B0002846FDF7B5FD70BD70B504460D46214630
:10A6C000002000F0A5F8002805D0E00180222946EE
:10A6D00001F00EF970BDFF2280212846FDF7A0FD94
:10A6E00070BD000070B504460D462146012000F003
:10A6F0008FF8002808D007488022006829460019F2
:10A70000C00101F0F5F870BDFF2280212846FDF759
:10A7100087FD70BD3822002010B501F0E9F810BDAA
:10A7200070B504460D462146022000F071F800285D
:10A7300008D007488022406829460019C00101F06E
:10A74000D7F870BDFF2280212846FDF769FD70BD56
:10A750003822002070B50E460446C109A0B0154647
:10A76000042000F055F800280BD02A4631466846F0
:10A77000FDF736FD1320800320182A46694601F0B4
:10A78000D4F820B070BD70B504460D4621460020B7
:10A7900000F03EF8002804D0E0018022294601F0B4
:10A7A000C4F870BD70B504460D462146012000F086
:10A7B0002FF8002807D00448802200682946001995
:10A7C000C00101F0B2F870BD3822002030B5A1B050
:10A7D000054614466846FDF703FD224669462846AD
:10A7E00001F0A3F821B030BD70B504460D462146F6
:10A7F000022000F00DF8002807D0044880224068AD
:10A8000029460019C00101F090F870BD38220020DF
:10A8100010B5030004F089F90504070A0D102100A2
:10A8200004290DD219E0FC290AD216E0FF2907D825
:10A8300013E00F20C00101E00120400281420CD34F
:10A8400000F032FD002801D0002000E0012000F0DF
:10A850000EF802F08BFE002010BD012010BD132168
:10A86000890310B54018032101F049F810BD70B5F7
:10A87000054600F014F80446284600F003F80019D5
:10A8800080B270BD014610B50020002906D013210A
:10A8900010248903204604F0E1FE204610BD10B5C7
:10A8A0004C240021204604F0D9FE204610BD0000B3
:10A8B00070B504460D4621460320FFF7A9FF002886
:10A8C00008D007488022806829460019C00101F09D
:10A8D0000FF870BDFF2280212846FDF7A1FC70BD56
:10A8E0003822002070B504460D4621460320FFF7AC
:10A8F0008FFF002807D0044880228068294600196D
:10A90000C00101F012F870BD38220020FFB58DB0F3
:10A91000002408940E98FDF795FCC0B20A900E989A
:10A9200009900F9800260B90374635460998FDF799
:10A9300089FCC0B210E00999495D20395E2903D82D
:10A94000761C6D1CF6B2EDB20999495DC90903D0B8
:10A950007F1CED1CFFB2EDB28542ECD30B981028A2
:10A9600007D0082809D0002502A8002104AE0990CC
:10A9700074E0F1003801081800E0F000C5B2F3E718
:10A980000E98405C0246203A5E2A44D80F9910295E
:10A9900002D0082922D017E06A46102106F034FBC5
:10A9A0001098012814D0E100089808220001091825
:10A9B0000D98081807466946FDF712FC38468030A6
:10A9C00008220999FDF70CFC641CE4B2089842E0E7
:10A9D0008020401B4010E1004118E5E717239B034E
:10A9E000C000C018FF3808216A46013801F0D2F8CB
:10A9F0001098012806D006200D99604340180622C1
:10AA00006946DFE78020401B41100620604309189B
:10AA10000D980818F3E7C00923D00E986A4640182D
:10AA2000202106F0FDFA109801281FD0E1000898B7
:10AA30001022000109180D98081807466946FDF70D
:10AA4000CFFB3846803010223146FDF7C9FB08980D
:10AA5000401CC0B208904100401801190A98814278
:10AA60008ED3802D08D8284611B0F0BD8020401B21
:10AA70004010E1004118DAE7FF20F5E70348C16B19
:10AA8000002901D00021C1637047000040610040EF
:10AA900010B50021132006F0B5FF6420FEF7F3F98E
:10AAA0000121132006F0AEFF10BD000010B52F48A5
:10AAB00002240460001D04600121204606F0A2FF6C
:10AAC0002A480C300460001D0460001D0460012150
:10AAD000062006F097FF0121072006F093FF234888
:10AAE000203004600021092006F08CFF1F48283028
:10AAF0000460032211460B2006F076FF1B4830301D
:10AB00000460001D0460001D0460001D046000223C
:10AB10000221102006F068FF14484430046003222C
:10AB20000021122006F060FF0121132006F06AFFC9
:10AB300003221146152006F057FF0121162006F0CA
:10AB400061FF0A485C3004600848643004600748CC
:10AB50006C300460001D0460001D0460001D046072
:10AB600000211F2006F04EFF10BD0000000700501E
:10AB700001200449C00748600321062033DF062076
:10AB80002EDF70470063004010B500F03BFA02F082
:10AB9000C1FD10BD10B50021142006F033FF1E4981
:10ABA000002088711D4902200860091D0860091DE8
:10ABB00008601A4910310860091D0860091D086005
:10ABC000091D0860091D0860091D0860091D08604D
:10ABD000091D0860091D0860091D0860091D08603D
:10ABE000091D0860091D0860091D08600B495831DE
:10ABF0000860091D0860091D0860091D0860091D1D
:10AC00000860091D0860091D0860091D0860091D0C
:10AC10000860091D086010BD88250020000700504D
:10AC200010B50121142006F0EDFE024901208871C3
:10AC300010BD0000882500201CB50449086A496A37
:10AC40000090019168460BF0D5FF1CBD54940200A2
:10AC500001490220086070473C07005010B50121EF
:10AC60000F2006F0CFFE10BD1CB5002812D0012821
:10AC700010D10949094C0869496901910090A07CEB
:10AC8000002807D068460CF039F80020A074012095
:10AC9000FEF7F9F81CBD000054940200882500203E
:10ACA0001CB5002811D001280FD10849084C88682C
:10ACB000C96801910090A07C002806D168460CF07C
:10ACC00035F80120A074FEF7DEF81CBD5494020094
:10ACD0008825002000B587B0002820D01149002227
:10ACE00003C90490CD20C004059102901820009063
:10ACF0001A20019003206946087304A80CF04AF852
:10AD0000002804D0FF2108A2173109F020FF04A871
:10AD10000CF00CF8094901208874FEF7B4F807B06C
:10AD200000BD0000549402002E2E5C736F75726398
:10AD3000655C6770696F2E63000000008825002045
:10AD40001CB504498869C9690090019168460BF0F7
:10AD500051FF1CBD5494020010B5002801D0012100
:10AD600000E00021092006F04DFE10BD10B5194885
:10AD70009AB000681890062430216846FDF757FA0B
:10AD80006946CC700120088218A90591694608839C
:10AD90001148079030210CA8FDF749FA022008A9B4
:10ADA00008740CA968460AF013F87D24E400002812
:10ADB00003D02046FEF767F835DF04F033F9074883
:10ADC00073DF002803D02046FEF75DF835DF1AB0A8
:10ADD00010BD00007C94020032200020D42400200A
:10ADE00010B5012000F008F8FEF700FA002802D0A4
:10ADF0000920FEF7AFF910BD7FB505460CF0CEFD7A
:10AE00007D24E400002803D02046FEF73CF835DF1F
:10AE1000002D01D0012000E000206946087303A83E
:10AE20000BF024F9002803D02046FEF72CF835DF7C
:10AE300001A805210130FDF7FAF969464879012298
:10AE40001043E1210840DF210C3008406946487179
:10AE5000072088711020C871064800900A710648C2
:10AE60000BF02AFA002803D02046FEF70CF835DF55
:10AE70007FBD0000B1FF010030200020FEB51B4C5B
:10AE8000FEF762FC1A492546086000264035204638
:10AE9000AE772C38C078012822D00227022823D090
:10AEA00000200AF097FCE08A3843E08210216846CF
:10AEB00001802021418004218180C821C18001229C
:10AEC000019900980AF020F9002808D168460AF094
:10AED000D7F8002803D12046EE775C3062DFFEBD54
:10AEE00002200AF077FCE1E70120DAE7D42800200D
:10AEF0008825002010B5FFF793FE02F0BBFF04F099
:10AF0000DDF8184A0021184809F062FE002804D034
:10AF10007D20C000FDF7B7FF35DFFFF7C7FD00223A
:10AF2000124910460DF0E2F8114901204874FFF76C
:10AF3000D1FE03F0FDFB01F0ADFA00F0FDFC02F0E4
:10AF4000BBF9FFF715FE01F087FFFEF703F802F0EB
:10AF50005FFB00F0FDF84B20C000FDF794FF02F00E
:10AF600039FC10BDCD7D02003C200020457F020051
:10AF700088250020FEB5204CFEF7E6FB064601F0D2
:10AF800075F9002805D11D481D4A01688918B1428C
:10AF900001D90020FEBD254601274035AF77066068
:10AFA000C82168460180FF21413141800421818010
:10AFB0004B21C900C1800022019900980AF0A4F831
:10AFC000002817D10C482C38C07801280AD0022854
:10AFD0000AD000200AF0FEFB68460AF051F800286B
:10AFE00004D007E00220F5E70120F3E72046EF77E1
:10AFF0005C3062DF0120FEBDD428002088250020BF
:10B000008813000070B51B48194C00690025400DDD
:10B01000C007C00F00D001252078A84226D0FEF737
:10B0200093FBA900257009194860217800291BD1DC
:10B03000E06000F039F9002814D001F08BF80E49D7
:10B040000120C876FEF780FB0C49886403F02CF8D9
:10B05000002802D000210A2001E00021072003F08F
:10B06000E5F901E001F0F0FD012070BD002070BDA8
:10B07000DC2D002000050050482C0020082A00206C
:10B08000F8B57D202E4C40010090617820782D4F3E
:10B0900001262D4D814219D1002819D100F004F963
:10B0A000002812D0FEF750FB6168009A401A9042C7
:10B0B0000BD37D20000108186060E07C401CE07428
:10B0C000AE710920E871FEF7FFFBF8BD002813D030
:10B0D000A16848420A28F8D36068081A217C002930
:10B0E0002AD0B84228D200202074607C401C6074B2
:10B0F000AE710620E871F8BDFEF726FB6168401AC4
:10B100000A28F8D3B84215D3002060702074A07CC0
:10B11000401CA074AE710820E8710C4880790028AA
:10B1200005D0FF2109482D31C030C181F8BD02F0A2
:10B130003BFAF8BD2674F8BD667000202074F8BD97
:10B14000DC2D0020DC050000C82800208825002018
:10B1500070B50948074D00690024400DC007C00FB5
:10B1600000D001246C702C70FEF7EEFAA100491992
:10B17000486070BDDC2D002000050050F1B52C4C5E
:10B1800082B02546E035687C2874FF20FF2101301D
:10B19000053100590959274A274BFDF78FF82246F8
:10B1A0008032D1679067287CFDF744FA0F46064647
:10B1B0000022224BFDF782F802460B463046394604
:10B1C000FDF796F9E21DF932D160906006460F4610
:10B1D000287C02990090081AFDF718FA32463B467F
:10B1E000FDF71EF906460F460098FDF723FA324692
:10B1F0003B46FDF763F80022114BFDF75FF8FDF7C2
:10B200004BFA6874E01DF930C368826800200D496C
:10B21000FDF7F8F8F822FC2312591B59FDF700F945
:10B22000FF2201321051A4186160687CFEBD00004D
:10B23000782C00202D431CEBE2363A3F0000704092
:10B240000000E03F0000F03F417800780902084329
:10B250007047C1780A02817811430A024178007868
:10B26000114309020843704710B5074C0020FFF74F
:10B27000F6FA01200003FFF7F2FA002020762060A2
:10B280006060A06010BD0000AC28002010B5054C27
:10B290000C2221460020FFF7F7F90020E075207608
:10B2A000A07510BDAC28002004480549808C884258
:10B2B00001D101207047002070470000882800203D
:10B2C000A57F00000148007E70470000A8280020EC
:10B2D000FEB5FE4CFEF738FA0746022002F05AF996
:10B2E000FB48217E02460A3202921632019219234D
:10B2F000F84A5B01D61803231B02D5184030009092
:10B300000B0003F012FC110A345A7584BCCDF9F815
:10B31000F7F6F5F4F3F2F1F0F400EE48007A810666
:10B3200006D5ED4D01206F6120762020607507E085
:10B3300041060ED5E84D05206F612076402011E0D2
:10B3400001F002F8FF30FF300230A8608030E86082
:10B35000FEBD800708D5E04DE0486F61A8610D2073
:10B36000207602207076EBE700207076FEBD01208B
:10B3700030766F63D84DFF202870D5486F6102F09A
:10B3800077F8D348D6491430E86103F0A3FB0A22CA
:10B39000CF49A868FCF724FFA86806210A3005F009
:10B3A00005FDA9682C20887207F008F8AA68E868EB
:10B3B0001146FDF7B7FE0220F9E0C549C64D193127
:10B3C000E9611022A86803F067FB0A220299A868C5
:10B3D000FCF706FFA86806210A3005F0E7FCA9681B
:10B3E0002C2088720A46E868FDF79CFE0320DEE008
:10B3F00001992C204876B649B74D3A31E9611022BF
:10B40000A86803F049FB04202076002047E10220D1
:10B4100002F05AF8002825D003F0CEFF0021B1A099
:10B42000FEF75AFF05465A22A949FFF719F82846A0
:10B43000FEF708FF022002F0ADF80021A6482176B1
:10B440000761A44A0170157ADF231D4015728180BF
:10B45000707E20288AD10120A075801EE060FEF752
:10B46000BFF9FEBD9C498888421C8A807D21C900A5
:10B470008842F6D90B2020760E20E075FEBD012013
:10B48000307694486F63007A4006F7D50620207620
:10B4900000219148FF228170427081804761FEBD8A
:10B4A000022002F011F8002849D08B4E0025B5800B
:10B4B00091A0FFF7B9F8012808D00B20207675700D
:10B4C0000320E075022002F065F8FEBD01218AA08C
:10B4D000FEF702FF05464068622828460DD0FEF7B9
:10B4E000B1FE042019E043E136E119E1D9E049E178
:10B4F000B1E06CE05DE045E02EE062227449FEF7C9
:10B5000061FF2846FEF79EFE019800782C2803D1A3
:10B51000009840782C2804D00520E0750B20207678
:10B52000D0E720226A48B16803F050FA06F046FFDF
:10B53000B268F0681146FDF7DDFD0720EFE76648C9
:10B540008188491C89B281807D20C0008142BCD99C
:10B550000B2020760F2090E75F4D1022A9685C48F1
:10B560000E46FCF73DFE5A4820223146213003F0BA
:10B570002DFA06F023FFAA68E8681146FDF7BAFD28
:10B58000082014E0544D1022A96802980E46FCF7DA
:10B5900027FE4F4820223146423003F017FA06F0CA
:10B5A0000DFFAA68E8681146FDF7A4FD0920207682
:10B5B000FEBD4948102281680198FCF711FE0A205F
:10B5C000207602F029FC012000F056FFFEBD142178
:10B5D0003F4808F0D3FD3E4F2C203875152620201B
:10B5E000395C2C2906D0B955761C401CC0B2F6B285
:10B5F0002D28F5D33848C680009801F039FF142271
:10B6000033480099FCF740FE0004000C05D0334895
:10B61000A8620920E0750B20C9E7002001252E4B08
:10B62000761EF1B298610EE07A5C303A0B2A04D3B0
:10B630000A21E1750B21217607E06A4310180A22DE
:10B640005543491EC9B21529EED29861207E0B28B8
:10B65000BCD00D20ABE7204D00262E706E7002206E
:10B6600001F032FF002804D1A8887D21C90088425A
:10B6700014D9022001F08EFF16492676087A9D2201
:10B68000104008722E706E70AE800420A075401FAE
:10B69000E060FEF7A5F803F08FFEFEBD401CA88019
:10B6A000FEBD012030760B486F638030006AE8628F
:10B6B000094808498069A8621548A8841548E884A3
:10B6C0000E202076087ABD22104025E0AC2800200C
:10B6D000202500208825002048200020FFFFFF7F34
:10B6E0008094020073656375726974795F6465762E
:10B6F0006963652E74787400736563757269747913
:10B700005F736572766963652E747874000000005B
:10B71000A57F000034120000087202F081FBFEBD1C
:10B720000F202076707E40280ED0022812D00420F0
:10B73000A075A86AE060FEF753F8FEF705F8134914
:10B74000486100203076FEBD0220A0750F49002020
:10B750004870EEE70320EBE70020FFF780F80C22AB
:10B7600021460020FEF7F6FF102030776F63FEBD04
:10B770000749686B4018B842F9D201F015FF002064
:10B780003077FEBD0B202076112076E64820002081
:10B790008813000010B5312006F022F801484078E7
:10B7A00010BD00009A35002010B5392006F018F8B9
:10B7B0000148407810BD00009A35002010B547219F
:10B7C000202008F0E7F90120FDF75DFB0921212089
:10B7D00008F0E0F94021222008F0DCF900212320C4
:10B7E00008F0D8F94821242008F0D4F908213220A3
:10B7F00008F0D0F90121332008F0CCF9262005F01B
:10B80000EFFF2A21302008F0C5F9312005F0E8FFCC
:10B81000002010BD10B500F00DF810BD10B52F20A0
:10B8200005F0DEFF02484078C006C00E10BD0000E3
:10B830009A35002010B5214CE07D002813D03F211F
:10B84000382008F0A7F930213A2008F0A3F9102198
:10B850003B2008F09FF90A213C2008F09BF92021A9
:10B860003D2008F097F90021322008F093F90021DB
:10B87000332008F08FF94721202008F08BF90021B0
:10B88000212008F087F9E07D002801D0842100E024
:10B890000421222008F07EF91821232008F07AF9EB
:10B8A0004821242008F076F999212E2008F072F919
:10B8B0000021252008F06EF9002010BD6826002028
:10B8C00010B50446282005F02DFF06220249204627
:10B8D000FCF786FC10BD00009B35002010B50F2042
:10B8E00005F07EFF0148407810BD00009A35002029
:10B8F000134610B50A46194600F04CF910BD10B5B4
:10B90000032905D0022907D0012908D0002909D030
:10B9100000F078F8002010BD00F040F8FAE700F0E1
:10B92000A5F8F7E700F00CF8F4E7134610B50A465F
:10B93000194600F0E5F810BD10B500F0CBF810BDC9
:10B9400030B5134D0024287885B0002802D02C7023
:10B9500000F09EF900F0B4F90E49C72008701620D7
:10B960000D49002301910490029403940122009454
:10B97000084918460CF0A6FE08F0BAFE2878002800
:10B9800003D10120287000F0EDF805B030BD0000B3
:10B9900068200020903500209A35002070B5164EA2
:10B9A00004463078002586B0002802D0357000F0BB
:10B9B0006FF900F085F9114852210170210C417096
:10B9C000210A8170C47016200D4900230191049052
:10B9D0000295039504220095084918460CF072FE62
:10B9E00008F086FE3078002803D10120307000F086
:10B9F000B9F806B070BD0000682000209035002026
:10BA00009A35002070B5164E04463078002586B071
:10BA1000002802D0357000F03BF900F051F91148D0
:10BA200020210170210C4170210A8170C470162000
:10BA30000D4900230191049002950395042200957D
:10BA4000084918460CF03EFE08F052FE30780028F7
:10BA500003D10120307000F085F806B070BD000001
:10BA600068200020903500209A35002070B5164ED1
:10BA700004463078002586B0002802D0357000F0EA
:10BA800007F900F01DF91148D8210170210C41700F
:10BA9000210A8170C47016200D4900230191049081
:10BAA0000295039504220095084918460CF00AFEF9
:10BAB00008F01EFE3078002803D10120307000F01D
:10BAC00051F806B070BD00006820002090350020BD
:10BAD0009A3500200EB500F045F80749012008709E
:10BAE000684600F085F8694604480978C1736946DC
:10BAF000497801740EBD000068200020A8250020B0
:10BB0000F7B50F46164E0446C51930786D1E00284D
:10BB100003D00020307000F0BBF8200A290A000290
:10BB20000902884203D139462046029A0DE0FF21DE
:10BB3000201A01310D1AA9B22046029A07F0BAF86C
:10BB4000029A791B6019521989B207F0B3F830785C
:10BB5000002803D10120307000F004F8FEBD000081
:10BB60006820002000B5094985B0B9200870002080
:10BB70001621074A01920491029003900346009017
:10BB8000012202490CF09EFD05B000BD9035002059
:10BB90009A350020F7B5144D04462878002686B063
:10BBA0000F46002802D02E7000F072F80F480321D3
:10BBB0000170210C4170210A8170C4700898042220
:10BBC00001AC85C41621002304910096074918464C
:10BBD0000CF078FD2878002803D101202870FFF7A9
:10BBE000C1FF09B0F0BD00006820002090350020A2
:10BBF000F0B5164D06462878002485B0002802D0FE
:10BC00002C7000F045F81249902008704C708C7030
:10BC1000CC700C714C71162006210E4F002303913D
:10BC200004900294012201970094094918460CF0EF
:10BC300049FD38793070787970702878002803D100
:10BC400001202870FFF78EFF05B0F0BD68200020AE
:10BC5000903500209A35002010B50B4886B005219C
:10BC60000170AA214170002016210222074C049184
:10BC70000290034601940392009003490CF022FDC8
:10BC8000607806B010BD0000903500209A35002085
:10BC900000B5094985B0AB20087000201621074A7D
:10BCA0000192049102900390034600900122024900
:10BCB0000CF008FD05B000BD903500209A3500203D
:10BCC00010B50E480024017886B0002902D0047017
:10BCD000FFF7DEFF0A4906200870162009490023F5
:10BCE000019104900294039401220094044918469F
:10BCF0000CF0E8FC08F0FCFC06B010BD6820002049
:10BD0000903500209A350020F0B50E46C3B00146AC
:10BD100002A8009023A822901F48007F002802D08C
:10BD2000421E8A4206DA1DA1304602F0D3FEC0B29E
:10BD300043B0F0BD401A401E00060D21000C09035F
:10BD40004018802201900099FEF79EFC6946087A0F
:10BD50004C7A801CC7B27F2C00D37F248020C51B67
:10BD6000A54204DB00982246C11930460EE0019836
:10BD7000802280302299FEF787FC00982A46C1195C
:10BD80003046FCF72DFA621BA8192299FCF728FA15
:10BD9000002030552046CBE7282A00204E6F206D2A
:10BDA000657373616765210070B50E4601461448DE
:10BDB000A0B0007F6D46002802D0421E8A4206DAFB
:10BDC00010A1304602F086FEC0B220B070BD401A0D
:10BDD000401E00060D21000C090340188022294650
:10BDE000FEF752FC68460478402C00D340242246DB
:10BDF000A91C3046FCF7F4F9002030552046E4E752
:10BE0000282A00204E6F206D6573736167652100DD
:10BE100070B506460D48CF21007FA0B00002090290
:10BE20006D46401880222946FEF72EFC68460478AD
:10BE3000402C00D340242246A91C3046FCF7D0F900
:10BE400000203055204620B070BD0000282A002078
:10BE50000348017F102901D910210177C8B270472A
:10BE6000282A002010B5084C207B062807D002F0B5
:10BE70001BF9002805D1E07C0A38072801D80120E9
:10BE800010BD002010BD0000482C002070B50446F5
:10BE9000A278E37800786178D218782A0AD8002648
:10BEA00012191671002806D0012801D0022801D1EC
:10BEB00000F096F870BD084600F01CF8074D287F8A
:10BEC000102804D30D200003FEF7C9FC2E77287F2D
:10BED000401C2877A01CFCF73DFF70BD282A0020DD
:10BEE00003480021C173032141740121C1747047CB
:10BEF000C82D002010B5044601F070FC002815D0B4
:10BF0000032001F01BF8002810D1022001F016F8E0
:10BF100000280BD10749C8730120012C07D04874B1
:10BF20008C74C8740449062002F092FA10BD0322F2
:10BF30004A74F5E7C82D0020B80B000070B5FDF776
:10BF400003FC264C0546E07C002801D000F07CFE76
:10BF5000E27C224E00200221403E130002F0E5FD6B
:10BF6000060604070E1B2C39E174207470BD0120F5
:10BF7000B564FEF7F1FE0320E07470BDB06C643070
:10BF8000A842FAD20020FEF7E7FE0420E074B56470
:10BF9000E07B401C1BE0B06CFF309130A842ECD23B
:10BFA000E07B032806D30520E074207C401C20742D
:10BFB000B56470BDE17470BD7D23B26C1B01D218F5
:10BFC000AA42F8D2227C637C9A4202D2E174E073E6
:10BFD00070BDE0740020FEF7BFFE70BDC82D0020CC
:10BFE00010B503490020C874FEF7B6FE10BD00006E
:10BFF000C82D00208307FF22DB0E9A408907090E17
:10C00000994000280BDA0007000F08388308084819
:10C010009B001818C36993430B43C361704783089F
:10C0200004489B001B181868904308431860704729
:10C0300000ED00E000E400E070B505460024204675
:10C04000B030C0B207F0BEFD102007F0BBFD0020ED
:10C0500007F0B8FD1F200BF013F82946802007F0E9
:10C0600081FD641CE4B28035042CE8D370BD10B5AA
:10C070000446AE2007F0A6FDD52007F0A3FDC120A1
:10C0800007F0A0FDA82007F09DFD1F2007F09AFDF6
:10C09000AD2007F097FD002007F094FD202007F069
:10C0A00091FD022007F08EFDD32007F08BFD0020CC
:10C0B00007F088FD402007F085FD8D2007F082FD08
:10C0C0008D2007F07FFD142007F07CFDA02007F0F5
:10C0D00079FDC82007F076FDDA2007F073FD122005
:10C0E00007F070FD204600F019F8D92007F06AFD2E
:10C0F000222007F067FDDB2007F064FD002007F039
:10C1000061FDA42007F05EFDA62007F05BFD10BDD9
:10C1100001498020C86070470005005010B50446F2
:10C12000812007F04FFD204607F04CFD10BD10B5F3
:10C13000002801D0AF2000E0AE2007F043FD10BD85
:10C14000034806210171024900202039C873704755
:10C15000682C002010B5094C00F076FDFDF750F872
:10C16000002802D00120FDF711F82079002801D025
:10C17000002010BD0120207110BD0000682C00209F
:10C18000F8B5334CFDF7E0FA05462079002801D0D8
:10C1900000F05AFD20790126030002F0C6FC084594
:10C1A000050D1C2145465145FDF7CEFA20600720BC
:10C1B0000AF066FF022041E02068281A672833D978
:10C1C00024498020C8600220FCF75DFE07200AF0A9
:10C1D00057FF032032E0CC20FFF749FF04202DE079
:10C1E0001B4D203DEE73FDF7AFFA1B490527086490
:10C1F0006E76FF358135687904280AD10021052043
:10C2000002F014F915486F71417C6970807CA87048
:10C21000EE70E87C002806D0A87C012803D100211C
:10C22000062002F003F92771F8BD0020FFF77FFF19
:10C23000FFF76EFFFDF788FA206007202071F8BD38
:10C24000FDF782FA2168401A6728F8D90020F5E73F
:10C25000682C002000050050082A00202826002015
:10C260000149012008777047682C00200248007BB4
:10C27000002800D001207047682C002010B50BA0CA
:10C28000FEF7D2F900280CD00CA0FEF7CDF901285A
:10C2900008D00CA0FEF7C8F9012802D00BA0FEF7C9
:10C2A000C3F910BD07F034FD10BD00006F74615F6D
:10C2B00073746172742E7478740000006170702E53
:10C2C00062696E0073642E62696E000063792E628B
:10C2D000696E000010B506490028087307D00548AC
:10C2E000807B5A2803D90021072002F0B1F810BD45
:10C2F000682C00208825002010B5A521C9000E4813
:10C30000FBF795FF0C49322048600C4964200886F1
:10C31000022080310873072080310871084A00210B
:10C320001174064908228039CA77087702480549FE
:10C330008030016610BD0000002E0020403100203A
:10C34000A0320020CCCC000000487047002E002016
:10C350000148C07F70470000C0300020F7B5414C55
:10C3600086B020684049401C2060C96D0026401AF4
:10C37000FF21F5313D4F884203D90020387602F085
:10C38000F5FF38483A4908300190009106A80EC8D8
:10C3900002A805F08DFF02AB07CB683407C4314D0E
:10C3A00000237435743C03F05FF8696800290FD0EE
:10C3B00029686960401AC0100818286003F018FD49
:10C3C000002807D000200226387602F0CFFF0AE0CE
:10C3D0006860F2E7234861688030008F884202D9A4
:10C3E000304609B0F0BD06F04BFB06AB07CB02F0C0
:10C3F00003FD1D489C38014620310EC90EC007F0D0
:10C40000CDFC1C4D00280ED006AF07CF012302F053
:10C410008FFF15480121A038017407F0EFF9286853
:10C42000401C286004E006AF07CF002302F080FF25
:10C4300006F0D0FA00280ED00C48A038817F0029E1
:10C4400009D1C07F0326002802D06868401C6860BC
:10C45000012000F011F806AD07CDE36F07F030FEC4
:10C46000BEE70000002E0020802F00206031002059
:10C47000CA9402006C2000200349002801D0034820
:10C4800000E00348886070476C200020C039060037
:10C49000300B01003EB5AA2168460170BB21017135
:10C4A000CC210172124C6A46012100200BF07EF96A
:10C4B000012101AA08460BF079F902AA0121022004
:10C4C0000BF074F90BF0DEF8FDF7A6F80020A0736E
:10C4D0004620E0736074FDF737F9606000202A2180
:10C4E0002218401CC0B211770828F9D33EBD0000C5
:10C4F000782C00200D4841782038C07F5A2901D27D
:10C500005A2811D3884207D9421AD2B20A2A0BD329
:10C510005007400F081806E00A1AD2B2102A03D3B7
:10C520005007400F081AC0B270470000882C002046
:10C53000F8B5324C324EA07B0427756B002811D021
:10C54000022811D0032816D004280CD101F046F996
:10C55000002808D020682D1A05F058FC0227002872
:10C560002CD128E0A773F8BD25600320A560A07337
:10C570000BF00EF9F8BD01F031F9002816D0A560D6
:10C5800000F062FB207B0028F4D00020207320689C
:10C590002D1A022D01D906F049FD192DEAD905F011
:10C5A00035FC0028E6D10BF06DF8DBE7A068281A0F
:10C5B0000228F8D8F8BD307E002802D0012DD1D84D
:10C5C000F8BD10484B21007EC900022803D0032883
:10C5D00001D0042801D1F06D810A8D42F0D30848C2
:10C5E0006038007E0028EBD0FDF7AEF80449064A1B
:10C5F0008039496B89188142B4D9F8BD782C002064
:10C6000008260020882D00208813000030B504463D
:10C61000A1B00320402269468003FEF735F80D499A
:10C62000FF220B796D462046002B0ED0834200D8A6
:10C63000002044002B5D64196478182B05D23C2C33
:10C6400003D24B708C7021B030BD4A708A700020CC
:10C65000F9E70000C82D0020F0B5A1B06D46FEF747
:10C6600023FE234C002808D02248224E4078603E0A
:10C67000002808D0307C042805D90020A077207736
:10C68000607721B0F0BD1A4F2037387900281ED0CE
:10C690000320402269468003FDF7F6FFB17C0020AD
:10C6A0008E46717C3B798C460FE029786A78AD1C08
:10C6B00018290CD23C2A0AD28C4502D1964511D3B6
:10C6C00001E08C450ED3401CC0B28342EDD800205F
:10C6D000A0772077607738790028D2D00020FFF744
:10C6E00095FFCEE70120A07721776277F3E700007E
:10C6F000A82D002088260020F0B50327A1B004460D
:10C70000BF036E463846FEF7AAF820780D4D400864
:10C710002871202802D92020287101E0002802D0A9
:10C720000020FFF773FF4022611C3046FBF758FDE5
:10C73000402231463846FEF70DF80520687121B0D9
:10C74000F0BD0000C82D0020F8B5FCF7FDFF344C0B
:10C7500006466079002801D000F076FA01203149C0
:10C76000C302CF18412362795B01CD18130002F098
:10C77000DCF90504222936445300A97F002914D08E
:10C7800028492B7FA0314A7C9A420ED3897C6A7F4C
:10C7900091420AD360710021E9772170E0707D2118
:10C7A000C900052001F054FEF8BDE07C0028FBD153
:10C7B000FEF7D2FAF8BD0120BE63FEF7CDFA0220E3
:10C7C0006071F8BDB86BC830B042FAD20020FEF7F5
:10C7D000C3FA03206071BE63E87F401C1AE0B96BA6
:10C7E000FF319131B142ECD2E97F0229E8D3042034
:10C7F00060712078401C2070F8BD7D22B96B120159
:10C800008918B142F8D22178082901D30520D7E749
:10C8100060710020E877F8BDFFF71EFF0020CFE72A
:10C82000C82D00208825002010B50C4607F09AFB83
:10C83000024801684C600121817210BD80240020F3
:10C84000F8B5154C0E460746E088012189021546C9
:10C85000884202D30020C043F8BD07F083FB216863
:10C8600000200860216848602168C87321688D81B4
:10C8700021684E812168887721682020887321688B
:10C880007F20C8770120A072206839464089FEF7D2
:10C8900029F80620205EF8BD8024002010B50D4C3C
:10C8A000E188814215D307F05DFB2068808900286C
:10C8B00001D0FDF741FA20684089FDF73DFA206874
:10C8C000C17F7F2905D13F21C1770120A07200F0EF
:10C8D00083F810BD8024002010B50C4607F042FB01
:10C8E00006490968C87F7F2801D0002010BD20229A
:10C8F0002046FBF775FC012010BD000080240020BD
:10C9000010B50C4607F02EFB03482146006840890D
:10C91000FDF7CEFF012010BD8024002010B507F0E8
:10C9200021FB02480068C07B10BD0000802400206D
:10C9300070B500200A4C0126E0800546B602284664
:10C9400007F010FB2068C07FFF2806D0E0886D1C30
:10C95000401CADB2E080B542F1D3E08870BD00006C
:10C96000802400200148C0887047000080240020F7
:10C9700070B514460D4607F0F5FA04480168898938
:10C98000298000684068206070BD0000802400207D
:10C9900010B50C4607F0E6FA024801680C81012147
:10C9A000817210BD8024002010B50C4607F0DAFA21
:10C9B000024801680C600121817210BD80240020B2
:10C9C00010B50C4607F0CEFA02480168CC7301217D
:10C9D000817210BD8024002010B5064CA07A00287A
:10C9E00007D02089214680088039FDF7FDFE002010
:10C9F000A07210BD8024002010B507490020FDF76B
:10CA00008FFE054908468030016000218180018148
:10CA10008172FFF78DFF10BD0024002010B506497C
:10CA20000020086048608860C86003494039086099
:10CA300048600CF077F810BD4011014008B50020A7
:10CA4000124B05220421009008F0E8F8002803D0DA
:10CA50000FA2822108F07BF8114A0121114808F049
:10CA6000B7F8002803D00AA2882108F070F80D4812
:10CA70000D4A0121001D08F0ABF8002803D004A2E4
:10CA80008E2108F064F8002008BD00002833002043
:10CA90002E2E5C736F757263655C5254432E630077
:10CAA000E9CC01007820002061C2010010B50548E2
:10CAB000012100220904006808F00AF900F0C4F816
:10CAC000002010BD782000200A4B10B5084A5943B9
:10CAD000126A074B521A203308215956E1239B0052
:10CAE000594309B252180146104600F047F810BDEC
:10CAF00008260020805101000A4B10B5084A59430E
:10CB0000126A074B5218203308215956E1239B0023
:10CB1000594309B252180146104600F02FF810BDD3
:10CB2000082600208051010030B509493C250A6AD9
:10CB300020318C7CCB7C6C43E318497CE1242401BC
:10CB40006143C918034B58434018101A30BD000008
:10CB5000082600208051010010B5074908220B6A01
:10CB600020318A56E12189004A439A18014610462D
:10CB700000F004F810BD000008260020F8B50C46AF
:10CB800006462E49FBF702FB05462C48E121684387
:10CB9000371A2B4820800126A670E6700901384616
:10CBA000FBF7F4FAC0B2E121607109014843381A79
:10CBB0003C21FBF7EBFAA0713C213846FBF7E6FA83
:10CBC000E1710721E81CFBF7E1FA2171FF23002145
:10CBD0006F335F1E228890071DD03846854206D3EA
:10CBE000521C491C2D1AC9B22280C829F2D32078C0
:10CBF000800712D0134900200A5CAA4208D8A27804
:10CC0000521CA2700A5C401CAD1AC0B20C28F3D3AF
:10CC10007019E070F8BD1846E0E70A4900200C39A9
:10CC20000A5CAA42F4D8A278521CA2700A5C401C8A
:10CC3000AD1AC0B20C28F3D3EAE70000805101001E
:10CC4000B2070000BC95020010B5FCF77DFD0B4952
:10CC5000C86308462030017E00290DD101210176EC
:10CC6000084800220649406808F032F8002803D03E
:10CC700005A2C02107F06BFF10BD000008260020B0
:10CC80008F020000782000202E2E5C736F75726377
:10CC9000655C5254432E630010B5FCF755FD0949FD
:10CCA0007D22C96B1201891881420AD205482030C1
:10CCB000017E002905D0002101760348406808F074
:10CCC00049F810BD082600207820002010B5054C3A
:10CCD000206808F03FF8032100220904206807F0CB
:10CCE000F7FF10BD782000207CB5384C606A002822
:10CCF00011D001A807F064FF6A46616A019807F045
:10CD000059FF0098C50BE8030090616A08180002FB
:10CD1000000A606205E02D48243007F051FF606A88
:10CD2000C50B2A4E4036308940193081E8B2FCF7F5
:10CD300089F9E8B2FCF7FCF8606B40196063206A7F
:10CD400040192062307B802801D240193073F0896D
:10CD5000FF212D31884201D24019F08100F03EFDC3
:10CD6000002805D01A49887A3C2801D240198872D7
:10CD700016482C30FFF7F0FE144801222030817C49
:10CD8000837A994210D02277817201464031CB7E5E
:10CD9000002B09D0437C4D7FAB4205D38D7FAB4246
:10CDA00002D20B7F5B1E0B77C17B437A994204D082
:10CDB000A2774172074B05215971C37A417C8B429E
:10CDC00003D00C2900D16277C1727CBD08260020F7
:10CDD000C8280020C82D00207CB5002500950195AD
:10CDE000FCF7B2FC1A4E0446307E002802D068469A
:10CDF00000F078F817480069000CC007C00F06D093
:10CE0000FEF7C8FC317E002902D005F02FFA7CBD68
:10CE100004F020FE0E48C030C07D0028F7D0FEF799
:10CE2000C3FC4007F3D50A487D222038016FD200A9
:10CE3000611A914209D20567FEF736FA0028E6D05A
:10CE40000021084601F004FB7CBD04677CBD0000A6
:10CE5000A82500200005005010B50A20FCF713F8A3
:10CE6000FEF7D8FCFEF73AFD0249487300F04AF895
:10CE700010BD0000A825002010B588B0044604A805
:10CE800004F0CAFB04A80FC803936B4607C3230032
:10CE900001F04BFE0E261316262626191C261F0D02
:10CEA0000810222669460420085E08B010BD6846B6
:10CEB000407BFAE76846807BF7E76846007AF4E74C
:10CEC0006846407AF1E76846C07AEEE76846807ABD
:10CED000EBE76846007BE8E769460620085EE4E782
:10CEE0000020E2E71CB5028869460A8042884A8031
:10CEF000808888800199009802F054F906F086FE37
:10CF00001CBD000010B50C4CFCF71EFC012120607C
:10CF100021710020E08020816081A0812061A073C8
:10CF200020756075A075E175A076E0762076617653
:10CF300020776077A07710BD9C2D002003490979E8
:10CF4000814201D101207047002070479C2D0020B4
:10CF5000F8B5874C0027FCF7F7FB0220FFF7EEFF40
:10CF60000126002804D10320FFF7E8FF002804D0A1
:10CF700018216156782900DDA6762079002502283F
:10CF800001D0032804D1E17D02290DD003290BD063
:10CF9000012802D1E07D012806D06575207902289C
:10CFA00006D0032804D009E0607D401C6075F5E7D9
:10CFB0001522A256142A01DBA67506E0012804D129
:10CFC000152161560A2900DBA5752179E17500F06C
:10CFD00005FC002802D02576667602E0207E401C03
:10CFE0002076A07D002824D0207F4006000E2077E8
:10CFF000617F012902D1304320776577207FC30606
:10D00000DB0E844600210846324682401A4201D097
:10D01000491CC9B2401CC0B20528F5D3032900D36E
:10D02000A5756046800704D018216156002900DDEF
:10D03000A57518216156052904DD0120FFF77EFF43
:10D0400000280DD1182161565A290ADD0220FFF768
:10D0500075FF002804D10320FFF770FF002800D0DF
:10D0600065760120FFF76AFF00280CD0E07E0028DB
:10D0700005D0012801D0022803D0032715E0052799
:10D0800013E0012711E00220FFF758FF002804D128
:10D090000320FFF753FF002807D0E07E00280DD0C3
:10D0A000012801D002280BD00A27E07E002809D0F1
:10D0B000012801D0022807D05A2006E00C27F4E707
:10D0C0000827F2E7642000E050200E2161561F2956
:10D0D00001DA491CA1730C22A25E82420ADB032002
:10D0E000FFF72CFF002804D10220FFF727FF0028BC
:10D0F00000D0A6760C21615EB94201DB012000E080
:10D10000002007F02DF9206A0C2140002062615EAA
:10D110002246002928D0A577502901DB3043206220
:10D12000A581A07F0A2810D3206A0002000A0022ED
:10D130001146C30700D0521C4008491C2029F8DBC7
:10D14000082A02D30B480575C5742575216900208E
:10D1500032468240114202D1227D521C2275401C6F
:10D16000C0B21028F4D3F8BD907F401CA077D7E759
:10D170009C2D00204826002002480121817641771D
:10D18000704700009C2D002010B5084881680129D7
:10D190000AD107494968490706D500218160084638
:10D1A0000AF09CFF0BF0C4F910BD000000310040F4
:10D1B0000033004010B50021014809F039FE10BDD0
:10D1C00000400040FEB50020C043124D0290686947
:10D1D000019068462E6909F0E1F8074609F05AFB0C
:10D1E0000446002F08D002AA0199009809F0F6F829
:10D1F000029809F099FB06E0029809F095FB0028D7
:10D2000001D1002C02D0304608F048FA00206871A5
:10D21000FEBD0000DC2000200449012208785040B7
:10D2200008704968002900D008477047C4200020D2
:10D2300010B508484068002808D08047002804D06E
:10D24000FF21054A2A3107F082FC10BD09F064FA7B
:10D2500010BD000024210020EC9A02007CB50020C3
:10D26000009001A807F0ACFC0D4C6A46616A019879
:10D2700007F0A0FC7D21606BC9004843FBF7DAF999
:10D2800004460D460098FBF7D5F9064A064BFBF716
:10D290002FF922462B46FBF711F8FBF7FDF97CBD71
:10D2A00008260020FCA9F1D24D624040014800212F
:10D2B00001707047812000200149002008707047EC
:10D2C0008120002010B5034A0121117028DF03F0EE
:10D2D0008BFE10BD8120002010B5034C022323706B
:10D2E00029DF03F081FE10BD8120002000B500235E
:10D2F000FCF7F0FC00BD0000F0B591B02C4F00250C
:10D3000001266C46360304222146A819FDF7BCF914
:10D310002078FF2802D04035B542F4D3B54203D37C
:10D320003046FDF79CFA002540212046FAF77FFFA2
:10D3300078680090201D01F0A9F91D4920469C390C
:10D340004A7D203002730A7D42738A7D82730A7E91
:10D35000C273CA7D02743A7B4274CA798274154AD8
:10D360001279C274144A527A82758A7B0276002A34
:10D3700001D1012202760E4A2432D37C4376127DFB
:10D3800082760E4A127FC2760B4A203AD278027712
:10D39000002242778A88120A82770979C17740226F
:10D3A0002146A819FDF7D6F9012011B0F0BD000003
:10D3B00024260020C82D0020C8280020482C00204A
:10D3C00010B5044C0220FBF7C5FEE08A012108439A
:10D3D000E08210BDD428002010B5FDF748FAFCF714
:10D3E000C5FDFDF745F902490020486710BD000062
:10D3F0008825002010B585B00446684600F038F84E
:10D400006846007C20706846407C60706846807C7E
:10D41000A0706846C07CE07005B010BD10B586B045
:10D420000446684600F024F80FA1204601F052FBA4
:10D430006946C0B2097C2154401C6946C0B2497C8F
:10D440002154401C6946C0B2897C2154401C694665
:10D45000C0B2C97C2154401CC0B200212154401CE0
:10D46000C0B206B010BD00004342414E442000004F
:10D470003CB514490A6A0092496A01914821017039
:10D4800049214170432181704221C1706A460021C7
:10D49000535C1B09092B01D9372400E03024E31821
:10D4A0004C0024182371535C1B071B0F092B01D957
:10D4B000372500E03025EB18491C89B26371082933
:10D4C000E6D33CBD40000010054A0146D37B002056
:10D4D000002B03D08B4200D101207047D173FBE7B2
:10D4E0008825002000B587B0FFF7E0FA18216846CC
:10D4F000FAF79DFE6846FFF7BBFFFDF7C7FEFDF795
:10D50000D3FE002801D0002000E00120FDF774FCCC
:10D51000FCF7B8FC002804D0FDF7C6FE00280CD0AC
:10D520000EE0FDF7C1FE002801D0002000E0012040
:10D53000FDF79DF9FCF71AFD02E00120FDF7A2F9C5
:10D54000FDF796F800F0A4FF02F088FB00200649E2
:10D55000C043888505F0B4FAFEF790FE01F008FAA2
:10D56000FBF760FD07B000BD0829002010B5084C8E
:10D57000FBF73CFE002807D00120FBF7EBFDE08A1B
:10D5800080210843E08210BD00F00EF810BD0000BD
:10D59000D42800200349CA7B824201D10020C873ED
:10D5A000704700008825002010B5FDF77DFE00289B
:10D5B00001D0FFF7A1FE35DF10BD000010B509F066
:10D5C0001DF9002805D00E490C484860C8130D49C4
:10D5D00088610D48018CC9B201290ED1818C0907DF
:10D5E0000BD1018D0906090F042906D1808D000693
:10D5F000000F02D105490120886010BDDFFF07C080
:10D6000000050040006C0040C00F00F00006004024
:10D6100006490548496B0160002101728180C18083
:10D62000FF21373101827047882D00200826002015
:10D63000F0B5E5B0324CFCF787F80646207A0028B2
:10D6400017D0304D012817D00127022820D00328F9
:10D650000DD100F0C3F8002809D0686B2168451A85
:10D6600004F0E4FB002845D0022D00D9277265B0F4
:10D67000F0BD03202072FAE7FFF7E6FAFDF7EEFAB5
:10D68000686B206002202072E660FDF7D5FAEEE7B5
:10D69000E0680F30B042EAD2402009F0CBFAA08017
:10D6A000042009F0C7FAE08003202072FDF7D0FAC9
:10D6B000FF22A774913214496846FAF791FDE08879
:10D6C000A2881249801A4843002101E0801A491CAF
:10D6D0000028FBDC0E4A0020FF256B469035914266
:10D6E00005DA1E5C401C921B00B2A842F7DB6430D6
:10D6F0002082BCE7E12080008542B7D8B7E7000070
:10D70000882D0020082600204099020010270000E4
:10D7100006460000F8B51B4DFCF716F807461A49F7
:10D7200028684118B94205D229790020002900D083
:10D730002871687115480069C00AC007C00F20D160
:10D7400000F0E6FB0446FF281BD0A006460F60074A
:10D75000400F0090700701D5012100E0002128460C
:10D7600006F04EFA60060CD5F00703D02846009963
:10D7700006F014FCB00704D53A462846009903F099
:10D78000F5FBF8BDC8280020DC05000000050050AE
:10D79000084800214279002A04D001714171817149
:10D7A000072070478279002A02D08171C0797047C2
:10D7B00000207047C82800200148407A70470000C8
:10D7C000C828002002490022887A8A727047000027
:10D7D000C828002010B500F053FB10BD10B5FBF7B2
:10D7E000CFFB002801D0002010BD0148407A10BDB9
:10D7F000C82800200148807970470000C828002010
:10D8000010B5032803D0002000F02EFC10BD02202C
:10D81000FAE7000070B504460D461646FBF794FF84
:10D82000FDF742FD002823D0324629462046FEF768
:10D8300095FD04001CD0FEF78BFD012819D00028AF
:10D8400016D0E10714D00E4C022815D003280FD1B2
:10D85000206C401C206403F0DDFF616C40186064A4
:10D86000FBF772FFA066FFF787FC0120FBF72CFB9C
:10D8700070BD00F029F870BDE06B401CE063EAE782
:10D880008825002070B5FDF70FFD002818D00D4C3D
:10D890000025207F002802D004F08EFC2577A07F91
:10D8A000002802D004F012FCA577607F002807D082
:10D8B000044865778038C16DC5650166FFF722FBB6
:10D8C00070BD00000826002010B5FDF777FF094C59
:10D8D00001202076FBF738FF2146203948630020DD
:10D8E000A07600F0E1FB002802D00320FFF788FFBC
:10D8F00010BD0000A825002070B50546FBF724FFE9
:10D900001C490446002D08D1087E002830D0887EAE
:10D91000401CC0B2887602282AD300200876FFF780
:10D920006FFFFBF72DFB002807D0FEF79BFA0028BE
:10D9300003D10021042000F08BFDFBF761FC0028DF
:10D9400002D00020FBF722FCFDF774FFFEF7D4FCA9
:10D95000084E0949203E706B4018A04202D20020B8
:10D96000FEF78AFD7463002D02D104490120487539
:10D9700070BD0000A8250020E0930400E82D0020E1
:10D98000F0B50E46294993B01446002827D0092E39
:10D990003AD001466846FFF797F802AF00254022CB
:10D9A000D00139462818FCF76FFE3878FF2834D0AC
:10D9B00002996A46029809049278090EC0B28A4216
:10D9C00026D16946C978814222D1042E27D0062E5D
:10D9D00029D0072E25D0092E11D1039824E0042E3A
:10D9E00007D0062E0DD0072E06D0092E07D1086AC3
:10D9F00004E003C9401801E0C86803E0106013B0F8
:10DA0000F0BD88680009F9E7114600F04BF9F6E728
:10DA10000120000340358542C1D3002004E0049872
:10DA200002E0069800E005982060E8E7C4250020A1
:10DA3000F0B5044687B00020FFF776F869460491F8
:10DA40002249002640180590E681268266826F46AC
:10DA5000012526731022900239463018FCF714FE77
:10DA60003878FF2810D00098103640004008009009
:10DA70000599884224D90498007B022806D00328FF
:10DA80000CD0042810D019E0103619E0E0893C30A1
:10DA9000E081032D0FD0042D0DD00FE0208A3C3003
:10DAA0002082042D07D004E0608A3C306082032D80
:10DAB00001D0022D02D1207B401C20730498057BED
:10DAC0000120C0038642C5D307B0F0BD4057FFFF19
:10DAD000F0B504468DB00020FFF726F800260C961E
