:020000040001F9
:20800000983F0020558101006F8101007181010000000000000000000000000000000000AE
:2080200000000000000000000000000073810100000000000000000075810100778101005B
:208040007981010079810100B5D9010049CD010075CD01000000000039A90100D9880100FC
:20806000798101007981010079810100798101007981010079810100798101007981010028
:20808000798101005DC60100798101007981010085CD0100D9CD0100F1CD01007981010017
:2080A0007981010079810100000000000000000000000000000000000000000000000000CA
:2080C0000348854600F0F6FB00480047A95C0200983F0020401E00BF00BF00BF00BF00BF03
:2080E00000BF00BF00BF00BF00BF00BF00BFF1D170470000401E00BF00BF00BF00BF00BFB5
:2081000000BF00BF00BF00BF00BF00BF00BFF1D170470000401E00BF00BF00BF00BF00BF94
:2081200000BF00BF00BF00BF00BF00BF00BFF1D170470000401E00BF00BF00BF00BF00BF74
:2081400000BF00BF00BF00BF00BF00BF00BFF1D1704700000321094802680A43026008488F
:2081600002680A4302600748804707480047FEE7FEE7FEE7FEE7FEE7FEE700002405004073
:2081800054050040B9D10100C180010030B50B46014600202022012409E00D46D5409D4245
:2081A00005D31D469540491B2546954040191546521E002DF1DC30BD70B500242546002824
:2081C00001DA01244042002901DA01254942FFF7DDFFAC4200D04042002C00D0494270BDA2
:2081E00010B5431A934209D28318881803E0401E01785B1E1970521EF9D210BD03460B4317
:208200009B0703D009E008C9121F08C0042AFAD203E00B78491C0370401C521EF9D210BD9A
:20822000D2B201E00270401C491EFBD270470022F6E710B513460A4604461946FFF7F0FF25
:20824000204610BD421C0178401C0029FBD1801A704710B5002200E0521C835C8C5CA34291
:2082600001D1002BF8D1D8B2E1B2401A10BD30B504460020034600E05B1C934203D2E05C1F
:20828000CD5C401BF8D030BD30B505460020034600E05B1C934205D2EC5CC85C201A01D191
:2082A000002CF6D130BD0000F0B507460846584087B0C00F049048000E46590040084908DE
:2082C000BC1A884105D2384631461E4617460B46024658004008104303D13846314607B066
:2082E000F0BD300D039040055900400D490D0590401A029040286DDA18030121000B09053A
:208300000843019004980092002805D0019952420020884100920190029840210A1A019963
:20832000009800F0E1F905460C46684607C800F0FCF9C0197141039A0E0D0023D7175640F2
:208340001A467A40164340D0049A002A29D0029A012A039A11DC1205C01A91410126360563
:20836000001C7141D20F059ED2070093019202962A46234600F0F9F9B1E71605224A0F46E5
:20838000B218C01AB74101210905001C4F4100187F41114618187941E20F10436D196441DD
:2083A00013E0E2076D0815436408C2071443039A01261205C01A91413605001C7141CE0723
:2083C000400830434908C01851412A46234600F0BFF984E7049801224000C117121A002315
:2083E0008B4104983146C417381AA141EFE730B40124E407634030BC56E730B40124E40705
:20840000614030BC50E700000000E0FFF0B51FB488B00B990998002448400999C00F49005E
:2084200049080991C0070B990090490049080B9109990898A646084303D00B990A98084343
:2084400003D1002001460DB0F0BD099801244000420D4800410D099824050003000B204351
:2084600009900B980003000B20430B9050181A494018002201901446104601E0032801DA47
:20848000034600E003239C46C11A0AAE0AE05F0008ADED5B4F00F75B7D430027AA187C41CB
:2084A0005B1E491C6145F2DD410004AB5A522104120C0A43240C401C0828DFDB019802909C
:2084C0000099704601910090059B049A0799069800F04BF9B7E700000DFCFFFFF0B50C46DF
:2084E0005C4085B0E40FE40703944C000026640859009446490802460296224321D06246F6
:208500000A431ED06200570D4A000E032303550D012402462C492405781B1B0B360B40181A
:2085200023432643614600901C46501AB44103D30098401C009002E0921800985B41002832
:2085400003DA0020014605B0F0BD0020012109050746864611E064461D46141BB54106D310
:208560006546521BB341744607430C43A646CD0740084908284392185B4105460D43EAD13C
:208580001046184313D06046194650407140084303D100220123DB0709E06046101AB3410D
:2085A00002D20122002302E00122D2435310009874460105381C6141029C039D00196941D5
:2085C00000F0C6F8BFE70000FD03000070B54B005B0803430BD04B005C0D00263346654259
:2085E000B341D417AD1AA34102DB0020014670BD12053018514170BD0EB5C217C10F504066
:20860000CA0740180021054B0293019200910A460B4600F0AAF803B000BD0000330400002D
:208620000EB505490291002100910A460B46019100F09BF803B000BD3304000070B5CD0F86
:208640004A0009030123090B1B0519430B4BED070024520D9A4201DA002070BD074B343386
:208660009A4203DC9A1A00F04FF802E00449511888402C43F1D0404270BD0000FF03000013
:20868000CDFBFFFF4A0009030123090B1B051943094B10B5520D9A4201DA002010BD064B9D
:2086A00034339A4203DC9A1A00F02EF810BD03495118884010BD0000FF030000CDFBFFFFEF
:2086C00010B5002904DB0124E40740428C412146002B04DB1C460123DB075242A3418B4250
:2086E00000D1824210BD000010B5202A04DB0146203A9140002010BD914020239C1A0346B8
:20870000E3401943904010BD10B5202A04DB0846203AD040002110BD0B46D340D0402024F1
:20872000A21A91400843194610BD10B5202A06DBCB170846203A1041C1170B4306E00B460D
:208740001341D0402024A21A91400843194610BD10B5002B08DA0024401C614192185B4133
:208760001A4301D14008400010BDF0B51FB482B005460C0003D0084605F012FF02E005F076
:208780000FFF20300246009021462846FFF7ACFF049B059A04460F4618431143084303D182
:2087A0002046394607B0F0BD1846104317D0009840210A1A18460599FFF7A6FF05460E4685
:2087C000009A05990498FFF78FFF084301D0012000E00020C11705430E432C433743009911
:2087E0000E986305401A7905E40A0A3000220C43FD0A002802DA00200146D3E7010510199F
:2088000069410C9C0D9D00196941FFF7A1FFC9E7FEB500231A461B1A8A4103DB00200146D8
:2088200003B0F0BD4A000D0301212D0B0905520D0D43D10702D100186D41521E5110FF31F5
:20884000FF310131002704463E463846009701910246012100200905FFF756FFC3197141A9
:20886000F818324684468E464A4161462846611A904104D36046241A954176461F462419F7
:2088800000986D41401C00903428E1DDF91930467041091BA84103D20022D243134601E000
:2088A0000022134601980105381C7141FFF750FFB6E70000064C0125064E05E02046E36854
:2088C00007C82B4398471034B442F7D3FFF7FCFBD8DD0200F8DD0200044802680021002AFC
:2088E00003D0012201600248426070470071004000700040F0B50E4601468DB0FF31074623
:20890000E531154668460C9100F05EF91C46103C29D4314608A800F057F908A80FC8079321
:2089200004AB07C304A9384600F066F8009904981036484000BA286001990598484000BA87
:20894000686002990698484000BAA86003990798484000BAE86008A80FC803936B4607C36F
:208960001035103CD5D508A90C9800F02DF90DB0F0BD0000F0B5054600881435800032E094
:208980002C681A4B1A4E610031402246E609DF091A403E40921B174EFF43324051400E46E2
:2089A0004A001E403A40F709F61B124F3E40724017461F400E4B56001E40FB09FB1A0D4FB5
:2089C0003B405E400B4674405340734061401826F141594062401023DA414A400821CC41D9
:2089E000544010C5401E0428CADCF0BD80808080FEFEFEFE1B1B1B1BF0B50E4695B0018806
:208A0000079109010F18143704208100891940393F1FCA6B3B685A40CA63401EF5D190E0F1
:208A20000423481E1090D81C8007000F3058010E47484068425C991C8907090F71580902E2
:208A4000090E415C0491591C8907090F715A0904090E455C9907090F715C445C10990598B5
:208A6000884250DA049910464840039000F030F90499069069400846119100F029F9049069
:208A80002846604000F024F908902046504000F01FF9139004990698484000F019F90B9022
:208AA00004990898484000F013F901460A900B98484000F00DF9844611990B9861404140BA
:208AC0006046414006986A4041400A98624042406046424004984240039844400B98444054
:208AE0006046444008984440039845400A98454060464540139845400806110408432102F5
:208B00000843284306E004991006090408432902084320439A000CA951184039C8635B1E00
:208B200081D104200CA982005318403B3F1FDB6B3C6892196340403AD363401EF3D105989D
:208B4000401C07990590884200DA69E715B0F0BD00200020F0B5C1B003F026FA194BC11D73
:208B6000F93103C3002201216C46FF27CE091C37A1544D007E4375406940521CFF2AF4D9FA
:208B8000632500230570FF27F91A615C0A020A4311095609714096097140D60971405140CB
:208BA000E25C69405B1C8154FF2BEDD3054900200A684968135CC854401CFF28FAD941B035
:208BC000F0BD0000002000200A6812BA02604A6812BA42608A6812BA8260C96809BAC16033
:208BE00070470000FEB505460F463748FF2100901C46F5312846FFF71AFB002C11D0012C01
:208C000061D10E20288039462846082610311430FFF7DAFF3946281DFFF7D6FF6E803746E3
:208C200044E00A2028800426F4E7B80001902C5831463846FFF7C0FA002918D12348230423
:208C40000068E2B21B0E825CC35C12021B0413432202120E825C12061A43230EC05C104332
:208C6000009A1278140644400098401C0090082E13D1042911D11548E1B20068425C21046A
:208C8000090E415C090211432202120E825C12040A43210E405C04061443B81B8000401964
:208CA00041680198614040197F1C416028888000001DB842B9DC0020FF350146E135401C53
:208CC00029711028FBDBFEBD548202000020002001064000002901DA1B214840C0B27047E1
:208CE000002800DA4042704710B500231A4606E0C40701D05B1CDBB24008521CD2B28A4265
:208D0000F6D3184610BD10B50DF0E0F810BD10B5FFF772FC0EF064FBFFF790FC10BD000023
:208D20000648817A022907D0C17C142902D8807C782801D90020704701207047F824002033
:208D400007498A7A022A09D00A46A83A127E002A04D18A7C782A01D810188874704700009D
:208D6000F824002004498A7A022A04D0CA7C142A01D81018C8747047F824002010B502F0FB
:208D80008DF9002810D102F097F900280CD100F033F80D49002802D00020C88204E0C88AB2
:208DA000FF212D31884201D2002010BD00F007F900F078F9002802D0072000F02DF901F032
:208DC0003FFE012010BD0000F0240020094800B5002201468273C0318A81CA8200F00CF894
:208DE000002804D002208874CA768A7600BD8A7400BD000030240020044800694003C00F66
:208E000001D0002070470120704700000005005000B5FFF7F1FF002803D10448807B132864
:208E200001D9002000BD012000BD000030240020F8B5164C00F0DCFB0146E07A002813D0A7
:208E4000012814D0022812D10D4608F0E5F82074617C26460027C83E00290FD0677402F0F1
:208E60001DF9002804D005E0204605F075FDF8BD207C06E0A07A022805D005E0B17B884203
:208E800002D2B073F6E72560E772F8BDF824002010B501F0AFFE10200CF0F2FF0349C8811A
:208EA000012048760220C87410BD0000F024002000B50246FFF7A0FF002808D00449888984
:208EC000801880B2034A8881904200D98A8100BDF0240020302A000010B51F4B002286B0EA
:208EE00000282FD016292DD14178E1290BD0E22904D0E32904D0E42904D023E0012202E0C8
:208F0000022200E00322142469460C820024D100009401940294C91803948A8B69460A8039
:208F200001228A708C8004A9801C02910390988A6946A6DF08494031002806D0074A904260
:208F400000D10C77002006B010BD087F012801D9401E08770120F6E78027002004300000BA
:208F600070B5FEB015460E460446FFF7F3FD00231A4621466846FFF735FE6846FFF7FAFCE4
:208F800040232A4631466846FFF7B4FC7EB070BD30B50C468DB01546014610226846FFF7EC
:208FA0001FF91022214604A8FFF71AF968464DDF102208A92846FFF713F90DB030BD7047BD
:208FC00010B50878152818DD212804D0222808D0232812D10AE010000FD0392108A20901C6
:208FE00009E0100009D006A20A4904E0100004D0084903A2C91C0BF05CF9002010BD0000C4
:209000002E2E5C736F757263655C62746C652E63000000009303000010B5074C1321A08A67
:2090200076DF002803D005A2D6210BF042F902204034607710BD0000802700202E2E5C73E0
:209040006F757263655C62746C652E630000000070B50646FFF7D0FE00250C4C002809D1AA
:20906000FFF7D6FE002805D002F018F8002801D0657770BD002E01D0A57701E00120A077F1
:2090800001F0CEFD0520607770BD0000C02700201CB50446684666DF68468088207001206F
:2090A0001CBD00000348407F042801D00020704701207047C02700200348407F002801D017
:2090C0000020704701207047C027002070B52D4902460388084600254030172B1CD01CDC63
:2090E000012B26D00446102B28D0112B14D10020C043888201200D46607709F07DFD00F0D5
:2091000045F802F0ADFDA87D800705D402F0DEFE002801D004F046F870BD192B23D0392B30
:2091200003D0502B1BD0552BF6D10520FFF774FF70BD017F127A8918017770BD9088888280
:2091400004200E46607700F053FA3060E57700F04FFA0D49086030465C3062DF70BD1046DA
:2091600009F0F0F870BD91790029FBD1417F0529F8D1817F022903D00020FFF769FF70BD82
:20918000457770BD802700203024002005480021017641768181C1810348017A4906490E5F
:2091A00001727047802700203024002038B51E4C09F022FD20465C3062DF012168468170E7
:2091C0001F21C94301802246123269460120A0DF002827D1012115480BF0C8F913480221EE
:2091E000401C0BF0C3F911480321801C0BF0BEF90E480421C01C0BF0B9F90C480521001DF6
:209200000BF0B4F909480621401D0BF0AFF907480721801D0BF0AAF904480821C01D0BF02F
:20922000A5F9002038BD000080270020E1FF000010B512483521090144183921090140183D
:20924000407F030005F0C3F90510041010131000E08A002801D006F0D5FB4034A07F00285B
:2092600003D00020FFF7F4FE10BD0120FAE701F015FF0028F8D000F003F810BD3024002023
:2092800070B500F0B5F905463A4C02F01FFE002807D0394920684018A84268D203F082FF32
:2092A00065E0A07E0A2802D901F07AFD5FE0334920684018A8420FD2FFF768FF01F070FDB5
:2092C0002F48007A022803D0032801D0042808D10620FFF7A1FE04E0A089002801D100F0ED
:2092E0005FF82848007A000641D5E089A189884205D20120C00300F069FB00280DD1607EC1
:20930000217E884225D2208A01263603FF2806D8304600F091FA002801D0012070BD607EC8
:20932000401CC0B26076217E88420DD2002020820122052114A001F069F8A060002808D030
:20934000304600F079FAE8E7012205210EA001F05DF87D216068C9004018A84207D201F0ED
:209360001FFD00F021FA6560A07E401CA076002070BD00008027002030750000204E00004A
:20938000302B00203024002065706F63680000000248007F002800D001207047C02700202F
:2093A00070B50D4D0120C002A8810024EC8105210AA000F04FFE0006000E28766C7606D01A
:2093C0000022052105A001F021F8A8602C8205480472447270BD00008027002065706F63CC
:2093E00068000000F0250020F0B59BB006460F463022324902A8FEF7F3FE304930223031B6
:209400000EA8FEF7EDFE2E4C0525E800011908468030C031826BC36B0CC1C26881686D1E9B
:2094200042612D0601612D0EEFD120468030476106616038417A002907D000214172C034B9
:20944000C0C4304639461BB0F0BD002000900EAE0190E800011980314B690A69311803C92F
:20946000FEF7D4FF019B009AFEF71EFF6D1CEDB201910090062DECD300252E460127F800E7
:209480000119C0310CC902A9091803C9FEF7BEFF2A463346FEF708FF7F1CFFB205460E46D2
:2094A000062FECD3019B009AFEF7A7FFC03403C4FFF7C4F800B2FFF79FF8C4E7808402008A
:2094C000102A0020154830B50146012220310A724A720021CA001218002313635363136620
:2094E0001546536680352B61C0326B61491C1360C9B253600629EDD301463022E0310A743C
:209500004A7420390022064BCB638A63FF301146013001604360C360816030BD102A0020A0
:209520000000F03FF0B59BB006460F4630222E4902A8FEF755FE2C49302230310EA8FEF7DD
:209540004FFE2A4C0525E8000019C26D816D42660166C26A816A6D1E42632D0601632D0ED8
:20956000F1D12046676320302663017A002907D00021017267663046394626661BB0F0BD4B
:20958000002000900EAE0190E80001194B6B0A6B311803C9FEF73AFF019B009AFEF784FEB1
:2095A0006D1CEDB201910090062DEDD300252E460127F80001194B6E0A6E02A9091803C9D2
:2095C000FEF724FF2A463346FEF76EFE7F1CFFB205460E46062FECD3019B009AFEF70DFF13
:2095E00061662066CAE7000020840200102A002010B503F013FC10BD70B5214A0178134677
:20960000A03B0902198044781E4D091989B200241980A9420DD1146054608178C01C9970BB
:20962000002903D0012903D10AF032FC00F072F870BD144D6D1CA9420FD114605460C1786B
:209640000902596002791143090259604279114359608179997000220DE00A4A921C914204
:2096600002D0521C9142E3D1C1780A0201791143427909020A43811D184609F0D1FF70BD0B
:20968000B4260020E5FF0000F8B520480090051D80792F46401CA870FF20E870E220287131
:2096A000A87868718037072078620020A871E871072129722E46A036F8617073B8622C4692
:2096C00030700B221934025501216A702970009801700F48827F0A55C27F03213173022099
:2096E00002550B49E01C04221431FEF779FD072030732846102221460930FEF771FD102050
:209700007073F861009802210170F8BD3825002050270020F8B5134F1021B8793E46401CC7
:20972000B871A820C151FF20F871E1203872A436012131733C4600201D340055F91F3D1D99
:20974000601C0922F939FEF74BFD0A2232730020687001202870022038702146681DFEF7C6
:209760003FFDF8BD3825002070B50E4B10229979B024491C9971A821CA50FF21D971E12127
:20978000197201221946E254002618251D31181D7554457002700224401D1C70FEF720FD8F
:2097A00070BD00003825002070B5204C2546FF35C535FF342879CF34002835D1FF20207021
:2097C000E12060701620A07018488030416A090EE170416A090C2171818C090A6171808CFF
:2097E0001249A0710A6C486C8018020EE271020C2272020A6272A0720D4802881212E272ED
:2098000000782073C86C0009020A6273A073886C0009010AE17320740648407D607403F04A
:20982000A7FDA0740120287170BD000030240020302B0020102A0020F0B593B0064601A863
:20984000009005A80B9001A80A905E4C05A80D902079002802D16079002802D0012013B0AE
:20986000F0BD1B225848520185180D229201A17980180E90002923D000271CE0288800016C
:209880000C90B0421AD20E98042281690C98081801A900F077FE01980422400040080190ED
:2098A0000E9881690C98081801A900F0C5FE2888401C28807F1C2089B842DFD80020A0711D
:2098C00028880701B74201D30020C8E70120208116E00E98102280690099C01900F052FE09
:2098E00000980078FF2806D00198002803DA40004008019006E02888401C80B228800701D0
:20990000B742E6D3B7424CD22888050146E00E98102280690B99401900F034FE0B980078A7
:20992000FF283ED0059800283BDA4000400801990590884235D90D98017A0A98007A81428A
:209940002FD10D98417A0A98407A814229D10D98817A0A98807A814223D10D98C17A0A9819
:20996000C07A81421DD10D98017B0A98007B814217D10D98C1880A98C088814211D10D98F1
:20998000417B0A98407B81420BD10D98817B0A98807B814205D12089401C20811035B54256
:2099A000B5D32389012B01D9092201E00023082220460A300A9906F083FF012020716071D6
:2099C0004CE70000F425002030240020F0B591B0064601A8079008A80C9001A80690574C07
:2099E00008A80D902079002802D16079002802D0012011B0F0BDA079514D00281ED0002730
:209A000017E0E88B0001B04216D204221303C01801A9009000F06EFD019804224000400811
:209A2000019001A9009800F0CBFDE88B401CE8837F1C2089B842E4D80020A071E88B0701BB
:209A4000B74201D30020D4E70120208115E0102290023818079900F04DFD07980078FF287B
:209A600006D00198002803DA40004008019006E0E88B401C80B2E8830701B742E7D3B74253
:209A80004BD2E88B050145E01022900228180C9900F030FD0C980078FF283ED0089800282C
:209AA0003BDA4000400801990890884235D90D98017A0698007A81422FD10D98417A069806
:209AC000407A814229D10D98817A0698807A814223D10D98C17A0698C07A81421DD10D9812
:209AE000017B0698007B814217D10D98C1880698C088814211D10D98417B0698407B814230
:209B00000BD10D98817B0698807B814205D12089401C20811035B542B6D32389012B01D979
:209B2000092201E00023082220460A30069906F0C7FE0120207160715AE70000F4250020D5
:209B40007027002010B5002405F022FA002803D0641CE4B2052CF7D310BD0000F0B504468C
:209B600010460022084E0AE02578070A7D406D00755B00024540641C521CA8B292B28A42A6
:209B8000F2D35840F0BD00001085020010B50C4609F08CFD0448017902464900303254522C
:209BA0000121417110BD0000142100200348132100888903C001081A70470000142100202D
:209BC00070470000F8B52B4A2B4E9078134685011446D1781B88303410E04F00E75BB74228
:209BE0000BD126484E00A05368185B1C1380491CD170012180B25171F8BD491C4029ECD352
:209C00001321C9018B4233D01A494979002903D01849303100F0FCFC0027164C25E0A07805
:209C2000884225D2401C1349C0B24035A070ADB2303100F08DFC0F48002130304A00825A7D
:209C4000B2420ED10B4A0D484B003032D05222886818521C2280491CE170012180B26171A2
:209C6000F8BD491C4029E9D37F1CE168B942D6D80020F8BD14210020FF7F0000FF3F000032
:209C800010B509F013FD03480249007940003031085A10BD14210020F0B5194CA1B0A18B3B
:209CA000A069FEF773FA0025264620803036154F17E06946284600F04BFC11488022694649
:209CC0003030FEF78DFA00204100715AB94202D02188491C2180401C80B24028F4D36D1CBA
:209CE000ADB2E068A842E4D800250549A5703031284600F02DFCE570657121B0F0BD0000FE
:209D000014210020FF7F000070B5C0B0344C6946002000F007FC802020816D4620A90320B9
:209D200000F000FC3FA8023001F088F92D49002688424CD12846363001F085F92A49000271
:209D4000884244D102A8033001F078F9218988423DD105A8023001F071F9E0606846007CBF
:209D6000A077012833D16846407BA08304A8013001F064F9208404A8033001F05FF9608438
:209D800003A8023001F05AF9A084012021890004FEF7FCF90546608CA84218D3A18B401B32
:209DA000FEF7F4F9E0840220A071A561A08C2061208C00280CD068086061E08C2189400040
:209DC000401E0818FEF7E2F9E168884202D9002040B070BD0020C043A062A6850120F7E7BB
:209DE0001421002055AA00000046415410B530210248FEF71CFA00F003F810BD14210020BC
:209E0000F0B5A7B05A4C02206D46A07180212846FEF70DFA2946012000F0EBFB29460220B8
:209E200000F0E7FB8026268166810120A0831320C00160840427F000A784208441100F2096
:209E4000C001E0841E20E0600120A0772761A16100026061F022802128462592FEF7E7F92D
:209E60000B2244A12846FEF7BBF96946CE720020087301224A738F73C8730A7448748F74D5
:209E8000CE7409220A75259A4A753F220A764876FF228A76C876087748778877C8770BF0E3
:209EA00065FD08A9C871020A0A72020C4A72000E8872A08969468875000AC87508A90E71B0
:209EC00029208871284613222DA12B30FEF788F92946002000F08DFB21892846FEF7A7F94A
:209EE000552018A98877AA20C8772946032000F080FB00207F26249035E0FF228021284669
:209F0000FEF78EF901202E54801C8028FBD3FF212598C943014329701E4A010A11436970AA
:209F2000010C12121143A970000EFF210843E8702946002000F06CFB01270EE0FF228021F4
:209F40002846FEF76DF901202E54801C8028FBD32946384600F05CFB7F1CE068B842EDD8AD
:209F60002498401C2490A17F8142C6D827B0F0BD14210020EBFE904D53444F53352E300029
:209F80004E4F204E414D4520202020464154202020202000FFFFFF0010B5054841790029F6
:209FA00004D003498078303100F032FB10BD000014210020F1B50026A8B0354600F0ACF8B6
:209FC00002F0F0FA074600212898002F016001D0002415E0002029B0F0BD20A9204602F036
:209FE0009BFA00280AD0761CB6B26946204602F0A7FA6846FEF726F945190835641CA4B2F5
:20A00000BC42EAD3289805603046E4E770B5A8B0064600F081F802F0C5FA050018D000242B
:20A0200014E020A9204602F077FA00280CD06946204602F085FA31466846FEF70AF90028CB
:20A0400002D1204602F04AFA641CA4B2AC42E8D328B070BDF3B5A9B0299800260F460028A8
:20A0600024D0002F22D000F057F802F09BFA05001CD001A80024009016E0A0B221A902F0B3
:20A080004BFA00280FD0A0B201A902F059FA002006E000990A5C2999095C8A4203D1401C0B
:20A0A000B842F6D3761C641CAC42E6D330462BB0F0BD000010B504002BD0E07C002828D1E5
:20A0C000A07C002802D0204609F0F4FFE08902F045FAE2890146104602F092FA218AE089E4
:20A0E00002F076FA0B48017C0A04817C11430A02C17CE089114302F077FAE089216802F082
:20A10000B3F9FFF749FF02F087FA0020207502F02FFA10BDD024002010B50548007D00287A
:20A1200005D00348FFF7C6FF002001F003FF10BDC4210020002803D00068002800D00120E3
:20A1400070470000F0B5CDB00D4624A9019104A900910146802204A8FEF742F8FFF7DCFFA1
:20A16000324C0026E574012D26D0FFF795FDFFF71DFD0521C90288424CD3FFF723FD050031
:20A1800048D0FFF71FFD69460881020044D02946009802F075F9411C40D0711E2182A67427
:20A1A0002081694609896181A1812660E081012020751E484DB0F0BD02F0F4F9070029D02D
:20A1C000002510E0A8B244A902F0A6F9002809D0A8B2019902F0B4F900990198FEF739F8A6
:20A1E000002802D06D1CBD42ECD3BD4212D2A8B2E08103AA02A902F0DBF98020A074E08945
:20A200002081684600896081A0810398206060602675CEE70020CDE7284604E02846FFF7AF
:20A22000CFFC68460089FFF7CBFCF3E7C4210020F8B516460F46050007D02868B04200D2F2
:20A24000C6B2A87C802802D004E00020F8BD284608F0DAFCA87C1C498219802A09D24118F1
:20A2600032463846FDF7BCFFA87C34468019A8741EE08022121AD4B2411822463846FDF761
:20A28000AFFF381900901BE0301BC7B2802F00D380273A460C490098FDF7A2FFE019C4B2D6
:20A2A0000098C0190090802F0AD0AF74B442EBD32868A04200D2C4B2001B28602046F8BDC5
:20A2C000284608F0A1FCF1E75C220020F8B516460F46050014D02A8A3146384602F00EFE17
:20A2E0002882A87C1F498219802A0BD2401832463946FDF775FFA87C34468019A87427E0F5
:20A300000020F8BD8022121AD4B2401822463946FDF766FF381900908020A874284609F078
:20A32000C9FE002812D113E0301BC7B2802F00D380273A460B480099FDF752FFE019C4B24B
:20A340000098C0190090802F04D0AF74B442EBD32046F8BD8020A874284609F0ABFE002893
:20A36000F4D1F5E7DC210020F7B5A8B00E460024FFF7D2FE02F016F90746002542E0694699
:20A38000284602F0C9F800283AD02898844235D1019808AF010E2A9831542A9C0198641C59
:20A3A000000C30550198641C000A3055641C0198305568460089641C000A30556846641C52
:20A3C00000893055641C3946284602F0B9F83846FDF738FF401C85B27F20001B80B2854270
:20A3E00000D90546002078553555641C30192A463946FDF7F5FE60192BB0F0BD641CA4B24C
:20A400006D1CADB2BD42BAD32A98F5E7F7B5AAB00020009001200F460190FFF77DFE02F00A
:20A42000C1F8050024D002AE00241FE0A0B222A902F072F8002818D0A0B202A902F080F8A7
:20A44000002005E02A99325C095C8A420DD1401CB842F7D32C9800280DD0019800280AD013
:20A46000A0B202F03BF800200190641CAC42DDD300982DB0F0BD01213046FFF763FE00285D
:20A4800005D081890122C901120489180091FFF711FEEDE770B5A8B00646FFF73DFE02F0E3
:20A4A00081F8050014D0002410E0A0B220A902F033F8002809D0A0B2694602F041F831464A
:20A4C0006846FDF7C6FE002805D0641CAC42ECD3002028B070BD0120FBE7000010B51821C6
:20A4E0000348FDF7A4FEFFF7D7FB02F0A5F810BDC421002070B50D460446C1091646042046
:20A5000000F0BCF8002807D01320800320183246294601F0F9F870BDFF2280212846FDF790
:20A520007FFE70BD70B504460D462146002000F0A5F8002805D0E0018022294601F0E4F8DF
:20A5400070BDFF2280212846FDF76AFE70BD000070B504460D462146012000F08FF800282C
:20A5600008D007488022006929460019C00101F0CBF870BDFF2280212846FDF751FE70BDDF
:20A580001421002010B501F0BFF810BD70B504460D462146022000F071F8002808D0074839
:20A5A0008022406929460019C00101F0ADF870BDFF2280212846FDF733FE70BD142100206D
:20A5C00070B50E460446C109A0B01546042000F055F800280BD02A4631466846FDF700FE58
:20A5E0001320800320182A46694601F0AAF820B070BD70B504460D462146002000F03EF84F
:20A60000002804D0E0018022294601F09AF870BD70B504460D462146012000F02FF8002813
:20A6200007D004488022006929460019C00101F088F870BD1421002030B5A1B005461446D5
:20A640006846FDF7CDFD22466946284601F079F821B030BD70B504460D462146022000F0AE
:20A660000DF8002807D004488022406929460019C00101F066F870BD1421002010B503005D
:20A6800003F0A5FF0504070A0D10210004290DD219E0FC290AD216E0FF2907D813E00F20A6
:20A6A000C00101E00120400281420CD300F0F6FC002801D0002000E0012000F00EF802F00F
:20A6C00053FD002010BD012010BD1321890310B54018032101F01FF810BD70B5054600F019
:20A6E00014F80446284600F003F8001980B270BD014610B50020002906D013211024890314
:20A70000204604F0E3FC204610BD10B54C240021204604F0DBFC204610BD000070B50446A4
:20A720000D4621460320FFF7A9FF002808D007488022806929460019C00100F0E5FF70BD7A
:20A74000FF2280212846FDF76BFD70BD1421002070B504460D4621460320FFF78FFF0028F3
:20A7600007D004488022806929460019C00100F0E8FF70BD14210020FFB58DB000240894D8
:20A780000E98FDF75FFDC0B20A900E9809900F9800260B90374635460998FDF753FDC0B2C1
:20A7A00010E00999495D20395E2903D8761C6D1CF6B2EDB20999495DC90903D07F1CED1CB3
:20A7C000FFB2EDB28542ECD30B98102807D0082809D0002502A9002004AE099196E0F00046
:20A7E0003901401800E0F000C5B2F3E70E990B5C194620395E294AD80F98102802D0082856
:20A8000028D01DE04A481B011818FF38FF3810216A46023801F0CAF81098012814D0E10093
:20A8200008980822000109180D98081807466946FDF7D6FC3846803008220999FDF7D0FCEB
:20A84000641CE4B208985EE08020401B4010E1004118E5E717208003DB001818FF3808218E
:20A860006A46013801F0A2F81098012806D006200D996043401806226946DFE78020401B5E
:20A8800041100620604309180D980818F3E7D90940D00E99274F081820218C4619070B0C65
:20A8A000417880788906090D80061943800E0843010A0B464E3B6A46C0B2522B01D36021AE
:20A8C00000200902081840012721C0198903401A614601F06BF81098012820D0E1000898A8
:20A8E0001022000109180D98081807466946FDF777FC3846803010223146FDF771FC089804
:20A90000401CC0B208904100401800190A99884200D26BE7802D08D8284611B0F0BD802085
:20A92000401B4010E1004118D9E7FF20F5E7000000C3050000C905000348C16B002901D070
:20A940000021C163704700004061004010B5002006F0B6FC012006F0B3FC0121022006F08D
:20A96000B7FC032006F0ACFC042006F0A9FC052006F0A6FC0121062006F0AAFC01210720BA
:20A9800006F0A6FC082006F09BFC0021092006F09FFC0A2006F094FC032211460B2006F042
:20A9A00081FC0C2006F08CFC0D2006F089FC0E2006F086FC0F2006F083FC00220221102009
:20A9C00006F070FC112006F07BFC03220021122006F068FC0121132006F07AFC0322114668
:20A9E000152006F05FFC0121162006F071FC172006F066FC192006F063FC1B2006F060FC6C
:20AA00001C2006F05DFC1D2006F05AFC1E2006F057FC00211F2006F05BFC10BD01200449B3
:20AA2000C00748600321062033DF06202EDF70470063004010B500F0E5F902F043FC10BD2D
:20AA400010B50021142006F043FC2A490020887106F036FC012006F033FC022006F030FC69
:20AA6000042006F02DFC052006F02AFC062006F027FC072006F024FC082006F021FC092072
:20AA800006F01EFC0A2006F01BFC0B2006F018FC0C2006F015FC0D2006F012FC0E2006F0B2
:20AAA0000FFC0F2006F00CFC102006F009FC112006F006FC162006F003FC172006F000FCB6
:20AAC000182006F0FDFB192006F0FAFB1A2006F0F7FB1B2006F0F4FB1C2006F0F1FB1D208F
:20AAE00006F0EEFB1E2006F0EBFB1F2006F0E8FB10BD00003024002010B50121142006F0F3
:20AB0000E7FB02490120887110BD0000302400201CB50449086A496A0090019168460BF09F
:20AB20008FF91CBD8083020010B50F2006F0C8FB10BD10B501210F2006F0CAFB10BD000097
:20AB40001CB5002812D0012810D10949094C0869496901910090A07C002807D068460BF060
:20AB6000F3F90020A0740120FEF7CDF81CBD000080830200302400201CB5002811D0012885
:20AB80000FD10849084C8868C96801910090A07C002806D168460BF0EFF90120A074FEF717
:20ABA000B2F81CBD808302003024002000B587B0002819D00D49002203C90490CD20C00413
:20ABC00005910290182000901A20019003206946087304A80BF004FA04A80BF0CDF904490E
:20ABE00001208874FEF78FF807B000BD80830200302400201CB504498869C969009001916C
:20AC000068460BF01DF91CBD8083020010B5002801D0012100E00021092006F059FB10BD76
:20AC200010B517489AB000681890062430216846FDF7FDFA6846C4700121018218A80590A6
:20AC400030210CA8FDF7F3FA022108A801740CA9684609F05DFC7D24E400002803D020462B
:20AC6000FEF751F835DF03F0F1FE064873DF002803D02046FEF747F835DF1AB010BD0000C0
:20AC8000A8830200B02300207FB505460BF0B4FC7D24E400002803D02046FEF734F835DF4F
:20ACA000002D01D0012000E000206946087303A80AF07EFB002803D02046FEF724F835DFA7
:20ACC00001A805210130FDF7B2FA6946487901221043E12108400C30DF21084069464871B8
:20ACE000072088711020C871064800900A7106480AF084FC002803D02046FEF704F835DF44
:20AD00007FBD0000C18F01000820002070B50B4D352000012C18FEF76BFC39200001281851
:20AD2000C07F002809D000215E2001550320FEF773F9E08A02210843E08270BD302400207F
:20AD400010B5FFF7D9FE02F037FE03F0B1FEFFF7FDFD0022104910460BF0F8FF0F4901206C
:20AD60004874FFF723FF03F05FFA01F0C5F900F0EFFC02F0A9F8FFF751FE01F06FFEFEF7FE
:20AD800025F802F043FA00F0E5F84B20C000FDF7BAFF02F0F3FA10BD756B020030240020C0
:20ADA0007CB5154CFEF724FC054601F08FF800280AD120464030C17F00291AD10F49104B49
:20ADC0000A68D218AA4201D900207CBD0D60C82269460A80FF2241324A8004228A804B226D
:20ADE000D200CA80002E04D10121C17720465C3062DF01207CBD0000802700203024002012
:20AE00001027000070B51B48194C006900258002C00F00D001252078A84226D0FEF7E8FBE9
:20AE20000646A80025700019466002F03FF82078002818D1E66000F031F9002813D000F09D
:20AE4000C9FF0D490120C872FEF7D2FB0B49886302F0B6FE002802D000210A2001E000218B
:20AE6000072003F06DF8012070BD002070BD0000702B002000050050F0290020B027002078
:20AE8000F8B57D202F4C40010090617820782E4F01262E4D814219D1002819D100F0FEF8E7
:20AEA000002812D0FEF7A4FB6168009A401A90420BD37D20000108186060E07C401CE074FD
:20AEC000AE720920E872FEF74FFCF8BD002814D0A0686146091A0A29F7D36168401A217C3F
:20AEE00000292AD0B84228D200202074607C401C6074AE720720E872F8BDFEF779FB6168F3
:20AF0000401A0A28F8D3B84215D3002060702074A07C401CA074AE720820E8720C488079F9
:20AF2000002805D0FF210A482D31C030C182F8BD02F038F9F8BD2674F8BD667000202074AB
:20AF4000F8BD0000702B0020DC050000702700203024002070B50948074D0069002480029C
:20AF6000C00F00D001246C702C70FEF741FBA1004919486070BD0000702B0020000500507C
:20AF8000F1B5284F1B2080013D18687C86B0287406460490372040013C18234A234B61685D
:20AFA0002068FDF781F935225201BA18D1639063029003913046FDF733FB00221C4B01911F
:20AFC0000090FDF771F902460B4601990098FDF785FAE160A06006460F4606990498081A06
:20AFE000FDF70AFB32463B46FDF710FA019B009AFDF75AF900220F4BFDF756F9FDF742FBF4
:20B00000C0B26874054632463B4600200A49FDF7EEF9039B029AFDF7F9F903C4284607B044
:20B02000F0BD0000302400202D431CEBE2363A3F000070400000E03F0000F03F41780078B8
:20B04000090208437047C1780A02817811430A0241780078114309020843704710B5074C9B
:20B060000020FFF732FB01200003FFF72EFB0020207620606060A06010BD000058270020E8
:20B0800010B5054C0C2221460020FFF733FA0020E0752076A07510BD58270020044805499C
:20B0A0000089884201D10120704700207047000050270020A57F00000148007F7047000082
:20B0C00050270020F0B585B0F84CFEF791FA0546022002F05DF8F648217E02460A32039291
:20B0E000163201920D23F34A9B01D318029319235B01D61803231B02D718403000900B0029
:20B1000003F065FA110A3C627D8CC4D5F4F3F2F1F0EFEEEDECEBEF00E648007A81060FD525
:20B12000E54E0120756120762020607500F03CFFFF30FF300230B0608030F06005B0F0BD0D
:20B14000410605D5DC4F05207D612076402008E0800710D5D84FD9487D61B8610D20207654
:20B160000220707700F020FFFF30FF300230B8608030F860E2E700207077DFE701203077A9
:20B18000CD4EFF20BD633070C948756101F074FFC748CB491430F06103F0EEF90A22C4499F
:20B1A000B068FDF71DF8B06806210A3005F0ECFAB1682C20887206F057FDB268F0681146A8
:20B1C000FDF7E6FE0220F9E0B949BB4D1931E9611022A86803F0B2F90A220399A868FCF753
:20B1E000FFFFA86806210A3005F0CEFAA9682C2088720A46E868FDF7CBFE0320DEE00199F4
:20B200002C204876AA49AC4D3A31E9611022A86803F094F90420207600206AE1022001F089
:20B2200057FF002825D003F0EBFD0021A5A0FEF789FF07465A229E49FFF748F83846FEF784
:20B2400039FF022001F0A4FF00209B4920760D61984A0870137ADF252B4013728880707F26
:20B26000202887D10120A075801EE060FEF70CFA64E7914A9188481C90807D20C00081424C
:20B28000F6D90B2020760E20E07557E7012030778848BD63007A4006EAD506202076002149
:20B2A0008548FF22817042708180456146E7022001F00EFF002849D07F4E0025B58086A07B
:20B2C000FFF7E8F8012812D00B20207675700320E075022001F05CFF30E74DE13FE122E199
:20B2E00009E154E1BEE079E06AE052E03BE0012179A0FEF727FF054640686228284603D08D
:20B30000FEF7D8FE04200FE062226949FEF790FF2846FEF7CFFE019800782C2803D1009894
:20B3200040782C2804D00520E0750B202076D0E720225F48B16803F09BF806F095FCB26812
:20B34000F0681146FDF70CFE0720EFE75A488188491C89B281807D20C000814288D90B204B
:20B3600020760F2090E7544D1022A96850480E46FCF736FF4E4820223146213003F078F896
:20B3800006F072FCAA68E8681146FDF7E9FD082014E0494D1022A96803980E46FCF720FFC0
:20B3A000434820223146423003F062F806F05CFCAA68E8681146FDF7D3FD09202076BDE65D
:20B3C0003D48102281680198FCF70AFF0A20207602F0C4FA012000F081FEAFE614213448F2
:20B3E00008F09CFA324E2C20307515252020315C2C2906D071556D1C401CC0B2EDB22D280B
:20B40000F5D32D48C580009801F036FE142228480099FCF739FF0004000C05D02748F862D5
:20B420000920E0750B20C9E700200127224B6D1EE9B298610EE0725C303A0B2A04D30A2182
:20B44000E1750B21217607E07A4310180A225743491EC9B21529EED29861207E0B28AED019
:20B460000D20ABE7144D00262E706E70022001F02FFE002804D1A8887D21C900884237D95C
:20B48000022001F085FE0B492676087A9D22104008722E706E70AE800420A075401FE06099
:20B4A000FEF7F2F803F0ACFC48E6000058270020C8230020302400200C200020FFFFFF7FFE
:20B4C000AC83020073656375726974795F6465766963652E747874007365637572697479EE
:20B4E0005F736572766963652E74787400000000401CA88022E6012030772748BD63406AE1
:20B5000038632648BD228069F86225483081254870810E20207620488038017A1140017261
:20B5200002F020FA0AE60F202076707F40280ED0022812D00420A075F86AE060FEF7A4F89D
:20B54000FEF756F81549486100203077F6E50220A075124900204870EEE70320EBE70020AB
:20B56000FFF7B3F80C2221460020FFF729F8029810210170BD63E1E50B49B86B4018A84283
:20B5800092D201F00FFE029900200870D6E50B202076112078E60000B02400200C200020CB
:20B5A000A57F0000341200008813000010B5312005F0D6FD0148407810BD0000CA300020C0
:20B5C00010B5392005F0CCFD0148407810BD0000CA30002010B54721202007F09DFE012087
:20B5E000FDF791FB0921212007F096FE4021222007F092FE0021232007F08EFE4821242017
:20B6000007F08AFE0821322007F086FE0121332007F082FE262005F0A3FD2A21302007F05C
:20B620007BFE312005F09CFD002010BD10B500F00DF810BD10B52F2005F092FD02484078A4
:20B64000C006C00E10BD0000CA30002010B5214C607F002813D03F21382007F05DFE3021F8
:20B660003A2007F059FE10213B2007F055FE0A213C2007F051FE20213D2007F04DFE00217E
:20B68000322007F049FE0021332007F045FE4721202007F041FE0021212007F03DFE607F1B
:20B6A000002801D0842100E00421222007F034FE1821232007F030FE4821242007F02CFE0D
:20B6C00099212E2007F028FE0021252007F024FE002010BD1025002010B50446282005F038
:20B6E000DFFC062202492046FCF77AFD10BD0000CB30002010B50F2005F032FD014840782B
:20B7000010BD0000CA300020134610B50A46194600F04CF910BD10B5032905D0022907D0AB
:20B72000012908D0002909D000F078F8002010BD00F040F8FAE700F0A5F8F7E700F00CF850
:20B74000F4E7134610B50A46194600F0E5F810BD10B500F0CBF810BD30B5134D0024287859
:20B7600085B0002802D02C7000F0A4F900F0BAF90E49C720087016200D4900230191049043
:20B780000294039401220094084918460BF0E6FD08F064FB2878002803D10120287000F09C
:20B7A000EDF805B030BD00002C200020C0300020CA30002070B5164E04463078002586B096
:20B7C000002802D0357000F075F900F08BF9114852210170210C4170210A8170C470162057
:20B7E0000D490023019104900295039504220095084918460BF0B2FD08F030FB3078002874
:20B8000003D10120307000F0B9F806B070BD00002C200020C0300020CA30002070B5164EF0
:20B8200004463078002586B0002802D0357000F041F900F057F9114820210170210C4170C9
:20B84000210A8170C47016200D490023019104900295039504220095084918460BF07EFDB4
:20B8600008F0FCFA3078002803D10120307000F085F806B070BD00002C200020C0300020A9
:20B88000CA30002070B5164E04463078002586B0002802D0357000F00DF900F023F91148BE
:20B8A000D8210170210C4170210A8170C47016200D49002301910490029503950422009531
:20B8C000084918460BF04AFD08F0C8FA3078002803D10120307000F051F806B070BD00003C
:20B8E0002C200020C0300020CA3000200EB500F045F8074901200870684600F087F869460D
:20B9000004480978C1736946497801740EBD00002C20002050240020F7B50F46164E0446C7
:20B92000C51930786D1E002803D00020307000F0C1F8200A290A00020902884203D139460B
:20B940002046029A0DE0FF21201A01310D1AA9B22046029A06F0A6FD029A791B601952193B
:20B9600089B206F09FFD3078002803D10120307000F004F8FEBD00002C20002000B509497B
:20B9800085B0B920087000201621074A019204910290039003460090012202490BF0DEFC10
:20B9A00005B000BDC0300020CA300020F7B5154D04462878002686B00F46002802D02E70AA
:20B9C00000F078F8104803210170210C4170210A8170C4700898042201AC85C416210023D6
:20B9E00004910096084918460BF0B8FC0BF028FA2878002803D101202870FFF7BFFF09B0DF
:20BA0000F0BD00002C200020C0300020F0B5174D06462878002485B0002802D02C7000F029
:20BA200049F81349902008704C708C70CC700C714C71162006210F4F002303910490029477
:20BA40000122019700940A4918460BF087FC0BF0F7F938793070787970702878002803D1BF
:20BA600001202870FFF78AFF05B0F0BD2C200020C0300020CA30002010B50C4886B0052121
:20BA80000170AA214170002016210222084C04910290034601940392009004490BF05EFC1E
:20BAA0000BF0CEF9607806B010BD0000C0300020CA30002000B5094985B0AB2008700020A0
:20BAC0001621074A019204910290039003460090012202490BF042FC05B000BDC03000208F
:20BAE000CA30002010B50E480024017886B0002902D00470FFF7DEFF0A49062008701620D5
:20BB000009490023019104900294039401220094044918460BF022FC08F0A0F906B010BDCE
:20BB20002C200020C0300020CA3000207047704700210170084670470020704710B509487D
:20BB4000007F062809D002F03BF8002807D105482030C0780A38072801D8012010BD00200D
:20BB600010BD0000D029002010B5002806D0012801D0022801D100F073F810BD084600F0C0
:20BB80000BF810BD03480021C176032141770121C1777047502B002010B508490022CA7632
:20BBA0000122012807D04A778877CA770449062002F0DEF910BD03234B77F5E7502B0020F9
:20BBC000B80B000070B5FDF713FD244C0546E07F002801D001F06AF9E27F204E0020022100
:20BBE000203E130002F0F3FC060604070D1A2B06E177207770BD01207563FFF707F8032057
:20BC000027E0706B6430A842F4D20020FEF7FEFF0420E0777563E07E401C1DE0706BFF30D8
:20BC20009130A842E6D2E07E032806D30520E077207F401C2077756370BDE17770BD7D2307
:20BC4000726B1B01D218AA42F8D2227F637F9A4201D3E07770BDE177E07670BD502B00201E
:20BC600010B503490020C877FEF7D0FF10BD0000502B00208307FF22DB0E9A408907090E13
:20BC8000994000280BDA0007000F0838830808489B001B18D86990430843D86170478308E5
:20BCA00004489B001B181868904308431860704700ED00E000E400E070B505460024204612
:20BCC000B030C0B207F042FB102007F03FFB002007F03CFB1F200AF04DFA2946802007F0A9
:20BCE00003FB641C8035E4B2042CE8D370BD10B50446AE2007F02AFBD52007F027FBC1207B
:20BD000007F024FBA82007F021FB1F2007F01EFBAD2007F01BFB002007F018FB202007F0A8
:20BD200015FB022007F012FBD32007F00FFB002007F00CFB402007F009FB8D2007F006FBBB
:20BD40008D2007F003FB142007F000FBA02007F0FDFAC82007F0FAFADA2007F0F7FA122086
:20BD600007F0F4FA204600F019F8D92007F0EEFA222007F0EBFADB2007F0E8FA002007F096
:20BD8000E5FAA42007F0E2FAA62007F0DFFA10BD01498020C86070470005005010B504469D
:20BDA000812007F0D3FA204607F0D0FA10BD10B5002801D0AF2000E0AE2007F0C7FA10BD6A
:20BDC000034806210171024900203039C8777047002A002010B5084CFDF76EF9002802D0FD
:20BDE0000120FDF735F92079002801D0002010BD0120207110BD0000002A002070B52E4C19
:20BE0000FDF7F6FB05462079002801D001F04EF820790126030002F0DAFB083C050D1C210C
:20BE20003C3D473CFDF7E4FB206007200AF0A2F902202DE02068281A67282AD91F49802064
:20BE4000C8600220FCF75FFF07200AF093F903201EE0CC20FFF74BFF042019E0164830386A
:20BE6000C677FDF7C5FB1649164D0863124810384672287C04280AD10021052002F060F80F
:20BE8000062028741048417D6973807DA8730520207170BD0020FFF78AFFFFF779FFFDF7F2
:20BEA000A7FB20600720F3E7FDF7A2FB2168401A6728EED90020EBE7002A00200005005004
:20BEC000B0270020502B0020D02400200248007F002800D001207047F029002010B50BA07A
:20BEE000FEF7D8FA00280CD00CA0FEF7D3FA012808D00CA0FEF7CEFA012802D00BA0FEF704
:20BF0000C9FA10BD07F0C6FA10BD00006F74615F73746172742E7478740000006170702E3F
:20BF200062696E0073642E62696E000063792E62696E000010B506490028087707D0054868
:20BF4000807B5A2803D90021072002F011F810BDF02900203024002010B5A521C9000E4821
:20BF6000FCF765F90C49322048600C4964200882022060310873072080310871084A0021CC
:20BF8000117406490822A039CA77087702480549C030016210BD0000982B0020F82E002029
:20BFA00038300020CCCC000000487047982B00200148C07F70470000582E0020F7B5424C60
:20BFC00086B020684149401C2060C9690026401AFF21F5313E4F884203D90020387602F052
:20BFE000E9FE39483B4908300091019006A90EC902A805F0B3FD02A807C8334D2267E1665D
:20C0000074350023A06602F051FF696800290FD029686960401AC0100818286003F012FC06
:20C02000002807D000200226387602F0C3FE0AE06860F2E724486168A030008B884202D998
:20C04000304609B0F0BD06F05DF906A807C802F023FC1D488030034680331B1D0ECB643074
:20C060000EC007F05DFA1C4D00280ED006A807C8012302F081FE14480121E030017406F02A
:20C0800083FF2868401C286004E006A807C8002302F072FE06F0D4F800280ED00C48A038D0
:20C0A000817F002909D1C07F0326002802D06868401C6860012000F011F806A807C8E36F3E
:20C0C00007F0CCFBBCE70000982B0020582D0020F82E0020F68302003020002003490028D2
:20C0E00001D0034800E003488860704730200020C0390600300B01003EB5AA2168460170D2
:20C10000BB210171CC210172124C6A46012100200AF07AF9012101AA08460AF075F902AA85
:20C12000012102200AF070F90AF0DAF8FDF7CAF90020207546206075E075FDF759FA606089
:20C1400000202A2122182032401CC0B211700828F8D33EBD102A00200C48C17D407D5A2977
:20C1600001D25A2811D3884207D9421AD2B20A2A0BD35007400F081806E00A1AD2B2102A5C
:20C1800003D35007400F081AC0B27047102A0020F8B5334C334F207D0426BD6B002811D0D8
:20C1A000022811D0032816D004280CD101F0EAF8002808D020682D1A05F098FA02260028E1
:20C1C0002CD128E02675F8BD25600320A56020750AF00CF9F8BD01F0D5F8002816D0A56043
:20C1E00000F064FE207B0028F4D00020207320682D1A022D01D906F0FDFA192DEAD905F0F0
:20C2000075FA0028E6D10AF06BF8DBE7A068281A0228F8D8F8BD387F002802D0012DD1D830
:20C22000F8BD11484B21007AC900022803D0032801D0042803D10B484030806A810A8D4241
:20C24000EED308486038007E0028E9D0FDF7D0F90449064A8039496B89188142B2D9F8BD6B
:20C26000102A0020B0240020302B00208813000030B50446A1B00320402269468003FEF72E
:20C2800039F90D492046CC7BFF236A46002C0ED0844200D800204500545DAA185278182C09
:20C2A00005D23C2A03D24C738A7321B030BD4B738B730020F9E70000502B0020F0B5A1B0A5
:20C2C0006E46FEF7EBFE0025204C002808D020481F4FC079603F002807D0387D042804D9D0
:20C2E000A5722572657221B0F0BDE07B00281ED00320402269468003FEF7FCF8B97D0020D4
:20C300008E46797DE37B8C460FE031787278B61C18290CD23C2A0AD28C4502D1964510D30C
:20C3200001E08C450DD3401CC0B28342EDD8A57225726572E07B0028D5D00020FFF798FFB9
:20C34000D1E70120A07221726272F3E7502B002030250020F0B50327A1B00446BF036E46C1
:20C360003846FEF7B2F920780D4D4008E873202802D92020E87301E0002802D00020FFF75B
:20C3800077FF4022611C3046FBF72AFF402231463846FEF715F90620287421B0F0BD00001D
:20C3A000502B0020F8B5FDF723F92C4C0546207C002801D000F07AFD217C284E002701200B
:20C3C000203E0B0002F003F90705151B293914461400A17A00290BD02149237A4A7D9A4231
:20C3E00006D3897D627A914202D32074E7722773F8BD01207562FEF709FC02201BE0706AB5
:20C40000C830A842F4D20020FEF700FC032020747562E07A401CE072F8BD716AFF3191314B
:20C42000A942F9D2E17A032905D304202074207B401C2073F8BD2074F8BD0A4A716A8918D7
:20C44000A942F9D2217B022901D30620F3E72074E772F8BDFFF732FF2774F8BD502B0020D7
:20C46000D02400203075000010B50C4607F03CF9024801684C600121817210BD5C230020E0
:20C48000F8B5154C0E460746E088012189021546884202D30020C043F8BD07F025F9216868
:20C4A00000200860216848602168C87321688D8121684E812168887721682020887321683B
:20C4C0007F20C8770120A072206839464089FEF73FF90620205EF8BD5C23002010B50D4C38
:20C4E000E188814215D307F0FFF820688089002801D0FDF765FB20684089FDF761FB206833
:20C50000C17F7F2905D13F21C1770120A07200F083F810BD5C23002010B50C4607F0E4F8D1
:20C5200006490968C87F7F2801D0002010BD20222046FBF755FE012010BD00005C23002015
:20C5400010B50C4607F0D0F80348214600684089FEF7E4F8012010BD5C23002010B507F008
:20C56000C3F802480068C07B10BD00005C23002070B500200A4C0126E0800546B602284614
:20C5800007F0B2F82068C07FFF2806D0E0886D1C401CADB2E080B542F1D3E08870BD0000DA
:20C5A0005C2300200148C088704700005C23002070B514460D4607F097F8044801688989D6
:20C5C000298000684068206070BD00005C23002010B50C4607F088F8024801680C81012166
:20C5E000817210BD5C23002010B50C4607F07CF8024801680C600121817210BD5C230020BA
:20C6000010B50C4607F070F802480168CC730121817210BD5C23002010B5064CA07A0028D8
:20C6200007D02089214680088039FEF713F80020A07210BD5C23002010B507490020FDF70B
:20C64000A5FF05490846803001600021818001818172FFF78DFF10BDDC22002010B5064971
:20C660000020086048608860C86003494039086048600BF073F810BD4011014010B5064ACB
:20C680000121064807F056FE002803D004A21D2107F00FFE002010BD15C901003C200020B4
:20C6A0002E2E5C736F757263655C5254432E630010B5024800F004F8002010BD8F020000E2
:20C6C0007CB505460020204C009001902068A84203D1FCF78DFF60607CBDFCF789FF256073
:20C6E000FCF786FF6060684607F01CFE164C01AA403CA16A009807F00FFEE06B0199A26B21
:20C700004018218D114E4904490C4018C10B5218C903401AA263E063306807F0CDFE00229A
:20C720002946306807F086FE002803D008A25A2107F0BFFDE06B2030E0630348183807F034
:20C74000F1FDFCF755FF7CBDF02400203C2000202E2E5C736F757263655C5254432E63009C
:20C760000A4B10B5084A5943526A074B521A20330C215956E1239B00594309B25218014661
:20C78000104600F047F810BDB0240020805101000A4B10B5084A5943526A074B52182033AE
:20C7A0000C215956E1239B00594309B252180146104600F02FF810BDB024002080510100F6
:20C7C00030B509493C254A6A20318C7DCB7D6C43E318497DE12424016143C918034B584363
:20C7E0004018101A30BD0000B02400208051010010B507490C224B6A20318A56E121890050
:20C800004A439A180146104600F004F810BD0000B0240020F8B50C4606462E49FBF7B6FC29
:20C8200005462C48E1216843371A2B4820800126A670E67009013846FBF7A8FCC0B2E12103
:20C84000607109014843381A3C21FBF79FFCA0713C213846FBF79AFCE1710721E81CFBF752
:20C8600095FC2171FF2300216F335F1E228890071DD03846854206D3521C491C2D1AC9B252
:20C880002280C829F2D32078800712D0134900200A5CAA4208D8A278521CA2700A5C401C35
:20C8A000AD1AC0B20C28F3D37019E070F8BD1846E0E70A4900200C390A5CAA42F4D8A278A2
:20C8C000521CA2700A5C401CAD1AC0B20C28F3D3EAE7000080510100B2070000EC84020015
:20C8E00010B5FCF785FE0A497D22496812018918814208D20648C0388079002804D00120AD
:20C900000004FFF7DDFE10BD01204004F9E70000F0240020FEB501A807F004FD2D4D6A467E
:20C92000A96A019807F0F8FC00980126C40BE0030090A96A2F4608180002000AA862264833
:20C9400040370673388A00193882E0B2FCF7B0FAE0B2FCF7F5F9A86B0019A863686A00198E
:20C960006862387D802801D200193875F88AFF212D31884201D20019F88216483030FFF713
:20C9800037FF14482030817D827B914210D006708173014660314A78002A09D0427DCB78FE
:20C9A0009A4205D30B799A4202D28A78521E8A70C17C427B914204D086704173074A062160
:20C9C0001174C27B417D8A4203D00C2900D14670C173FEBDB0240020102A0020502B0020A4
:20C9E0007CB5002500950195FCF702FE194E0446307E002802D0684600F076F81648006997
:20CA0000C003C00F06D0FEF7D1FD317E002902D005F09CF87CBD04F083FC0E48C030407F07
:20CA20000028F7D0FEF7CCFD4007F3D509487D222038416FD200611A914209D24567FEF7A6
:20CA40002DFB0028E6D00021084601F091FA7CBD44677CBD502400200005005010B50A20F0
:20CA6000FCF751F9FEF7E2FDFEF744FE0249487300F04AF810BD00005024002010B588B0D8
:20CA8000044604A804F088FA04A80FC803936B4607C3230001F09BFD0E2613162626261902
:20CAA0001C261F0D0810222669460420085E08B010BD6846407BFAE76846807BF7E768466B
:20CAC000007AF4E76846407AF1E76846C07AEEE76846807AEBE76846007BE8E769460620BD
:20CAE000085EE4E70020E2E71CB5028869460A8042884A80808888800199009802F044F884
:20CB000006F048FC1CBD000010B50C4CFCF770FD0121206021710020E08020816081A0812E
:20CB20002061A07320756075A075E175A076E076207661762077607710BD0000342B0020F9
:20CB4000F8B57A4C0026FCF753FD7949496B471A022004F0C1FD0125002804D1032004F014
:20CB6000BBFD00280CD072482030007E002807D07048874204D9182161561E2900DDA576E5
:20CB800020790027022801D0032804D1E17D02290DD003290BD0012802D1E07D012806D015
:20CBA00067752079022806D0032804D009E0607D401C6075F5E71522A256142A01DBA575CB
:20CBC00006E0012804D1152161560A2900DBA7752179E17500F0D6FB002802D02776657637
:20CBE00002E0207E401C2076A07D002824D0207F4006000E2077617F012902D12843207721
:20CC00006777207FC306DB0E8446002108462A4682401A4201D0491CC9B2401CC0B2052872
:20CC2000F5D3032900D3A7756046800704D018216156002900DDA77518216156052913DDF0
:20CC4000012004F049FD00280DD1182161561E290ADD022004F040FD002804D1032004F0EE
:20CC60003BFD002800D06776012004F035FD00280CD0E07E002805D0012801D0022803D00A
:20CC8000032615E0052613E0012611E0022004F023FD002804D1032004F01EFD002807D0DC
:20CCA000E07E00280DD0012801D002280BD00A26E07E002809D0012801D0022807D05A200E
:20CCC00006E00C26F4E70826F2E7642000E050200E2161561F2901DA491CA1730C22A25ED6
:20CCE00082420ADB032004F0F7FC002804D1022004F0F2FC002800D0A5760C21615EB1428E
:20CD000001DB012000E0002006F0D2FEA7812775216900202A468240114202D1227D521C7D
:20CD20002275401CC0B21028F4D3F8BD342B00203024002040771B000248012181764177FA
:20CD400070470000342B002010B50848816801290AD107494968490706D50021816008461E
:20CD600009F0ECFF0AF030FA10BD0000003100400033004010B50021014809F07FF910BD8D
:20CD800000400040FEB50020C043124D02906869019068462E6908F06BFC074608F0C2FE41
:20CDA0000446002F08D002AA0199009808F080FC029808F001FF06E0029808F0FDFE0028A3
:20CDC00001D1002C02D0304607F0FCFE00206871FEBD00008C20002004490122087850401C
:20CDE00008704968002900D0084770477420002010B508484068002808D08047002804D0D7
:20CE0000FF21054A2A3107F054FA10BD08F0EEFD10BD0000D4200020B8DC02007CB500208B
:20CE2000009001A807F07EFA0F4C6A46A16A019807F072FAE06B0099461800967D21A06BB7
:20CE4000C9004843FBF7ECFB05460C463046FBF7E7FB064A064BFBF741FB2A462346FBF724
:20CE600023FAFBF70FFC7CBDB0240020FCA9F1D24D62404008B50020064B072206210090C6
:20CE800007F07EFA002803D003A2472107F011FA08BD0000D43000202E2E5C736F7572634C
:20CEA000655C737973636C6B2E63000010B50248FFF706FC10BD00008F02000001480021B8
:20CEC000017070474120002001490020087070474120002010B5034A0121117028DF03F0E0
:20CEE00073FD10BD4120002010B5034C0223237029DF03F069FD10BD4120002000B5002321
:20CF0000FCF72CFE00BD0000F0B591B02A4F002501266C46360304222146A819FDF7EAFA7B
:20CF20002078FF2802D04035B542F4D3B54203D33046FDF7CAFB002540212046FBF777F9E3
:20CF400078680090201D01F01DF91B492046A0394A7D203002730A7D42738A7D82730A7E2E
:20CF6000C273CA7D02743A7B4274CA798274134AD27BC274124A527B82758A7B0276002A74
:20CF800001D1012202760C4A2032937E4376D27E82760C4A127BC2760022027742778A88E9
:20CFA000120A82770979C17740222146A819FDF707FB012011B0F0BDD0240020502B0020E4
:20CFC00070270020F029002010B5044C0220FCF723F8E08A01210843E08210BD802700204F
:20CFE00010B5FDF77AFBFCF701FFFDF777FA02490020886710BD00003024002010B585B016
:20D000000446684600F038F86846007C20706846407C60706846807CA0706846C07CE07010
:20D0200005B010BD10B586B00446684600F024F80FA1204601F0A0FA6946C0B2097C2154B3
:20D04000401C6946C0B2497C2154401C6946C0B2897C2154401C6946C0B2C97C2154401C8F
:20D06000C0B200212154401CC0B206B010BD00004342414E442000003CB514490A6A00928B
:20D08000496A01914821017049214170432181704221C1706A460021535C1B09092B01D9BB
:20D0A000372400E03024E3184C0024182371535C1B071B0F092B01D9372500E03025EB182D
:20D0C000491C89B263710829E6D33CBD40000010054A0146D37B0020002B03D08B4200D109
:20D0E00001207047D173FBE73024002000B587B0FFF7DEFA18216846FBF799F86846FFF7F6
:20D10000BBFFFDF7BDFFFCF7FFFD002814D0FDF7C5FF002822D00020FDF7B6FDFDF7DEF946
:20D1200000F048FF02F0D8FAFEF7D8FE01F090F9FBF7AEFE07B000BDFDF7B0FF002804D0FE
:20D140000020FDF7CAFA002003E00120FDF7C5FA0120FDF799FDFCF749FEDFE70120FDF760
:20D16000C7FA0120D8E7000010B5084CFBF79AFF002807D00120FBF74FFFE08A80210843B4
:20D18000E08210BD00F00EF810BD0000802700200349CA7B824201D10020C873704700009D
:20D1A0003024002010B5FDF779FF002801D0FFF7ABFE35DF10BD000010B508F067FC002809
:20D1C00005D00E490C484860C8130D4988610D48018CC9B201290ED1818C09070BD1018D20
:20D1E0000906090F042906D1808D0006000F02D105490120886010BDDFFF07C00005004001
:20D20000006C0040C00F00F00006004006490548896B0160002101728180C180FF2137310E
:20D2200001827047202B0020B0240020F8B5234CFCF7DEF90646207A002816D0204D0128E5
:20D2400016D0012702281DD003280DD100F09AF8002809D0A86B2168451A04F057FA0028B5
:20D2600026D0022D00D92772F8BD03202072F8BDFDF75FFCA86B206002202072E660FDF728
:20D2800047FCF8BDE0680F30B042FAD2402008F0F7FD0A4D103DA882042008F0F1FDE882C3
:20D2A00003202072FDF740FCA77401F035FDF8BD4B20C0008542D6D8F8BD0000202B0020D6
:20D2C000B0240020F8B51D4DFCF792F907461C4928684118B94205D229790020002900D09D
:20D2E00028716871174800690005C00F24D10AF093FD012820D000F0ADFB0446FF281BD094
:20D30000A006460F6007400F0090700701D5012100E00021284606F037F860060CD5F0078B
:20D3200003D02846009906F0FBF9B00704D53A462846009903F008FBF8BD000074270020AC
:20D34000DC05000000050050084800214279002A04D0017141718171062070478279002A55
:20D3600002D08171C079704700207047742700200148407B704700007027002010B500F040
:20D3800021FB10BD10B5FBF737FD002801D0002010BD0148407B10BD702700200148807A08
:20D3A00070470000702700207047000070B504460D461646FCF71CF9FDF770FE002823D0A5
:20D3C000324629462046FEF7F9FD04001CD0FEF7EFFD012819D0002816D0E10714D00E4CFE
:20D3E000022815D003280FD1606C401C606403F0D3FEA16C4018A064FCF7FAF8E066FFF7D9
:20D400009BFC0120FBF7AEFC70BD00F027F870BD206C401C2064EAE73024002070B5FDF785
:20D420003DFE002816D00C4C00252078002802D004F030FB2570A078002802D004F0B4FA2C
:20D44000A5706078002805D003486570A0384566FFF75AFB70BD0000D024002010B5FEF7F9
:20D46000B9F8094C01202076FCF7C2F82146203948630020A07600F0A3FB002802D00320F6
:20D48000FFF792FF10BD00005024002070B50546FCF7AEF81B490446002D08D1087E002839
:20D4A0002ED0887E401CC0B28876022828D300200876FFF779FFFBF79FFC002807D0FEF7EA
:20D4C0003DFB002803D10021042000F051FDFBF7F3FD002802D00020FBF7BAFDFEF7B6F84D
:20D4E000FEF73AFD074D0849203D686B4018A04202D20020FEF7F2FD044901206C63487024
:20D5000070BD000050240020E0930400902B0020F7B501462A48002692B01446002925D0B3
:20D520006846FFF71DF902AF00254022D00139462818FCF7DFFF3878FF2834D002996A4672
:20D54000029809049278090EC0B28A4226D16946C978814222D113980126042825D0062807
:20D560002CD0072826D0092821D125E01399042906D006290FD0072906D0092907D108E0AD
:20D5800041688068081801E0006905E0106001260DE0806AFAE7C0680009F7E701204035B7
:20D5A00000038542C1D3002000E004982060304615B0F0BD0698F9E70398F7E70598F5E799
:20D5C0006C240020F0B5044687B00020FFF7F8F8694604912249002640180590E68126829E
:20D5E00066826F46012526731022900239463018FCF780FF3878FF2810D0009810364000FD
:20D60000400800900599884224D90498007B022806D003280CD0042810D019E0103619E06B
:20D62000E0893C30E081032D0FD0042D0DD00FE0208A3C302082042D07D004E0608A3C30AE
:20D640006082032D01D0022D02D1207B401C20730498057B0120C0038642C5D307B0F0BD97
:20D660004057FFFFF0B504468DB00020FFF7A8F800260C960896079600960B9026606660B3
:20D680002681668102ADE6822F4626751022900239463018FCF72EFF3878FF2818D00298D1
:20D6A0000B99400040081036029088422AD9287A697A4018216809182160EA7A61688918C3
:20D6C000616000280BD02089A97A401820810AE00C98002801D101200C90103612E060895B
:20D6E000A97A40186081A87B00280BD00098401C0090697B0798081807900421695E08985E
:20D70000081808900120C0038642BFD30098002809D001460798FAF739FD2075009908989F
:20D72000FAF734FD01E000202075E0820DB0F0BDF0B5044687B00020FFF742F80025059530
:20D74000049506906560A56025616E46E560374625601022900239462818FCF7CBFE387860
:20D76000FF281FD0009806994000400810350090884222D9317A606840186060717AA068BC
:20D780004018A060F17AE0684018E060B17A206940182061307B02280CD003280AD0042877
:20D7A00008D00AE00498002802D1012005950490103502E020683C3020600120C00385427B
:20D7C000C7D3E0680001E060206900012061059807B0F0BDF0B585B00020FEF7F1FF69468C
:20D7E0000491174900254A7D2C466E460C2A01D3144A01E0134A524287181022900231460E
:20D800002018FCF777FE3078FF280FD000981034400040080090B8420BD90498007B0228A7
:20D8200006D0032804D0042802D002E0103400E03C350120C0038442DFD3284605B0F0BD72
:20D84000D0240020C0A80000F8B50D4604460121284603F0FFFA684603F0E2FC3C4E706AA3
:20D860003C38206068464088A08068782072A87860722879A072E878E07228782073684674
:20D880000078607368464078A073E888E08000F055FD401D0A21FAF779FC0007000FE0735B
:20D8A000317F09010843E073607A217A40183C2803D90021304680300170684640780028BD
:20D8C00030D0FBF795FE2349096B401A2249884228D9607A962807D996382D2802D9400895
:20D8E00094301EE086301CE0502805D950382D2800D940087D3014E0217A4018782805D94E
:20D900007838232800D940086F300AE0642801D9801C06E0502801D9103002E03C2801D9C8
:20D9200017306073E0880121C9030843E080607B282805D907492031CA7D904201D9C875F2
:20D94000F8BD121AD2B21E2AF9D952088018F6E7B0240020F029002060EA000010B5FEF748
:20D96000FBFA10BD10B50CA0FCF794FD012802D001F050FF10BD012107A0FCF7E3FB044604
:20D980001C220B49FCF754FC2046FCF793FB02A0FCF73CFB10BD00006163746976697479C5
:20D9A0005F696E69745F746F74616C2E736B64006C24002070470000014900200860704771
:20D9C00000250040F0B500202149A1B00446C20053185C60401C8C5400B25C700528F6DB77
:20D9E00000206946FF220A54401C00B28028FADB05F0A2FF85250126202719E06846047085
:20DA000045708670032103F04FFD68460770012103F04AFD0221684603F022FD684600786E
:20DA2000852803D168464078112809D006F038FB684600788528E1D1684640781128DDD1F2
:20DA40001321684603F00CFD06F02AFB21B0F0BD1C340020F0B589B020216846FAF7E7FB3F
:20DA60006E4620210024317025460121304603F01BFD0A21304603F0F3FC6846007881288C
:20DA800002D006F00DFB03E068464078062802D2FF2009B0F0BD3F4A107A1070507A5070C9
:20DAA000107C1072507C5072107E1074507E17465074203738781076787850766846C078A0
:20DAC0003870684640797870042003F0F7FD002800D00424042003F009FD002802D12E4896
:20DAE00000210170042003F001FD002812D0032003F0FCFC002840D0022003F0F7FC0028FF
:20DB00003BD000267978507E01273346814219D90E1A18E0032003F0E9FC00282DD002205D
:20DB200003F0E4FC002804D0012003F0DFFC002823D102200443507E54281ED82A281BD81D
:20DB400002251AE0431A517C884202D9401A861901E0081AC318012003F0C8FC002808D026
:20DB6000507C517A884202D9401A861901E0081AC3183C439E4200DC012506F091FA064961
:20DB8000E0000A782843824283D00870402108437FE700001C3400204220002010B5FEF76B
:20DBA00019F97D210901012000F0CAF903490220887701202031C87210BD0000D0290020D8
:20DBC0000348007F002801D00020704701207047D029002005480021C2780548162A00D2B3
:20DBE0000177182A00D9017770470000F0290020B0240020F8B5CC4C3B2000012518FBF7E6
:20DC0000F7FC06465B20000120180090C07B002815D0EC1DFF34FA34207B0027030000F01A
:20DC2000D6FC0E0E083A55C88399D2F2F116B5F0EF0E607B002803D0677305F0C3F8F8BDF9
:20DC400003CD4018B042FAD27D21C90080E0607B002812D06773FBF7CFF8002803D1FBF7B1
:20DC6000D7F8002805D07D21C9000B2000F068F9F8BD012002F0A0F8F8BD7D202968C000F2
:20DC80000818B04203D3FFF789FB0028F4D07D210901072011E0607B0028EDD06773FDF7E8
:20DCA000FDF900280DD0FBF7B3F8002802D00B20207304E07D21C900082000F041F9AE6069
:20DCC000F8BD03207D21A073C900CFE7607B002804D0012205216773102015E069682868BC
:20DCE0004018B042ECD27D20C0002E606860FDF7E3F900280FD08D488D49806B301A8842E8
:20DD000005D201220021112001F017FAF8BD874820300777F8BDFEF7D9F8002802D00320CB
:20DD2000E07442E0002113E0607B002803D067731020E07419E003CD4018B042EAD2FDF762
:20DD4000ADF9002802D02720E0741CE07D21490102208BE7607B00280DD076486773807F99
:20DD6000012806D00F20E074C0B2012102F032F8F8BD0E20F7E703CD4018B042F8D2FDF7D8
:20DD80008DF90028E2D07D2149019FE0607B002805D065486773807B01F064FE8FE77D20FC
:20DDA000A96800010818B042E2D27D21C90008205CE7607B002801D06773B3E703CD401849
:20DDC000B042C3D3F8BDFEF781F8002807D00320E0747D21C900082000F0B2F818E0FDF70D
:20DDE0005DF9002808D0FDF767F900280CD003207D21A073C9001FE07D21490102201BE0D4
:20DE00007AE065E04FE051E005F000FE002801D0AE6013E00098C07C002805D0102803D03A
:20DE2000172801D0122809D1696828684018B04204D2FF219131082000F082F8E17E3E48E4
:20DE40000090002901D0477900E002277D20C0004743E07C122802D005280AD00CE0FFF737
:20DE600091FA002808D0009887797D20C000474302E07D2000013F182D48A96838180818CB
:20DE8000B0429FD2FAF7B8FF002809D02B48A9680818B04296D20D202073FFF7DFFAF8BD34
:20DEA0000D202073F8BD02F09FFDF8BD607B00280AD06773E07C272801D1207DE074C0B213
:20DEC000012101F017FFF8BDFF21F5310720CDE6607B00280AD0012367731A4613210020B5
:20DEE00001F0DEF8AE60E7742775F8BD1348A9680818B042D4D3F8BD03CD4018B042FAD2E1
:20DF0000FDF75EFF2773E775E7766777FFF762FE05F048F804482030007E002800D00320BF
:20DF2000FFF742FAF8BD0000302400203027002060EA0000502B002030250020102700007E
:20DF400010B50A4A3B231B01D4185B231B01D218127B0C2A09D0E21DFF320123FA325373DC
:20DF600010736160FBF744FB206010BD3024002070B50C460546FEF799FFFDF72BFFFBF70C
:20DF800037FB0A49001B886301200949002DC87202D00021284605E0FFF712FE002803D0D5
:20DFA00000210A20FFF7CCFF70BD0000B0270020F029002013480021016081801E22027167
:20DFC0009623038041718261242282830E4A82605200C2600D4A0261426181770122C277C6
:20DFE0002030017041708170C1704171C171017201710522427219228272054AD177C172F0
:20E00000704700000C250020A0BB0D00C0270900302B002030B50378394A1C024378234303
:20E0200084781B021C432302C478001D1C43354B9C4264D394600478091F25024478C9B200
:20E040002C43250284782C432502C478001D2C439C4254D3D4600478091F25024478C9B295
:20E060002C43250284782C432502C478001D2C439C4244D314610478091F25024478C9B244
:20E080002C43250284782C432502C478001D2C439C4234D31C4B54611361037893774378DB
:20E0A000D377837820321370C37853700379091F0023891F801D9370C9B2D37003291ED35E
:20E0C000047854714478D4718478C91EC01C1472C9B21371022912D3037853724378801C13
:20E0E000891E09069372090E09D00378401C074C491E0906E377090E01D00078D07230BDEC
:20E100000C250020E093040088130000302B002070B51B4C2079251D002807D0002601286C
:20E120001CD0022828D0032817D121E06079A07103F0EAF9002810D0687800280DD01049B7
:20E14000EA785C39487D904207D32A79904204D2C87D002801D10120207170BD03F0D4F92E
:20E16000002805D0A079002804D068780028F4D1267170BD0220EFE7FDF704FD0320EBE71A
:20E180002C25002010B52649421C8B681B0E43708B681B0C83700B891B0AC3700B7A0371BB
:20E1A000CB681B0E4371CB681B0C53718B891B0A93710B7BD3710B691B0E13720B691B0C6D
:20E1C00053720B8A1B0A93720B7CD3724B691B0E13734B691B0C53738B8A1B0A93730B7D23
:20E1E000D3738B7F1374CB7F537420310B7893744B78D3748B781375CB7853754B799375F0
:20E20000CB79D3750B7A13764B7A53768B7A9376044BDB7FD376C97A11771D21017010BD8F
:20E220000C250020302B002010B588B0AA2168460170BB210171CC21017211210173222194
:20E240000174332101754421374C017609F068FF9021012009F0A1FF8021082009F0D8FFBC
:20E260000221092009F0D4FF6A460121002009F0A1FF012101AA084609F09CFF02AA01217E
:20E28000022009F097FF0120FAF73DFD7B21132009F0BEFF6B21142009F0BAFF0121152033
:20E2A00009F0B6FF0021162009F0B2FF0120FAF72AFD03AA0121132009F07CFF04AA012130
:20E2C000142009F077FF05AA0121152009F072FF06AA0121162009F06DFF00210E2009F076
:20E2E0005CFF00211E2009F058FF0021112009F054FF70211D2009F050FF7021102009F0A6
:20E300004CFF20211F2009F048FF2021122009F044FF09F0CAFE0020207020720348806B0A
:20E32000606008B010BD0000882B0020B02400200148007870470000882B002003490A46EA
:20E34000203A8878127E8A7070470000902B002070B5174C0325207A002812D0012812D0E8
:20E36000022815D003280BD1124E6168B06B451A03F0DCF9012100280FD0012D00D9217259
:20E3800070BD257270BD09F083FE0220207270BD09F098FE09F089FEF3E7642DF7D9607A0D
:20E3A0000028F4D000206072B06B6060E7E70000882B0020B02400207CB50D4601461A4CDE
:20E3C0006846FEF7E5F96A46D178927800208300C3181E1976788E4207D1E35C934204D185
:20E3E000810040180119052213E0401CC0B20528EDD300216846FEF7CBF969466078C97805
:20E4000088420BD1694620788978884206D1052221462846F9F7E4FE01207CBD002028718C
:20E42000E870A8707CBD00004424002010B5014602481922F9F7D4FE10BD00004424002003
:20E4400002490148086070473546526E0006014005480121C160CA04426082680A4382606E
:20E460000248016000207047000501400000014070B5002354081DE05E00825D392A01D879
:20E48000303A04E0462A01D8373A00E0573A1207150ECD5432185278392A01D8303A04E008
:20E4A000462A01D8373A00E0573AD2B21543CD545B1CDBB29C42DFD870BD000070B51D4EDE
:20E4C0000446F01D0D46F93080682021FAF70CFC02282CD9FF20D93001591748FF3442685A
:20E4E0004134120189180268914202D9217807291DD0104AE178E032032905D0107C0228A9
:20E5000014D001280FD012E007212170002111740068B060084642009219401C80B291826A
:20E520003228F8D303E020780A2800D30625284670BD0000582F0020982B002070B500239E
:20E5400016E0C45C2409092C01D9372500E030252C195D004C55C45C2407240F092C01D908
:20E56000372600E0302634196D185B1C6C70DBB29342E6D370BD00000FB410B504A9074B14
:20E5800002AA039804F050F9044602A9002004F07BFF204610BC08BC04B0184789340200AC
:20E5A0002021020C01D010211046020A01D008391046020901D0091F1046820801D0891EE4
:20E5C0001046420801D0881E7047081A704730B47446641E2578641CAB4200D21D46635D75
:20E5E0005B00E31830BC184702E008C8121F08C1002AFAD170477047002001E001C1121F77
:20E60000002AFBD170470000014908607047000010210020FFB587B00A9C7349F834206892
:20E620004A680B6882180A98F83005461C3502951C355430019500909A427DD823600298D5
:20E640000799059000F060FB064601980899049000F05AFB074600980999039000F054FB82
:20E660000546207D40002075607D40006075207E40002076206940002061002E0DD0002FF3
:20E680000BD0002D09D0BE4216DDAF420ADD29467000F9F791FD65600BE00020E07560608C
:20E6A000A0603EE0AE42394618DD7000F9F784FD67600021A66017E0AE4205DD2946780059
:20E6C000F9F77AFD656006E0AF42314606DD7800F9F772FD66600121A76005E06800F9F7DA
:20E6E0006BFD66600221A560A176C9B21C22514309191C318A7BE275497BA175082803D9AF
:20E70000217D0122114321750A2803D9607D012108436075E07D072803D3207E01210843B4
:20E720002076A07D0A280DD3FF21A0682D31884208D32E49884200E031E003D82069012131
:20E740000843206120212069FAF7CEFA0A990A9DC031E035102805D301206874224800683B
:20E76000486302E0687C002810D01F48496B204A00688918884201D9002068740621206942
:20E78000FAF7B2FA022801D200206874059804F005FC049804F002FC039804F0FFFB1248E0
:20E7A000E030007C002811D0607E1C2140006076A07E48430019C06AFAF792FA0D49E06094
:20E7C000884203D2607E0121084360760799029803F030FE0899019803F02CFE099900988D
:20E7E00003F028FE0BB0F0BD982B0020DC050000C4090000102700003FB50022012304246E
:20E80000002906D0012915D0022925D003291FD133E0782569460D724A725A22CA720B73DE
:20E8200007228A72FF2241328A805F224A738C7350220CE069460A724A72CA720B73FF22B8
:20E840008B723C328A804A224A738C730A22CA8069461EC91EC03FBD69460A72B4224A7278
:20E86000FE22CA720B730D228A72FF224B328A808E224A738C736422E9E769460A724A7242
:20E88000CA7203250D738B72FF2333338B8034234B738C73DBE70000F7B52E4C6078002808
:20E8A0001BD02046F0380168226D891A2278002A31D0002222700D2932DA6168826E89182F
:20E8C0006160A168C26E8918A160E168006F0818E060208A401C208236E00120607000983D
:20E8E0004042606101984042A06102984042E06100200C2141430919E569A36962698D6255
:20E90000401C4B620A620428F3DBE269A1696069643407C4FEBD6429CFDD643407CC11E0B7
