:020000040001F9
:10800000983F0020558101006F81010071810100BE
:108010000000000000000000000000000000000060
:10802000000000000000000000000000738101005B
:108030000000000000000000758101007781010050
:108040007981010079810100DDD9010021CD010094
:108050004DCD01000000000059A90100D5880100A4
:108060007981010079810100798101007981010024
:108070007981010079810100798101007981010014
:108080007981010035C60100798101007981010003
:108090005DCD0100B1CD0100C9CD010079810100A4
:1080A00079810100798101000000000000000000DA
:1080B00000000000000000000000000000000000C0
:1080C0000348854600F0F4FB00480047455C020089
:1080D000983F0020401E00BF00BF00BF00BF00BF90
:1080E00000BF00BF00BF00BF00BF00BF00BFF1D195
:1080F00070470000401E00BF00BF00BF00BF00BFB0
:1081000000BF00BF00BF00BF00BF00BF00BFF1D174
:1081100070470000401E00BF00BF00BF00BF00BF8F
:1081200000BF00BF00BF00BF00BF00BF00BFF1D154
:1081300070470000401E00BF00BF00BF00BF00BF6F
:1081400000BF00BF00BF00BF00BF00BF00BFF1D134
:10815000704700000321094802680A43026008488A
:1081600002680A4302600748804707480047FEE765
:10817000FEE7FEE7FEE7FEE7FEE70000240500401D
:108180005405004091D10100C180010030B50B467B
:10819000014600202022012409E00D46D5409D42E1
:1081A00005D31D469540491B254695404019154667
:1081B000521E002DF1DC30BD70B50024254600288C
:1081C00001DA01244042002901DA01254942FFF782
:1081D000DDFFAC4200D04042002C00D0494270BDCF
:1081E00010B5431A934209D28318881803E0401E41
:1081F00001785B1E1970521EF9D210BD03460B4365
:108200009B0703D009E008C9121F08C0042AFAD24C
:1082100003E00B780370401C491C521EF9D210BDBC
:10822000D2B201E00270401C491EFBD2704700220E
:10823000F6E710B513460A4604461946FFF7F0FF65
:10824000204610BD421C0178401C0029FBD1801A39
:10825000704710B5002200E0521C835C8C5CA34286
:1082600001D1002BF8D1D8B2E1B2401A10BD30B51F
:1082700004460020034600E05B1C934203D2E05C0E
:10828000CD5C401BF8D030BD30B50546002003461C
:1082900000E05B1C934205D2EC5CC85C201A01D163
:1082A000002CF6D130BD0000F0B507460846584016
:1082B00087B0C00F049048000E4659004008490896
:1082C000BC1A884105D2384631461E4617460B4631
:1082D00002465800400810434CD0300D0390400532
:1082E0005900400D490D0590401A0290402872DA5D
:1082F00018030121000B090508430190049800921E
:10830000002805D001995242002088410092019036
:10831000029840210A1A0199009800F0E5F90546F3
:108320000C466B4607CB00F000FAC0197141039A66
:108330000E0D0023D71756401A467A40164344D0F4
:10834000049A002A2DD0029A012A039A15DC1205FC
:10835000C01A914101263605001C7141D20F059EBD
:10836000D2070093019202962A46234600F0FDF9B7
:1083700007B0F0BD38463146FAE71605224A0F46E7
:10838000B218C01AB74101210905001C4F4100185D
:108390007F41114618187941E20F10436D1964416D
:1083A00013E0E2076D0815436408C2071443039AFB
:1083B00001261205C01A91413605001C7141CE07F5
:1083C000400830434908C01851412A46234600F06E
:1083D000BFF9CDE7FFE7049801224000C117121A48
:1083E00000238B4104983146C417381AA141EEE7A7
:1083F00030B40124E407634030BC55E730B40124B5
:10840000E407614030BC4FE70000E0FFF0B51FB467
:1084100088B00B990998002448400999C00F490079
:1084200049080991C0070B990090490049080B9130
:1084300009990898A64608431CD00B990A98084346
:1084400018D0099801244000420D4800410D0998B8
:1084500024050003000B204309900B980003000B38
:1084600020430B9050181C494018002201901446DC
:10847000104605E0002001460DB0F0BD032801DAEA
:10848000034600E003239C46C11A0AAE0AE05F00DF
:1084900008ADED5B4F00F75B7D430027AA187C41D8
:1084A000491C5B1E6145F2DD410004AB5A522104B8
:1084B000120C0A43240C401C0828DFDB01980290B0
:1084C0000099704601910090059B049A07990698BF
:1084D00000F04BF9D0E700000DFCFFFFF0B50C46B3
:1084E0005C4085B0E40FE40703944C000026640868
:1084F00059009446490802460296224321D062461A
:108500000A431ED06200570D4A000E032303550D87
:10851000012402462C492405781B1B0B360B4018FE
:1085200023432643614600901C46501AB44103D3AE
:108530000098401C009002E0921800985B410028CF
:1085400003DA0020014605B0F0BD00200121090535
:108550000746864611E064461D46141BB54106D306
:108560006546521BB341744607430C43A646CD07EC
:1085700040084908284392185B4105460D43EAD15B
:108580001046184313D060461946504071400843C6
:1085900006D06046101AB34106D20122002306E03D
:1085A00000220123DB0702E00122D243531000988E
:1085B00074460105381C6141029C039D0019694104
:1085C00000F0C6F8BFE70000FD03000070B54B00E7
:1085D0005B0803430BD04B005C0D0026334665421D
:1085E000B341D417AD1AA34102DB0020014670BD90
:1085F00012053018514170BD0EB5C217C10F504061
:10860000CA0740180021054B0293019200910A46C7
:108610000B4600F0AAF803B000BD000033040000D0
:108620000EB505490291002100910A460B460191C1
:1086300000F09BF803B000BD3304000070B5CD0F0F
:108640004A0009030123090B1B0519430B4BED07D6
:108650000024520D9A4201DA002070BD074B3433DA
:108660009A4203DC9A1A00F04FF802E004495118CC
:1086700088402C43F1D0404270BD0000FF03000051
:10868000CDFBFFFF4A0009030123090B1B0519431A
:10869000094B10B5520D9A4201DA002010BD064B6D
:1086A00034339A4203DC9A1A00F02EF810BD0349C5
:1086B0005118884010BD0000FF030000CDFBFFFFF4
:1086C00010B5002904DB0124E40740428C41214617
:1086D000002B04DB1C460123DB075242A3418B42E3
:1086E00000D1824210BD000010B5202A04DB0146F3
:1086F000203A9140002010BD914020239C1A03464F
:10870000E3401943904010BD10B5202A04DB084611
:10871000203AD040002110BD0B46D340D040202449
:10872000A21A91400843194610BD10B5202A06DB55
:10873000CB170846203A1041C1170B4306E00B4601
:108740001341D0402024A21A91400843194610BD7D
:1087500010B5002B08DA0024401C614192185B41DF
:108760001A4301D14008400010BDF0B51FB482B0DB
:1087700005460C0003D0084605F018FF02E005F09E
:1087800015FF20300246009021462846FFF7ACFF37
:10879000049B059A04460F4618431143084314D01E
:1087A000184610431BD0009840210A1A1846059914
:1087B000FFF7AAFF05460E46009A05990498FFF7B1
:1087C00093FF084305D0012004E02046394607B056
:1087D000F0BD0020C11705430E432C4337430099D9
:1087E0000E986305401A7905E40A00220C43FD0A3D
:1087F0000A3002D500200146E9E701051019694158
:108800000C9C0D9D00196941FFF7A2FFDFE7FEB543
:1088100000231A461B1A8A4103DB0020014603B0DD
:10882000F0BD4A000D0301212D0B0905520D0D432A
:10883000D10702D100186D41521E5110FF31FF3196
:108840000131002704463E46384600970191024612
:10885000012100200905FFF757FFC3197141F818DE
:10886000324684468E464A4161462846611A904106
:1088700004D36046241A954176461F462419009871
:108880006D41401C00903428E1DDF91930467041FB
:10889000091BA84103D20022D243134601E0002263
:1088A000134601980105381C7141FFF751FFB6E7E7
:1088B000064C0125064E05E0E36807CC2B430C3C33
:1088C00098471034B442F7D3FFF7FEFB84DD020073
:1088D000A4DD0200044802680021002A03D001221E
:1088E0000160024842607047007100400070004023
:1088F000F0B50E4601468DB0FF310746E53115460D
:1089000068460C9100F05EF91C46103C2AD43146B2
:1089100008A800F057F908A80FC8079304AB07C3CD
:1089200004A9384600F066F800990498103C4840C5
:1089300000BA2860019905981036484000BA68606E
:1089400002990698484000BAA860039907984840E1
:1089500000BAE86008A80FC803936B4607C3103538
:10896000002CD4DA08A90C9800F02CF90DB0F0BD59
:10897000F0B5054600881435800032E02C681A4BAB
:108980001A4E610031402246E609DF091A403E4096
:10899000921B174EFF43324051400E464A001E4084
:1089A0003A40F709F61B124F3E40724017461F40EF
:1089B0000E4B56001E40FB09FB1A0D4F3B405E401C
:1089C0000B4674405340734061401826F1415940B2
:1089D00062401023DA414A400821CC41544010C57E
:1089E000401E0428CADCF0BD80808080FEFEFEFEB2
:1089F0001B1B1B1BF0B50E4695B0018807910901A2
:108A00000F18042014378100891980393F1FCA6F5D
:108A10003B685A40CA67401EF5D18FE00423481EC8
:108A20001090D81C8007000F3058010E474840684E
:108A3000425C991C8907090F71580902090E415CB3
:108A40000491591C8907090F715A0904090E455CE4
:108A50009907090F715C445C1099059888424FDAB8
:108A6000049910464840039000F030F904990690AC
:108A700069400846119100F029F9049028466040A9
:108A800000F024F908902046504000F01FF91390A0
:108A900004990698484000F019F90B900499089839
:108AA000484000F013F90B990A90484000F00EF985
:108AB000844611990B9861404140604641400698B8
:108AC0006A4041400A9862404240604642400498F1
:108AD0004240039844400B98444060464440089804
:108AE0004440039845400A984540604645401398E5
:108AF000454008061104084321020843284306E0C4
:108B000004991006090408432902084320439A00E7
:108B10000CA951188039C8675B1E82D104200CAAA9
:108B200081008B18803B3F1FDB6F3C6889196340D5
:108B30008039CB67401EF3D10598401C07990590FA
:108B4000884200DA6AE715B0F0BD0000002000207E
:108B5000F0B5C1B003F018FA194BC11DF93103C3C8
:108B6000002201216C46FF27CE091C37A1544D007D
:108B70007E4375406940521CFF2AF4D963250023C7
:108B80000570FF27F91A615C0A020A4311095609A8
:108B9000714096097140D60971405140E25C6940CC
:108BA0005B1C8154FF2BEDD3054900200A684968FE
:108BB000135CC854401CFF28FAD941B0F0BD000036
:108BC000002000200A6812BA02604A6812BA4260A5
:108BD0008A6812BA8260C96809BAC1607047000029
:108BE000FEB505460C463748FF2100901E46F5317C
:108BF0002846FFF71CFB002E11D0012E61D10E205C
:108C0000288021462846082610311430FFF7DAFF65
:108C10002146281DFFF7D6FF6E80374644E00A2024
:108C200028800426F4E7B80001902C5831463846D5
:108C3000FFF7C2FA002918D12348E2B20068825C2B
:108C400013022204120E825C12041A4323021B0E2A
:108C5000C35C1B061343220E805C009A18431278F3
:108C6000140644400098401C0090082E13D104299B
:108C700011D1154822040068120EE1B2825C415CF9
:108C800012020A432102090E415C09041143220E1B
:108C9000805C04060C43B81B8000401941680198B1
:108CA000614040197F1C416028888000001DB84247
:108CB000B9DC0020FF350146E135401C2971102840
:108CC000FBDBFEBDBC81020000200020010640004D
:108CD000002901DA1B214840C0B27047002800DAA1
:108CE0004042704710B500231A4606E0C40701D081
:108CF0005B1CDBB24008521CD2B28A42F6D3184643
:108D000010BD10B50DF0B0F810BD10B5FFF774FC34
:108D10000EF01AFBFFF792FC10BD00000648817AA6
:108D2000022907D0C17C142902D8807C782801D977
:108D30000020704701207047F824002007498A7AF4
:108D4000022A09D00A46A83A127E002A04D18A7C57
:108D5000782A01D81018887470470000F824002081
:108D600004498A7A022A04D0CA7C142A01D810182D
:108D7000C8747047F824002010B502F087F9002865
:108D800010D102F091F900280CD100F033F80D4910
:108D9000002802D00020C88204E0C88AFF212D31BB
:108DA000884201D2002010BD00F007F900F078F9E8
:108DB000002802D0072000F02DF901F04BFE012021
:108DC00010BD0000F0240020094800B50022014633
:108DD0008273C0318A81CA8200F00CF8002804D066
:108DE00002208874CA768A7600BD8A7400BD0000AD
:108DF0003024002004480069800CC007C00F01D057
:108E000000207047012070470005005000B5FFF7B3
:108E1000F1FF002803D10448807B132801D90020EA
:108E200000BD012000BD000030240020F8B5164C24
:108E300000F0E4FB0146E07A002813D0012814D0AA
:108E4000022812D10D4608F0B1F82074617C264644
:108E50000027C83E00290FD0677402F017F90028D8
:108E600004D005E0204605F07DFDF8BD207C06E03D
:108E7000A07A022805D005E0B17B884202D2B07307
:108E8000F6E72560E772F8BDF824002010B501F080
:108E9000A5FE10200CF0C2FF0349C88101204876CE
:108EA0000220C87410BD0000F024002000B5024666
:108EB000FFF7A0FF002808D004498889801880B2F5
:108EC000034A8881904200D98A8100BDF0240020A5
:108ED000302A000010B51F4B002286B000282FD08A
:108EE00016292DD14178E1290BD0E22904D0E329BC
:108EF00004D0E42904D023E0012202E0022200E0B1
:108F00000322142469460C820024D10000940194A9
:108F10000294C91803948A8B69460A8001228A70D8
:108F20008C8004A9801C02910390988A6946A6DF70
:108F300008494031002806D0074A904200D10C77FA
:108F4000002006B010BD087F012801D9401E087717
:108F50000120F6E7802700200430000070B5FEB045
:108F600015460E460446FFF7F3FD00231A46214638
:108F70006846FFF735FE6846FFF7FAFC40232A46AD
:108F800031466846FFF7B4FC7EB070BD30B50C4684
:108F90008DB01546014610226846FFF721F91022D0
:108FA000214604A8FFF71CF968464DDF1022284629
:108FB00008A9FFF715F90DB030BD704710B5087856
:108FC000152818DD212804D0222808D0232812D102
:108FD0000AE010000FD0392108A2090109E01000B1
:108FE00009D006A20A4904E0100004D0084903A2EF
:108FF000C91C0BF022F9002010BD00002E2E5C735E
:109000006F757263655C62746C652E6300000000AE
:109010009303000010B5074C1321A08A76DF0028C7
:1090200003D005A2D6210BF008F902204034607766
:1090300010BD0000802700202E2E5C736F757263B8
:10904000655C62746C652E630000000070B50646B6
:10905000FFF7D0FE00250C4C002809D1FFF7D6FE03
:10906000002805D002F012F8002801D0657770BD05
:10907000002E01D0A57701E00120A07701F0C4FD0A
:109080000520607770BD0000C02700201CB5044695
:10909000684666DF68468088207001201CBD00009D
:1090A0000348407F042801D000207047012070470A
:1090B000C02700200348407F002801D000207047CF
:1090C00001207047C027002070B52D4A0346008854
:1090D00011460025403117281AD01ADC012824D067
:1090E000102827D0112813D1681E90820120144621
:1090F000487709F03DFD00F047F802F0A1FDA07DA2
:10910000800705D402F0D2FE002801D004F036F822
:1091100070BD192824D0392803D050281CD05528D8
:10912000F6D10520FFF776FF70BD087F1A7A801808
:10913000087770BD98889082042014460E464877C0
:1091400000F05CFA2060F57700F058FA0D490860ED
:1091500020465C3062DF70BD184609F0ADF870BD86
:1091600098790028FBD1487F0528F8D1887F02280C
:1091700003D00020FFF76AFF70BD4D7770BD00007F
:109180008027002030240020054800210176417608
:109190008181C1810348017A4906490E01727047F5
:1091A000802700203024002038B51E4C09F0E0FC58
:1091B00020465C3062DF0121684681701F21C9436F
:1091C00001802246123269460120A0DF002827D103
:1091D000012115480BF08EF913480221401C0BF0B9
:1091E00089F911480321801C0BF084F90E480421F1
:1091F000C01C0BF07FF90C480521001D0BF07AF91B
:1092000009480621401D0BF075F907480721801D0C
:109210000BF070F904480821C01D0BF06BF9002019
:1092200038BD000080270020E1FF000010B5104885
:1092300004464034617F0B0005F0CFF9050F040FA1
:109240000F120F00C08A002801D006F0B3FBA07FE8
:10925000002803D00020FFF7F9FE10BD0120FAE737
:1092600001F014FF0028F8D000F004F810BD000051
:109270008027002070B500F0C1F905463A4C02F095
:1092800015FE002807D0394920684018A84268D246
:1092900003F074FF65E0A07E0A2802D901F070FD9A
:1092A0005FE0334920684018A8420FD2FFF76CFFF7
:1092B00001F066FD2F48007A022803D0032801D070
:1092C000042808D10620FFF7A5FE04E0A0890028A5
:1092D00001D100F05FF82848007A000641D5E08906
:1092E000A189884205D20120C00300F07DFB00283F
:1092F0000DD1607E217E884225D2208A0126360348
:10930000FF2806D8304600F0A5FA002801D0012039
:1093100070BD607E401CC0B26076217E88420DD256
:10932000002020820122052114A001F07FF8A06016
:10933000002808D0304600F08DFAE8E70122052128
:109340000EA001F073F87D216068C9004018A842A2
:1093500007D201F015FD00F035FA6560A07E401CD3
:10936000A076002070BD000080270020307500002E
:10937000204E0000302B00203024002065706F63E9
:10938000680000000248007F002800D001207047DC
:10939000C027002070B50D4D0120C002A881002417
:1093A000EC8105210AA000F063FE0006000E28767D
:1093B0006C7606D00022052105A001F037F8A860E0
:1093C0002C8205480472447270BD00008027002082
:1093D00065706F6368000000F0250020F0B59BB059
:1093E00006460F463022374902A8FEF7F9FE3549F6
:1093F000302230310EA8FEF7F3FE334C0525E8008D
:109400000019B821BC2203460958125880335A6407
:1094100019648030DA6899686D1E19612D06426101
:109420002D0EECD120468030476106616038417ACC
:10943000002909D000214172C020065180343046F5
:10944000394667641BB0F0BD002000900EAE01905D
:10945000E80001199022525880314B69311803C934
:10946000FEF7D4FF019B009AFEF71EFF6D1CEDB2C4
:1094700001910090062DEBD300252E460127F80020
:109480000119C022525880314B6C02A9091803C936
:10949000FEF7BCFF2A463346FEF706FF7F1CFFB2ED
:1094A00005460E46062FEAD3019B009AFEF7A6FF5B
:1094B000C022105180346164FFF7C0F800B2FFF79A
:1094C0009BF8BFE7E8830200102A0020164830B559
:1094D0000146012220310A724A720021CA00121884
:1094E00000231363536313661546536680352B615F
:1094F0006B618032491C2B64C9B253640629EDD3D9
:1095000001463022E0310A744A740346074A803328
:109510000021DA679967803306C30A46FF300349A2
:1095200001301A60C16030BD102A00200000F03FF9
:10953000F0B59BB006460F4630222E4902A8FEF732
:109540004FFE2C49302230310EA8FEF749FE2A4C3E
:109550000525E8000019C26D816D42660166C26A88
:10956000816A6D1E42632D0601632D0EF1D12046E6
:10957000676320302663017A002907D00021017239
:1095800067663046394626661BB0F0BD0020009065
:109590000EAE0190E80001194B6B0A6B311803C93C
:1095A000FEF734FF019B009AFEF77EFE6D1CEDB2C4
:1095B00001910090062DEDD300252E460127F800DD
:1095C00001194B6E0A6E02A9091803C9FEF71EFFA6
:1095D0002A463346FEF768FE7F1CFFB205460E465C
:1095E000062FECD3019B009AFEF708FF6166206608
:1095F000CAE7000088830200102A002010B503F09B
:10960000F9FB10BD70B5214A01781346A03B090251
:10961000198044781E4D091989B200241980A94285
:109620000DD1146054608178C01C9970002903D05A
:10963000012903D10AF0ECFB00F072F870BD144D63
:109640006D1CA9420FD114605460C17809025960A1
:1096500002791143090259604279114359608179B5
:10966000997000220DE00A4A921C914202D0521CCD
:109670009142E3D1C1780A0201791143427909028A
:109680000A43811D184609F085FF70BDB4260020ED
:10969000E5FF0000F8B520480090051D80792F46B1
:1096A000401CA870FF20E870E2202871A87868713B
:1096B0008037072078620020A871E871072129729D
:1096C0002E46A036F8617073B8622C4630700B22BB
:1096D0001934025501216A702970009801700F48F1
:1096E000827F0A55C27F03213173022002550B4944
:1096F000E01C04221431FEF773FD07203073284666
:10970000102221460930FEF76BFD10207073F861BE
:10971000009802210170F8BD382500205027002054
:10972000F8B5154E10213446FF340D34A078274685
:10973000401CA070FF20B1308151FF20E070E1207B
:109740002071A0372546012219353A730021495569
:109750003146681C09220831261FFEF741FD0A2206
:109760003A7300206070012020700220307029467A
:10977000601DFEF735FDF8BD3024002070B5104B9C
:1097800010221846FF300D308178FF24491C81706B
:10979000FF21B131CA50FF21C170E1210171B934FB
:1097A0000122E254014600261825193175544570EE
:1097B0000270031F02241C70401DFEF711FD70BDD6
:1097C0003024002070B5204C2546FF35C53528795A
:1097D000FF34CF34002835D1FF202070E1206070A5
:1097E0001620A07018488030416A090EE170416A65
:1097F000090C2171818C090A6171808C1249A07158
:109800000A6C486C8018020EE271020C2272020A85
:109810006272A0720D4802881212E2720078207300
:10982000C86C0009020A6273A073886C0009010AFF
:10983000E17320740648407D607403F0ADFDA074B0
:109840000120287170BD000030240020302B002042
:10985000102A0020F0B593B0064601A8009005A894
:109860000B9001A80A905E4C05A80D902079002865
:1098700002D16079002802D0012013B0F0BD0D2282
:1098800058489201851803221202A17980180E907F
:10989000002923D000271CE0288C00010C90B04246
:1098A0001AD20E980422816D0C98081801A900F0B4
:1098B00079FE019804224000400801900E98816DC5
:1098C0000C98081801A900F0C7FE288C401C2884B9
:1098D0007F1C2089B842DFD80020A071288C0701A6
:1098E000B74201D30020C8E70120208116E00E987E
:1098F0001022806D0099C01900F054FE0098007885
:10990000FF2806D00198002803DA400040080190A3
:1099100006E0288C401C80B228840701B742E6D3B9
:10992000B7424CD2288C050146E00E981022806D7B
:109930000B99401900F036FE0B980078FF283ED0B6
:10994000059800283BDA40004008019905908842BC
:1099500035D90D98017A0A98007A81422FD10D9855
:10996000417A0A98407A814229D10D98817A0A98E1
:10997000807A814223D10D98C17A0A98C07A8142B7
:109980001DD10D98017B0A98007B814217D10D985B
:10999000C1880A98C088814211D10D98417B0A98EC
:1099A000407B81420BD10D98817B0A98807B81425C
:1099B00005D12089401C20811035B542B5D32389BB
:1099C000012B01D9092201E00023082220460A3098
:1099D0000A9906F049FF0120207160714CE70000F0
:1099E000F425002030240020F0B591B0064601A8EF
:1099F000079008A80C9001A80690574C08A80D9055
:109A00002079002802D16079002802D0012011B00D
:109A1000F0BDA079514D00281ED0002717E0E88B3B
:109A20000001B04216D204221303C01801A900900D
:109A300000F070FD0198042240004008019001A947
:109A4000009800F0CDFDE88B401CE8837F1C208946
:109A5000B842E4D80020A071E88B0701B74201D3D7
:109A60000020D4E70120208115E010229002381850
:109A7000079900F04FFD07980078FF2806D001985D
:109A8000002803DA40004008019006E0E88B401C03
:109A900080B2E8830701B742E7D3B7424BD2E88BE5
:109AA000050145E01022900228180C9900F032FDC3
:109AB0000C980078FF283ED0089800283BDA400038
:109AC000400801990890884235D90D98017A069886
:109AD000007A81422FD10D98417A0698407A8142CE
:109AE00029D10D98817A0698807A814223D10D98E8
:109AF000C17A0698C07A81421DD10D98017B0698E3
:109B0000007B814217D10D98C1880698C088814298
:109B100011D10D98417B0698407B81420BD10D9865
:109B2000817B0698807B814205D12089401C208161
:109B30001035B542B6D32389012B01D9092201E0A2
:109B40000023082220460A30069906F08DFE0120E7
:109B5000207160715AE70000F42500207027002072
:109B600010B5002405F0EAF9002803D0641CE4B223
:109B7000052CF7D310BD0000F0B5044610460022B6
:109B8000084E0AE02578070A7D406D00755B0002EB
:109B90004540521CA8B292B2641C8A42F2D358408B
:109BA000F0BD00007884020010B50C4609F038FDC5
:109BB0000448017902464900303254520121417172
:109BC00010BD0000142100200348132100888903E0
:109BD000C001081A704700001421002070470000DF
:109BE000F8B52B4A2B4E9078134685011446D17850
:109BF0001B88303410E04F00E75BB7420BD126489A
:109C00004E00A05368185B1C1380491CD1700121C1
:109C100080B25171F8BD491C4029ECD31321C90110
:109C20008B4233D01A494979002903D01849303181
:109C300000F0FEFC0027164C25E0A078884225D2D3
:109C4000401C1349C0B24035A070ADB2303100F0B5
:109C50008FFC0F48002130304A00825AB2420ED1A8
:109C60000B4A0D484B003032D05222886818521CE3
:109C70002280491CE170012180B26171F8BD491C4C
:109C80004029E9D37F1CE168B942D6D80020F8BD4D
:109C900014210020FF7F0000FF3F000010B509F0F5
:109CA000BFFC03480249007940003031085A10BD1A
:109CB00014210020F0B5194CA1B0A18BA069FEF7CA
:109CC00065FA0025264620803036154F17E0694694
:109CD000284600F04DFC1148802269463030FEF7DE
:109CE0007FFA00204100715AB94202D02188491CF4
:109CF0002180401C80B24028F4D36D1CADB2E068D6
:109D0000A842E4D800250549A5703031284600F066
:109D10002FFCE570657121B0F0BD0000142100201A
:109D2000FF7F000070B5C0B0344C6946002000F0E1
:109D300009FC802020816D4620A9032000F002FC50
:109D40003FA8023001F072F92D49002688424CD11B
:109D50002846363001F06FF92A490002884244D182
:109D600002A8033001F062F9218988423DD105A89B
:109D7000023001F05BF9E0606846007CA0770128C2
:109D800033D16846407BA08304A8013001F04EF92E
:109D9000208404A8033001F049F9608403A802304C
:109DA00001F044F9A084012021890004FEF7EEF9B6
:109DB0000546608CA84218D3A18B401BFEF7E6F93C
:109DC000E0840220A071A561A08C2061208C002875
:109DD0000CD068086061E08C21894000401E0818A2
:109DE000FEF7D4F9E168884202D9002040B070BD86
:109DF0000020C043A062A6850120F7E714210020BF
:109E000055AA00000046415410B530210248FEF723
:109E10000EFA00F003F810BD14210020F0B5A7B031
:109E20005A4C02206D46A07180212846FEF7FFF9AA
:109E30002946012000F0EDFB2946022000F0E9FB55
:109E40008026268166810120A0831320C0016084C2
:109E50000427F000A784208441100F20C001E08473
:109E60001E20E0600120A0772761A16100026061EF
:109E7000F022802128462592FEF7D9F90B2244A131
:109E80002846FEF7ADF96946CE720020087301221C
:109E90004A738F73C8730A7448748F74CE7409221E
:109EA0000A75259A4A753F220A764876FF228A76F5
:109EB000C876087748778877C8770BF025FD08A91A
:109EC000C871020A0A72020C4A72000E8872A089D6
:109ED00069468875000AC87508A90E71292088711D
:109EE000284613222DA12B30FEF77AF929460020AF
:109EF00000F08FFB21892846FEF799F9552018A913
:109F00008877AA20C8772946032000F082FB00202A
:109F10007F26249035E0FF2280212846FEF780F935
:109F200001202E54801C8028FBD3FF212598C94393
:109F3000014329701E4A010A11436970010C121273
:109F40001143A970000EFF210843E8702946002044
:109F500000F06EFB01270EE0FF2280212846FEF76D
:109F60005FF901202E54801C8028FBD329463846F7
:109F700000F05EFB7F1CE068B842EDD82498401CDE
:109F80002490A17F8142C6D827B0F0BD14210020C3
:109F9000EBFE904D53444F53352E30004E4F204E24
:109FA000414D4520202020464154202020202000E3
:109FB000FFFFFF0010B505484179002904D003498F
:109FC0008078303100F034FB10BD000014210020F7
:109FD000F1B50026A8B0354600F0AEF802F0CEFA92
:109FE000074600212898002F016001D0002415E0C9
:109FF000002029B0F0BD20A9204602F079FA0028FF
:10A000000AD0761CB6B26946204602F085FA684648
:10A01000FEF718F945190835641CA4B2BC42EAD30E
:10A02000289805603046E4E770B5A8B0064600F011
:10A0300083F802F0A3FA050018D0002414E020A948
:10A04000204602F055FA00280CD06946204602F05E
:10A0500063FA31466846FEF7FCF8002802D1204634
:10A0600002F028FA641CA4B2AC42E8D328B070BD58
:10A07000F3B5A9B0299800260F46002824D0002F58
:10A0800022D000F059F802F079FA05001CD001A89E
:10A090000024009016E0A0B221A902F029FA0028BD
:10A0A0000FD0A0B201A902F037FA002006E0009913
:10A0B0000A5C2999095C8A4203D1401CB842F6D354
:10A0C000761C641CAC42E6D330462BB0F0BD0000D9
:10A0D00010B504002DD0E07C00282AD1A07C0028F7
:10A0E00002D0204609F0AAFFE08902F023FAE289B3
:10A0F0000146104602F070FA218AE08902F054FA13
:10A100000C48008E02040B482030817C11430A0267
:10A11000C17CE089114302F053FAE089216802F022
:10A120008FF9FFF747FF02F063FA0020207502F075
:10A130000BFA10BDB024002010B50548007D0028A2
:10A1400005D00348FFF7C4FF002001F0E3FE10BD77
:10A15000C4210020002803D00068002800D001207E
:10A1600070470000F0B5CDB00D4624A9019104A9B7
:10A1700000910146802204A8FEF732F8FFF7DCFFC9
:10A18000324C0026E574012D26D0FFF793FDFFF732
:10A190001BFD0521C90288424CD3FFF721FD0500B4
:10A1A00048D0FFF71DFD69460881020044D02946CA
:10A1B000009802F051F9411C40D0711E2182A67412
:10A1C0002081694609896181A1812660E0810120A1
:10A1D00020751E484DB0F0BD02F0D0F9070029D01F
:10A1E000002510E0A8B244A902F082F9002809D0A5
:10A1F000A8B2019902F090F900990198FEF729F8A8
:10A20000002802D06D1CBD42ECD3BD4212D2A8B2D0
:10A21000E08103AA02A902F0B7F98020A074E089C6
:10A220002081684600896081A08103982060606079
:10A230002675CEE70020CDE7284604E02846FFF744
:10A24000CDFC68460089FFF7C9FCF3E7C421002074
:10A25000F8B516460F46050007D02868B04200D270
:10A26000C6B2A87C802802D004E00020F8BD2846B1
:10A2700008F086FCA87C1C498219802A09D2411862
:10A2800032463846FDF7ACFFA87C34468019A874E6
:10A290001EE08022121AD4B2411822463846FDF739
:10A2A0009FFF381900901BE0301BC7B2802F00D3EE
:10A2B00080273A460C490098FDF792FFE019C4B296
:10A2C0000098C0190090802F0AD0AF74B442EBD32D
:10A2D0002868A04200D2C4B2001B28602046F8BD06
:10A2E000284608F04DFCF1E75C220020F8B5164640
:10A2F0000F46050014D02A8A3146384602F0EAFD9E
:10A300002882A87C1F498219802A0BD24018324625
:10A310003946FDF765FFA87C34468019A87427E00C
:10A320000020F8BD8022121AD4B2401822463946C5
:10A33000FDF756FF381900908020A874284609F0D0
:10A340007DFE002812D113E0301BC7B2802F00D34E
:10A3500080273A460B480099FDF742FFE019C4B246
:10A360000098C0190090802F04D0AF74B442EBD392
:10A370002046F8BD8020A874284609F05FFE00281A
:10A38000F4D1F5E7DC210020F7B5A8B00E46002493
:10A39000FFF7D2FE02F0F2F80746002542E06946D8
:10A3A000284602F0A5F800283AD02898844235D1F2
:10A3B000019808AF010E2A98315401982A9C000C8C
:10A3C000641C30550198641C000A3055641C0198C7
:10A3D000305568460089641C000A3055684600897B
:10A3E000641C305539462846641C02F095F83846FE
:10A3F000FDF728FF401C85B27F20001B80B28542FC
:10A4000000D90546002078553555641C30192A4678
:10A410003946FDF7E5FE60192BB0F0BD641CA4B20F
:10A420006D1CADB2BD42BAD32A98F5E7F7B5AAB014
:10A430000020009001200F460190FFF77DFE02F002
:10A440009DF8050024D002AE00241FE0A0B222A98E
:10A4500002F04EF8002818D0A0B202A902F05CF871
:10A46000002005E02A99325C095C8A420DD1401C2B
:10A47000B842F7D32C9800280DD0019800280AD0B4
:10A48000A0B202F017F800200190641CAC42DDD3AA
:10A4900000982DB0F0BD01213046FFF763FE002883
:10A4A00005D081890122C901120489180091FFF7A2
:10A4B0000FFEEDE770B5A8B00646FFF73DFE02F0CF
:10A4C0005DF8050014D0002410E0A0B220A902F02D
:10A4D0000FF8002809D0A0B2694602F01DF83146F5
:10A4E0006846FDF7B6FE002805D0641CAC42ECD3EC
:10A4F000002028B070BD0120FBE7000010B5182136
:10A500000348FDF794FEFFF7D5FB02F081F810BD7C
:10A51000C421002070B50D460446C109164604202A
:10A5200000F0BCF8002807D0132080032018324622
:10A53000294601F0D9F870BDFF2280212846FDF799
:10A540006FFE70BD70B504460D462146002000F038
:10A55000A5F8002805D0E0018022294601F0C4F8C2
:10A5600070BDFF2280212846FDF75AFE70BD000015
:10A5700070B504460D462146012000F08FF80028F2
:10A5800008D007488022006929460019C00101F05F
:10A59000ABF870BDFF2280212846FDF741FE70BD5B
:10A5A0001421002010B501F09FF810BD70B50446CD
:10A5B0000D462146022000F071F8002808D0074817
:10A5C0008022406929460019C00101F08DF870BD54
:10A5D000FF2280212846FDF723FE70BD14210020B4
:10A5E00070B50E460446C109A0B01546042000F01F
:10A5F00055F800280BD02A4631466846FDF7F0FD95
:10A600001320800320182A46694601F08AF820B0FA
:10A6100070BD70B504460D462146002000F03EF89E
:10A62000002804D0E0018022294601F07AF870BDAC
:10A6300070B504460D462146012000F02FF8002891
:10A6400007D004488022006929460019C00101F0A2
:10A6500068F870BD1421002030B5A1B0054614463D
:10A660006846FDF7BDFD22466946284601F059F8C7
:10A6700021B030BD70B504460D462146022000F0E1
:10A680000DF8002807D004488022406929460019A7
:10A69000C00101F046F870BD1421002010B5030080
:10A6A00003F09BFF0504070A0D10210004290DD2B9
:10A6B00019E0FC290AD216E0FF2907D813E00F2081
:10A6C000C00101E00120400281420CD300F0DEFC19
:10A6D000002801D0002000E0012000F00EF802F078
:10A6E0002FFD002010BD012010BD1321890310B5DE
:10A6F0004018032100F0FFFF10BD70B5054600F0C3
:10A7000014F80446284600F003F8001980B270BD22
:10A71000014610B50020002906D01321102489031A
:10A72000204604F0ADFC204610BD10B54C2400219D
:10A73000204604F0A5FC204610BD000070B504467C
:10A740000D4621460320FFF7A9FF002808D007483F
:10A750008022806929460019C00100F0C5FF70BD44
:10A76000FF2280212846FDF75BFD70BD14210020EB
:10A7700070B504460D4621460320FFF78FFF0028E1
:10A7800007D004488022806929460019C00100F0E2
:10A79000C8FF70BD14210020FFB58DB000240894BF
:10A7A0000E98FDF74FFDC0B20A900E9809900F98D1
:10A7B00000260B90374635460998FDF743FDC0B299
:10A7C00010E00999495D20395E2903D8761C6D1C7B
:10A7D000F6B2EDB20999495DC90903D07F1CED1CA1
:10A7E000FFB2EDB28542ECD30B98102807D00828B1
:10A7F00009D0002502A9002004AE099196E0F000DE
:10A800003901401800E0F000C5B2F3E70E990B5C87
:10A81000194620395E294AD80F98102802D00828F6
:10A8200028D01DE04A481B011818FF38FF381021B6
:10A830006A46023801F0AAF81098012814D0E10005
:10A8400008980822000109180D980818074669465B
:10A85000FDF7C6FC3846803008220999FDF7C0FC98
:10A86000641CE4B208985EE08020401B4010E100C8
:10A870004118E5E717208003DB001818FF3808218E
:10A880006A46013801F082F81098012806D00620A7
:10A890000D996043401806226946DFE78020401B7F
:10A8A00041100620604309180D980818F3E7D909EC
:10A8B00040D00E99274F081820218C4619070B0C01
:10A8C000417880788906090D80061943800E084377
:10A8D000010A0B464E3B6A46C0B2522B01D360219F
:10A8E00000200902081840012721C0198903401AD5
:10A8F000614601F04BF81098012820D0E10008983B
:10A900001022000109180D98081807466946FDF73E
:10A9100067FC3846803010223146FDF761FC08980C
:10A92000401CC0B208904100401800190A998842A2
:10A9300000D26BE7802D08D8284611B0F0BD8020EA
:10A94000401B4010E1004118D9E7FF20F5E7000067
:10A9500000C3050000C905000348C16B002901D0F0
:10A960000021C163704700004061004010B52F48CE
:10A9700002240460001D04600121204606F06AFCE8
:10A980002A480C300460001D0460001D0460012191
:10A99000062006F05FFC0121072006F05BFC23483F
:10A9A000203004600021092006F054FC1F482830A4
:10A9B0000460032211460B2006F03EFC1B48303099
:10A9C0000460001D0460001D0460001D046000227E
:10A9D0000221102006F030FC1448443004600322A9
:10A9E0000021122006F028FC0121132006F032FC81
:10A9F00003221146152006F01FFC0121162006F047
:10AA000029FC0A485C300460084864300460074848
:10AA10006C300460001D0460001D0460001D0460B3
:10AA200000211F2006F016FC10BD0000000700509A
:10AA300001200449C00748600321062033DF0620B7
:10AA40002EDF70470063004010B500F0CBF902F034
:10AA50004DFC10BD10B50021142006F0FBFB1E4973
:10AA6000002088711D4902200860091D0860091D29
:10AA700008601A4910310860091D0860091D086046
:10AA8000091D0860091D0860091D0860091D08608E
:10AA9000091D0860091D0860091D0860091D08607E
:10AAA000091D0860091D0860091D08600B4958311F
:10AAB0000860091D0860091D0860091D0860091D5E
:10AAC0000860091D0860091D0860091D0860091D4E
:10AAD0000860091D086010BD3024002000070050E8
:10AAE00010B50121142006F0B5FB02490120887140
:10AAF00010BD0000302400201CB50449086A496AD2
:10AB00000090019168460BF069F91CBDE8820200D3
:10AB100001490220086070473C07005010B5012130
:10AB20000F2006F097FB10BD1CB5002812D001289D
:10AB300010D10949094C0869496901910090A07C2C
:10AB4000002807D068460BF0CDF90020A074012042
:10AB5000FEF7D7F81CBD0000E88202003024002078
:10AB60001CB5002811D001280FD10849084C88686D
:10AB7000C96801910090A07C002806D168460BF0BE
:10AB8000C9F90120A074FEF7BCF81CBDE8820200E0
:10AB90003024002000B587B0002819D00D490022CC
:10ABA00003C90490CD20C0040591029018200090A4
:10ABB0001A20019003206946087304A80BF0DEF9FF
:10ABC00004A80BF0A7F9044901208874FEF799F84E
:10ABD00007B000BDE8820200302400201CB5044903
:10ABE0008869C9690090019168460BF0F7F81CBDAF
:10ABF000E882020010B5002801D0012100E0002108
:10AC0000092006F027FB10BD10B517489AB0006860
:10AC10001890062430216846FDF709FB6846C47089
:10AC20000121018218A8059030210CA8FDF7FFFA38
:10AC3000022108A801740CA9684609F02DFC7D24A6
:10AC4000E400002803D02046FEF75BF835DF03F070
:10AC500003FF064873DF002803D02046FEF751F8B3
:10AC600035DF1AB010BD000010830200B0230020B1
:10AC70007FB505460BF08EFC7D24E400002803D050
:10AC80002046FEF73EF835DF002D01D0012000E020
:10AC900000206946087303A80AF058FB002803D077
:10ACA0002046FEF72EF835DF01A805210130FDF71B
:10ACB000BEFA6946487901221043E1210840DF21AC
:10ACC0000C30084069464871072088711020C8710F
:10ACD000064800900A7106480AF05EFC002803D07E
:10ACE0002046FEF70EF835DF7FBD0000BD8F010066
:10ACF0000820002010B5094CFEF780FC20464030AB
:10AD0000C17F002908D0002181770320FEF782F956
:10AD1000E08A02210843E08210BD00008027002065
:10AD200010B5FFF7DDFE02F05BFE03F0C7FEFFF794
:10AD30001DFE0022104910460BF0BEFF0F490120F6
:10AD40004874FFF727FF03F075FA01F0C3F900F02C
:10AD5000EFFC02F0A5F8FFF76BFE01F06BFEFEF7CB
:10AD600033F802F03FFA00F0E5F84B20C000FDF7A1
:10AD7000C8FF02F017FB10BD116B02003024002049
:10AD80007CB5154CFEF73AFC054601F08FF800281B
:10AD90000AD120464030C17F00291AD10F49104BFB
:10ADA0000A68D218AA4201D900207CBD0D60C822D1
:10ADB00069460A80FF2241324A8004228A804B225F
:10ADC000D200CA80002E04D10121C17720465C3018
:10ADD00062DF01207CBD000080270020302400209D
:10ADE0001027000070B51B48194C00690025400D64
:10ADF000C007C00F00D001252078A84226D0FEF75A
:10AE0000FDFB0646A80025700019466002F03AF8DE
:10AE10002078002818D1E66000F038F9002813D017
:10AE200000F0C8FF0C490120C872FEF7E7FB0B4990
:10AE3000886302F0D9FE002802D000210A2001E038
:10AE40000021072003F088F8012070BD002070BDAC
:10AE5000702B002000050050F0290020B0270020B2
:10AE6000F8B57D202F4C40010090617820782E4F5E
:10AE700001262E4D814219D1002819D100F006F982
:10AE8000002812D0FEF7BAFB6168009A401A90427F
:10AE90000BD37D20000108186060E07C401CE0744A
:10AEA000AE720920E872FEF769FCF8BD002814D0E4
:10AEB000A0686146091A0A29F7D36168401A217C03
:10AEC00000292AD0B84228D200202074607C401C7F
:10AED0006074AE720720E872F8BDFEF78FFB616800
:10AEE000401A0A28F8D3B84215D3002060702074A5
:10AEF000A07C401CA074AE720820E8720C488079D7
:10AF0000002805D0FF210A482D31C030C182F8BD8C
:10AF100002F034F9F8BD2674F8BD66700020207484
:10AF2000F8BD0000702B0020DC0500007027002019
:10AF30003024002070B50948074D00690024400DF9
:10AF4000C007C00F00D001246C702C70FEF756FBB8
:10AF5000A1004919486070BD702B00200005005009
:10AF6000F1B52C4C82B02546E035687C2874FF2072
:10AF7000FF210130053100590959274A274BFDF7B8
:10AF800093F922468032D1679067287CFDF748FB11
:10AF90000F4606460022224BFDF786F902460B4675
:10AFA00030463946FDF79AFAE21DF932D1609060D9
:10AFB00006460F46287C02990090081AFDF71CFBF4
:10AFC00032463B46FDF722FA06460F460098FDF74B
:10AFD00027FB32463B46FDF767F90022114BFDF790
:10AFE00063F9FDF74FFB6874E01DF930C3688268B0
:10AFF00000200D49FDF7FCF9F822FC2312591B59DA
:10B00000FDF704FAFF2201321051A4186160687C38
:10B01000FEBD0000102A00202D431CEBE2363A3F13
:10B02000000070400000E03F0000F03F41780078F1
:10B03000090208437047C1780A02817811430A0265
:10B0400041780078114309020843704710B5074C56
:10B050000020FFF74AFB01200003FFF746FB00201A
:10B06000207620606060A06010BD0000582700209E
:10B0700010B5054C0C2221460020FFF74BFA0020AA
:10B08000E0752076A07510BD5827002004480549BA
:10B09000008D884201D101207047002070470000D8
:10B0A00030270020A57F00000148007F7047000086
:10B0B00050270020F0B585B0FE4CFEF79FFA0546FC
:10B0C000022002F051F8FC48217E02460A32039227
:10B0D000163201920D23F94A9B01D31802931923CA
:10B0E0005B01D71803231B02D618403000900B00D9
:10B0F00003F073FA110A355B7685BDCEFAF9F8F7DD
:10B10000F6F5F4F3F2F1F500EC48007A810606D585
:10B11000EB4E0120756120762020607507E0410626
:10B120000FD5E74E052075612076402012E000F033
:10B130002BFFFF30FF300230B0608030F06005B090
:10B14000F0BD800708D5DE4EDE487561B0610D2088
:10B15000207602207877EAE700207877EFE7012071
:10B160003877B563D64EFF203070D348756101F053
:10B170006FFFD148D4491430F06103F003FA0A227A
:10B18000CD49B068FDF72CF8B06806210A3005F00B
:10B19000CFFAB1682C20887206F028FDB268F068FA
:10B1A0001146FDF7F3FE0220F9E0C349C44D193101
:10B1B000E9611022A86803F0C7F90A220399A86878
:10B1C000FDF70EF8A86806210A3005F0B1FAA96863
:10B1D0002C2088720A46E868FDF7D8FE0320DEE0DE
:10B1E00001992C204876B449B54D3A31E9611022D5
:10B1F000A86803F0A9F904202076002047E1022086
:10B2000001F052FF002825D003F0D0FD0021AFA0AF
:10B21000FEF7A8FF06465A22A749FFF767F830460F
:10B22000FEF756FF022001F09FFF0020A449207680
:10B230000D61A24A0870137ADF252B4013728880B3
:10B24000787F20288AD10120A075801EE060FEF75B
:10B2500021FA74E79A498A88501C88807D20C000B2
:10B260008242F6D90B2020760E20E07567E7012098
:10B2700038779248B563007A4006EAD506202076F2
:10B2800000218F48FF22817042708180456156E71E
:10B29000022001F009FF002849D0894E0025B58021
:10B2A0008FA0FFF707F9012808D00B2020767570D2
:10B2B0000320E075022001F057FF40E7012188A03C
:10B2C000FEF750FF05464068622828460DD0FEF77D
:10B2D000FFFE042019E044E136E119E1D9E04BE139
:10B2E000B1E06CE05DE045E02EE062227249FEF7DD
:10B2F000AFFF2846FEF7ECFE019800782C2803D11A
:10B30000009840782C2804D00520E0750B2020768A
:10B31000D0E720226848B16803F0B0F806F066FC78
:10B32000B268F0681146FDF719FE0720EFE76448A0
:10B330008188491C89B281807D20C000814288D9E2
:10B340000B2020760F2090E75D4D1022A9685A4807
:10B350000E46FCF745FF584820223146213003F0C5
:10B360008DF806F043FCAA68E8681146FDF7F6FD83
:10B37000082014E0524D1022A96803980E46FCF7ED
:10B380002FFF4D4820223146423003F077F806F077
:10B390002DFCAA68E8681146FDF7E0FD092020763B
:10B3A000CDE64748102281680198FCF719FF0A2072
:10B3B000207602F0E7FA012000F07EFEBFE61421BD
:10B3C0003D4808F063FA3C4F2C20387515252020A5
:10B3D000395C2C2906D079556D1C401CC0B2EDB2E9
:10B3E0002D28F5D33648C580009801F031FE14228F
:10B3F00031480099FCF748FF0004000C05D03148A3
:10B40000F0620920E0750B20C9E7002001262C4BD3
:10B410006D1EE9B298610EE07A5C303A0B2A04D3D3
:10B420000A21E1750B21217607E0724310180A22E8
:10B430005643491EC9B21529EED29861207E0B28C9
:10B44000AED00D20ABE71E4D00262E706E70022090
:10B4500001F02AFE002804D1A8887D21C900884275
:10B4600014D9022001F080FE14482676017A9D222C
:10B47000114001722E706E70AE800420A075401FC6
:10B48000E060FEF707F903F091FC58E6401CA88045
:10B4900055E6012038770948B5638030406A30634B
:10B4A00007488069F06214483085144870850E2082
:10B4B000207625E058270020C823002030240020D3
:10B4C0000C200020FFFFFF7F14830200736563756B
:10B4D000726974795F6465766963652E7478740047
:10B4E00073656375726974795F7365727669636594
:10B4F0002E74787400000000A57F00003412000054
:10B500001F49BD22087A1040087202F03FFA16E681
:10B510000F202076787F40280ED0022812D00420F9
:10B52000A075F06AE060FEF7B5F8FEF767F8154918
:10B5300048610020387702E60220A07511490020FA
:10B540004870EEE70320EBE70020FFF7CEF80C226F
:10B5500021460020FFF744F8029810210170B563DE
:10B56000EDE50949B06B4018A8428ED201F006FE05
:10B57000029900200870E2E50B202076112074E685
:10B58000302400200C2000208813000010B531204A
:10B5900005F0B0FD0148407810BD0000CA30002021
:10B5A00010B5392005F0A6FD0148407810BD000017
:10B5B000CA30002010B54721202007F067FE012087
:10B5C000FDF79FFB0921212007F060FE402122208A
:10B5D00007F05CFE0021232007F058FE48212420BC
:10B5E00007F054FE0821322007F050FE01213320DD
:10B5F00007F04CFE262005F07DFD2A21302007F0C3
:10B6000045FE312005F076FD002010BD10B500F09C
:10B610000DF810BD10B52F2005F06CFD02484078E4
:10B62000C006C00E10BD0000CA30002010B5214C6D
:10B63000607F002813D03F21382007F027FE3021FB
:10B640003A2007F023FE10213B2007F01FFE0A21BD
:10B650003C2007F01BFE20213D2007F017FE0021B3
:10B66000322007F013FE0021332007F00FFE4721A0
:10B67000202007F00BFE0021212007F007FE607F4D
:10B68000002801D0842100E00421222007F0FEFDE3
:10B690001821232007F0FAFD4821242007F0F6FDA9
:10B6A00099212E2007F0F2FD0021252007F0EEFD64
:10B6B000002010BD1025002010B50446282005F0FC
:10B6C000B9FC062202492046FCF78AFD10BD0000A5
:10B6D000CB30002010B50F2005F00CFD014840785C
:10B6E00010BD0000CA300020134610B50A461946A6
:10B6F00000F04CF910BD10B5032905D0022907D080
:10B70000012908D0002909D000F078F8002010BDE8
:10B7100000F040F8FAE700F0A5F8F7E700F00CF8C1
:10B72000F4E7134610B50A46194600F0E5F810BDD7
:10B7300010B500F0CBF810BD30B5134D00242878BB
:10B7400085B0002802D02C7000F0A4F900F0BAF9FE
:10B750000E49C720087016200D490023019104905E
:10B760000294039401220094084918460BF0AAFDA4
:10B7700008F034FB2878002803D10120287000F05D
:10B78000EDF805B030BD00002C200020C0300020B6
:10B79000CA30002070B5164E04463078002586B0B9
:10B7A000002802D0357000F075F900F08BF91148CF
:10B7B00052210170210C4170210A8170C470162041
:10B7C0000D490023019104900295039504220095F0
:10B7D000084918460BF076FD08F000FB3078002889
:10B7E00003D10120307000F0B9F806B070BD000040
:10B7F0002C200020C0300020CA30002070B5164E2A
:10B8000004463078002586B0002802D0357000F05C
:10B8100041F900F057F9114820210170210C4170C5
:10B82000210A8170C47016200D49002301910490F3
:10B830000295039504220095084918460BF042FD35
:10B8400008F0CCFA3078002803D10120307000F0E5
:10B8500085F806B070BD00002C200020C03000200C
:10B86000CA30002070B5164E04463078002586B0E8
:10B87000002802D0357000F00DF900F023F91148CE
:10B88000D8210170210C4170210A8170C4701620EA
:10B890000D4900230191049002950395042200951F
:10B8A000084918460BF00EFD08F098FA3078002889
:10B8B00003D10120307000F051F806B070BD0000D7
:10B8C0002C200020C0300020CA3000200EB500F02F
:10B8D00045F8074901200870684600F087F8694676
:10B8E00004480978C1736946497801740EBD0000A7
:10B8F0002C20002050240020F7B50F46164E044699
:10B90000C51930786D1E002803D00020307000F07B
:10B91000C1F8200A290A00020902884203D13946E7
:10B920002046029A0DE0FF21201A01310D1AA9B21A
:10B930002046029A06F070FD029A791B601952198E
:10B9400089B206F069FD3078002803D101203070FB
:10B9500000F004F8FEBD00002C20002000B50949CD
:10B9600085B0B920087000201621074A0192049181
:10B970000290039003460090012202490BF0A2FCC2
:10B9800005B000BDC0300020CA300020F7B5154D0D
:10B9900004462878002686B00F46002802D02E7074
:10B9A00000F078F8104803210170210C4170210A41
:10B9B0008170C4700898042201AC85C4162100234C
:10B9C00004910096084918460BF07CFC0BF0EEF948
:10B9D0002878002803D101202870FFF7BFFF09B0A5
:10B9E000F0BD00002C200020C0300020F0B5174D25
:10B9F00006462878002485B0002802D02C7000F07C
:10BA000049F81349902008704C708C70CC700C7100
:10BA10004C71162006210F4F0023039104900294CD
:10BA20000122019700940A4918460BF04BFC0BF0D9
:10BA3000BDF938793070787970702878002803D192
:10BA400001202870FFF78AFF05B0F0BD2C200020F0
:10BA5000C0300020CA30002010B50C4886B0052147
:10BA60000170AA214170002016210222084C049185
:10BA70000290034601940392009004490BF022FCCB
:10BA80000BF094F9607806B010BD0000C0300020C3
:10BA9000CA30002000B5094985B0AB2008700020ED
:10BAA0001621074A019204910290039003460090E8
:10BAB000012202490BF006FC05B000BDC030002099
:10BAC000CA30002010B50E480024017886B0002945
:10BAD00002D00470FFF7DEFF0A4906200870162026
:10BAE00009490023019104900294039401220094D7
:10BAF000044918460BF0E6FB08F070F906B010BDDB
:10BB00002C200020C0300020CA3000207047704731
:10BB100000210170084670470020704710B50948A1
:10BB2000007F062809D002F05FF8002807D10548F9
:10BB30002030C0780A38072801D8012010BD002025
:10BB400010BD0000D029002010B5002806D0012823
:10BB500001D0022801D100F073F810BD084600F0B2
:10BB60000BF810BD03480021C17603214177012164
:10BB7000C1777047502B002010B508490022CA76C3
:10BB80000122012807D04A778877CA77044906201E
:10BB900002F0F4F910BD03234B77F5E7502B00209A
:10BBA000B80B000070B5FDF729FD244C0546E07F79
:10BBB000002801D001F066F9E27F204E002002212A
:10BBC000203E130002F009FD060604070D1A2B069D
:10BBD000E177207770BD01207563FFF70BF8032034
:10BBE00027E0706B6430A842F4D20020FFF702F81F
:10BBF0000420E0777563E07E401C1DE0706BFF3031
:10BC00009130A842E6D2E07E032806D30520E077F3
:10BC1000207F401C2077756370BDE17770BD7D2368
:10BC2000726B1B01D218AA42F8D2227F637F9A421C
:10BC300001D3E07770BDE177E07670BD502B002036
:10BC400010B503490020C877FEF7D4FF10BD0000EF
:10BC5000502B00208307FF22DB0E9A408907090E34
:10BC6000994000280BDA0007000F083883080848BD
:10BC70009B001818C36993430B43C3617047830843
:10BC800004489B001B1818689043084318607047CD
:10BC900000ED00E000E400E070B505460024204619
:10BCA000B030C0B207F00CFB102007F009FB0020F9
:10BCB00007F006FB1F200AF02BFA2946802007F028
:10BCC000CDFA641CE4B28035042CE8D370BD10B505
:10BCD0000446AE2007F0F4FAD52007F0F1FAC120AF
:10BCE00007F0EEFAA82007F0EBFA1F2007F0E8FAB9
:10BCF000AD2007F0E5FA002007F0E2FA202007F077
:10BD0000DFFA022007F0DCFAD32007F0D9FA00208E
:10BD100007F0D6FA402007F0D3FA8D2007F0D0FACA
:10BD20008D2007F0CDFA142007F0CAFAA02007F002
:10BD3000C7FAC82007F0C4FADA2007F0C1FA1220C7
:10BD400007F0BEFA204600F019F8D92007F0B8FA3B
:10BD5000222007F0B5FADB2007F0B2FA002007F046
:10BD6000AFFAA42007F0ACFAA62007F0A9FA10BD9C
:10BD700001498020C86070470005005010B5044696
:10BD8000812007F09DFA204607F09AFA10BD10B501
:10BD9000002801D0AF2000E0AE2007F091FA10BDDE
:10BDA000034806210171024900203039C8777047E5
:10BDB000002A002010B5084CFDF77CF9002802D0BD
:10BDC0000120FDF743F92079002801D0002010BDA3
:10BDD0000120207110BD0000002A002070B52E4CFB
:10BDE000FDF70CFC05462079002801D001F04AF847
:10BDF00020790126030002F0F0FB083C050D1C2110
:10BE00003C3D473CFDF7FAFB206007200AF080F933
:10BE100002202DE02068281A67282AD91F4980208F
:10BE2000C8600220FCF76DFF07200AF071F90320BB
:10BE30001EE0CC20FFF74BFF042019E016483038F5
:10BE4000C677FDF7DBFB1649164D0863124810381C
:10BE50004672287C04280AD10021052002F07CF8D3
:10BE6000062028741048417D6973807DA8730520E1
:10BE7000207170BD0020FFF78AFFFFF779FFFDF703
:10BE8000BDFB20600720F3E7FDF7B8FB2168401AEF
:10BE90006728EED90020EBE7002A002000050050BB
:10BEA000B0270020502B0020D02400200248007F23
:10BEB000002800D001207047F029002010B50BA009
:10BEC000FEF7F8FA00280CD00CA0FEF7F3FA0128D0
:10BED00008D00CA0FEF7EEFA012802D00BA0FEF766
:10BEE000E9FA10BD07F090FA10BD00006F74615FB1
:10BEF00073746172742E7478740000006170702E17
:10BF000062696E0073642E62696E000063792E624E
:10BF1000696E000010B506490028087707D005486B
:10BF2000807B5A2803D90021072002F027F810BD92
:10BF3000F02900203024002010B5A521C9000E48AA
:10BF4000FCF775F90C49322048600C4964200886DA
:10BF5000022080310873072080310871084A0021CF
:10BF60001174064908228039CA77087702480549C2
:10BF70008030016610BD0000982B0020D82E0020D4
:10BF800038300020CCCC000000487047982B0020AF
:10BF90000148C07F70470000582E0020F7B5414C83
:10BFA00086B020684049401C2060C96D0026401AB8
:10BFB000FF21F5313D4F884203D90020387602F049
:10BFC000CFFE38483A4908300190009106A80EC8C3
:10BFD00002A805F085FD02AB07CB683407C4314DDC
:10BFE00000237435743C02F037FF696800290FD0D4
:10BFF00029686960401AC0100818286003F0FAFB2D
:10C00000002807D000200226387602F0A9FE0AE0B8
:10C010006860F2E7234861688030008F884202D967
:10C02000304609B0F0BD06F027F906AB07CB02F0A9
:10C030003BFC1D489C38014620310EC90EC007F05C
:10C0400029FA1C4D00280ED006AF07CF012302F0BD
:10C0500069FE15480121A038017406F051FF2868D7
:10C06000401C286004E006AF07CF002302F05AFE10
:10C0700006F0ACF800280ED00C48A038817F0029CB
:10C0800009D1C07F0326002802D06868401C686080
:10C09000012000F011F806AD07CDE36F07F098FB23
:10C0A000BEE70000982B0020182D0020F82E00205D
:10C0B0005E830200302000200349002801D003489D
:10C0C00000E003488860704730200020C039060037
:10C0D000300B01003EB5AA2168460170BB210171F9
:10C0E000CC210172124C6A46012100200AF05AF953
:10C0F000012101AA08460AF055F902AA01210220ED
:10C100000AF050F90AF0BAF8FDF7E0F900202075BE
:10C1100046206075E075FDF771FA606000202A2105
:10C1200022182032401CC0B211700828F8D33EBD3E
:10C13000102A00200C48C17D407D5A2901D25A287E
:10C1400011D3884207D9421AD2B20A2A0BD3500718
:10C15000400F081806E00A1AD2B2102A03D350077B
:10C16000400F081AC0B27047102A0020F8B5324CB0
:10C17000324E207D0427B56B002811D0022811D043
:10C18000032816D004280CD101F010F9002808D09B
:10C1900020682D1A05F06CFA022700282CD128E01F
:10C1A0002775F8BD25600320A56020750AF0ECF81E
:10C1B000F8BD01F0FBF8002816D0A56000F062FE83
:10C1C000207B0028F4D00020207320682D1A022D37
:10C1D00001D906F0C9FA192DEAD905F049FA002863
:10C1E000E6D10AF04BF8DBE7A068281A0228F8D855
:10C1F000F8BD307F002802D0012DD1D8F8BD1048FD
:10C200004B21007AC900022803D0032801D004285A
:10C2100001D1B06E810A8D42F0D308486038007EAB
:10C220000028EBD0FDF7EAF90449064A8039496B4A
:10C2300089188142B4D9F8BD102A0020B02400200A
:10C24000302B00208813000030B50446A1B0032035
:10C25000402269468003FEF75DF90D49FF22CB7B42
:10C260006D462046002B0ED0834200D800204400AB
:10C270002B5D64196478182B05D23C2C03D24B73C8
:10C280008C7321B030BD4A738A730020F9E7000037
:10C29000502B0020F0B5A1B06E46FEF7F7FE00254A
:10C2A000204C002808D020481F4FC079603F00284C
:10C2B00007D0387D042804D9A5722572657221B093
:10C2C000F0BDE07B00281ED0032040226946800399
:10C2D000FEF720F9B97D00208E46797DE37B8C4600
:10C2E0000FE031787278B61C18290CD23C2A0AD299
:10C2F0008C4502D1964510D301E08C450DD3401CEE
:10C30000C0B28342EDD8A57225726572E07B002829
:10C31000D5D00020FFF798FFD1E70120A07221724D
:10C320006272F3E7502B002030250020F0B5032780
:10C33000A1B00446BF036E463846FEF7D6F9207812
:10C340000D4D4008E873202802D92020E87301E051
:10C35000002802D00020FFF777FF4022611C304602
:10C36000FBF73EFF402231463846FEF739F90620FA
:10C37000287421B0F0BD0000502B0020F8B5FDF767
:10C380003DF92C4C0546207C002801D000F07AFDB8
:10C39000217C284E00270120203E0B0002F01DF9D1
:10C3A0000705151B293914461400A17A00290BD062
:10C3B0002149237A4A7D9A4206D3897D627A914245
:10C3C00002D32074E7722773F8BD01207562FEF76F
:10C3D00011FC02201BE0706AC830A842F4D2002091
:10C3E000FEF708FC032020747562E07A401CE072BE
:10C3F000F8BD716AFF319131A942F9D2E17A03297E
:10C4000005D304202074207B401C2073F8BD2074C9
:10C41000F8BD0A4A716A8918A942F9D2217B02291A
:10C4200001D30620F3E72074E772F8BDFFF732FF6F
:10C430002774F8BD502B0020D02400203075000058
:10C4400010B50C4607F00AF9024801684C6001215A
:10C45000817210BD5C230020F8B5154C0E460746CE
:10C46000E088012189021546884202D30020C0439A
:10C47000F8BD07F0F3F821680020086021684860E3
:10C480002168C87321688D8121684E812168887771
:10C4900021682020887321687F20C8770120A0723E
:10C4A000206839464089FEF763F90620205EF8BD12
:10C4B0005C23002010B50D4CE188814215D307F0B4
:10C4C000CDF820688089002801D0FDF787FB20681F
:10C4D0004089FDF783FB2068C17F7F2905D13F217B
:10C4E000C1770120A07200F083F810BD5C2300200A
:10C4F00010B50C4607F0B2F806490968C87F7F28D6
:10C5000001D0002010BD20222046FBF769FE01204B
:10C5100010BD00005C23002010B50C4607F09EF80B
:10C520000348214600684089FEF708F9012010BD44
:10C530005C23002010B507F091F802480068C07B2A
:10C5400010BD00005C23002070B500200A4C0126BD
:10C55000E0800546B602284607F080F82068C07FD4
:10C56000FF2806D0E0886D1C401CADB2E080B542CB
:10C57000F1D3E08870BD00005C2300200148C08832
:10C58000704700005C23002070B514460D4607F08C
:10C5900065F804480168898929800068406820603E
:10C5A00070BD00005C23002010B50C4607F056F863
:10C5B000024801680C810121817210BD5C230020BA
:10C5C00010B50C4607F04AF8024801680C600121DA
:10C5D000817210BD5C23002010B50C4607F03EF8B8
:10C5E00002480168CC730121817210BD5C230020D8
:10C5F00010B5064CA07A002807D020892146800873
:10C600008039FEF737F80020A07210BD5C230020AF
:10C6100010B507490020FDF7C9FF054908468030DD
:10C6200001600021818001818172FFF78DFF10BDC3
:10C63000DC22002010B506490020086048608860B0
:10C64000C86003494039086048600BF03BF810BDF2
:10C650004011014010B5064A0121064807F02EFEA0
:10C66000002803D004A21D2107F0E7FD002010BD23
:10C67000E9C801003C2000202E2E5C736F757263A8
:10C68000655C5254432E630010B5024800F004F874
:10C69000002010BD8F0200007CB5054600201F4C15
:10C6A00000900190206CA84203D1FCF7A7FF6064C2
:10C6B0007CBDFCF7A3FF2564FCF7A0FF606468461F
:10C6C00007F0F4FD01AAA16A009807F0E9FDE06B0C
:10C6D0000199A26B4018218D114E4904490C411853
:10C6E000C80B1218C003081AA263E063306807F091
:10C6F000A7FE00222946306807F060FE002803D01C
:10C7000008A25A2107F099FDE06B2030E06303484E
:10C71000283007F0CBFDFCF771FF7CBDB024002072
:10C720003C2000202E2E5C736F757263655C525442
:10C73000432E63000A4B10B5084A5943526A074B0F
:10C74000521A20330C215956E1239B00594309B258
:10C7500052180146104600F047F810BDB0240020E2
:10C76000805101000A4B10B5084A5943526A074BE1
:10C77000521820330C215956E1239B00594309B22A
:10C7800052180146104600F02FF810BDB0240020CA
:10C790008051010030B509493C254A6A20318C7D21
:10C7A000CB7D6C43E318497DE12424016143C91822
:10C7B000034B58434018101A30BD0000B02400202D
:10C7C0008051010010B507490C224B6A20318A566E
:10C7D000E12189004A439A180146104600F004F806
:10C7E00010BD0000B0240020F8B50C4606462E49C6
:10C7F000FBF7CCFC05462C48E1216843371A2B484F
:10C8000020800126A670E67009013846FBF7BEFCC1
:10C81000C0B2E121607109014843381A3C21FBF79D
:10C82000B5FCA0713C213846FBF7B0FCE171072153
:10C83000E81CFBF7ABFC2171FF2300216F335F1E67
:10C84000228890071DD03846854206D3521C491CC9
:10C850002D1AC9B22280C829F2D32078800712D0BD
:10C86000134900200A5CAA4208D8A278521CA27080
:10C870000A5C401CAD1AC0B20C28F3D37019E070EA
:10C88000F8BD1846E0E70A4900200C390A5CAA42C4
:10C89000F4D8A278521CA2700A5C401CAD1AC0B237
:10C8A0000C28F3D3EAE7000080510100B207000032
:10C8B0005484020010B5FCF7A1FE0A497D22496CA0
:10C8C00012018918814208D20648803880790028F0
:10C8D00004D001200004FFF7DFFE10BD012040045A
:10C8E000F9E70000B0240020FEB501A807F0DEFC47
:10C8F0002D4D6A46A96A019807F0D2FC00980126DE
:10C90000C40BE0030090A96A2F4608180002000A31
:10C91000A862264840370673388A00193882E0B288
:10C92000FCF7C4FAE0B2FCF709FAA86B0019A86397
:10C93000686A00196862387D802801D2001938754C
:10C94000F88AFF212D31884201D20019F882164859
:10C950003030FFF737FF14482030817D827B9142D1
:10C9600010D006708173014660314A78002A09D0E0
:10C97000427DCB789A4205D30B799A4202D28A78CB
:10C98000521E8A70C17C427B914204D086704173F2
:10C99000074A06211174C27B417D8A4203D00C29CB
:10C9A00000D14670C173FEBDB0240020102A0020C3
:10C9B000502B00207CB5002500950195FCF71EFE4C
:10C9C0001A4E0446307E002802D0684600F078F8FF
:10C9D00017480069000CC007C00F06D0FEF7D6FD4F
:10C9E000317E002902D005F073F87CBD04F05AFCBA
:10C9F0000E48C030407F0028F7D0FEF7D1FD400739
:10CA0000F3D50A487D222038416FD200611A914245
:10CA100009D24567FEF73AFB0028E6D00021084618
:10CA200001F0ACFA7CBD44677CBD000050240020BE
:10CA30000005005010B50A20FCF763F9FEF7E6FD8B
:10CA4000FEF748FE0249487300F04AF810BD0000A6
:10CA50005024002010B588B0044604A804F066FAFB
:10CA600004A80FC803936B4607C3230001F0B5FD6C
:10CA70000E261316262626191C261F0D0810222600
:10CA800069460420085E08B010BD6846407BFAE79E
:10CA90006846807BF7E76846007AF4E76846407AA4
:10CAA000F1E76846C07AEEE76846807AEBE76846C9
:10CAB000007BE8E769460620085EE4E70020E2E73D
:10CAC0001CB5028869460A8042884A80808888802E
:10CAD0000199009802F05EF806F016FC1CBD0000FB
:10CAE00010B50C4CFCF78AFD01212060217100205B
:10CAF000E08020816081A0812061A0732075607535
:10CB0000A075E175A076E076207661762077607773
:10CB100010BD0000342B0020F8B57A4C0026FCF73D
:10CB20006DFD7949496B471A022004F097FD0125F4
:10CB3000002804D1032004F091FD00280CD0724895
:10CB40002030007E002807D07048874204D9182181
:10CB500061561E2900DDA57620790027022801D024
:10CB6000032804D1E17D02290DD003290BD001282F
:10CB700002D1E07D012806D067752079022806D011
:10CB8000032804D009E0607D401C6075F5E715229C
:10CB9000A256142A01DBA57506E0012804D115214F
:10CBA00061560A2900DBA7752179E17500F0FEFBCB
:10CBB000002802D02776657602E0207E401C207691
:10CBC000A07D002824D0207F4006000E2077617FC2
:10CBD000012902D1284320776777207FC306DB0E27
:10CBE0008446002108462A4682401A4201D0491C48
:10CBF000C9B2401CC0B20528F5D3032900D3A775DC
:10CC00006046800704D018216156002900DDA77511
:10CC100018216156052913DD012004F01FFD0028AD
:10CC20000DD1182161561E290ADD022004F016FDDF
:10CC3000002804D1032004F011FD002800D06776FD
:10CC4000012004F00BFD00280CD0E07E002805D068
:10CC5000012801D0022803D0032615E0052613E0A1
:10CC6000012611E0022004F0F9FC002804D1032081
:10CC700004F0F4FC002807D0E07E00280DD0012845
:10CC800001D002280BD00A26E07E002809D0012816
:10CC900001D0022807D05A2006E00C26F4E7082627
:10CCA000F2E7642000E050200E2161561F2901DACE
:10CCB000491CA1730C22A25E82420ADB032004F00D
:10CCC000CDFC002804D1022004F0C8FC002800D0CC
:10CCD000A5760C21615EB14201DB012000E000205D
:10CCE00006F0A8FEA7812775216900202A46824008
:10CCF000114202D1227D521C2275401CC0B2102864
:10CD0000F4D3F8BD342B00203024002040771B00E2
:10CD1000024801218176417770470000342B0020C2
:10CD200010B50848816801290AD1074949684907AF
:10CD300006D500218160084609F0B6FF0AF0F8F92F
:10CD400010BD0000003100400033004010B500214C
:10CD5000014809F061F910BD00400040FEB5002017
:10CD6000C043124D02906869019068462E6908F030
:10CD70004DFC074608F0A4FE0446002F08D002AA86
:10CD80000199009808F062FC029808F0E3FE06E0C2
:10CD9000029808F0DFFE002801D1002C02D03046B6
:10CDA00007F0DEFE00206871FEBD00008C20002030
:10CDB000044901220878504008704968002900D0D1
:10CDC000084770477420002010B5084840680028C4
:10CDD00008D08047002804D0FF21054A2A3107F0F7
:10CDE0002CFA10BD08F0D0FD10BD0000D4200020AA
:10CDF000C8A302007CB50020009001A807F056FAF5
:10CE00000F4C6A46A16A019807F04AFAE06B009954
:10CE1000461800967D21A06BC9004843FBF700FC33
:10CE200005460C463046FBF7FBFB064A064BFBF774
:10CE300055FB2A462346FBF737FAFBF723FC7CBD5C
:10CE4000B0240020FCA9F1D24D62404008B500207A
:10CE5000064B07220621009007F056FA002803D05F
:10CE600003A2472107F0E9F908BD0000D4300020F3
:10CE70002E2E5C736F757263655C737973636C6B74
:10CE80002E63000010B50248FFF706FC10BD00003D
:10CE90008F020000014800210170704741200020EE
:10CEA00001490020087070474120002010B5034A56
:10CEB0000121117028DF03F05BFD10BD412000202F
:10CEC00010B5034C0223237029DF03F051FD10BD80
:10CED0004120002000B50023FCF74EFE00BD0000FD
:10CEE000F0B591B02A4F002501266C463603042286
:10CEF0002146A819FDF70EFB2078FF2802D0403507
:10CF0000B542F4D3B54203D33046FDF7EEFB00251E
:10CF100040212046FBF78BF978680090201D01F036
:10CF200037F91B492046A0394A7D203002730A7D1B
:10CF300042738A7D82730A7EC273CA7D02743A7B11
:10CF40004274CA798274134AD27BC274124A527BE9
:10CF500082758A7B0276002A01D1012202760C4A70
:10CF60002032937E4376D27E82760C4A127BC27642
:10CF70000022027742778A88120A82770979C1777C
:10CF800040222146A819FDF72BFB012011B0F0BD6E
:10CF9000D0240020502B002070270020F0290020F2
:10CFA00010B5044C0220FCF735F8E08A0121084353
:10CFB000E08210BD8027002010B5FDF79EFBFCF736
:10CFC00023FFFDF79BFA02490020886710BD00008F
:10CFD0003024002010B585B00446684600F038F8CB
:10CFE0006846007C20706846407C60706846807CA3
:10CFF000A0706846C07CE07005B010BD10B586B06A
:10D000000446684600F024F80FA1204601F0BAFA61
:10D010006946C0B2097C2154401C6946C0B2497CB3
:10D020002154401C6946C0B2897C2154401C694689
:10D03000C0B2C97C2154401CC0B200212154401C04
:10D04000C0B206B010BD00004342414E4420000073
:10D050003CB514490A6A0092496A0191482101705D
:10D0600049214170432181704221C1706A460021EB
:10D07000535C1B09092B01D9372400E03024E31845
:10D080004C0024182371535C1B071B0F092B01D97B
:10D09000372500E03025EB18491C89B26371082957
:10D0A000E6D33CBD40000010054A0146D37B00207A
:10D0B000002B03D08B4200D101207047D173FBE7D6
:10D0C0003024002000B587B0FFF7DEFA182168464B
:10D0D000FBF7ADF86846FFF7BBFFFDF7C9FFFCF7AC
:10D0E00021FE002814D0FDF7D1FF002822D0002017
:10D0F000FDF7BEFDFDF702FA00F062FF02F0C4FA90
:10D10000FEF7DCFE01F0AAF9FBF7C0FE07B000BD98
:10D11000FDF7BCFF002804D00020FDF7EEFA002048
:10D1200003E00120FDF7E9FA0120FDF7A1FDFCF77E
:10D130006BFEDFE70120FDF7EBFA0120D8E70000E6
:10D1400010B5084CFBF7ACFF002807D00120FBF717
:10D1500061FFE08A80210843E08210BD00F00EF8F4
:10D1600010BD0000802700200349CA7B824201D104
:10D170000020C873704700003024002010B5FDF770
:10D1800085FF002801D0FFF7ABFE35DF10BD0000A2
:10D1900010B508F049FC002805D00E490C4848603D
:10D1A000C8130D4988610D48018CC9B201290ED1FF
:10D1B000818C09070BD1018D0906090F042906D1BD
:10D1C000808D0006000F02D105490120886010BD46
:10D1D000DFFF07C000050040006C0040C00F00F0FA
:10D1E0000006004006490548896B01600021017274
:10D1F0008180C180FF21373101827047202B0020C0
:10D20000B0240020F0B5CBB0334CFCF7F7F906465C
:10D21000207A002817D0314D012817D00127022885
:10D220001ED003280DD100F0C1F8002809D0A86B4A
:10D230002168451A04F02CFA002847D0022D00D9A5
:10D2400027724BB0F0BD03202072FAE7FDF766FCB1
:10D25000A86B206002202072E660FDF74DFCF0E72D
:10D26000E0680F30B042ECD2402008F0D7FD1A4DF4
:10D27000303DA886042008F0D1FDE8860320207206
:10D28000FDF746FCFF22A7742D3215496846FAF7D0
:10D29000A7FFE088A2881349801A4843002101E0D3
:10D2A000801A491C0028FBDC0F4A0020FF256B4632
:10D2B0002C35914207DA1E5C401CB700F619921B10
:10D2C00000B2A842F5DBC8302082BAE74B20C0008C
:10D2D0008542B5D8B5E70000202B0020B0240020FF
:10D2E00024DC0200A086010068F00100F8B51D4DA5
:10D2F000FCF784F907461C4928684118B94205D251
:10D3000029790020002900D0287168711748006928
:10D31000C00AC007C00F24D10AF032FD012820D076
:10D3200000F0ACFB0446FF281BD0A006460F6007A8
:10D33000400F0090700701D5012100E00021284630
:10D3400005F0DCFF60060CD5F00703D028460099F5
:10D3500006F0A0F9B00704D53A462846009903F034
:10D36000C7FAF8BD74270020DC0500000005005056
:10D37000084800214279002A04D00171417181716D
:10D38000062070478279002A02D08171C0797047E7
:10D3900000207047742700200148407B7047000040
:10D3A0007027002010B500F021FB10BD10B5FBF771
:10D3B00021FD002801D0002010BD0148407B10BD98
:10D3C000702700200148807A7047000070270020F5
:10D3D0007047000070B504460D461646FCF70EF97E
:10D3E000FDF754FE002823D0324629462046FEF79A
:10D3F000D5FD04001CD0FEF7CBFD012819D0002874
:10D4000016D0E10714D00E4C022815D003280FD1F6
:10D41000606C401C606403F089FEA16C4018A0643D
:10D42000FCF7ECF8E066FFF773FC0120FBF798FCD3
:10D4300070BD00F027F870BD206C401C2064EAE746
:10D440003024002070B5FDF721FE002816D00C4CCA
:10D4500000252078002802D004F0E0FA2570A0789A
:10D46000002802D004F064FAA5706078002805D086
:10D4700003486570A0384566FFF732FB70BD0000B9
:10D48000D024002010B5FEF795F8094C0120207635
:10D49000FCF7B4F82146203948630020A07600F05C
:10D4A000A3FB002802D00320FFF792FF10BD00006D
:10D4B0005024002070B50546FCF7A0F81B4904462F
:10D4C000002D08D1087E00282ED0887E401CC0B2D6
:10D4D0008876022828D300200876FFF779FFFBF72B
:10D4E00089FC002807D0FEF719FB002803D1002192
:10D4F000042000F043FDFBF7DDFD002802D00020F2
:10D50000FBF7A4FDFEF792F8FEF716FD074D08495C
:10D51000203D686B4018A04202D20020FEF7CCFDEF
:10D52000044901206C63487070BD00005024002045
:10D53000E0930400902B0020F7B501462A4800260E
:10D5400092B01446002925D06846FFF7F3F802AFE1
:10D5500000254022D00139462818FCF7DBFF387837
:10D56000FF2834D002996A46029809049278090E7D
:10D57000C0B28A4226D16946C978814222D1139825
:10D580000126042825D006282CD0072826D00928D3
:10D5900021D125E01399042906D006290FD00729A7
:10D5A00006D0092907D108E041688068081801E021
:10D5B000006905E0106001260DE0806AFAE7C068A6
:10D5C0000009F7E70120000340358542C1D3002060
:10D5D00000E004982060304615B0F0BD0698F9E7E9
:10D5E0000398F7E70598F5E76C240020F0B50446AA
:10D5F00087B00020FFF7CEF8694604912249002643
:10D6000040180590E681268266826F4601252673C2
:10D610001022900239463018FCF77CFF3878FF283A
:10D6200010D00098103640004008009005998842BC
:10D6300024D90498007B022806D003280CD00428A3
:10D6400010D019E0103619E0E0893C30E081032D5C
:10D650000FD0042D0DD00FE0208A3C302082042D05
:10D6600007D004E0608A3C306082032D01D0022D97
:10D6700002D1207B401C20730498057B0120C0034D
:10D680008642C5D307B0F0BD4057FFFFF0B5044652
:10D690008DB00020FFF77EF800260C9608960796BE
:10D6A00000960B90266066602681668102ADE68258
:10D6B0002F4626751022900239463018FCF72AFFB3
:10D6C0003878FF2818D002980B994000400810368F
:10D6D000029088422AD9287A697A40182168091864
:10D6E0002160EA7A61688918616000280BD020897E
:10D6F000A97A401820810AE00C98002801D1012065
:10D700000C90103612E06089A97A40186081A87BDD
:10D7100000280BD00098401C0090697B07980818DF
:10D7200007900421695E0898081808900120C0033A
:10D730008642BFD30098002809D001460798FAF71F
:10D7400025FD207500990898FAF720FD01E00020DA
:10D750002075E0820DB0F0BDF0B5044687B0002022
:10D76000FFF718F800250595049506906560A560FB
:10D7700025616E46E56037462560102290023946E5
:10D780002818FCF7C7FE3878FF281FD000980699A4
:10D790004000400810350090884222D9317A6068F4
:10D7A00040186060717AA0684018A060F17AE06863
:10D7B0004018E060B17A206940182061307B02286F
:10D7C0000CD003280AD0042808D00AE004980028C6
:10D7D00002D1012005950490103502E020683C300C
:10D7E00020600120C0038542C7D3E0680001E060EB
:10D7F000206900012061059807B0F0BDF0B585B043
:10D800000020FEF7C7FF69460491174900254A7DAD
:10D810002C466E460C2A01D3144A01E0134A5242A8
:10D8200087181022900231462018FCF773FE3078DA
:10D83000FF280FD000981034400040080090B842F4
:10D840000BD90498007B022806D0032804D00428B2
:10D8500002D002E0103400E03C350120C0038442D5
:10D86000DFD3284605B0F0BDD0240020C0A80000BA
:10D87000F8B50D4604460121284603F0B5FA68467E
:10D8800003F098FC3C4E706A3C3820606846408843
:10D89000A08068782072A87860722879A072E878F1
:10D8A000E072287820736846007860736846407894
:10D8B000A073E888E08000F047FD0A21401DFAF7D8
:10D8C00065FC0007000FE073317F09010843E07336
:10D8D000607A217A40183C2803D9002130468030F4
:10D8E000017068464078002830D0FBF787FE234956
:10D8F000096F401A2249884228D9607A962807D9A8
:10D9000096382D2802D9400894301EE086301CE05D
:10D91000502805D950382D2800D940087D3014E012
:10D92000217A4018782805D97838232800D940086A
:10D930006F300AE0642801D9801C06E0502801D924
:10D94000103002E03C2801D917306073E0880121D3
:10D95000C9030843E080607B282805D90749603166
:10D96000CA7D904201D9C875F8BD121AD2B21E2ADA
:10D97000F9D952088018F6E7B0240020B029002019
:10D9800060EA000010B5FEF7D7FA10BD10B50CA084
:10D99000FCF790FD012802D001F014FF10BD012119
:10D9A00007A0FCF7DFFB04461C220B49FCF750FCE8
:10D9B0002046FCF78DFB02A0FCF736FB10BD0000F3
:10D9C00061637469766974795F696E69745F746F95
:10D9D00074616C2E736B64006C240020704700002F
:10D9E000014900200860704700250040F0B5002084
:10D9F0002149A1B00446C20053185C60401C8C54FD
:10DA000000B25C700528F6DB00206946FF220A544C
:10DA1000401C00B28028FADB05F046FF8525012670
:10DA2000202719E06846047045708670032103F0D2
:10DA3000FDFC68460770012103F0F8FC02216846EE
:10DA400003F0D0FC68460078852803D1684640780A
:10DA5000112809D006F0E8FA684600788528E1D157
:10DA6000684640781128DDD11321684603F0BAFCDE
:10DA700006F0DAFA21B0F0BD1C340020F0B589B010
:10DA800020216846FAF7D3FB6E462021002431702E
:10DA900025460121304603F0C9FC0A21304603F037
:10DAA000A1FC68460078812802D006F0BDFA03E0A8
:10DAB00068464078062802D2FF2009B0F0BD3F4AF0
:10DAC000107A1070507A5070107C1072507C507226
:10DAD000107E1074507E17465074203738781076B8
