:020000040003F7
:10EC000020290020B9ED0300CBED0300CDED03007A
:10EC100000000000000000000000000000000000F4
:10EC2000000000000000000000000000CFED030025
:10EC30000000000000000000D1ED0300D3ED030050
:10EC4000D5ED0300D5ED0300D5ED0300D5ED0300B0
:10EC5000D5ED030000000000D5ED0300D5ED030065
:10EC6000D5ED0300D5ED0300D5ED0300D5ED030090
:10EC7000D5ED0300D5ED0300D5ED0300D5ED030080
:10EC8000D5ED0300D5ED0300D5ED0300D5ED030070
:10EC9000D5ED0300D5ED0300D5ED0300D5ED030060
:10ECA000D5ED0300D5ED03000000000000000000DA
:10ECB0000000000000000000000000000000000054
:10ECC0000348854600F03AFD00480047EDEE03009A
:10ECD00020290020026882F3088843681847000052
:10ECE000401E00BF00BF00BF00BF00BF00BF00BF8D
:10ECF00000BF00BF00BF00BF00BFF1D170470000E0
:10ED000010B500F02FF8002805D0244922484860AB
:10ED1000C8132349886100F00DF8002805D0214967
:10ED20000120C8632049C007C86010BD20491F48A2
:10ED30000860704700B51F48C06980B21D380300E5
:10ED400000F022FD150E0E0E0E0E0E0E0E0E0E0E05
:10ED50000E0E0E0E0E0E0E0C0E0C0E00002000BD40
:10ED6000012000BD00B51348C06980B21D38030002
:10ED700000F00AFD170D0D0F0F0F0F0F0D0F0D0DEA
:10ED80000F0F0F0F0F0F0F0D0F0D0F0D0F000120A5
:10ED900000BD002000BD0000DFFF07C000050040EF
:10EDA000006C004040070050000500500024F400B3
:10EDB0000020002040000010074802680F210A438D
:10EDC00002600648804706480047FEE7FEE7FEE788
:10EDD000FEE7FEE7FEE700002405004001ED03002A
:10EDE000C1EC030001206A49C00388606A49694890
:10EDF000C860BFF3408FFEE70A4601466748FFF749
:10EE0000F1FF70B50E46012109070C69214600F09B
:10EE10006DFC05462146304600F068FC064600249D
:10EE200004E02819C0B200F0DFFB641CB442F8D340
:10EE300070BDFEB5FF218902052003248003A403D1
:10EE40004F688D6806462146FFF7DBFF012021460B
:10EE50004004FFF7D6FF5248019018E0FF2D01D87B
:10EE6000284601E0FF20013084B2E01C80080090B9
:10EE700021463846019A00F089FA49493046009AFD
:10EE800000F0A0FB00983F19800086192D1B002D73
:10EE9000E4D1FEBD4349C8614348C1690129FCD1A1
:10EEA0000021C161704700B503460078012203E0EC
:10EEB000FFF7F0FF985C521C0028F9D100BD30B577
:10EEC0003A4801228C002418226000249D00281852
:10EED00004603448C16043613549416204210160E6
:10EEE0003448826002603048846030BD324892B05D
:10EEF00001680524A403A14232D14069FB218902A3
:10EF0000884230D10120000700690125AD02A842E6
:10EF10002CD1002002220090112312211046FFF76D
:10EF2000CEFF00F0E7F96523002224A101A800F03C
:10EF300017FC01A8FFF7B7FFFF26B602304600F026
:10EF400089F8002817D025A0FFF7ADFFFFF771FF64
:10EF500029463046FFF755FF002000F063FA0DE028
:10EF600028A2CE2104E027A2D02101E025A2D121B0
:10EF70000020FFF737FF26A0FFF795FF204600F09F
:10EF800071F805490348C860BFF3408FFEE70000F1
:10EF9000000500500400FA0500ED00E0EFBEADDE14
:10EFA0000C200020002500400021004000070050F8
:10EFB00000E0D70100200040001000105B424F4FDE
:10EFC000544C4F414445525D2076657273696F6EB3
:10EFD0003A2025642E25640D0A0A00005B424F4F3B
:10EFE000544C4F414445525D205570646174696EC4
:10EFF00067206669726D77617265202E2E2E0D0A6C
:10F000000A0000002E2E5C6D61696E2E6300000008
:10F010005B424F4F544C4F414445525D20737461E5
:10F020007274696E67206D61696E20617070202E48
:10F030002E2E0D0A0A00000038B50521012489038F
:10F04000401A02D1684600F04DF8204638BD70479E
:10F050000020704700681B49884201D10120704799
:10F060000020704770B5184900200B68164C01212C
:10F0700080340A4682401A4204D0C506ED0E0A4684
:10F08000AA402260401CC0B22028F2D313DF00281F
:10F0900003D00EA2A721FFF7A5FE0520800300F0F4
:10F0A0001DF870BD38B50446684600F01BF800989E
:10F0B000016821608188A180C168E1608068A060EA
:10F0C00038BD00005444505500E100E02E2E5C6233
:10F0D0006F6F746C6F616465722E630010B5FFF71B
:10F0E000F9FD10BD014901607047000000FC0300FC
:10F0F000F7B5002808D0744C0521002709026518CF
:10F100002F60002802D02CE0704CF5E770480126F3
:10F110000660001F06606E4808300760001D06602C
:10F120001620A8601520E86018202861192000F03A
:10F13000C6F8F00768620198002806D0012812D0AE
:10F14000022812D0032812D000201521029A89012A
:10F15000002A00D0304361184861FF200930075170
:10F160002E602046FEBD0220EFE70420EDE70620DA
:10F17000EBE7F0B5002605252D0245199E463446DD
:10F180003746002904D9002A0DD01378EB610124F9
:10F19000FF30013084468C422AD2002A05D0105D0F
:10F1A000E861641C24E00023F0E70020F8E7761C07
:10F1B00001E003231B0360468068002801D19E42C2
:10F1C000F5D39E4201D10020F0BD00206346986037
:10F1D00070460028A86901D07346D8557F1CBFB27D
:10F1E0008C4205D2002A07D0105DE861641CA4B2ED
:10F1F0008F42DED30120F0BD0020F6E770B5164641
:10F200000C461D460121334AA140049BD1602A4689
:10F210003146FFF7AEFF0028204603D000F04FF83C
:10F22000012070BD00F04BF8002070BDFFB581B02B
:10F230000C46154601202749A0400B9F0A9A1E46FE
:10F24000C860002331460198FFF793FF00280DD0D6
:10F2500000233A4629460198FFF78BFF002805D086
:10F26000204600F02CF8012005B0F0BD204600F04B
:10F2700026F80020F8E7FFB581B00C4615460120BE
:10F280001449A0400B9F0A9A1E46C86000233146CD
:10F290000198FFF76EFF00280CD03B46002229465C
:10F2A0000198FFF766FF002804D0204600F007F819
:10F2B0000120D9E7204600F002F80020D4E7012120
:10F2C00081400448816070470040004000300040A9
:10F2D000580700500005005008B58649AB2008705B
:10F2E0008548009085480B46012219210068FFF7E8
:10F2F00085FF08BD10B500F00AF90022114610463E
:10F30000FFF7F6FE7D490860FFF7E6FF10BD38B550
:10F31000784805210170AA2141700346764C774850
:10F320000094022219210068FFF768FF607838BD59
:10F3300070B57D250024724E2D01FFF7E8FFC00750
:10F3400005D03046FFF7CCFC641CAC42F5D370BD51
:10F3500008B56849062008706748009067480B4662
:10F36000012219210068FFF749FFFFF7E1FF08BDFF
:10F3700008B56049042008705F4800905F480B465C
:10F38000012219210068FFF739FF08BD1CB513469B
:10F39000584A03241470040C5470040A9470D070FA
:10F3A0000092019355480A46042319210068FFF78B
:10F3B00062FF1CBD7CB515460E460446FFF7C8FF2C
:10F3C0004C4802210170210C4170210A8170C470E7
:10F3D00000904A4801950423324619210068FFF73E
:10F3E00025FFFFF7A5FF7CBDF8B50E460446801942
:10F3F000401E210A000A090200021746814202D17A
:10F40000314620460BE0601AFF2101310D1AA9B2E6
:10F410002046FFF7CFFF711B60197A1989B2FFF7F9
:10F42000C9FFF8BD38B50446FFF792FF31482021E7
:10F430000170210C4170210A8170C4702E48009027
:10F440002E482C4B042219210068FFF7D7FEFFF746
:10F450006FFF38BD38B50446FFF77AFF25485221C3
:10F460000170210C4170210A8170C4702248009003
:10F470002248204B042219210068FFF7BFFEFFF746
:10F4800057FF38BD38B50446FFF762FF1948D82149
:10F490000170210C4170210A8170C47016480090DF
:10F4A0001648144B042219210068FFF7A7FEFFF746
:10F4B0003FFF38BD08B5FFF74BFF0E49C720087066
:10F4C0000D4800900D480B46012219210068FFF7F6
:10F4D00095FEFFF72DFF08BD08B50649B920087055
:10F4E0000548009005480B46012219210068FFF7E6
:10F4F00085FE08BD0C2100201621002004200020DC
:10F50000DC05000007480649C16181617047054973
:10F5100001204031C8610449C0058860704700007F
:10F520000C060000000700500005005010B504460E
:10F53000002A02D01088002211E06748FBE7030A86
:10F5400000020343A05C584003061B0F434018030E
:10F55000584083B21806C00C5840521C92B28A42DE
:10F56000EDD310BD5D4A022151605D490B68002B4F
:10F57000FCD0906008680028FCD00020506008682B
:10F580000028FCD0704770B50C460546554E00E08B
:10F590003DDF30780028FBD1504801214160504ABE
:10F5A00011680029FCD02C6011680029FCD00021D2
:10F5B000416010680028FCD070BD10B5FFF7E3FF74
:10F5C000002010BDF8B516460F460546002407E09A
:10F5D000A00039582846FFF7D6FF2D1D641CA4B2A1
:10F5E000B442F5D30020F8BD014610B50120000754
:10F5F000006980B24843FFF7B5FF002010BDF7B5A2
:10F6000001210907096916468FB2474391003C461C
:10F6100000220198FFF78AFF0546208881B2A9429F
:10F6200001D10020FEBD3846FFF79CFF08340020C2
:10F6300015E0019982008A58284B01215960284918
:10F640000B68002BFCD022600A68002AFCD0234BF8
:10F6500000225A600A68002AFCD0241D401CB042D7
:10F66000E7DB3146381DFFF78EFF1F482918384663
:10F67000FFF789FFD5E7F8B50F46012109070969AA
:10F68000144689B241430D68174E280C0004B0425D
:10F6900002D0002010700FE008792070820008313D
:10F6A000384600F039F82078002281003846FFF70C
:10F6B0003DFF8019A84201D00520F8BD0020F8BD0B
:10F6C00001221207126992B2424300200A60704779
:10F6D0000449087070470000FFFF000000E501408A
:10F6E00000E40140082000200000DE4530B50B4654
:10F6F000014600202022012409E00D46D5409D420C
:10F7000005D31D469540491B254695404019154691
:10F71000521E002DF1DC30BD03460B439B0703D086
:10F7200009E008C9121F08C0042AFAD203E00B78C6
:10F73000491C0370401C521EF9D27047064C01252B
:10F74000064E05E02046E36807C82B43984710346F
:10F75000B442F7D3FFF7B8FA18F9030038F90300F9
:10F760000FB410B504A9074B02AA039800F028F8BB
:10F77000044602A9002000F0C9F8204610BC08BCCD
:10F7800004B018470DF9030030B47446641E2578A0
:10F79000641CAB4200D21D46635D5B00E31830BCC5
:10F7A000184702E008C8121F08C1002AFAD17047A2
:10F7B0007047002001E001C1121F002AFBD17047F1
:10F7C000FFB58DB00446002596E0252832D10027EC
:10F7D000641C4D4A0121009723780846203B98403D
:10F7E0000346134202D00743641CF5E720782E2815
:10F7F00017D104200743641C20782A280CD10E98C6
:10F80000641C02C800910E900BE000990A2251433B
:10F8100030394018641C009020780146303909299D
:10F82000F3D9207800286BD0642808D0692806D046
:10F8300075281ED0109A0F9990476D1C5BE00A2026
:10F840000E99019001C90E91002802DA40422D2143
:10F8500002E0390504D52B216A461172012103E02B
:10F86000F90704D02021F7E70BAE0B910DE0002142
:10F87000FAE70A200E99019001C90E91F7E7019964
:10F88000FFF734FF3031761E31700028F7D103A81E
:10F89000801B20300190780701D5009801E00120FD
:10F8A00000900199884201DD401A00E00020002705
:10F8B000009006E002A8109AC05D0F9990476D1C59
:10F8C0007F1C0B988742F5DB04E0109A30200F99DB
:10F8D00090476D1C0099481E00900029F5DC05E05A
:10F8E0003078109A761C0F9990476D1C0199481E2C
:10F8F00001900029F4DC641C2078002800D064E723
:10F90000284611B0F0BD0000092801000A68531C08
:10F910000B6010707047000038F9030000200020D1
:10F920000C000000A2F7030044F903000C200020A3
:10F9300014090000B2F703000024F40000000000E6
:04F9400000000000C3
:020000041000EA
:0410140000EC0300E9
:040000050003ECC147
:00000001FF
