:020000040001F9
:10800000203F0020758101008F81010091810100D6
:108010000000000000000000000000000000000060
:10802000000000000000000000000000938101003B
:108030000000000000000000958101009781010010
:10804000998101009981010025DD010045D00100E1
:1080500071D001000000000065AA010061890100E3
:1080600099810100998101009981010099810100A4
:108070009981010099810100998101009981010094
:108080009981010069C9010099810100998101006C
:1080900081D00100D5D00100EDD00100998101000F
:1080A000998101009981010000000000000000009A
:1080B00000000000000000000000000000000000C0
:1080C0000348854600F00EFC004800471D6402008E
:1080D000203F0020401E00BF00BF00BF00BF00BF08
:1080E00000BF00BF00BF00BF00BF00BF00BFF1D195
:1080F00070470000401E00BF00BF00BF00BF00BFB0
:1081000000BF00BF00BF00BF00BF00BF00BFF1D174
:1081100070470000401E00BF00BF00BF00BF00BF8F
:1081200000BF00BF00BF00BF00BF00BF00BFF1D154
:1081300070470000401E00BF00BF00BF00BF00BF6F
:1081400000BF00BF00BF00BF00BF00BF00BFF1D134
:1081500070470000401E00BF00BF00BF00BF00BF4F
:1081600000BF00BF00BF00BF00BF00BF00BFF1D114
:10817000704700000321094802680A43026008486A
:1081800002680A4302600748804707480047FEE745
:10819000FEE7FEE7FEE7FEE7FEE7000024050040FD
:1081A00054050040CDD40100C180010030B50B461C
:1081B000014600202022012409E00D46D5409D42C1
:1081C00005D31D469540491B254695404019154647
:1081D000521E002DF1DC30BD70B50024254600286C
:1081E00001DA01244042002901DA01254942FFF762
:1081F000DDFFAC4200D04042002C00D0494270BDAF
:1082000010B5431A934209D28318881803E0401E20
:1082100001785B1E1970521EF9D210BD03460B4344
:108220009B0703D009E008C9121F08C0042AFAD22C
:1082300003E00B780370401C491C521EF9D210BD9C
:10824000D2B201E00270401C491EFBD270470022EE
:10825000F6E710B513460A4604461946FFF7F0FF45
:10826000204610BD421C0178401C0029FBD1801A19
:10827000704710B5002200E0521C835C8C5CA34266
:1082800001D1002BF8D1D8B2E1B2401A10BD30B5FF
:1082900004460020034600E05B1C934203D2E05CEE
:1082A000CD5C401BF8D030BD30B5054600200346FC
:1082B00000E05B1C934205D2EC5CC85C201A01D143
:1082C000002CF6D130BD0321001D401E03781202A0
:1082D0001A43491EF9D5104670470000F0B507460D
:1082E0000846584087B0C00F049048000E46590019
:1082F00040084908BC1A884105D2384631461E4616
:1083000017460B4602465800400810434CD0300D2B
:10831000039040055900400D490D0590401A029008
:10832000402872DA18030121000B09050843019067
:1083300004980092002805D00199524200208841FB
:1083400000920190029840210A1A0199009800F0C9
:10835000E5F905460C466B4607CB00F000FAC0195C
:108360007141039A0E0D0023D71756401A467A40E2
:10837000164344D0049A002A2DD0029A012A039A67
:1083800015DC1205C01A914101263605001C714109
:10839000D20F059ED2070093019202962A462346E9
:1083A00000F0FDF907B0F0BD38463146FAE7160592
:1083B000224A0F46B218C01AB74101210905001C14
:1083C0004F4100187F41114618187941E20F1043C0
:1083D0006D19644113E0E2076D0815436408C20794
:1083E0001443039A01261205C01A91413605001C58
:1083F0007141CE07400830434908C01851412A4610
:10840000234600F0BFF9CDE7FFE7049801224000C2
:10841000C117121A00238B4104983146C417381A29
:10842000A141EEE730B40124E407634030BC55E7D6
:1084300030B40124E407614030BC4FE70000E0FFA6
:10844000F0B51FB488B00B990998002448400999E9
:10845000C00F490049080991C0070B9900904900D5
:1084600049080B9109990898A64608431CD00B9916
:108470000A98084318D0099801244000420D48008A
:10848000410D099824050003000B204309900B9827
:108490000003000B20430B9050181C494018002289
:1084A00001901446104605E0002001460DB0F0BDD5
:1084B000032801DA034600E003239C46C11A0AAEF2
:1084C0000AE05F0008ADED5B4F00F75B7D430027DE
:1084D000AA187C41491C5B1E6145F2DD410004ABDA
:1084E0005A522104120C0A43240C401C0828DFDBDA
:1084F000019802900099704601910090059B049AA2
:108500000799069800F04BF9D0E700000DFCFFFF3B
:10851000F0B50C465C4085B0E40FE40703944C00D2
:1085200000266408590094464908024602962243F0
:1085300021D062460A431ED06200570D4A000E0346
:108540002303550D012402462C492405781B1B0BDF
:10855000360B401823432643614600901C46501AB0
:10856000B44103D30098401C009002E09218009898
:108570005B41002803DA0020014605B0F0BD002071
:10858000012109050746864611E064461D46141B75
:10859000B54106D36546521BB341744607430C43AD
:1085A000A646CD0740084908284392185B41054676
:1085B0000D43EAD11046184313D060461946504087
:1085C0007140084306D06046101AB34106D201221A
:1085D000002306E000220123DB0702E00122D24350
:1085E0005310009874460105381C6141029C039D9C
:1085F0000019694100F0C6F8BFE70000FD03000064
:1086000070B54B005B0803430BD04B005C0D00269C
:1086100033466542B341D417AD1AA34102DB0020B3
:10862000014670BD12053018514170BD0EB5C2171C
:10863000C10F5040CA0740180021054B0293019218
:1086400000910A460B4600F0AAF803B000BD0000F6
:10865000330400000EB505490291002100910A463D
:108660000B46019100F09BF803B000BD33040000FD
:1086700070B5CD0F4A0009030123090B1B051943EF
:108680000B4BED070024520D9A4201DA002070BD19
:10869000074B34339A4203DC9A1A00F04FF802E099
:1086A0000449511888402C43F1D0404270BD00006D
:1086B000FF030000CDFBFFFF4A0009030123090B64
:1086C0001B051943094B10B5520D9A4201DA0020DF
:1086D00010BD064B34339A4203DC9A1A00F02EF890
:1086E00010BD03495118884010BD0000FF03000071
:1086F000CDFBFFFF10B5002904DB0124E407404255
:108700008C412146002B04DB1C460123DB0752422F
:10871000A3418B4200D1824210BD000010B5202A37
:1087200004DB0146203A9140002010BD91402023F7
:108730009C1A0346E3401943904010BD10B5202A0F
:1087400004DB0846203AD040002110BD0B46D34040
:10875000D0402024A21A91400843194610BD10B5FC
:10876000202A06DBCB170846203A1041C1170B43DD
:1087700006E00B461341D0402024A21A9140084342
:10878000194610BD10B5002B08DA0024401C6141C9
:1087900092185B411A4301D14008400010BDF0B56A
:1087A0001FB482B005460C0003D0084606F0ACF8B2
:1087B00002E006F0A9F82030024600902146284643
:1087C000FFF7ACFF049B059A04460F46184311437C
:1087D000084314D0184610431BD0009840210A1AB1
:1087E00018460599FFF7AAFF05460E46009A059917
:1087F0000498FFF793FF084305D0012004E02046CA
:10880000394607B0F0BD0020C11705430E432C4385
:10881000374300990E986305401A7905E40A00224F
:108820000C43FD0A0A3002D500200146E9E70105A4
:10883000101969410C9C0D9D00196941FFF7A2FFB9
:10884000DFE7FEB500231A461B1A8A4103DB00202E
:10885000014603B0F0BD4A000D0301212D0B0905AF
:10886000520D0D43D10702D100186D41521E511017
:10887000FF31FF310131002704463E46384600975C
:1088800001910246012100200905FFF757FFC31996
:108890007141F818324684468E464A416146284660
:1088A000611A904104D36046241A954176461F46CA
:1088B000241900986D41401C00903428E1DDF9191D
:1088C00030467041091BA84103D20022D24313460F
:1088D00001E00022134601980105381C7141FFF7A1
:1088E00051FFB6E7064C0125064E05E0E36807CCCC
:1088F0002B430C3C98471034B442F7D3FFF7E4FB0A
:108900008CAE0200ACAE020070B58C180578401C2D
:108910006B075B0F01D10378401C2A1106D1027846
:10892000401C03E006780E70401C491C5B1EF9D108
:108930002B0705D40023521E0DD40B70491CFAE7F7
:108940000378401CCB1A921C03E01D780D70491C63
:108950005B1C521EF9D5A142D8D3002070BD000087
:10896000044802680021002A03D001220160024865
:10897000426070470071004000700040F0B50E4644
:1089800001468DB0FF310746E531154668460C912A
:1089900000F05EF91C46103C2AD4314608A800F0CD
:1089A00057F908A80FC8079304AB07C304A93846B2
:1089B00000F066F800990498103C484000BA28601E
:1089C000019905981036484000BA686002990698E7
:1089D000484000BAA86003990798484000BAE86088
:1089E00008A80FC803936B4607C31035002CD4DAD0
:1089F00008A90C9800F02CF90DB0F0BDF0B50546B3
:108A000000881435800032E02C681A4B1A4E610041
:108A100031402246E609DF091A403E40921B174EBC
:108A2000FF43324051400E464A001E403A40F7098B
:108A3000F61B124F3E40724017461F400E4B560029
:108A40001E40FB09FB1A0D4F3B405E400B46744035
:108A50005340734061401826F14159406240102351
:108A6000DA414A400821CC41544010C5401E042838
:108A7000CADCF0BD80808080FEFEFEFE1B1B1B1B3F
:108A8000F0B50E4695B00188079109010F18042032
:108A900014378100891980393F1FCA6F3B685A40DB
:108AA000CA67401EF5D18FE00423481E1090D81CE1
:108AB0008007000F3058010E47484068425C991CFF
:108AC0008907090F71580902090E415C0491591C6C
:108AD0008907090F715A0904090E455C9907090FA6
:108AE000715C445C1099059888424FDA04991046ED
:108AF0004840039000F030F9049906906940084618
:108B0000119100F029F904902846604000F024F902
:108B100008902046504000F01FF9139004990698E1
:108B2000484000F019F90B9004990898484000F06B
:108B300013F90B990A90484000F00EF984461199F8
:108B40000B98614041406046414006986A40414070
:108B50000A9862404240604642400498424003986E
:108B600044400B9844406046444008984440039871
:108B700045400A98454060464540139845400806E0
:108B80001104084321020843284306E00499100613
:108B9000090408432902084320439A000CA95118EC
:108BA0008039C8675B1E82D104200CAA81008B1813
:108BB000803B3F1FDB6F3C68891963408039CB677E
:108BC000401EF3D10598401C07990590884200DAB1
:108BD0006AE715B0F0BD000000200020F0B5C1B07C
:108BE00003F06CFB194BC11DF93103C300220121B5
:108BF0006C46FF27CE091C37A1544D007E437540BB
:108C00006940521CFF2AF4D9632500230570FF2711
:108C1000F91A615C0A020A43110956097140960962
:108C20007140D60971405140E25C69405B1C81543F
:108C3000FF2BEDD3054900200A684968135CC8542E
:108C4000401CFF28FAD941B0F0BD000000200020F0
:108C50000A6812BA02604A6812BA42608A6812BA96
:108C60008260C96809BAC16070470000FEB5054658
:108C70000C463748FF2100901E46F5312846FFF785
:108C8000E6FA002E11D0012E61D10E202880214657
:108C90002846082610311430FFF7DAFF2146281D38
:108CA000FFF7D6FF6E80374644E00A20288004266E
:108CB000F4E7B80001902C5831463846FFF78CFA9B
:108CC000002918D12348E2B20068825C1302220412
:108CD000120E825C12041A4323021B0EC35C1B0695
:108CE0001343220E805C009A184312781406444005
:108CF0000098401C0090082E13D1042911D115486A
:108D000022040068120EE1B2825C415C12020A4346
:108D10002102090E415C09041143220E805C040605
:108D20000C43B81B8000401941680198614040190C
:108D30007F1C416028888000001DB842B9DC0020FB
:108D4000FF350146E135401C29711028FBDBFEBDD3
:108D5000548A02000020002001064000002901DAA8
:108D60001B214840C0B270471FB51D491D4863DF35
:108D7000002804D019211CA249010BF04AFC194813
:108D800001AC1030A11C63DF002803D016A21B49E0
:108D90000BF03FFC1348A11C203063DF002804D0F7
:108DA000164911A2C91C0BF034FC0E48A11C30302E
:108DB00063DF002804D011490BA2891D0BF029FCA8
:108DC0000F4802900F48039002A90F480BF09EFD38
:108DD000002804D0094904A20E310BF01AFC1FBD73
:108DE0000A200020608A02002E2E5C736F75726369
:108DF000655C616E63732E63000000002303000056
:108E00001569020071480200F8280020002800DAE5
:108E10004042704710B500231A4606E0C40701D04F
:108E20005B1CDBB24008521CD2B28A42F6D3184611
:108E300010BD10B50DF004FC10BD10B5FFF7F6FB2A
:108E40000FF078F8FFF714FC10BD00000648817A97
:108E5000022907D0C17C1E2902D8807C782801D93C
:108E600000207047012070470026002004498A7ABC
:108E7000022A04D0CA7C1E2A01D81018C874704770
:108E80000026002010B502F0E3F9002810D102F00E
:108E9000EDF900280CD100F045F80D49002802D06A
:108EA0000020C88204E0C88AFF212D31884201D207
:108EB000002010BD00F019F900F094F9002802D04C
:108EC000072000F049F901F059FE012010BD000013
:108ED000F825002007498A7A022A09D00A46A83ACA
:108EE000127E002A04D18A7C782A01D8101888744E
:108EF0007047000000260020094800B50022014606
:108F00008273C0318A81CA8200F00CF8002804D034
:108F100002208874CA768A7600BD8A7400BD00007B
:108F20003825002004480069800CC007C00F01D01C
:108F300000207047012070470005005000B5FFF782
:108F4000F1FF002803D10448807B132801D90020B9
:108F500000BD012000BD000038250020F8B5164CEA
:108F600000F0EEFB0146E07A002813D0012814D06F
:108F7000022812D10D4608F0A3F92074617C264620
:108F80000027C83E00290FD0677402F061F900285D
:108F900004D005E0204605F093FEF8BD207C06E0F5
:108FA000A07A022805D005E0B17B884202D2B073D6
:108FB000F6E72560E772F8BD0026002010B501F045
:108FC000B3FE10200DF016FB0349C881012048763E
:108FD0000220C87410BD0000F825002000B502462C
:108FE000FFF7A0FF002809D005498889801880B2C2
:108FF000E12252018881904200D98A8100BD00009F
:10900000F825002010B51F4B002286B000282FD075
:1090100016292DD14178E1290BD0E22904D0E3298A
:1090200004D0E42904D023E0012202E0022200E07F
:109030000322142469460C820024D1000094019478
:109040000294C91803948A8B69460A8001228A70A7
:109050008C8004A9801C02910390988A6946A6DF3F
:1090600008494031002806D0074A904200D10C77C9
:10907000002006B010BD087F012801D9401E0877E6
:109080000120F6E7882800200430000070B5FEB00B
:1090900015460E460446FFF7A1FD00231A46214659
:1090A0006846FFF7E3FD6846FFF7A8FC40232A4621
:1090B00031466846FFF762FC7EB070BD30B50C46A5
:1090C0008DB01546014610226846FFF799F8102228
:1090D000214604A8FFF794F868464DDF1022284681
:1090E00008A9FFF78DF80DB030BD704710B50978AD
:1090F00015291DD002DC11291FD11CE0212904D023
:10910000222908D0232918D10AE0100015D03921CE
:109110000BA2090109E010000FD009A20D4904E0DB
:1091200010000AD00B4906A2C91C0BF072FA04E029
:1091300001F04AFE01E001F053FE002010BD0000E6
:109140002E2E5C736F757263655C62746C652E6342
:10915000000000009303000010B5074C1321A08A03
:1091600076DF002803D005A2D6210BF052FA0220A8
:109170004034607710BD0000882800202E2E5C73DC
:109180006F757263655C62746C652E63000000002D
:1091900070B50646FFF7C6FE00250C4C002809D125
:1091A000FFF7CCFE002805D002F052F8002801D0CD
:1091B000657770BD002E01D0A57701E00120A07772
:1091C00001F0C8FD0520607770BD0000C8280020B0
:1091D0001CB50446684666DF68468088207001201A
:1091E0001CBD00000348407F042801D000207047C8
:1091F00001207047C82800200348407F002801D084
:109200000020704701207047C828002070B52D4A03
:109210000346008811460025403117281AD01ADC71
:10922000012824D0102827D0112813D1681E90823D
:1092300001201446487709F087FE00F047F802F055
:1092400099FEA07D800705D402F0CAFF002801D056
:1092500004F032F970BD192824D0392803D05028E1
:109260001CD05528F6D10520FFF776FF70BD087F8A
:109270001A7A8018087770BD988890820420144666
:109280000E46487700F05CFA2060F57700F058FA57
:109290000D49086020465C3062DF70BD184609F059
:1092A000E7F970BD98790028FBD1487F0528F8D1EF
:1092B000887F022803D00020FFF76AFF70BD4D773A
:1092C00070BD0000882800203825002005480021B6
:1092D000017641768181C1810348017A4906490EB0
:1092E00001727047882800203825002038B51E4CB0
:1092F00009F02AFE20465C3062DF01216846817059
:109300001F21C94301802246123269460120A0DF95
:10931000002827D1012115480BF050FB13480221EA
:10932000401C0BF04BFB11480321801C0BF046FB4B
:109330000E480421C01C0BF041FB0C480521001D08
:109340000BF03CFB09480621401D0BF037FB07489A
:109350000721801D0BF032FB04480821C01D0BF0D3
:109360002DFB002038BD000088280020E1FF000010
:1093700010B5104804464034617F0B0005F0DBFA5D
:10938000050F040F0F120F00C08A002801D006F04D
:10939000EBFCA07F002803D00020FFF7F9FE10BDF2
:1093A0000120FAE701F054FF0028F8D000F004F89B
:1093B00010BD00008828002070B500F0C1F90546F6
:1093C0003A4C02F00DFF002807D0394920684018B8
:1093D000A84268D204F070F865E0A07E0A2802D99D
:1093E00001F0AEFD5FE0334920684018A8420FD27B
:1093F000FFF76CFF01F0A4FD2F48007A022803D08C
:10940000032801D0042808D10620FFF7A5FE04E0B8
:10941000A089002801D100F05FF82848007A0006F2
:1094200041D5E089A189884205D20120C00300F01E
:109430007DFB00280DD1607E217E884225D2208AC6
:1094400001263603FF2806D8304600F0A5FA00288A
:1094500001D0012070BD607E401CC0B26076217ECC
:1094600088420DD2002020820122052114A001F0A3
:109470008BF8A060002808D0304600F08DFAE8E7AD
:10948000012205210EA001F07FF87D216068C9004E
:109490004018A84207D201F053FD00F035FA65608C
:1094A000A07E401CA076002070BD0000882800200F
:1094B00030750000204E0000582D00203825002077
:1094C00065706F63680000000248007F002800D0CC
:1094D00001207047C828002070B50D4D0120C00242
:1094E000A8810024EC8105210AA000F06FFE00068F
:1094F000000E28766C7606D00022052105A001F02A
:1095000043F8A8602C8205480472447270BD0000C4
:109510008828002065706F6368000000F82600202E
:10952000F0B59BB006460F463022374902A8FEF739
:1095300067FE3549302230310EA8FEF761FE334C0C
:109540000525E8000019B821BC2203460958125825
:1095500080335A6419648030DA6899686D1E196125
:109560002D0642612D0EECD1204680304761066108
:109570006038417A002909D000214172C02006518B
:1095800080343046394667641BB0F0BD002000903F
:109590000EAE0190E80001199022525880314B69BB
:1095A000311803C9FEF74CFF019B009AFEF796FEA7
:1095B0006D1CEDB201910090062DEBD300252E46D7
:1095C0000127F8000119C022525880314B6C02A9C2
:1095D000091803C9FEF734FF2A463346FEF77EFE1C
:1095E0007F1CFFB205460E46062FEAD3019B009A68
:1095F000FEF71EFFC022105180346164FFF738F877
:1096000000B2FFF713F8BFE7C08C0200382C00202F
:10961000164830B50146012220310A724A720021F3
:10962000CA0012180023136353631366154653666A
:1096300080352B616B618032491C2B64C9B2536445
:109640000629EDD301463022E0310A744A740346FC
:10965000074A80330021DA679967803306C30A46D8
:10966000FF30034901301A60C16030BD382C002042
:109670000000F03FF0B59BB006460F4630222E4961
:1096800002A8FEF7BDFD2C49302230310EA8FEF7AE
:10969000B7FD2A4C0525E8000019C26D816D4266B0
:1096A0000166C26A816A6D1E42632D0601632D0E3A
:1096B000F1D12046676320302663017A002907D064
:1096C0000021017267663046394626661BB0F0BD40
:1096D000002000900EAE0190E80001194B6B0A6B60
:1096E000311803C9FEF7ACFE019B009AFEF7F6FDA8
:1096F0006D1CEDB201910090062DEDD300252E4694
:109700000127F80001194B6E0A6E02A9091803C956
:10971000FEF796FE2A463346FEF7E0FD7F1CFFB2B9
:1097200005460E46062FECD3019B009AFEF780FEFD
:1097300061662066CAE70000608C0200382C0020B9
:1097400010B503F0E9FC10BD70B5214A017813464D
:10975000A03B0902198044781E4D091989B20024E2
:109760001980A9420DD1146054608178C01C997091
:10977000002903D0012903D10AF036FD00F072F868
:1097800070BD144D6D1CA9420FD114605460C17896
:109790000902596002791143090259604279114363
:1097A00059608179997000220DE00A4A921C914219
:1097B00002D0521C9142E3D1C1780A0201791143CF
:1097C000427909020A43811D18460AF0EDF870BD7E
:1097D000BC270020E5FF0000F8B520480090051DDB
:1097E00080792F46401CA870FF20E870E220287185
:1097F000A87868718037072078620020A871E87126
:10980000072129722E46A036F8617073B8622C4683
:1098100030700B221934025501216A7029700098AA
:1098200001700F48827F0A55C27F032131730220E5
:1098300002550B49E01C04221431FEF7E1FC07201D
:1098400030732846102221460930FEF7D9FC10203B
:109850007073F861009802210170F8BD4026002065
:1098600058280020F8B5154E10213446FF340D3429
:10987000A0782746401CA070FF20B1308151FF2006
:10988000E070E1202071A0372546012219353A7396
:10989000002149553146681C09220831261FFEF770
:1098A000AFFC0A223A730020607001202070022071
:1098B00030702946601DFEF7A3FCF8BD3825002056
:1098C00070B5104B10221846FF300D308178FF2400
:1098D000491C8170FF21B131CA50FF21C170E121C3
:1098E0000171B9340122E2540146002618251931CC
:1098F000755445700270031F02241C70401DFEF752
:109900007FFC70BD3825002070B5204C2546FF3502
:10991000C5352879FF34CF34002835D1FF20207099
:10992000E12060701620A07018488030416A090E4E
:10993000E170416A090C2171818C090A6171808C86
:109940001249A0710A6C486C8018020EE271020C78
:109950002272020A6272A0720D48028C1212E27226
:10996000008C2073C86C0009020A6273A073886CB3
:109970000009010AE17320740648407D607403F019
:10998000A3FEA0740120287170BD000038250020BE
:10999000382D0020382C0020F0B593B0064601A8E1
:1099A000009005A80B9001A80A905E4C05A80D90A8
:1099B0002079002802D16079002802D0012013B05C
:1099C000F0BD0D2258489201851803221202A17998
:1099D00080180E90002923D000271CE0288C00015D
:1099E0000C90B0421AD20E980422816D0C9808187F
:1099F00001A900F085FE0198042240004008019072
:109A00000E98816D0C98081801A900F0D3FE288CDF
:109A1000401C28847F1C2089B842DFD80020A07118
:109A2000288C0701B74201D30020C8E7012020811C
:109A300016E00E981022806D0099C01900F060FEAB
:109A400000980078FF2806D00198002803DA40002B
:109A50004008019006E0288C401C80B22884070151
:109A6000B742E6D3B7424CD2288C050146E00E98A7
:109A70001022806D0B99401900F042FE0B9800787F
:109A8000FF283ED0059800283BDA400040080199A5
:109A90000590884235D90D98017A0A98007A81425A
:109AA0002FD10D98417A0A98407A814229D10D9898
:109AB000817A0A98807A814223D10D98C17A0A98D6
:109AC000C07A81421DD10D98017B0A98007B8142AA
:109AD00017D10D98C1880A98C088814211D10D987C
:109AE000417B0A98407B81420BD10D98817B0A987B
:109AF000807B814205D12089401C20811035B542F0
:109B0000B5D32389012B01D9092201E000230822C2
:109B100020460A300A9906F0E7FF012020716071A3
:109B20004CE70000FC26002038250020F0B591B05D
:109B3000064601A8079008A80C9001A80690574C6B
:109B400008A80D902079002802D16079002802D061
:109B5000012011B0F0BDA079514D00281ED0002782
:109B600017E0E88B0001B04216D204221303C0189C
:109B700001A9009000F07CFD0198042240004008FB
:109B8000019001A9009800F0D9FDE88B401CE88302
:109B90007F1C2089B842E4D80020A071E88B07011F
:109BA000B74201D30020D4E70120208115E0102224
:109BB00090023818079900F05BFD07980078FF289D
:109BC00006D00198002803DA40004008019006E022
:109BD000E88B401C80B2E8830701B742E7D3B74265
:109BE0004BD2E88B050145E01022900228180C9911
:109BF00000F03EFD0C980078FF283ED00898002821
:109C00003BDA4000400801990890884235D90D9808
:109C1000017A0698007A81422FD10D98417A0698F0
:109C2000407A814229D10D98817A0698807A8142C2
:109C300023D10D98C17A0698C07A81421DD10D9822
:109C4000017B0698007B814217D10D98C188069848
:109C5000C088814211D10D98417B0698407B81429A
:109C60000BD10D98817B0698807B814205D120899C
:109C7000401C20811035B542B6D32389012B01D970
:109C8000092201E00023082220460A30069906F046
:109C90002BFF0120207160715AE70000FC26002094
:109CA0007828002010B5002405F018FB002803D008
:109CB000641CE4B2052CF7D310BD0000F0B50446D7
:109CC00010460022084E0AE02578070A7D406D0004
:109CD000755B00024540521CA8B292B2641C8A42D5
:109CE000F2D35840F0BD0000508D020010B50C4674
:109CF00009F0A0FE0448017A02464900103254528D
:109D00000121417210BD00000C22002003481321E4
:109D1000C08A8903C001081A70470000EC210020A6
:109D200070470000F8B52B4CA0792346203B8501F5
:109D30001E468446E179DA8A30360DE04800305A12
:109D4000254FB84207D140104F00F0536818521CFD
:109D500080B2DA8230E0491C4029EFD31320C001E1
:109D6000824235D0607A002804D01A49604610310A
:109D700000F00CFD174E0027203E26E0A079884217
:109D800026D2401C1349C0B24035A071ADB210318B
:109D900000F09CFC104800210E4A4B001032D25AB1
:109DA00082420ED10B4A0D484B001032D052681837
:109DB000F28A80B2521CF282491CE1710121617267
:109DC000F8BD491C4029E7D37F1CF168B942D5D8BA
:109DD0000020F8BD0C220020FF7F0000FF3F0000A4
:109DE00010B509F027FE03480249007A40001031FF
:109DF000085A10BD0C220020F0B51A4CA1B0A18B5E
:109E0000A068FEF7D3F900252646E0823036164FCB
:109E100017E06946284600F059FC1248802269463E
:109E20003030FEF7EDF900204100715AB94202D0FE
:109E3000E18A491CE182401C80B24028F4D36D1CA9
:109E4000ADB2E068A842E4D8064D0024203529468A
:109E5000AC711031204600F039FCEC716C7221B00D
:109E6000F0BD0000EC210020FF7F0000F0B5C1B084
:109E7000354C6946002000F013FC802020836D469D
:109E800020A9032000F00CFC3FA8023001F0B0F93B
:109E90002E49002788424ED12846363001F0ADF9D0
:109EA0002B490002884246D102A8033001F0A0F9F4
:109EB000218B88423FD105A8023001F099F9E0607A
:109EC00068462646007C20363073012833D1684628
:109ED000407BA08304A8013001F08AF9E08304A844
:109EE000033001F085F9208403A8023001F080F9E5
:109EF00060840120218B0004FEF758F90546208C70
:109F0000A84218D3A18B401BFEF750F9A084022071
:109F1000B072A560608C2060E08B00280CD06808CF
:109F20006060A08C218B4000401E0818FEF73EF9AF
:109F3000E168884202D9002041B0F0BD0020C04352
:109F40002061A7820120F7E7EC21002055AA00003C
:109F50000046415410B530210248FEF778F900F070
:109F600003F810BDEC210020F0B55F4CA7B02046EF
:109F7000203002212690229081726D468021284651
:109F8000FEF765F92946012000F0F1FB2946022081
:109F900000F0EDFB8026268366830120A08313203A
:109FA000C0012084042060840002E08341100F205F
:109FB000C001A0841E20E0602298012707730420BE
:109FC0002060A16080016060F022802128462592F7
:109FD000FEF73DF90B2245A12846FEF711F9694627
:109FE000CE72002008734F7304228A73C8730F74F3
:109FF00048748A74CE7409220A75259A4A753F22DC
:10A000000A764876FF228A76C87608774877887776
:10A01000C8770CF043F808A9C871020A0A72020C4A
:10A020004A72000E8872A08969468875000AC87550
:10A0300008A90E7129208871284613222EA12B30E1
:10A04000FEF7DEF82946002000F091FB218B284620
:10A05000FEF7FDF8552018A98877AA20C877294669
:10A06000032000F084FB00207F26249035E0FF22AF
:10A0700080212846FEF7E4F801202E54801C802819
:10A08000FBD3FF212598C943014329701F4A010AC8
:10A0900011436970010C12121143A970000EFF21C7
:10A0A0000843E8702946002000F070FB01270EE00D
:10A0B000FF2280212846FEF7C3F801202E54801C81
:10A0C0008028FBD32946384600F060FB7F1CE068FF
:10A0D000B842EDD82498401C24902698017B2498FF
:10A0E0008142C4D827B0F0BDEC210020EBFE904D9A
:10A0F00053444F53352E30004E4F204E414D452096
:10A10000202020464154202020202000FFFFFF0077
:10A1100010B50548417A002904D0034980791031EF
:10A1200000F034FB10BD00000C220020F1B5002629
:10A13000A8B0354600F0AEF802F0BAFB07460021A1
:10A140002898002F016001D0002415E0002029B0DC
:10A15000F0BD20A9204602F065FB00280AD0761C3D
:10A16000B6B26946204602F071FB6846FEF77AF8FF
:10A1700045190835641CA4B2BC42EAD3289805608E
:10A180003046E4E770B5A8B0064600F083F802F068
:10A190008FFB050018D0002414E020A9204602F00F
:10A1A00041FB00280CD06946204602F04FFB3146A7
:10A1B0006846FEF75EF8002802D1204602F014FB44
:10A1C000641CA4B2AC42E8D328B070BDF3B5A9B00A
:10A1D000299800260F46002824D0002F22D000F016
:10A1E00059F802F065FB05001CD001A8002400907E
:10A1F00016E0A0B221A902F015FB00280FD0A0B2F2
:10A2000001A902F023FB002006E000990A5C2999CD
:10A21000095C8A4203D1401CB842F6D3761C641C08
:10A22000AC42E6D330462BB0F0BD000010B50400C0
:10A230002DD0E07C00282AD1A07C002802D0204626
:10A240000AF0E8F8E08902F00FFBE28901461046C7
:10A2500002F05CFB218AE08902F040FB0C48008E92
:10A2600002040B482030817C11430A02C17CE08942
:10A27000114302F03FFBE089216802F07BFAFFF70F
:10A2800047FF02F04FFB0020207502F0F7FA10BDE7
:10A29000B825002010B50548007D002805D00348EA
:10A2A000FFF7C4FF002001F0CFFF10BD9C2200206B
:10A2B000002803D00068002800D00120704700006B
:10A2C000F0B5CDB00D4624A9019104A90091014635
:10A2D000802204A8FDF794FFFFF7DCFF324C002634
:10A2E000E574012D26D0FFF787FDFFF70FFD05214F
:10A2F000C90288424CD3FFF715FD050048D0FFF78F
:10A3000011FD69460881020044D02946009802F0F8
:10A310003DFA411C40D0711E2182A67420816946FD
:10A3200009896181A1812660E081012020751E4894
:10A330004DB0F0BD02F0BCFA070029D0002510E0B6
:10A34000A8B244A902F06EFA002809D0A8B2019977
:10A3500002F07CFA00990198FDF78BFF002802D0EB
:10A360006D1CBD42ECD3BD4212D2A8B2E08103AA5B
:10A3700002A902F0A3FA8020A074E0892081684637
:10A3800000896081A0810398206060602675CEE717
:10A390000020CDE7284604E02846FFF7C1FC6846C8
:10A3A0000089FFF7BDFCF3E79C220020F8B51646B4
:10A3B0000F46050007D02868B04200D2C6B2A87C7C
:10A3C000802802D004E00020F8BD284608F0C4FD33
:10A3D000A87C1C498219802A09D241183246384685
:10A3E000FDF70EFFA87C34468019A8741EE0802279
:10A3F000121AD4B2411822463846FDF701FF381927
:10A4000000901BE0301BC7B2802F00D380273A4654
:10A410000C490098FDF7F4FEE019C4B20098C01989
:10A420000090802F0AD0AF74B442EBD32868A042CA
:10A4300000D2C4B2001B28602046F8BD284608F0B0
:10A440008BFDF1E734230020F8B516460F460500D2
:10A4500014D02A8A3146384602F0CEFE2882A87CE3
:10A460001F498219802A0BD2401832463946FDF71F
:10A47000C7FEA87C34468019A87427E00020F8BDE8
:10A480008022121AD4B2401822463946FDF7B8FE8F
:10A49000381900908020A874284609F0BBFF0028D6
:10A4A00012D113E0301BC7B2802F00D380273A4669
:10A4B0000B480099FDF7A4FEE019C4B20098C0193A
:10A4C0000090802F04D0AF74B442EBD32046F8BD87
:10A4D0008020A874284609F09DFF0028F4D1F5E7F4
:10A4E000B4220020F7B5A8B00E460024FFF7D2FE34
:10A4F00002F0DEF90746002542E06946284602F0F0
:10A5000091F900283AD02898844235D1019808AFB3
:10A51000010E2A98315401982A9C000C641C305575
:10A520000198641C000A3055641C01983055684637
:10A530000089641C000A305568460089641C305547
:10A5400039462846641C02F081F93846FDF78AFE38
:10A55000401C85B27F20001B80B2854200D9054691
:10A56000002078553555641C30192A463946FDF7C8
:10A5700047FE60192BB0F0BD641CA4B26D1CADB2D7
:10A58000BD42BAD32A98F5E7F7B5AAB000200090EB
:10A5900001200F460190FFF77DFE02F089F90500CA
:10A5A00024D002AE00241FE0A0B222A902F03AF9A2
:10A5B000002818D0A0B202A902F048F9002005E056
:10A5C0002A99325C095C8A420DD1401CB842F7D30B
:10A5D0002C9800280DD0019800280AD0A0B202F0D3
:10A5E00003F900200190641CAC42DDD300982DB02B
:10A5F000F0BD01213046FFF763FE002805D08189B8
:10A600000122C901120489180091FFF70FFEEDE73E
:10A6100070B5A8B00646FFF73DFE02F049F9050007
:10A6200014D0002410E0A0B220A902F0FBF800280A
:10A6300009D0A0B2694602F009F931466846FDF733
:10A6400018FE002805D0641CAC42ECD3002028B0D2
:10A6500070BD0120FBE7000010B518210348FDF78D
:10A66000F6FDFFF7C9FB02F06DF910BD9C2200203A
:10A6700070B50D460446C1091646042000F0BCF82A
:10A68000002807D01320800320183246294601F005
:10A690000DF970BDFF2280212846FDF7D1FD70BD68
:10A6A00070B504460D462146002000F0A5F80028AC
:10A6B00005D0E0018022294601F0F8F870BDFF22A4
:10A6C00080212846FDF7BCFD70BD000070B5044632
:10A6D0000D462146012000F08FF8002808D00748D9
:10A6E0008022006829460019C00101F0DFF870BD22
:10A6F000FF2280212846FDF7A3FD70BDEC2100203C
:10A7000010B501F0D3F810BD70B504460D462146D2
:10A71000022000F071F8002808D007488022406825
:10A7200029460019C00101F0C1F870BDFF22802147
:10A730002846FDF785FD70BDEC21002070B50E4662
:10A740000446C109A0B01546042000F055F80028C1
:10A750000BD02A4631466846FDF752FD1320800390
:10A7600020182A46694601F0BEF820B070BD70B5C9
:10A7700004460D462146002000F03EF8002804D093
:10A78000E0018022294601F0AEF870BD70B50446A4
:10A790000D462146012000F02FF8002807D004487C
:10A7A0008022006829460019C00101F09CF870BDA4
:10A7B000EC21002030B5A1B0054614466846FDF7EF
:10A7C0001FFD22466946284601F08DF821B030BDB4
:10A7D00070B504460D462146022000F00DF8002811
:10A7E00007D004488022406829460019C00101F0C2
:10A7F0007AF870BDEC21002010B5030004F09BF83E
:10A800000504070A0D10210004290DD219E0FC29C6
:10A810000AD216E0FF2907D813E00F20C00101E09B
:10A820000120400281420CD300F012FD002801D02B
:10A83000002000E0012000F00EF802F01FFE0020D2
:10A8400010BD012010BD1321890310B5401803214C
:10A8500001F033F810BD70B5054600F014F8044659
:10A86000284600F003F8001980B270BD014610B50B
:10A870000020002906D0132110248903204604F06B
:10A88000CFFD204610BD10B54C240021204604F019
:10A89000C7FD204610BD000070B504460D46214698
:10A8A0000320FFF7A9FF002808D00748802280680E
:10A8B00029460019C00100F0F9FF70BDFF22802178
:10A8C0002846FDF7BDFC70BDEC21002070B50446A4
:10A8D0000D4621460320FFF78FFF002807D00448CC
:10A8E0008022806829460019C00100F0FCFF70BD7D
:10A8F000EC210020FFB58DB0002408940E98FDF7E0
:10A90000B1FCC0B20A900E9809900F9800260B90E7
:10A91000374635460998FDF7A5FCC0B210E0099905
:10A92000495D20395E2903D8761C6D1CF6B2EDB264
:10A930000999495DC90903D07F1CED1CFFB2EDB236
:10A940008542ECD30B98102807D0082809D00025A1
:10A9500002A8002104AE099074E0F1003801081843
:10A9600000E0F000C5B2F3E70E98405C0246203AE2
:10A970005E2A44D80F99102902D0082922D017E066
:10A980006A46102106F044F91098012814D0E1001D
:10A9900008980822000109180D980818074669460A
:10A9A000FDF72EFC3846803008220999FDF728FC77
:10A9B000641CE4B2089842E08020401B4010E10093
:10A9C0004118E5E717239B03C000C018FF38082192
:10A9D0006A46013801F0BCF81098012806D006201C
:10A9E0000D996043401806226946DFE78020401B2E
:10A9F00041100620604309180D980818F3E7C009B4
:10AA000023D00E986A464018202106F00DF91098C0
:10AA100001281FD0E10008981022000109180D98A4
:10AA2000081807466946FDF7EBFB384680301022D0
:10AA30003146FDF7E5FB0898401CC0B20890410084
:10AA4000401801190A9881428ED3802D08D82846D3
:10AA500011B0F0BD8020401B4010E1004118DAE742
:10AA6000FF20F5E70348C16B002901D00021C16335
:10AA7000704700004061004010B50021132006F02F
:10AA800073FD6420FEF7D5F90121132006F06CFD5B
:10AA900010BD000010B52F4802240460001D0460A2
:10AAA0000121204606F060FD2A480C300460001D9C
:10AAB0000460001D04600121062006F055FD0121FF
:10AAC000072006F051FD23482030046000210920B2
:10AAD00006F04AFD1F4828300460032211460B206F
:10AAE00006F034FD1B4830300460001D0460001D7A
:10AAF0000460001D046000220221102006F026FDE3
:10AB000014484430046003220021122006F01EFD88
:10AB10000121132006F028FD03221146152006F01E
:10AB200015FD0121162006F01FFD0A485C30046067
:10AB300008486430046007486C300460001D0460FD
:10AB4000001D0460001D046000211F2006F00CFDA4
:10AB500010BD00000007005001200449C0074860F4
:10AB60000321062033DF06202EDF704700630040FC
:10AB700010B500F019FA02F055FD10BD10B5002116
:10AB8000142006F0F1FC1E49002088711D490220A6
:10AB90000860091D0860091D08601A491031086025
:10ABA000091D0860091D0860091D0860091D08606D
:10ABB000091D0860091D0860091D0860091D08605D
:10ABC000091D0860091D0860091D0860091D08604D
:10ABD000091D08600B4958310860091D0860091DEE
:10ABE0000860091D0860091D0860091D0860091D2D
:10ABF0000860091D0860091D0860091D086010BD76
:10AC0000382500200007005010B50121142006F05F
:10AC1000ABFC02490120887110BD000038250020DE
:10AC20001CB50449086A496A0090019168460BF016
:10AC3000C1FC1CBDC08B02000149022008607047A6
:10AC40003C07005010B501210F2006F08DFC10BD0F
:10AC50001CB5002812D0012810D10949094C0869F7
:10AC6000496901910090A07C002807D068460BF04C
:10AC700025FD0020A0740120FEF7DBF81CBD0000BC
:10AC8000C08B0200382500201CB5002811D00128F7
:10AC90000FD10849084C8868C96801910090A07CD0
:10ACA000002806D168460BF021FD0120A074FEF7B4
:10ACB000C0F81CBDC08B02003825002000B587B04D
:10ACC000002820D01149002203C90490CD20C004DF
:10ACD00005910290182000901A20019003206946E7
:10ACE000087304A80BF036FD002804D0FF2108A249
:10ACF000023109F08EFC04A80BF0F8FC0949012090
:10AD00008874FEF796F807B000BD0000C08B020003
:10AD10002E2E5C736F757263655C6770696F2E634E
:10AD200000000000382500201CB504498869C96965
:10AD30000090019168460BF03DFC1CBDC08B0200E9
:10AD400010B5002801D0012100E00021092006F003
:10AD50000BFC10BD10B519489AB000681890062475
:10AD600030216846FDF773FA6946CC7001200882ED
:10AD700018A90591694608831148079030210CA84D
:10AD8000FDF765FA022008A908740CA9684609F0C5
:10AD900081FD7D24E400002803D02046FEF749F819
:10ADA00035DF04F013F8074873DF002803D020468E
:10ADB000FEF73FF835DF1AB010BD0000E88B020047
:10ADC0002E2000208824002010B50348818C0348E1
:10ADD00009F08EFF10BD000078280020A02400207C
:10ADE00010B5014604220948FDF70AFA0748032175
:10ADF000801F00228903C06809F0CCFC002804D021
:10AE00007D20C000FEF715F835DF10BD3220002090
:10AE10007FB505460CF09EF97D24E400002803D0A0
:10AE20002046FEF706F835DF002D01D0012000E0B6
:10AE300000206946087303A80AF0ECFD002803D03F
:10AE40002046FDF7F6FF35DF01A805210130FDF7AB
:10AE5000FEF96946487901221043E1210840DF21CB
:10AE60000C30084069464871072088711020C8716D
:10AE7000064800900A7106480AF0F2FE002803D046
:10AE80002046FDF7D6FF35DF7FBD0000ED900100C5
:10AE90002C20002010B5094CFEF752FC2046403013
:10AEA000C17F002908D0002181770320FEF754F9E3
:10AEB000E08A02210843E08210BD000088280020BB
:10AEC00010B5FFF7A1FE02F02FFF03F0BBFF184AF9
:10AED0000021184809F0DEFB002804D07D20C000C6
:10AEE000FDF7A7FF35DFFFF7D5FD00221249104619
:10AEF0000CF0C8FC114901204874FFF7DFFE03F095
:10AF000047FB01F081FA00F0F5FC02F05BF9FFF776
:10AF100023FE01F025FFFDF7EFFF02F001FB00F03B
:10AF2000EBF84B20C000FDF784FF02F0D3FB10BD0F
:10AF30008575020038200020DD76020038250020CB
:10AF40007CB5164CFEF7FCFB054601F049F90028DC
:10AF50000AD126464036F07F00281CD11048114AFD
:10AF600001688918A94201D900207CBD0560C8216B
:10AF700068460180FF2141314180042181804B21BD
:10AF8000C900C18009F09AFD002804D10120F077A2
:10AF900020465C3062DF01207CBD00008828002054
:10AFA000382500201027000070B51B48194C006997
:10AFB0000025400DC007C00F00D001252078A84211
:10AFC00026D0FEF7BDFB0646A80025700019466096
:10AFD00002F0EAF82078002818D1E66000F038F98D
:10AFE000002813D001F080F80C490120C872FEF748
:10AFF000A7FB0B49886502F0ABFF002802D00021B7
:10B000000A2001E00021072003F054F9012070BD5F
:10B01000002070BD982D002000050050182C002045
:10B02000B8290020F8B57D202F4C400100906178B0
:10B0300020782E4F01262E4D814219D1002819D19A
:10B0400000F006F9002812D0FEF77AFB6168009A3A
:10B05000401A90420BD37D20000108186060E07C0C
:10B06000401CE074AE720920E872FEF729FCF8BDBE
:10B07000002814D0A0686146091A0A29F7D361682C
:10B08000401A217C00292AD0B84228D200202074FE
:10B09000607C401C6074AE720720E872F8BDFEF759
:10B0A0004FFB6168401A0A28F8D3B84215D3002034
:10B0B00060702074A07C401CA074AE720820E872FE
:10B0C0000C488079002805D0FF210A482D31C03076
:10B0D000C182F8BD02F0F0F9F8BD2674F8BD6670C3
:10B0E00000202074F8BD0000982D0020DC05000031
:10B0F000782800203825002070B50948074D0069E0
:10B100000024400DC007C00F00D001246C702C70CB
:10B11000FEF716FBA1004919486070BD982D00206C
:10B1200000050050F1B52C4C82B02546E035687C16
:10B130002874FF20FF210130053100590959274AA1
:10B14000274BFDF7CBF822468032D1679067287CE9
:10B15000FDF780FA0F4606460022224BFDF7BEF8A7
:10B1600002460B4630463946FDF7D2F9E21DF93268
:10B17000D160906006460F46287C02990090081A1C
:10B18000FDF754FA32463B46FDF75AF906460F469C
:10B190000098FDF75FFA32463B46FDF79FF8002224
:10B1A000114BFDF79BF8FDF787FA6874E01DF93045
:10B1B000C368826800200D49FDF734F9F822FC23AA
:10B1C00012591B59FDF73CF9FF2201321051A41806
:10B1D0006160687CFEBD0000382C00202D431CEB14
:10B1E000E2363A3F000070400000E03F0000F03FD0
:10B1F00041780078090208437047C1780A028178D3
:10B2000011430A024178007811430902084370474C
:10B2100010B5074C0020FFF716FB01200003FFF7D5
:10B2200012FB0020207620606060A06010BD00004E
:10B230006028002010B5054C0C2221460020FFF7A5
:10B2400017FA0020E0752076A07510BD6028002058
:10B2500004480549008D884201D101207047002033
:10B260007047000038280020A57F00000148007FBB
:10B270007047000058280020F0B585B0FE4CFEF75E
:10B280005FFA0546022002F00DF9FC48217E0246D5
:10B290000A320392163201920D23F94A9B01D31808
:10B2A000029319235B01D71803231B02D6184030E1
:10B2B00000900B0003F03FFB110A355B7685BDCE95
:10B2C000FAF9F8F7F6F5F4F3F2F1F500EC48007A44
:10B2D000810606D5EB4E0120756120762020607531
:10B2E00007E041060FD5E74E052075612076402026
:10B2F00012E000F0E3FFFF30FF300230B06080303A
:10B30000F06005B0F0BD800708D5DE4EDE487561FF
:10B31000B0610D20207602207877EAE70020787768
:10B32000EFE701203877B563D64EFF203070D34861
:10B33000756102F02BF8D148D4491430F06103F064
:10B34000CFFA0A22CD49B068FCF75AFFB06806214F
:10B350000A3005F02DFBB1682C20887206F0DEFD66
:10B36000B268F0681146FDF7A9FE0220F9E0C34972
:10B37000C44D1931E9611022A86803F093FA0A223A
:10B380000399A868FCF73CFFA86806210A3005F07D
:10B390000FFBA9682C2088720A46E868FDF78EFE2C
:10B3A0000320DEE001992C204876B449B54D3A31AE
:10B3B000E9611022A86803F075FA042020760020C5
:10B3C00047E1022002F00EF8002825D003F0BCFE71
:10B3D0000021AFA0FEF774FF06465A22A749FFF7E7
:10B3E00033F83046FEF722FF022002F05BF800201F
:10B3F000A44920760D61A24A0870137ADF252B40FC
:10B4000013728880787F20288AD10120A075801E41
:10B41000E060FEF7E1F974E79A498A88501C888059
:10B420007D20C0008242F6D90B2020760E20E075E8
:10B4300067E7012038779248B563007A4006EAD57D
:10B440000620207600218F48FF2281704270818083
:10B45000456156E7022001F0C5FF002849D0894E1A
:10B460000025B5808FA0FFF7D3F8012808D00B2066
:10B47000207675700320E075022002F013F840E793
:10B48000012188A0FEF71CFF054640686228284677
:10B490000DD0FEF7CBFE042019E044E136E119E1BE
:10B4A000D9E04BE1B1E06CE05DE045E02EE06222E6
:10B4B0007249FEF77BFF2846FEF7B8FE0198007838
:10B4C0002C2803D1009840782C2804D00520E07562
:10B4D0000B202076D0E720226848B16803F07CF981
:10B4E00006F01CFDB268F0681146FDF7CFFD07209D
:10B4F000EFE764488188491C89B281807D20C000C3
:10B50000814288D90B2020760F2090E75D4D1022D4
:10B51000A9685A480E46FCF773FE58482022314667
:10B52000213003F059F906F0F9FCAA68E8681146E1
:10B53000FDF7ACFD082014E0524D1022A9680398D5
:10B540000E46FCF75DFE4D4820223146423003F0A6
:10B5500043F906F0E3FCAA68E8681146FDF796FD9A
:10B5600009202076CDE64748102281680198FCF733
:10B5700047FE0A20207602F0A9FB012000F036FFEA
:10B58000BFE614213D4808F08BFB3C4F2C2038755A
:10B5900015252020395C2C2906D079556D1C401CBE
:10B5A000C0B2EDB22D28F5D33648C580009801F021
:10B5B000EDFE142231480099FCF776FE0004000CE1
:10B5C00005D03148F0620920E0750B20C9E7002062
:10B5D00001262C4B6D1EE9B298610EE07A5C303A80
:10B5E0000B2A04D30A21E1750B21217607E072436F
:10B5F00010180A225643491EC9B21529EED2986185
:10B60000207E0B28AED00D20ABE71E4D00262E70FD
:10B610006E70022001F0E6FE002804D1A8887D218A
:10B62000C900884214D9022001F03CFF1448267654
:10B63000017A9D22114001722E706E70AE8004203E
:10B64000A075401FE060FEF7C7F803F07DFD58E6E7
:10B65000401CA88055E6012038770948B563803042
:10B66000406A306307488069F062144830851448A6
:10B6700070850E20207625E060280020D42400204C
:10B68000382500203C200020FFFFFF7FEC8B0200CC
:10B6900073656375726974795F6465766963652E35
:10B6A0007478740073656375726974795F73657219
:10B6B000766963652E74787400000000A57F000031
:10B6C000341200001F49BD22087A1040087202F0AF
:10B6D00001FB16E60F202076787F40280ED0022846
:10B6E00012D00420A075F06AE060FEF775F8FEF74E
:10B6F00027F8154948610020387702E60220A07536
:10B70000114900204870EEE70320EBE70020FFF727
:10B710009AF80C2221460020FFF710F80298102119
:10B720000170B563EDE50949B06B4018A8428ED2AF
:10B7300001F0C2FE029900200870E2E50B2020769D
:10B74000112074E6382500203C20002088130000DA
:10B7500010B5312005F058FE0148407810BD0000BA
:10B76000F232002010B5392005F04EFE0148407835
:10B7700010BD0000F232002010B54721202007F054
:10B780008FFF0120FDF755FB0921212007F088FFDD
:10B790004021222007F084FF0021232007F080FFB2
:10B7A0004821242007F07CFF0821322007F078FF91
:10B7B0000121332007F074FF262005F025FE2A2101
:10B7C000302007F06DFF312005F01EFE002010BD77
:10B7D00010B500F00DF810BD10B52F2005F014FEC7
:10B7E00002484078C006C00E10BD0000F2320020B2
:10B7F00010B5214C607F002813D03F21382007F07E
:10B800004FFF30213A2007F04BFF10213B2007F07B
:10B8100047FF0A213C2007F043FF20213D2007F08D
:10B820003FFF0021322007F03BFF0021332007F0CB
:10B8300037FF4721202007F033FF0021212007F0A8
:10B840002FFF607F002801D0842100E00421222006
:10B8500007F026FF1821232007F022FF482124208B
:10B8600007F01EFF99212E2007F01AFF0021252046
:10B8700007F016FF002010BD1826002010B5044662
:10B88000282005F061FD062202492046FCF7B8FC9D
:10B8900010BD0000F332002010B50F2005F0B4FDFC
:10B8A0000148407810BD0000F2320020134610B568
:10B8B0000A46194600F04CF910BD10B5032905D011
:10B8C000022907D0012908D0002909D000F078F812
:10B8D000002010BD00F040F8FAE700F0A5F8F7E707
:10B8E00000F00CF8F4E7134610B50A46194600F0CC
:10B8F000E5F810BD10B500F0CBF810BD30B5134D14
:10B900000024287885B0002802D02C7000F0A4F91B
:10B9100000F0BAF90E49C720087016200D4900231F
:10B92000019104900294039401220094084918465E
:10B930000CF0AEFA08F03EFC2878002803D1012074
:10B94000287000F0EDF805B030BD00005C2000204C
:10B95000E8320020F232002070B5164E04463078EE
:10B96000002586B0002802D0357000F075F900F08F
:10B970008BF9114852210170210C4170210A81700C
:10B98000C47016200D49002301910490029503957F
:10B9900004220095084918460CF07AFA08F00AFCCF
:10B9A0003078002803D10120307000F0B9F806B0DB
:10B9B00070BD00005C200020E8320020F232002040
:10B9C00070B5164E04463078002586B0002802D0A7
:10B9D000357000F041F900F057F91148202101704D
:10B9E000210C4170210A8170C47016200D4900237A
:10B9F0000191049002950395042200950849184688
:10BA00000CF046FA08F0D6FB3078002803D101206C
:10BA1000307000F085F806B070BD00005C2000209A
:10BA2000E8320020F232002070B5164E044630781D
:10BA3000002586B0002802D0357000F00DF900F026
:10BA400023F91148D8210170210C4170210A81701D
:10BA5000C47016200D4900230191049002950395AE
:10BA600004220095084918460CF012FA08F0A2FBCF
:10BA70003078002803D10120307000F051F806B072
:10BA800070BD00005C200020E8320020F23200206F
:10BA90000EB500F045F8074901200870684600F02F
:10BAA00087F8694604480978C17369464978017482
:10BAB0000EBD00005C20002058250020F7B50F4681
:10BAC000164E0446C51930786D1E002803D000209C
:10BAD000307000F0C1F8200A290A000209028842E9
:10BAE00003D139462046029A0DE0FF21201A013188
:10BAF0000D1AA9B22046029A06F06AFE029A791B34
:10BB00006019521989B206F063FE3078002803D11B
:10BB10000120307000F004F8FEBD00005C20002021
:10BB200000B5094985B0B920087000201621074AE0
:10BB30000192049102900390034600900122024971
:10BB40000CF0A6F905B000BDE8320020F23200206A
:10BB5000F7B5154D04462878002686B00F46002814
:10BB600002D02E7000F078F8104803210170210CEB
:10BB70004170210A8170C4700898042201AC85C408
:10BB80001621002304910096084918460CF080F90C
:10BB90000BF0F2FE2878002803D101202870FFF76F
:10BBA000BFFF09B0F0BD00005C200020E83200209B
:10BBB000F0B5174D06462878002485B0002802D03D
:10BBC0002C7000F049F81349902008704C708C706C
:10BBD000CC700C714C71162006210F4F002303917D
:10BBE000049002940122019700940A4918460CF02F
:10BBF0004FF90BF0C1FE3879307078797070287881
:10BC0000002803D101202870FFF78AFF05B0F0BD9E
:10BC10005C200020E8320020F232002010B50C48F1
:10BC200086B005210170AA21417000201621022250
:10BC3000084C049102900346019403920090044939
:10BC40000CF026F90BF098FE607806B010BD0000ED
:10BC5000E8320020F232002000B5094985B0AB205F
:10BC6000087000201621074A019204910290039067
:10BC700003460090012202490CF00AF905B000BD0C
:10BC8000E8320020F232002010B50E48002401787E
:10BC900086B0002902D00470FFF7DEFF0A490620B3
:10BCA000087016200949002301910490029403941E
:10BCB00001220094044918460CF0EAF808F07AFAD8
:10BCC00006B010BD5C200020E8320020F2320020D7
:10BCD000F3B5C7B026A925911E4903AF097B0029FA
:10BCE00002D0491E814206DA1BA1489802F0F8FDF5
:10BCF000C0B249B0F0BD01020D2000030818802237
:10BD000039460190FEF7B4FC6946087B4D7B801CE8
:10BD1000C6B28020841BAC4205DBB9192A4648987C
:10BD2000FCF76EFA13E00198802280302599FEF727
:10BD30009FFC2246B9194898FCF762FA48982A1BDA
:10BD400020182599FCF75CFA4898002141552846AF
:10BD5000CFE70000F82900204E6F206D65737361F6
:10BD600067652100F0B50E4601461948A1B0007B79
:10BD70006D46002805D00027FF2909D0401E8842C3
:10BD80001BDA14A1304602F0ABFDC0B221B0F0BD09
:10BD9000CF2100020902401880222946FEF768FCE4
:10BDA000684604787F2C00D37F242246A91C3046A5
:10BDB000FCF726FA37552046E8E708020D2109036B
:10BDC000401880222946FEF753FC68460478ECE7C9
:10BDD000F82900204E6F206D65737361676521003F
:10BDE00070B506460D48CF21007BA0B000020902C5
:10BDF0006D46401880222946FEF73AFC68460478D2
:10BE00007F2C00D37F242246A91C3046FCF7F8F98A
:10BE100000203055204620B070BD0000F8290020D9
:10BE20000348017B102901D910210173C8B2704762
:10BE3000F829002010B50948007F062809D002F033
:10BE400087F8002807D105482030C0780A3807282D
:10BE500001D8012010BD002010BD0000F82B0020EB
:10BE600010B50C4B1D245B1864011C19002806D06A
:10BE7000012809D0022801D100F07CF810BDE2743D
:10BE8000084600F013F810BD00F074F80020E074CC
:10BE900010BD00003825002003480021C176032191
:10BEA00041770121C1777047782D002010B50849EE
:10BEB0000022CA760122012807D04A778877CA77FC
:10BEC0000449062002F008FA10BD03234B77F5E77A
:10BED000782D0020B80B000070B5FDF731FC244C24
:10BEE0000546E07F002801D001F05EF9E27F204E98
:10BEF00000200221403E130002F01DFD060604074B
:10BF00000D1A2B06E177207770BD01207565FEF7CD
:10BF100017FF032027E0706D6430A842F4D20020A0
:10BF2000FEF70EFF0420E0777565E07E401C1DE003
:10BF3000706DFF309130A842E6D2E07E032806D330
:10BF40000520E077207F401C2077756570BDE17784
:10BF500070BD7D23726D1B01D218AA42F8D2227FD8
:10BF6000637F9A4201D3E07770BDE177E07670BDE0
:10BF7000782D002010B503490020C877FEF7E0FEB9
:10BF800010BD0000782D00208307FF22DB0E9A40B1
:10BF90008907090E994000280BDA0007000F0838BE
:10BFA000830808489B001818C36993430B43C36177
:10BFB0007047830804489B001B1818689043084387
:10BFC0001860704700ED00E000E400E070B5054641
:10BFD00000242046B030C0B207F07CFB102007F0F0
:10BFE00079FB002007F076FB1F200AF07DFC294634
:10BFF000802007F03DFB641CE4B28035042CE8D3BC
:10C0000070BD10B50446AE2007F064FBD52007F0E4
:10C0100061FBC12007F05EFBA82007F05BFB1F203F
:10C0200007F058FBAD2007F055FB002007F052FB4E
:10C03000202007F04FFB022007F04CFBD32007F035
:10C0400049FB002007F046FB402007F043FB8D2012
:10C0500007F040FB8D2007F03DFB142007F03AFB72
:10C06000A02007F037FBC82007F034FBDA2007F0E8
:10C0700031FB122007F02EFB204600F019F8D920E2
:10C0800007F028FB222007F025FBDB2007F022FB2E
:10C09000002007F01FFBA42007F01CFBA62007F0E0
:10C0A00019FB10BD01498020C86070470005005091
:10C0B00010B50446812007F00DFB204607F00AFB6F
:10C0C00010BD10B5002801D0AF2000E0AE2007F071
:10C0D00001FB10BD034806210171024900203039DF
:10C0E000C8777047282C002010B5084CFDF784F85D
:10C0F000002802D00120FDF74BF82079002801D05C
:10C10000002010BD0120207110BD0000282C00204F
:10C1100070B52E4CFDF714FB05462079002801D0A0
:10C1200001F042F820790126030002F004FC083CEB
:10C13000050D1C213C3D473CFDF702FB206007201C
:10C140000AF0D2FB02202DE02068281A67282AD99D
:10C150001F498020C8600220FCF76BFE07200AF010
:10C16000C3FB03201EE0CC20FFF74BFF042019E0A7
:10C1700016483038C677FDF7E3FA1649164D0865BC
:10C18000124810384672287C04280AD10021052064
:10C1900002F090F8062028741048417D6973807D74
:10C1A000A8730520207170BD0020FFF78AFFFFF7FC
:10C1B00079FFFDF7C5FA20600720F3E7FDF7C0FA25
:10C1C0002168401A6728EED90020EBE7282C0020D0
:10C1D00000050050B8290020782D0020D825002027
:10C1E0000248007F002800D001207047182C002052
:10C1F00010B50BA0FEF70CFA00280CD00CA0FEF72F
:10C2000007FA012808D00CA0FEF702FA012802D094
:10C210000BA0FEF7FDF910BD07F000FB10BD0000FC
:10C220006F74615F73746172742E747874000000AF
:10C230006170702E62696E0073642E62696E000018
:10C2400063792E62696E000010B5064900280877F0
:10C2500007D00548807B5A2803D90021072002F027
:10C260003BF810BD182C00203825002010B5A52162
:10C27000C9000E48FBF7EBFF0C49322048600C491F
:10C2800064200886022080310873072080310871FD
:10C29000084A00211174064908228039CA770877B4
:10C2A000024805498030016610BD0000C02D002005
:10C2B0000031002060320020CCCC000000487047E4
:10C2C000C02D00200148C07F704700008030002052
:10C2D000F7B5414C86B020684049401C2060C96DCC
:10C2E0000026401AFF21F5313D4F884203D9002036
:10C2F000387602F003FF38483A490830019000913F
:10C3000006A80EC802A805F083FD02AB07CB68346F
:10C3100007C4314D00237435743C02F06DFF696829
:10C3200000290FD029686960401AC01008182860D9
:10C3300003F03AFC002807D000200226387602F0ED
:10C34000DDFE0AE06860F2E7234861688030008F14
:10C35000884202D9304609B0F0BD06F031F906AB8B
:10C3600007CB02F04FFC1D489C38014620310EC916
:10C370000EC007F099FA1C4D00280ED006AF07CF6B
:10C38000012302F09DFE15480121A038017406F03A
:10C39000BFFF2868401C286004E006AF07CF0023D9
:10C3A00002F08EFE06F0B6F800280ED00C48A03839
:10C3B000817F002909D1C07F0326002802D0686848
:10C3C000401C6860012000F011F806AD07CDE36F56
:10C3D00007F008FCBEE70000C02D0020402F002021
:10C3E00020310020368C0200602000200349002804
:10C3F00001D0034800E003488860704760200020B7
:10C40000C0390600300B01003EB5AA216846017014
:10C41000BB210171CC210172124C6A46012100201E
:10C420000AF0A0FD012101AA08460AF09BFD02AA1C
:10C43000012102200AF096FD0AF000FDFDF7E8F860
:10C440000020207546206075E075FDF779F9606081
:10C4500000202A2122182032401CC0B21170082866
:10C46000F8D33EBD382C00200C48C17D407D5A29B0
:10C4700001D25A2811D3884207D9421AD2B20A2AC5
:10C480000BD35007400F081806E00A1AD2B2102A40
:10C4900003D35007400F081AC0B27047382C002051
:10C4A000F8B5324C324E207D0427B56B002811D0F0
:10C4B000022811D0032816D004280CD101F012F95B
:10C4C000002808D020682D1A05F050FA022700280D
:10C4D0002CD128E02775F8BD25600320A5602075C4
:10C4E0000AF032FDF8BD01F0FDF8002816D0A56075
:10C4F00000F05AFE207B0028F4D000202073206832
:10C500002D1A022D01D906F01BFB192DEAD905F0D1
:10C510002DFA0028E6D10AF091FCDBE7A068281A82
:10C520000228F8D8F8BD307F002802D0012DD1D8DC
:10C53000F8BD10484B21007AC900022803D0032817
:10C5400001D0042801D1B06E810A8D42F0D3084891
:10C550006038007E0028EBD0FDF7F2F80449064A67
:10C560008039496B89188142B4D9F8BD382C002034
:10C57000B8250020582D00208813000030B504464F
:10C58000A1B00320402269468003FEF771F80D49EF
:10C59000FF22CB7B6D462046002B0ED0834200D875
:10C5A000002044002B5D64196478182B05D23C2CC4
:10C5B00003D24B738C7321B030BD4A738A73002051
:10C5C000F9E70000782D0020F0B5A1B06E46FEF727
:10C5D0003FFE0025204C002808D020481F4FC0797E
:10C5E000603F002807D0387D042804D9A572257241
:10C5F000657221B0F0BDE07B00281ED003204022F0
:10C6000069468003FEF734F8B97D00208E46797DB7
:10C61000E37B8C460FE031787278B61C18290CD277
:10C620003C2A0AD28C4502D1964510D301E08C45B4
:10C630000DD3401CC0B28342EDD8A572257265723D
:10C64000E07B0028D5D00020FFF798FFD1E701203C
:10C65000A07221726272F3E7782D00203826002044
:10C66000F0B50327A1B00446BF036E463846FEF777
:10C67000EAF820780D4D4008E873202802D92020E0
:10C68000E87301E0002802D00020FFF777FF402286
:10C69000611C3046FBF7B4FD402231463846FEF7B8
:10C6A0004DF80620287421B0F0BD0000782D002040
:10C6B000F8B5FDF745F82C4C0546207C002801D044
:10C6C00000F072FD217C284E00270120403E0B0027
:10C6D00002F031F90705151B293914461400A17A17
:10C6E00000290BD02149237A4A7D9A4206D3897DBD
:10C6F000627A914202D32074E7722773F8BD012059
:10C700007564FEF71DFB02201BE0706CC830A84268
:10C71000F4D20020FEF714FB032020747564E07A45
:10C72000401CE072F8BD716CFF319131A942F9D221
:10C73000E17A032905D304202074207B401C207358
:10C74000F8BD2074F8BD0A4A716C8918A942F9D263
:10C75000217B022901D30620F3E72074E772F8BD9C
:10C76000FFF732FF2774F8BD782D0020D825002070
:10C770003075000010B50C4607F07AF902480168E0
:10C780004C600121817210BD34240020F8B5154C95
:10C790000E460746E088012189021546884202D3E9
:10C7A0000020C043F8BD07F063F92168002008604D
:10C7B000216848602168C87321688D8121684E8195
:10C7C0002168887721682020887321687F20C877B6
:10C7D0000120A072206839464089FEF777F80620CC
:10C7E000205EF8BD3424002010B50D4CE188814254
:10C7F00015D307F03DF920688089002801D0FDF7A6
:10C800008FFA20684089FDF78BFA2068C17F7F2965
:10C8100005D13F21C1770120A07200F083F810BD3F
:10C820003424002010B50C4607F022F906490968A7
:10C83000C87F7F2801D0002010BD20222046FBF7B2
:10C84000DFFC012010BD00003424002010B50C4690
:10C8500007F00EF90348214600684089FEF71CF8EE
:10C86000012010BD3424002010B507F001F9024862
:10C870000068C07B10BD00003424002070B500208B
:10C880000A4C0126E0800546B602284607F0F0F87B
:10C890002068C07FFF2806D0E0886D1C401CADB228
:10C8A000E080B542F1D3E08870BD00003424002060
:10C8B0000148C088704700003424002070B5144639
:10C8C0000D4607F0D5F80448016889892980006879
:10C8D0004068206070BD00003424002010B50C4674
:10C8E00007F0C6F8024801680C810121817210BD71
:10C8F0003424002010B50C4607F0BAF8024801684D
:10C900000C600121817210BD3424002010B50C464A
:10C9100007F0AEF802480168CC730121817210BDA6
:10C920003424002010B5064CA07A002807D02089B6
:10C93000214680088039FDF74BFF0020A07210BD12
:10C940003424002010B507490020FDF7DDFE05491D
:10C950000846803001600021818001818172FFF7EB
:10C960008DFF10BDB423002010B5064900200860DB
:10C9700048608860C86003494039086048600BF02F
:10C9800097FC10BD4011014010B5064A0121064830
:10C9900007F080FE002803D004A21D2107F039FE15
:10C9A000002010BD15CC01006C2000202E2E5C73E1
:10C9B0006F757263655C5254432E630010B5024874
:10C9C00000F004F8002010BD8F0200007CB5054681
:10C9D00000201D4C00900190206CA84203D1FCF770
:10C9E000AFFE60647CBD2564FCF7AAFE6064684607
:10C9F00007F048FE01AAA16A009807F03DFEE06B2F
:10CA00000199A26B4018218D104E4904490C411820
:10CA1000C80B1218C003081AA263E063306807F05D
:10CA2000FBFE00222946306807F0B4FE002803D040
:10CA300007A25A2107F0EDFDE06B2030E0630248C9
:10CA4000283007F01FFE7CBDB82500206C20002098
:10CA50002E2E5C736F757263655C5254432E6300B7
:10CA60000A4B10B5084A5943526A074B521A2033F1
:10CA70000C215956E1239B00594309B25218014633
:10CA8000104600F047F810BDB82500208051010085
:10CA90000A4B10B5084A5943526A074B52182033C3
:10CAA0000C215956E1239B00594309B25218014603
:10CAB000104600F02FF810BDB8250020805101006D
:10CAC00030B509493C254A6A20318C7DCB7D6C43C9
:10CAD000E318497DE12424016143C918034B5843FD
:10CAE0004018101A30BD0000B82500208051010008
:10CAF00010B507490C224B6A20318A56E121890082
:10CB00004A439A180146104600F004F810BD000090
:10CB1000B8250020F8B50C4606462E49FBF746FB23
:10CB200005462C48E1216843371A2B48208001260E
:10CB3000A670E67009013846FBF738FBC0B2E12168
:10CB4000607109014843381A3C21FBF72FFBA071A3
:10CB50003C213846FBF72AFBE1710721E81CFBF773
:10CB600025FB2171FF2300216F335F1E2288900770
:10CB70001DD03846854206D3521C491C2D1AC9B215
:10CB80002280C829F2D32078800712D013490020D0
:10CB90000A5CAA4208D8A278521CA2700A5C401C07
:10CBA000AD1AC0B20C28F3D37019E070F8BD184666
:10CBB000E0E70A4900200C390A5CAA42F4D8A278BE
:10CBC000521CA2700A5C401CAD1AC0B20C28F3D3F0
:10CBD000EAE7000080510100B20700002C8D02003E
:10CBE00010B5FCF7ADFD0A497D22496C1201891888
:10CBF000814208D2064880388079002804D001207C
:10CC00000004FFF7E3FE10BD01204004F9E7000037
:10CC1000B8250020FEB501A807F034FD2D4D6A4669
:10CC2000A96A019807F028FD00980126C40BE003CB
:10CC30000090A96A2F4608180002000AA862264838
:10CC400040370673388A00193882E0B2FCF7C6F91B
:10CC5000E0B2FCF73FF9A86B0019A863686A0019F5
:10CC60006862387D802801D200193875F88AFF2162
:10CC70002D31884201D20019F88216483030FFF772
:10CC800037FF14482030817D827B914210D006709E
:10CC90008173014660314A78002A09D0427DCB7801
:10CCA0009A4205D30B799A4202D28A78521E8A7030
:10CCB000C17C427B914204D086704173074A0621B1
:10CCC0001174C27B417D8A4203D00C2900D1467089
:10CCD000C173FEBDB8250020382C0020782D00201F
:10CCE0007CB5002500950195FCF72AFD1A4E0446F7
:10CCF000307E002802D0684600F078F817480069B6
:10CD0000000CC007C00F06D0FEF722FD317E0029BF
:10CD100002D005F05BF87CBD04F04EFC0E48C0303C
:10CD2000407F0028F7D0FEF71DFD4007F3D50A48E5
:10CD30007D222038416FD200611A914209D24567A5
:10CD4000FEF786FA0028E6D00021084601F0C4FA72
:10CD50007CBD44677CBD00005825002000050050C4
:10CD600010B50A20FCF765F8FEF732FDFEF794FDDA
:10CD70000249487300F04AF810BD00005825002011
:10CD800010B588B0044604A804F05AFA04A80FC8E5
:10CD900003936B4607C3230001F0CDFD0E26131647
:10CDA000262626191C261F0D081022266946042057
:10CDB000085E08B010BD6846407BFAE76846807B95
:10CDC000F7E76846007AF4E76846407AF1E7684694
:10CDD000C07AEEE76846807AEBE76846007BE8E7D2
:10CDE00069460620085EE4E70020E2E71CB50288F9
:10CDF00069460A8042884A80808888800199009824
:10CE000002F096F806F08AFC1CBD000010B50C4C30
:10CE1000FCF796FC0121206021710020E080208138
:10CE20006081A0812061A07320756075A075E17597
:10CE3000A076E076207661762077607710BD0000DE
:10CE40005C2D002003490979814201D101207047FE
:10CE5000002070475C2D0020F8B5754C0026FCF7CB
:10CE60006FFC0220FFF7EEFF0125002804D103200C
:10CE7000FFF7E8FF002804D018216156142900DDCF
:10CE8000A57620790027022801D0032804D1E17D6E
:10CE900002290DD003290BD0012802D1E07D012801
:10CEA00006D067752079022806D0032804D009E04F
:10CEB000607D401C6075F5E71522A256142A01DB3F
:10CEC000A57506E0012804D1152161560A2900DB69
:10CED000A7752179E17500F005FC002802D02776BE
:10CEE000657602E0207E401C2076A07D002824D0BC
:10CEF000207F4006000E2077617F012902D1284360
:10CF000020776777207FC306DB0E84460021084622
:10CF10002A4682401A4201D0491CC9B2401CC0B204
:10CF20000528F5D3032900D3A7756046800704D0F0
:10CF300018216156002900DDA775182161560529C1
:10CF400004DD0120FFF77EFF00280DD11821615676
:10CF50001E290ADD0220FFF775FF002804D10320F7
:10CF6000FFF770FF002800D067760120FFF76AFF07
:10CF700000280CD0E07E002805D0012801D002282E
:10CF800003D0032615E0052613E0012611E0022058
:10CF9000FFF758FF002804D10320FFF753FF0028B4
:10CFA00007D0E07E00280DD0012801D002280BD048
:10CFB0000A26E07E002809D0012801D0022807D0E7
:10CFC0005A2006E00C26F4E70826F2E7642000E089
:10CFD00050200E2161561F2901DA491CA1730C2231
:10CFE000A25E82420ADB0320FFF72CFF002804D157
:10CFF0000220FFF727FF002800D0A5760C21615EF4
:10D00000B14201DB012000E0002006F0FDFEA78117
:10D010002775216900202A468240114202D1227DD3
:10D02000521C2275401CC0B21028F4D3F8BD000079
:10D030005C2D002002480121817641777047000075
:10D040005C2D002010B50848816801290AD10749E4
:10D050004968490706D50021816008460AF00AFCA4
:10D060000AF04CFE10BD00000031004000330040CB
:10D0700010B50021014809F0BBFB10BD0040004085
:10D08000FEB50020C043124D0290686901906846C9
:10D090002E6908F085FE074609F0FEF80446002FC9
:10D0A00008D002AA0199009808F09AFE029809F0A7
:10D0B0003DF906E0029809F039F9002801D1002C69
:10D0C00002D0304607F0A6FF00206871FEBD0000C8
:10D0D000BC200020044901220878504008704968AB
:10D0E000002900D008477047A420002010B5084848
:10D0F0004068002808D08047002804D0FF21054A56
:10D100002A3107F086FA10BD09F008F810BD0000BA
:10D110000421002010AE02007CB50020009001A880
:10D1200007F0B0FA0F4C6A46A16A019807F0A4FA1A
:10D13000E06B0099461800967D21A06BC90048431A
:10D14000FBF788FA05460C463046FBF783FA064A99
:10D15000064BFBF7DDF92A462346FBF7BFF8FBF742
:10D16000ABFA7CBDB8250020FCA9F1D24D6240404D
:10D1700008B50020064B04220321009007F0B0FA06
:10D18000002803D003A2472107F043FA08BD00009E
:10D19000FC3200202E2E5C736F757263655C7379B0
:10D1A00073636C6B2E63000010B50248FFF70EFC32
:10D1B00010BD00008F02000001480021017070477F
:10D1C0007120002001490020087070477120002064
:10D1D00010B5034A0121117028DF03F009FD10BDCD
:10D1E0007120002010B5034C0223237029DF03F0C7
:10D1F000FFFC10BD7120002000B50023FCF75EFD90
:10D2000000BD0000F0B591B0304F002501266C46FE
:10D21000360304222146A819FDF72AFA2078FF28B0
:10D2200002D04035B542F4D3B54203D33046FDF7C2
:10D230000AFB002540212046FBF709F8786800909A
:10D24000201D01F053F921492046A0394A7D2030A4
:10D2500002730A7D42738A7D82730A7EC273CA7D1D
:10D2600002743A7B4274CA798274194AD27BC274BE
:10D27000184A138E1B0A0375128E4275154A403ADE
:10D28000527B8275134A2032927CC2758A7B027669
:10D29000002A01D1012202760C4A2032937E437685
:10D2A000D27E82760C4A127BC276002202774277C7
:10D2B0008A88120A82770979C17740222146A81903
:10D2C000FDF73CFA012011B0F0BD0000D825002088
:10D2D000782D0020B8280020182C002010B5044C10
:10D2E0000220FBF739FFE08A01210843E08210BDEC
:10D2F0008828002010B5FDF7AEFAFCF72BFEFDF7ED
:10D30000ABF902490020886710BD000038250020D5
:10D3100010B585B00446684600F038F86846007CD1
:10D3200020706846407C60706846807CA0706846CB
:10D33000C07CE07005B010BD10B586B004466846EC
:10D3400000F024F80FA1204601F0CAFA6946C0B2E5
:10D35000097C2154401C6946C0B2497C2154401CC0
:10D360006946C0B2897C2154401C6946C0B2C97C60
:10D370002154401CC0B200212154401CC0B206B050
:10D3800010BD00004342414E442000003CB514490A
:10D390000A6A0092496A019148210170492141704D
:10D3A000432181704221C1706A460021535C1B09F0
:10D3B000092B01D9372400E03024E3184C0024184D
:10D3C0002371535C1B071B0F092B01D9372500E084
:10D3D0003025EB18491C89B263710829E6D33CBD9E
:10D3E00040000010054A0146D37B0020002B03D0EB
:10D3F0008B4200D101207047D173FBE73825002014
:10D4000000B587B0FFF7DAFA18216846FAF71FFF70
:10D410006846FFF7BBFFFDF70DFFFDF719FF00287A
:10D4200001D0002000E00120FDF7F2FCFCF71EFD1A
:10D43000002804D0FDF70CFF00280CD00EE0FDF70B
:10D4400007FF002801D0002000E00120FDF703FACB
:10D45000FCF780FD02E00120FDF708FAFDF7FCF87B
:10D4600000F05CFF02F0E0FA05F0CAF8FEF7C0FE3B
:10D4700001F0A2F9FBF7A2FD07B000BD10B5084C02
:10D48000FBF7B0FE002807D00120FBF765FEE08A1D
:10D4900080210843E08210BD00F00EF810BD0000AE
:10D4A000882800200349CA7B824201D10020C8732A
:10D4B000704700003825002010B5FDF7C9FE002890
:10D4C00001D0FFF79FFE35DF10BD000010B508F05A
:10D4D00097FE002805D00E490C484860C8130D4936
:10D4E00088610D48018CC9B201290ED1818C0907D0
:10D4F0000BD1018D0906090F042906D1808D000684
:10D50000000F02D105490120886010BDDFFF07C070
:10D5100000050040006C0040C00F00F00006004015
:10D5200006490548896B0160002101728180C18034
:10D53000FF21373101827047482D0020B825002097
:10D54000F0B5E5B0324CFCF7FBF80646207A00282F
:10D5500017D0304D012817D0012702281ED00328EC
:10D560000DD100F0BFF8002809D0A86B2168451A3A
:10D5700004F00CFA002845D0022D00D9277265B0BE
:10D58000F0BD03202072FAE7FDF75CFBA86B20607A
:10D5900002202072E660FDF743FBF0E7E0680F3001
:10D5A000B042ECD2402009F025F8194D103DA88278
:10D5B000042009F01FF8E88203202072FDF73CFBED
:10D5C000FF22A774913214496846FAF719FEE088E1
:10D5D000A2881249801A4843002101E0801A491CA0
:10D5E0000028FBDC0E4A0020FF256B469035914257
:10D5F00005DA1E5C401C921B00B2A842F7DB6430C7
:10D600002082BCE74B20C0008542B7D8B7E70000B6
:10D61000482D0020B825002064AC0200102700002F
:10D6200006460000F8B51B4DFCF78AF807461A4974
:10D6300028684118B94205D229790020002900D074
:10D640002871687115480069C00AC007C00F20D151
:10D6500000F0B8FB0446FF281BD0A006460F600769
:10D66000400F0090700701D5012100E000212846FD
:10D6700006F04EF860060CD5F00703D02846009956
:10D6800006F012FAB00704D53A462846009903F08E
:10D690006FFAF8BD7C280020DC0500000005005072
:10D6A000084800214279002A04D00171417181713A
:10D6B000062070478279002A02D08171C0797047B4
:10D6C000002070477C2800200148407B7047000004
:10D6D0007828002010B500F02DFB002000F014F891
:10D6E00010BD000010B5FBF71DFC002801D0002084
:10D6F00010BD0148407B10BD782800200148807A89
:10D70000704700007828002010B5032803D00020BF
:10D7100000F0FCFB10BD0220FAE7000070B50446E3
:10D720000D461646FCF70CF8FDF792FD002823D0B5
:10D73000324629462046FEF7CBFD04001CD0FEF7FA
:10D74000C1FD012819D0002816D0E10714D00E4CD5
:10D75000022815D003280FD1606C401C606403F0D0
:10D760006FFEA16C4018A064FBF7EAFFE066FFF7CC
:10D7700061FC0120FBF77AFB70BD00F027F870BD5B
:10D78000206C401C2064EAE73825002070B5FDF7C6
:10D790005FFD002816D00C4C00252078002802D010
:10D7A00004F0BAFA2570A078002802D004F03EFAFE
:10D7B000A5706078002805D003486570A0384566DC
:10D7C000FFF724FB70BD0000D825002010B5FDF741
:10D7D000D3FF094C01202076FBF7B2FF2146203908
:10D7E00048630020A07600F0B3FB002802D003209D
:10D7F000FFF78AFF10BD00005825002070B50546D0
:10D80000FBF79EFF1C490446002D08D1087E002826
:10D8100030D0887E401CC0B2887602282AD30020EF
:10D820000876FFF771FFFBF77DFB002807D0FEF7B6
:10D8300001FB002803D10021042000F04DFDFBF77F
:10D84000DBFC002802D00020FBF7A2FCFDF7D0FF94
:10D85000FEF70CFD084E0949203E706B4018A042AF
:10D8600002D20020FEF7C2FD7463002D02D10449EC
:10D870000120487070BD000058250020E09304008E
:10D88000B82D0020F7B501462A48002692B014466C
:10D89000002925D06846FFF7E3F802AF00254022B3
:10D8A000D00139462818FCF7E3FE3878FF2834D039
:10D8B00002996A46029809049278090EC0B28A4217
:10D8C00026D16946C978814222D1139801260428BD
:10D8D00025D006282CD0072826D0092821D125E0DC
:10D8E0001399042906D006290FD0072906D0092943
:10D8F00007D108E041688068081801E0006905E088
:10D90000106001260DE0806AFAE7C0680009F7E7B9
:10D910000120000340358542C1D3002000E0049877
:10D920002060304615B0F0BD0698F9E70398F7E798
:10D930000598F5E774250020F0B5044687B000206F
:10D94000FFF7BEF869460491224900264018059069
:10D95000E681268266826F46012526731022900298
:10D9600039463018FCF784FE3878FF2810D000982C
:10D9700010364000400800900599884224D9049848
:10D98000007B022806D003280CD0042810D019E010
:10D99000103619E0E0893C30E081032D0FD0042DD2
:10D9A0000DD00FE0208A3C302082042D07D004E007
:10D9B000608A3C306082032D01D0022D02D1207B91
:10D9C000401C20730498057B0120C0038642C5D308
:10D9D00007B0F0BD4057FFFFF0B504468DB0002002
:10D9E000FFF76EF800260C960896079600960B90A7
:10D9F000266066602681668102ADE6822F46267526
:10DA00001022900239463018FCF732FE3878FF2891
:10DA100018D002980B9940004008103602908842B6
:10DA20002AD9287A697A4018216809182160EA7A87
:10DA300061688918616000280BD02089A97A401894
:10DA400020810AE00C98002801D101200C901036AA
:10DA500012E06089A97A40186081A87B00280BD069
:10DA60000098401C0090697B0798081807900421D3
:10DA7000695E0898081808900120C0038642BFD349
:10DA80000098002809D001460798FAF78FFB207507
:10DA900000990898FAF78AFB01E000202075E082DF
:10DAA0000DB0F0BDF0B5044687B00020FFF708F8D0
:10DAB00000250595049506906560A56025616E4674
:10DAC000E560374625601022900239462818FCF799
:10DAD000CFFD3878FF281FD00098069940004008F5
