:020000040001F9
:10800000903D0020558101006F81010071810100C8
:108010000000000000000000000000000000000060
:10802000000000000000000000000000738101005B
:108030000000000000000000758101007781010050
:1080400079810100798101008DD90100DDCC010029
:1080500009CD01000000000059A90100D5880100E8
:108060007981010079810100798101007981010024
:108070007981010079810100798101007981010014
:1080800079810100D5C50100798101007981010064
:1080900019CD01006DCD010085CD01007981010070
:1080A00079810100798101000000000000000000DA
:1080B00000000000000000000000000000000000C0
:1080C0000348854600F0F4FB00480047615A02006F
:1080D000903D0020401E00BF00BF00BF00BF00BF9A
:1080E00000BF00BF00BF00BF00BF00BF00BFF1D195
:1080F00070470000401E00BF00BF00BF00BF00BFB0
:1081000000BF00BF00BF00BF00BF00BF00BFF1D174
:1081100070470000401E00BF00BF00BF00BF00BF8F
:1081200000BF00BF00BF00BF00BF00BF00BFF1D154
:1081300070470000401E00BF00BF00BF00BF00BF6F
:1081400000BF00BF00BF00BF00BF00BF00BFF1D134
:10815000704700000321094802680A43026008488A
:1081600002680A4302600748804707480047FEE765
:10817000FEE7FEE7FEE7FEE7FEE70000240500401D
:10818000540500403DD10100C180010030B50B46CF
:10819000014600202022012409E00D46D5409D42E1
:1081A00005D31D469540491B254695404019154667
:1081B000521E002DF1DC30BD70B50024254600288C
:1081C00001DA01244042002901DA01254942FFF782
:1081D000DDFFAC4200D04042002C00D0494270BDCF
:1081E00010B5431A934209D28318881803E0401E41
:1081F00001785B1E1970521EF9D210BD03460B4365
:108200009B0703D009E008C9121F08C0042AFAD24C
:1082100003E00B780370401C491C521EF9D210BDBC
:10822000D2B201E00270401C491EFBD2704700220E
:10823000F6E710B513460A4604461946FFF7F0FF65
:10824000204610BD421C0178401C0029FBD1801A39
:10825000704710B5002200E0521C835C8C5CA34286
:1082600001D1002BF8D1D8B2E1B2401A10BD30B51F
:1082700004460020034600E05B1C934203D2E05C0E
:10828000CD5C401BF8D030BD30B50546002003461C
:1082900000E05B1C934205D2EC5CC85C201A01D163
:1082A000002CF6D130BD0000F0B507460846584016
:1082B00087B0C00F049048000E4659004008490896
:1082C000BC1A884105D2384631461E4617460B4631
:1082D00002465800400810434CD0300D0390400532
:1082E0005900400D490D0590401A0290402872DA5D
:1082F00018030121000B090508430190049800921E
:10830000002805D001995242002088410092019036
:10831000029840210A1A0199009800F0E5F90546F3
:108320000C466B4607CB00F000FAC0197141039A66
:108330000E0D0023D71756401A467A40164344D0F4
:10834000049A002A2DD0029A012A039A15DC1205FC
:10835000C01A914101263605001C7141D20F059EBD
:10836000D2070093019202962A46234600F0FDF9B7
:1083700007B0F0BD38463146FAE71605224A0F46E7
:10838000B218C01AB74101210905001C4F4100185D
:108390007F41114618187941E20F10436D1964416D
:1083A00013E0E2076D0815436408C2071443039AFB
:1083B00001261205C01A91413605001C7141CE07F5
:1083C000400830434908C01851412A46234600F06E
:1083D000BFF9CDE7FFE7049801224000C117121A48
:1083E00000238B4104983146C417381AA141EEE7A7
:1083F00030B40124E407634030BC55E730B40124B5
:10840000E407614030BC4FE70000E0FFF0B51FB467
:1084100088B00B990998002448400999C00F490079
:1084200049080991C0070B990090490049080B9130
:1084300009990898A64608431CD00B990A98084346
:1084400018D0099801244000420D4800410D0998B8
:1084500024050003000B204309900B980003000B38
:1084600020430B9050181C494018002201901446DC
:10847000104605E0002001460DB0F0BD032801DAEA
:10848000034600E003239C46C11A0AAE0AE05F00DF
:1084900008ADED5B4F00F75B7D430027AA187C41D8
:1084A000491C5B1E6145F2DD410004AB5A522104B8
:1084B000120C0A43240C401C0828DFDB01980290B0
:1084C0000099704601910090059B049A07990698BF
:1084D00000F04BF9D0E700000DFCFFFFF0B50C46B3
:1084E0005C4085B0E40FE40703944C000026640868
:1084F00059009446490802460296224321D062461A
:108500000A431ED06200570D4A000E032303550D87
:10851000012402462C492405781B1B0B360B4018FE
:1085200023432643614600901C46501AB44103D3AE
:108530000098401C009002E0921800985B410028CF
:1085400003DA0020014605B0F0BD00200121090535
:108550000746864611E064461D46141BB54106D306
:108560006546521BB341744607430C43A646CD07EC
:1085700040084908284392185B4105460D43EAD15B
:108580001046184313D060461946504071400843C6
:1085900006D06046101AB34106D20122002306E03D
:1085A00000220123DB0702E00122D243531000988E
:1085B00074460105381C6141029C039D0019694104
:1085C00000F0C6F8BFE70000FD03000070B54B00E7
:1085D0005B0803430BD04B005C0D0026334665421D
:1085E000B341D417AD1AA34102DB0020014670BD90
:1085F00012053018514170BD0EB5C217C10F504061
:10860000CA0740180021054B0293019200910A46C7
:108610000B4600F0AAF803B000BD000033040000D0
:108620000EB505490291002100910A460B460191C1
:1086300000F09BF803B000BD3304000070B5CD0F0F
:108640004A0009030123090B1B0519430B4BED07D6
:108650000024520D9A4201DA002070BD074B3433DA
:108660009A4203DC9A1A00F04FF802E004495118CC
:1086700088402C43F1D0404270BD0000FF03000051
:10868000CDFBFFFF4A0009030123090B1B0519431A
:10869000094B10B5520D9A4201DA002010BD064B6D
:1086A00034339A4203DC9A1A00F02EF810BD0349C5
:1086B0005118884010BD0000FF030000CDFBFFFFF4
:1086C00010B5002904DB0124E40740428C41214617
:1086D000002B04DB1C460123DB075242A3418B42E3
:1086E00000D1824210BD000010B5202A04DB0146F3
:1086F000203A9140002010BD914020239C1A03464F
:10870000E3401943904010BD10B5202A04DB084611
:10871000203AD040002110BD0B46D340D040202449
:10872000A21A91400843194610BD10B5202A06DB55
:10873000CB170846203A1041C1170B4306E00B4601
:108740001341D0402024A21A91400843194610BD7D
:1087500010B5002B08DA0024401C614192185B41DF
:108760001A4301D14008400010BDF0B51FB482B0DB
:1087700005460C0003D0084605F0F2FE02E005F0C5
:10878000EFFE20300246009021462846FFF7ACFF5E
:10879000049B059A04460F4618431143084314D01E
:1087A000184610431BD0009840210A1A1846059914
:1087B000FFF7AAFF05460E46009A05990498FFF7B1
:1087C00093FF084305D0012004E02046394607B056
:1087D000F0BD0020C11705430E432C4337430099D9
:1087E0000E986305401A7905E40A00220C43FD0A3D
:1087F0000A3002D500200146E9E701051019694158
:108800000C9C0D9D00196941FFF7A2FFDFE7FEB543
:1088100000231A461B1A8A4103DB0020014603B0DD
:10882000F0BD4A000D0301212D0B0905520D0D432A
:10883000D10702D100186D41521E5110FF31FF3196
:108840000131002704463E46384600970191024612
:10885000012100200905FFF757FFC3197141F818DE
:10886000324684468E464A4161462846611A904106
:1088700004D36046241A954176461F462419009871
:108880006D41401C00903428E1DDF91930467041FB
:10889000091BA84103D20022D243134601E0002263
:1088A000134601980105381C7141FFF751FFB6E7E7
:1088B000064C0125064E05E0E36807CC2B430C3C33
:1088C00098471034B442F7D3FFF7FEFBF49E020042
:1088D000149F0200044802680021002A03D00122EC
:1088E0000160024842607047007100400070004023
:1088F000F0B50E4601468DB0FF310746E53115460D
:1089000068460C9100F05EF91C46103C2AD43146B2
:1089100008A800F057F908A80FC8079304AB07C3CD
:1089200004A9384600F066F800990498103C4840C5
:1089300000BA2860019905981036484000BA68606E
:1089400002990698484000BAA860039907984840E1
:1089500000BAE86008A80FC803936B4607C3103538
:10896000002CD4DA08A90C9800F02CF90DB0F0BD59
:10897000F0B5054600881435800032E02C681A4BAB
:108980001A4E610031402246E609DF091A403E4096
:10899000921B174EFF43324051400E464A001E4084
:1089A0003A40F709F61B124F3E40724017461F40EF
:1089B0000E4B56001E40FB09FB1A0D4F3B405E401C
:1089C0000B4674405340734061401826F1415940B2
:1089D00062401023DA414A400821CC41544010C57E
:1089E000401E0428CADCF0BD80808080FEFEFEFEB2
:1089F0001B1B1B1BF0B50E4695B0018807910901A2
:108A00000F18042014378100891980393F1FCA6F5D
:108A10003B685A40CA67401EF5D18FE00423481EC8
:108A20001090D81C8007000F3058010E474840684E
:108A3000425C991C8907090F71580902090E415CB3
:108A40000491591C8907090F715A0904090E455CE4
:108A50009907090F715C445C1099059888424FDAB8
:108A6000049910464840039000F030F904990690AC
:108A700069400846119100F029F9049028466040A9
:108A800000F024F908902046504000F01FF91390A0
:108A900004990698484000F019F90B900499089839
:108AA000484000F013F90B990A90484000F00EF985
:108AB000844611990B9861404140604641400698B8
:108AC0006A4041400A9862404240604642400498F1
:108AD0004240039844400B98444060464440089804
:108AE0004440039845400A984540604645401398E5
:108AF000454008061104084321020843284306E0C4
:108B000004991006090408432902084320439A00E7
:108B10000CA951188039C8675B1E82D104200CAAA9
:108B200081008B18803B3F1FDB6F3C6889196340D5
:108B30008039CB67401EF3D10598401C07990590FA
:108B4000884200DA6AE715B0F0BD0000002000207E
:108B5000F0B5C1B003F0F4F9194BC11DF93103C3ED
:108B6000002201216C46FF27CE091C37A1544D007D
:108B70007E4375406940521CFF2AF4D963250023C7
:108B80000570FF27F91A615C0A020A4311095609A8
:108B9000714096097140D60971405140E25C6940CC
:108BA0005B1C8154FF2BEDD3054900200A684968FE
:108BB000135CC854401CFF28FAD941B0F0BD000036
:108BC000002000200A6812BA02604A6812BA4260A5
:108BD0008A6812BA8260C96809BAC1607047000029
:108BE000FEB505460C463748FF2100901E46F5317C
:108BF0002846FFF71CFB002E11D0012E61D10E205C
:108C0000288021462846082610311430FFF7DAFF65
:108C10002146281DFFF7D6FF6E80374644E00A2024
:108C200028800426F4E7B80001902C5831463846D5
:108C3000FFF7C2FA002918D12348E2B20068825C2B
:108C400013022204120E825C12041A4323021B0E2A
:108C5000C35C1B061343220E805C009A18431278F3
:108C6000140644400098401C0090082E13D104299B
:108C700011D1154822040068120EE1B2825C415CF9
:108C800012020A432102090E415C09041143220E1B
:108C9000805C04060C43B81B8000401941680198B1
:108CA000614040197F1C416028888000001DB84247
:108CB000B9DC0020FF350146E135401C2971102840
:108CC000FBDBFEBD287B02000020002001064000E7
:108CD000002901DA1B214840C0B27047002800DAA1
:108CE0004042704710B500231A4606E0C40701D081
:108CF0005B1CDBB24008521CD2B28A42F6D3184643
:108D000010BD10B50CF0BEFF10BD10B5FFF774FC20
:108D10000EF09AF9FFF792FC10BD00000648817A28
:108D2000022907D0C17C142902D8807C782801D977
:108D30000020704701207047FC24002007498A7AF0
:108D4000022A09D00A46AC3A127F002A04D18A7C52
:108D5000782A01D81018887470470000FC2400207D
:108D600004498A7A022A04D0CA7C142A01D810182D
:108D7000C8747047FC24002010B502F04FF9002899
:108D800010D102F059F900280CD100F031F80C494B
:108D9000002802D00020488304E0488BFF212D31B9
:108DA000884201D2002010BD00F005F900F076F9EC
:108DB000002801D000F02CF901F05AFE012010BD6E
:108DC000F0240020094800B5002201460274C03199
:108DD0000A824A8300F00CF8002804D0022088752B
:108DE000CA778A7700BD8A7500BD00003024002054
:108DF00004480069800CC007C00F01D000207047F4
:108E0000012070470005005000B5FFF7F1FF002872
:108E100003D10448007C132801D9002000BD0120A3
:108E200000BD000030240020F8B5164C00F0E0FB37
:108E30000146E07A002813D0012814D0022812D16C
:108E40000D4608F0F3F82074617C26460027CC3EDE
:108E500000290FD0677402F0E1F8002804D005E083
:108E6000204605F0D3FDF8BD207C06E0A07A02285C
:108E700005D005E0317C884202D23074F6E72560E7
:108E8000E772F8BDFC24002010B501F0B5FE1020FB
:108E90000CF0D2FE03494882012048770220C875B1
:108EA00010BD0000F024002000B50246FFF7A0FF2F
:108EB000002808D00449088A801880B2034A088232
:108EC000904200D90A8200BDF0240020302A000020
:108ED00010B51F4B002286B000282FD016292DD1A7
:108EE0004178E1290BD0E22904D0E32904D0E42918
:108EF00004D023E0012202E0022200E00322142435
:108F000069460C820024D100009401940294C9188F
:108F100003948A8B69460A8001228A708C8004A996
:108F2000801C02910390988A6946A6DF0849403167
:108F3000002806D0074A904200D10C77002006B0E6
:108F400010BD087F012801D9401E08770120F6E7EF
:108F5000842700200430000070B5FEB015460E4690
:108F60000446FFF7F5FD00231A4621466846FFF741
:108F700037FE6846FFF7FCFC40232A463146684628
:108F8000FFF7B6FC7EB070BD30B50C468DB015460F
:108F9000014610226846FFF723F91022214604A853
:108FA000FFF71EF968464DDF1022284608A9FFF793
:108FB00017F90DB030BD704710B50878152818DDC9
:108FC000212804D0222807D0232812D10AE010003B
:108FD0000FD009A20D490AE010000AD0E52106A22F
:108FE000890004E0100004D0084903A2891D0BF099
:108FF00026F9002010BD00002E2E5C736F75726381
:10900000655C62746C652E630000000091030000D3
:1090100010B5074C1321A08A76DF002803D005A2E3
:10902000D6210BF00CF902204034607710BD00000F
:10903000842700202E2E5C736F757263655C6274EA
:109040006C652E630000000070B50646FFF7D0FE89
:1090500000250C4C002809D1FFF7D6FE002805D0CA
:1090600001F0DCFF002801D0657770BD002E01D033
:10907000A57701E00120A07701F0D4FD05206077FD
:1090800070BD0000C42700201CB50446684666DF9A
:1090900068468088207001201CBD00000348407F86
:1090A000042801D00020704701207047C427002009
:1090B0000348407F002801D00020704701207047FE
:1090C000C427002070B52C4A0346008811460025AD
:1090D000403117281AD01ADC012823D0102826D0B6
:1090E000112813D1681E908201201446487709F098
:1090F000EBFC00F045F802F093FDA07D800705D45D
:1091000002F0B0FE002801D004F00EF870BD19285E
:1091100023D0392803D050281BD05528F6D1FFF78B
:1091200077FF70BD087F1A7A8018087770BD98881D
:109130009082042014460E46487700F059FA2060C9
:10914000F57700F055FA0D49486020465C3062DF43
:1091500070BD184609F0EEF870BD98790028FBD173
:10916000487F0528F8D1887F022803D00020FFF728
:109170006BFF70BD4D7770BD842700203024002028
:1091800005480021017641768181C1810348817AB9
:109190004906490E81727047842700203024002040
:1091A00038B51E4C09F090FC20465C3062DF01218E
:1091B000684681701F21C9430180224612326946E8
:1091C0000120A0DF002827D1012115480BF094F9D8
:1091D00013480221401C0BF08FF911480321801C19
:1091E0000BF08AF90E480421C01C0BF085F90C48DD
:1091F0000521001D0BF080F909480621401D0BF0E8
:109200007BF907480721801D0BF076F904480821F7
:10921000C01D0BF071F9002038BD0000842700202C
:10922000E1FF000010B5104804464034617F0B0098
:1092300005F0ADF9050F040F0F120F00C08A0028CA
:1092400001D006F0A3FCA07F002803D00020FFF788
:10925000FBFE10BD0120FAE701F0E0FE0028F8D087
:1092600000F004F810BD00008427002070B500F065
:10927000BFF90546394C02F0F5FD002807D0384902
:1092800020684018A84267D203F04EFF64E0A07E39
:109290000A2802D901F03EFD5EE0324920684018FC
:1092A000A8420ED2FFF76CFF01F034FD2E48007C7F
:1092B000022803D0032801D0042807D1FFF7A8FE15
:1092C00004E0A089002801D100F05EF82748807AE8
:1092D000000641D5E089A189884205D20120C0035A
:1092E00000F07CFB00280DD1607E217E884225D2D3
:1092F000208A01263603FF2806D8304600F0A4FA5B
:10930000002801D0012070BD607E401CC0B2607694
:10931000217E88420DD2002020820122052114A046
:1093200001F07EF8A060002808D0304600F08CFAEA
:10933000E8E7012205210EA001F072F87D216068A6
:10934000C9004018A84207D201F0E4FC00F034FA4A
:109350006560A07E401CA076002070BD84270020A0
:1093600030750000204E0000302B002030240020FB
:1093700065706F63680000000248007F002800D01D
:1093800001207047C427002070B50D4D0120C00298
:10939000A8810024EC8105210AA000F063FE0006EC
:1093A000000E28766C7606D00022052105A001F07B
:1093B00037F8A8602C8205480473447370BD000020
:1093C0008427002065706F6368000000F02500208E
:1093D000F0B59BB006460F463022374902A8FEF78B
:1093E000FFFE3549302230310EA8FEF7F9FE334C2E
:1093F0000525E8000019B821BC2203460958125877
:1094000080335A6419648030DA6899686D1E196176
:109410002D0642612D0EECD1204680304761066159
:109420006038417A002909D000214172C0200651DC
:1094300080343046394667641BB0F0BD0020009090
:109440000EAE0190E80001199022525880314B690C
:10945000311803C9FEF7DAFF019B009AFEF724FFDB
:109460006D1CEDB201910090062DEBD300252E4628
:109470000127F8000119C022525880314B6C02A913
:10948000091803C9FEF7C2FF2A463346FEF70CFF50
:109490007F1CFFB205460E46062FEAD3019B009AB9
:1094A000FEF7ACFFC022105180346164FFF7C6F8AC
:1094B00000B2FFF7A1F8BFE7507D0200182A002094
:1094C000164830B50146012220310A724A72002145
:1094D000CA001218002313635363136615465366BC
:1094E00080352B616B618032491C2B64C9B2536497
:1094F0000629EDD301463022E0310A744A7403464E
:10950000074A80330021DA679967803306C30A4629
:10951000FF30034901301A60C16030BD182A0020B5
:109520000000F03FF0B59BB006460F4630222E49B2
:1095300002A8FEF755FE2C49302230310EA8FEF766
:109540004FFE2A4C0525E8000019C26D816D426668
:109550000166C26A816A6D1E42632D0601632D0E8B
:10956000F1D12046676320302663017A002907D0B5
:109570000021017267663046394626661BB0F0BD91
:10958000002000900EAE0190E80001194B6B0A6BB1
:10959000311803C9FEF73AFF019B009AFEF784FEDB
:1095A0006D1CEDB201910090062DEDD300252E46E5
:1095B0000127F80001194B6E0A6E02A9091803C9A8
:1095C000FEF724FF2A463346FEF76EFE7F1CFFB2ED
:1095D00005460E46062FECD3019B009AFEF70EFFC0
:1095E00061662066CAE70000F07C0200182A0020AD
:1095F00010B503F0DDFB10BD70B5214A01781346AC
:10960000A03B0902198044781E4D091989B2002433
:109610001980A9420DD1146054608178C01C9970E2
:10962000002903D0012903D10AF0F4FB00F072F8FD
:1096300070BD144D6D1CA9420FD114605460C178E7
:1096400009025960027911430902596042791143B4
:1096500059608179997000220DE00A4A921C91426A
:1096600002D0521C9142E3D1C1780A020179114320
:10967000427909020A43811D184609F003FF70BDB3
:10968000B8260020E5FF0000F8B520480090051D31
:1096900080792F46401CA870FF20E870E2202871D6
:1096A000A87868718037072078620020A871E87177
:1096B000072129722E46A036F8617073B8622C46D5
:1096C00030700B221934025501216A7029700098FC
:1096D00001700F4882780A55C27803213173022045
:1096E00002550B49E01C04220839FEF779FD0720DA
:1096F00030732846102221460930FEF771FD1020F4
:109700007073F861009802210170F8BD3C250020BB
:1097100070270020F8B5154E10213446FF3411345F
:10972000A0782746401CA070FF20B5308151FF2053
:10973000E070E1202071A0372546012219353A73E7
:10974000002149553146681C09220A31261FFEF7BF
:1097500047FD0A223A730020607001202070022029
:1097600030702946601DFEF73BFDF8BD3024002017
:1097700070B5104B10221846FF3011308178FF244D
:10978000491C8170FF21B531CA50FF21C170E12110
:109790000171BD340122E254014600261825193119
:1097A000755445700270031F02241C70401DFEF7A3
:1097B00017FD70BD3024002070B5204C2546FF35C4
:1097C000C9352879FF34D334002835D1FF202070E3
:1097D000E12060701620A07018488030816A090E60
:1097E000E170816A090C2171018D090A6171008D96
:1097F0001249A0714A6C886C8018020EE271020C4A
:109800002272020A6272A0720D4802891212E2727A
:10981000007A2073086D0009020A6273A073C86C95
:109820000009010AE17320740648407E607403F069
:1098300085FDA0740120287170BD00003024002037
:10984000302B0020102A0020F0B593B0064601A866
:10985000009005A80B9001A80A905E4C05A80D90F9
:109860002079002802D16079002802D0012013B0AD
:10987000F0BD0D2258489201851803221202A179E9
:1098800080180E90002923D000271CE0A88C00012E
:109890000C90B0421AD20E980422C16D0C98081890
:1098A00001A900F079FE01980422400040080190CF
:1098B0000E98C16D0C98081801A900F0C7FEA88C7D
:1098C000401CA8847F1C2089B842DFD80020A071EA
:1098D000A88C0701B74201D30020C8E701202081EE
:1098E00016E00E981022C06D0099C01900F054FEC9
:1098F00000980078FF2806D00198002803DA40007D
:109900004008019006E0A88C401C80B2A8840701A2
:10991000B742E6D3B7424CD2A88C050146E00E9878
:109920001022C06D0B99401900F036FE0B9800789C
:10993000FF283ED0059800283BDA400040080199F6
:109940000590884235D90D98017A0A98007A8142AB
:109950002FD10D98417A0A98407A814229D10D98E9
:10996000817A0A98807A814223D10D98C17A0A9827
:10997000C07A81421DD10D98017B0A98007B8142FB
:1099800017D10D98C1880A98C088814211D10D98CD
:10999000417B0A98407B81420BD10D98817B0A98CC
:1099A000807B814205D12089401C20811035B54241
:1099B000B5D32389012B01D9092201E00023082214
:1099C00020460A300A9906F08DFF0120207160714F
:1099D0004CE70000F825002030240020F0B591B0BD
:1099E000064601A8079008A80C9001A80690574CBD
:1099F00008A80D902079002802D16079002802D0B3
:109A0000012011B0F0BDA079514D00281ED00027D3
:109A100017E0688C0001B04216D204221303C0186C
:109A200001A9009000F070FD019804224000400858
:109A3000019001A9009800F0CDFD688C401C68845D
:109A40007F1C2089B842E4D80020A071688C0701EF
:109A5000B74201D30020D4E70120208115E0102275
:109A600090023818079900F04FFD07980078FF28FA
:109A700006D00198002803DA40004008019006E073
:109A8000688C401C80B268840701B742E7D3B742B4
:109A90004BD2688C050145E01022900228180C99E1
:109AA00000F032FD0C980078FF283ED0089800287E
:109AB0003BDA4000400801990890884235D90D985A
:109AC000017A0698007A81422FD10D98417A069842
:109AD000407A814229D10D98817A0698807A814214
:109AE00023D10D98C17A0698C07A81421DD10D9874
:109AF000017B0698007B814217D10D98C18806989A
:109B0000C088814211D10D98417B0698407B8142EB
:109B10000BD10D98817B0698807B814205D12089ED
:109B2000401C20811035B542B6D32389012B01D9C1
:109B3000092201E00023082220460A30069906F097
:109B4000D1FE0120207160715AE70000F825002045
:109B50007027002010B5002405F08EFA002803D0ED
:109B6000641CE4B2052CF7D310BD0000F0B5044628
:109B700010460022084E0AE02578070A7D406D0055
:109B8000755B00024540521CA8B292B2641C8A4226
:109B9000F2D35840F0BD0000E07D020010B50C4645
:109BA00009F0B6FC044801790246490030325452AB
:109BB0000121417110BD0000F42000200348132151
:109BC00000888903C001081A70470000F4200020B3
:109BD00070470000F8B52B4A2B4E9078134685014C
:109BE0001446D1781B88303410E04F00E75BB74251
:109BF0000BD126484E00A05368185B1C1380491CEB
:109C0000D170012180B25171F8BD491C4029ECD3BB
:109C10001321C9018B4233D01A494979002903D055
:109C20001849303100F0FEFC0027164C25E0A078E2
:109C3000884225D2401C1349C0B24035A070ADB255
:109C4000303100F08FFC0F48002130304A00825A3A
:109C5000B2420ED10B4A0D484B003032D05222880E
:109C60006818521C2280491CE170012180B2617188
:109C7000F8BD491C4029E9D37F1CE168B942D6D818
:109C80000020F8BDF4200020FF7F0000FF3F00000F
:109C900010B509F03DFC034802490079400030311D
:109CA000085A10BDF4200020F0B5194CA1B0A18BCA
:109CB000A069FEF76BFA0025264620803036154F46
:109CC00017E06946284600F04DFC1148802269469D
:109CD0003030FEF785FA00204100715AB94202D0B7
:109CE0002188491C2180401C80B24028F4D36D1C7F
:109CF000ADB2E068A842E4D800250549A57030312E
:109D0000284600F02FFCE570657121B0F0BD000021
:109D1000F4200020FF7F000070B5C0B0344C6946CD
:109D2000002000F009FC802020816D4620A903203E
:109D300000F002FC3FA8023001F040F92D49002656
:109D400088424CD12846363001F03DF92A490002BC
:109D5000884244D102A8033001F030F921898842B9
:109D60003DD105A8023001F029F9E0606846007C89
:109D7000A077012833D16846407BA08304A8013036
:109D800001F01CF9208404A8033001F017F9608465
:109D900003A8023001F012F9A084012021890004F7
:109DA000FEF7F4F90546608CA84218D3A18B401B3E
:109DB000FEF7ECF9E0840220A071A561A08C20617F
:109DC000208C00280CD068086061E08C218940005C
:109DD000401E0818FEF7DAF9E168884202D900202F
:109DE00040B070BD0020C043A062A6850120F7E707
:109DF000F420002055AA00000046415410B530213F
:109E00000248FEF714FA00F003F810BDF420002019
:109E1000F0B5A7B05A4C02206D46A07180212846AB
:109E2000FEF705FA2946012000F0EDFB2946022045
:109E300000F0E9FB8026268166810120A0831320A3
:109E4000C00160840427F000A784208441100F2003
:109E5000C001E0841E20E0600120A0772761A1619D
:109E600000026061F022802128462592FEF7DFF98A
:109E70000B2244A12846FEF7B3F96946CE720020B2
:109E8000087301224A738F73C8730A7448748F74FD
:109E9000CE7409220A75259A4A753F220A764876B9
:109EA000FF228A76C876087748778877C8770BF0DC
:109EB00039FC08A9C871020A0A72020C4A72000E23
:109EC0008872A08969468875000AC87508A90E714C
:109ED00029208871284613222DA12B30FEF780F906
:109EE0002946002000F08FFB21892846FEF79FF9C4
:109EF000552018A98877AA20C8772946032000F0A2
:109F000082FB00207F26249035E0FF228021284616
:109F1000FEF786F901202E54801C8028FBD3FF21F8
:109F20002598C943014329701E4A010A11436970EB
:109F3000010C12121143A970000EFF210843E870B2
:109F40002946002000F06EFB01270EE0FF22802151
:109F50002846FEF765F901202E54801C8028FBD38B
:109F60002946384600F05EFB7F1CE068B842EDD819
:109F70002498401C2490A17F8142C6D827B0F0BD10
:109F8000F4200020EBFE904D53444F53352E30000B
:109F90004E4F204E414D4520202020464154202048
:109FA00020202000FFFFFF0010B50548417900295F
:109FB00004D003498078303100F034FB10BD00003C
:109FC000F4200020F1B50026A8B0354600F0AEF828
:109FD00002F0A4FA074600212898002F016001D062
:109FE000002415E0002029B0F0BD20A9204602F091
:109FF0004FFA00280AD0761CB6B26946204602F015
:10A000005BFA6846FEF71EF945190835641CA4B2D0
:10A01000BC42EAD3289805603046E4E770B5A8B0A2
:10A02000064600F083F802F079FA050018D0002403
:10A0300014E020A9204602F02BFA00280CD0694633
:10A04000204602F039FA31466846FEF702F9002848
:10A0500002D1204602F0FEF9641CA4B2AC42E8D35F
:10A0600028B070BDF3B5A9B0299800260F46002886
:10A0700024D0002F22D000F059F802F04FFA05004A
:10A080001CD001A80024009016E0A0B221A902F083
:10A09000FFF900280FD0A0B201A902F00DFA0020AC
:10A0A00006E000990A5C2999095C8A4203D1401CA8
:10A0B000B842F6D3761C641CAC42E6D330462BB0D3
:10A0C000F0BD000010B504002DD0E07C00282AD19E
:10A0D000A07C002802D0204609F0B2FFE08902F0FF
:10A0E000F9F9E2890146104602F046FA218AE08930
:10A0F00002F02AFA0C48808E02040B482030817D41
:10A1000011430A02C17DE089114302F029FAE08976
:10A11000216802F065F9FFF747FF02F039FA0020E5
:10A12000207502F0E1F910BDB024002010B50548FB
:10A13000007D002805D00348FFF7C4FF002001F090
:10A14000C5FE10BDA4210020002803D0006800280F
:10A1500000D0012070470000F0B5CDB00D4624A915
:10A16000019104A900910146802204A8FEF738F865
:10A17000FFF7DCFF324C0026E574012D26D0FFF7F7
:10A1800093FDFFF71BFD0521C90288424CD3FFF761
:10A1900021FD050048D0FFF71DFD6946088102003A
:10A1A00044D02946009802F027F9411C40D0711E86
:10A1B0002182A6742081694609896181A181266076
:10A1C000E081012020751E484DB0F0BD02F0A6F9D7
:10A1D000070029D0002510E0A8B244A902F058F9E0
:10A1E000002809D0A8B2019902F066F900990198F7
:10A1F000FEF72FF8002802D06D1CBD42ECD3BD4203
:10A2000012D2A8B2E08103AA02A902F08DF980203F
:10A21000A074E0892081684600896081A08103984C
:10A22000206060602675CEE70020CDE7284604E078
:10A230002846FFF7CDFC68460089FFF7C9FCF3E725
:10A24000A4210020F8B516460F46050007D028685F
:10A25000B04200D2C6B2A87C802802D004E0002020
:10A26000F8BD284608F038FCA87C1C498219802AD1
:10A2700009D2411832463846FDF7B2FFA87C344671
:10A280008019A8741EE08022121AD4B24118224606
:10A290003846FDF7A5FF381900901BE0301BC7B208
:10A2A000802F00D380273A460C490098FDF798FF8D
:10A2B000E019C4B20098C0190090802F0AD0AF7482
:10A2C000B442EBD32868A04200D2C4B2001B28607D
:10A2D0002046F8BD284608F0FFFBF1E73C220020AD
:10A2E000F8B516460F46050014D02A8A314638467E
:10A2F00002F0CEFD2882A87C1F498219802A0BD249
:10A30000401832463946FDF76BFFA87C3446801969
:10A31000A87427E00020F8BD8022121AD4B2401899
:10A3200022463946FDF75CFF381900908020A8745A
:10A33000284609F085FE002812D113E0301BC7B271
:10A34000802F00D380273A460B480099FDF748FF3D
:10A35000E019C4B20098C0190090802F04D0AF74E7
:10A36000B442EBD32046F8BD8020A874284609F0FB
:10A3700067FE0028F4D1F5E7BC210020F7B5A8B0AE
:10A380000E460024FFF7D2FE02F0C8F8074600256B
:10A3900042E06946284602F07BF800283AD0289827
:10A3A000844235D1019808AF010E2A9831540198A2
:10A3B0002A9C000C641C30550198641C000A30551E
:10A3C000641C0198305568460089641C000A3055A9
:10A3D00068460089641C305539462846641C02F0E2
:10A3E0006BF83846FDF72EFF401C85B27F20001B1E
:10A3F00080B2854200D90546002078553555641C49
:10A4000030192A463946FDF7EBFE60192BB0F0BD36
:10A41000641CA4B26D1CADB2BD42BAD32A98F5E754
:10A42000F7B5AAB00020009001200F460190FFF779
:10A430007DFE02F073F8050024D002AE00241FE078
:10A44000A0B222A902F024F8002818D0A0B202A9D4
:10A4500002F032F8002005E02A99325C095C8A4259
:10A460000DD1401CB842F7D32C9800280DD001988C
:10A4700000280AD0A0B201F0EDFF00200190641C7A
:10A48000AC42DDD300982DB0F0BD01213046FFF77E
:10A4900063FE002805D081890122C90112048918B0
:10A4A0000091FFF70FFEEDE770B5A8B00646FFF785
:10A4B0003DFE02F033F8050014D0002410E0A0B2F5
:10A4C00020A901F0E5FF002809D0A0B2694601F0FB
:10A4D000F3FF31466846FDF7BCFE002805D0641C3A
:10A4E000AC42ECD3002028B070BD0120FBE7000097
:10A4F00010B518210348FDF79AFEFFF7D5FB02F0CF
:10A5000057F810BDA421002070B50D460446C109BE
:10A510001646042000F0BCF8002807D01320800362
:10A5200020183246294601F0B1F870BDFF22802183
:10A530002846FDF775FE70BD70B504460D462146F0
:10A54000002000F0A5F8002805D0E001802229466F
:10A5500001F09CF870BDFF2280212846FDF760FEC7
:10A5600070BD000070B504460D462146012000F084
:10A570008FF8002808D00748802200692946001972
:10A58000C00101F083F870BDFF2280212846FDF74D
:10A5900047FE70BDF420002010B501F077F810BD23
:10A5A00070B504460D462146022000F071F80028DF
:10A5B00008D007488022406929460019C00101F0EF
:10A5C00065F870BDFF2280212846FDF729FE70BD89
:10A5D000F420002070B50E460446C109A0B015460F
:10A5E000042000F055F800280BD02A463146684672
:10A5F000FDF7F6FD1320800320182A46694601F076
:10A6000062F820B070BD70B504460D4621460020AA
:10A6100000F03EF8002804D0E0018022294601F035
:10A6200052F870BD70B504460D462146012000F079
:10A630002FF8002807D00448802200692946001915
:10A64000C00101F040F870BDF420002030B5A1B089
:10A65000054614466846FDF7C3FD2246694628466E
:10A6600001F031F821B030BD70B504460D462146E9
:10A67000022000F00DF8002807D00448802240692D
:10A6800029460019C00101F01EF870BDF420002019
:10A6900010B5030003F07BFF0504070A0D1021002D
:10A6A00004290DD219E0FC290AD216E0FF2907D8A7
:10A6B00013E00F20C00101E00120400281420CD3D1
:10A6C00000F0ACFC002801D0002000E0012000F0E8
:10A6D0000EF802F00DFD002010BD012010BD132169
:10A6E000890310B54018032100F0D7FF10BD70B5E5
:10A6F000054600F014F80446284600F003F8001957
:10A7000080B270BD014610B50020002906D013218B
:10A7100010248903204604F04FFD204610BD10B5DB
:10A720004C240021204604F047FD204610BD0000C7
:10A7300070B504460D4621460320FFF7A9FF002807
:10A7400008D007488022806929460019C00100F01E
:10A750009DFF70BDFF2280212846FDF761FD70BD81
:10A76000F420002070B504460D4621460320FFF773
:10A770008FFF002807D004488022806929460019ED
:10A78000C00100F0A0FF70BDF4200020FFB58BB029
:10A790006C480024009025460C98FDF753FDC0B28C
:10A7A00006900C9802900D98002709903E46089755
:10A7B0000298FDF747FDC0B212E00299895D203989
:10A7C0005E2903D87F1C761CFFB2F6B20299895D20
:10A7D000C90905D00899491CC9B2F61CF6B20891FE
:10A7E0008642EAD30998102804D0082807D000260A
:10A7F000554F93E00899F8000901401800E0F8006F
:10A80000C6B2F5E70C98405C0246203A5E2A4BD867
:10A810000D99102902D0082928D01EE00001FF3828
:10A820004A4BFF380238C018009A1021786001F0B6
:10A830007FF80E98012813D0E000290141180B98E9
:10A840000822081802900099FDF7CAFC02980099A6
:10A85000082280300831FDF7C3FC641CE4B25DE0DF
:10A860008020801B4010E1004018E6E7C00017235D
:10A87000FF389B030138C018009A0821386001F0A6
:10A8800057F80E98012806D006200B99604340180F
:10A8900006220099DFE78020801B411006206043DC
:10A8A00009180B980818F3E7C0093ED00C98009AD5
:10A8B000081820218E4626498C46017809070B0C82
:10A8C000417880788906090D194383069B0E0B4356
:10A8D000180A01464E39DBB2512909D80002C018C6
:10A8E0001C494001411860460818714601F020F8E3
:10A8F0000E9801281ED0E000290141180B98102263
:10A90000081801900099FDF76BFC0198009910223E
:10A9100080301031FDF764FC6D1CEDB26800281822
:10A9200001190698814200D26CE7802E08D8304683
:10A930000FB0F0BD8020801B4010E1004018DBE725
:10A94000FF20F5E7902B00200820002000C3050021
:10A9500000C905000040F6FF0348C16B002901D083
:10A960000021C163704700004061004010B5002124
:10A97000132006F0AFFC6420FEF7C3F90121132079
:10A9800006F0A8FC10BD000010B52F48022404609A
:10A99000001D04600121204606F09CFC2A480C3072
:10A9A0000460001D0460001D04600121062006F003
:10A9B00091FC0121072006F08DFC23482030046023
:10A9C0000021092006F086FC1F482830046003227D
:10A9D00011460B2006F070FC1B4830300460001D4F
:10A9E0000460001D0460001D04600022022110208C
:10A9F00006F062FC14484430046003220021122057
:10AA000006F05AFC0121132006F064FC03221146D3
:10AA1000152006F051FC0121162006F05BFC0A48C7
:10AA20005C30046008486430046007486C3004609F
:10AA3000001D0460001D0460001D046000211F2033
:10AA400006F048FC10BD000000070050012004493A
:10AA5000C00748600321062033DF06202EDF704741
:10AA60000063004010B500F089F902F015FC10BD3C
:10AA700010B50021142006F02DFC1E49002008729C
:10AA80001D4902200860091D0860091D08601A4957
:10AA900010310860091D0860091D0860091D086063
:10AAA000091D0860091D0860091D0860091D08606E
:10AAB000091D0860091D0860091D0860091D08605E
:10AAC000091D0860091D08600B4958310860091DFF
:10AAD0000860091D0860091D0860091D0860091D3E
:10AAE0000860091D0860091D0860091D0860091D2E
:10AAF000086010BD302400200007005010B501216F
:10AB0000142006F0E7FB02490120087210BD000086
:10AB1000302400201CB50449086A496A009001915C
:10AB200068460BF069F81CBD547C02000149022004
:10AB3000086070473C07005010B501210F2006F057
:10AB4000C9FB10BD1CB5002812D0012810D109493D
:10AB5000094C0869496901910090207D002807D0BF
:10AB600068460BF0CDF8002020750120FEF7C9F8EB
:10AB70001CBD0000547C0200302400201CB50028BD
:10AB800011D001280FD10849084C8868C968019183
:10AB90000090207D002806D168460BF0C9F80120FE
:10ABA0002075FEF7AEF81CBD547C02003024002056
:10ABB00000B587B0002819D00D49002203C90490C0
:10ABC000CD20C00405910290182000901A20019019
:10ABD00003206946087304A80BF0DEF804A80BF004
:10ABE000A7F8044901200875FEF78BF807B000BDEF
:10ABF000547C0200302400201CB504498869C969CE
:10AC00000090019168460AF0F7FF1CBD547C0200D9
:10AC100010B5002801D0012100E00021092006F034
:10AC200059FB10BD10B517489AB00068189006245B
:10AC300030216846FDF7FBFA6846C47001210182A5
:10AC400018A8059030210CA8FDF7F1FA022108A8F8
:10AC500001740CA9684609F021FC7D24E400002859
:10AC600003D02046FEF74DF835DF03F053FF0648CA
:10AC700073DF002803D02046FEF743F835DF1AB013
:10AC800010BD00007C7C02009023002010B5084C11
:10AC9000FEF7AEFC20464030C17F002907D00021DE
:10ACA0008177FEF7B5F9E08A02210843E08210BD02
:10ACB0008427002010B5FFF721FF02F069FE03F0A2
:10ACC00059FFFFF761FE0022104910460BF074FE99
:10ACD0000F490120C874FFF76BFF03F087FA01F0FA
:10ACE000D5F900F0F7FC02F0B9F8FFF7AFFE01F07C
:10ACF0007FFEFEF767F802F04BFA00F0E3F84B2016
:10AD0000C000FDF7FEFF02F01FFB10BD116802003E
:10AD1000302400207CB5164CFEF76AFC054601F095
:10AD2000A1F800280AD126464036F07F00281CD121
:10AD30001048114A41688918A94201D900207CBDF8
:10AD40004560C82168460180FF21413141800421CE
:10AD500081804B21C900C18009F04EFC002804D13C
:10AD60000120F07720465C3062DF01207CBD0000CE
:10AD700084270020302400201027000070B51B48D5
:10AD8000194C00690025400DC007C00F00D00125F7
:10AD90002078A84226D0FEF72BFC0646A800257096
:10ADA0000019466002F04CF82078002818D1E660BF
:10ADB00000F034F9002813D000F0ECFF0C4901201A
:10ADC000C873FEF715FC0B49C86302F0F3FE0028B8
:10ADD00002D000210A2001E00021072003F098F8AA
:10ADE000012070BD002070BD782B002000050050B0
:10ADF000F0290020B0270020F8B57D202D4C40011F
:10AE00000090617820782C4F01262C4D814215D17D
:10AE1000002815D100F002F900280ED0FEF7E8FB5B
:10AE20006168401A0099884207D3E07C401CE074B6
:10AE3000AE730920E873FEF79BFCF8BD002814D020
:10AE4000A0686146091A0A29F7D36168401A217C73
:10AE500000292AD0B84228D200202074607C401CEF
:10AE60006074AE730720E873F8BDFEF7C1FB61683C
:10AE7000401A0A28F8D3B84215D300206070207415
:10AE8000A07C401CA074AE730820E8730C48007AC4
:10AE9000002805D0FF210A482D31C0304183F8BD7C
:10AEA00002F042F9F8BD2674F8BD667000202074E7
:10AEB000F8BD0000782B0020DC0500007027002082
:10AEC0003024002070B50948074D00690024400D6A
:10AED000C007C00F00D001246C702C70FEF788FBF7
:10AEE000A1004919486070BD782B00200005005072
:10AEF000F1B52C4C82B02546E035687C2874FF20E3
:10AF0000FF210130053100590959274A274BFDF728
:10AF1000CBF922468032D1679067287CFDF780FB11
:10AF20000F4606460022224BFDF7BEF902460B46AD
:10AF300030463946FDF7D2FAE21DF932D160906011
:10AF400006460F46287C02990090081AFDF754FB2C
:10AF500032463B46FDF75AFA06460F460098FDF783
:10AF60005FFB32463B46FDF79FF90022114BFDF790
:10AF70009BF9FDF787FB6874E01DF930C3688268B0
:10AF800000200D49FDF734FAF822FC2312591B5911
:10AF9000FDF73CFAFF2201321051A4186160687C71
:10AFA000FEBD0000182A00202D431CEBE2363A3F7C
:10AFB000000070400000E03F0000F03F4178007862
:10AFC000090208437047C1780A02817811430A02D6
:10AFD00041780078114309020843704710B5074CC7
:10AFE0000020FFF77CFB01200003FFF778FB002027
:10AFF000207620606060A06010BD00005C2700200B
:10B0000010B5054C0C2221460020FFF77DFA0020E8
:10B01000E0752076A07510BD5C2700200448054926
:10B02000808D884201D101207047002070470000C8
:10B0300030270020A57F00000148007870470000FD
:10B0400070270020F0B585B0FA4CFEF7D1FA07461C
:10B05000022002F05FF8F848217E03466E3B039021
:10B0600018460A300290163001900D22F3489201E2
:10B0700086180322120285181846403000900B00F3
:10B0800003F085FA110A2B567484BDCEFAF9F8F74D
:10B09000F6F5F4F3F2F1F500E848807A810607D579
:10B0A000E748C760012020762020607505B0F0BD1C
:10B0B000410605D5E248C7600520207640200AE019
:10B0C000800707D5DE48DF49C76001610D20207683
:10B0D000022000E000207070E8E701203070EF638C
:10B0E000D74DFF202870D448EF606E3801F092FFF2
:10B0F000D148D5495A38686103F01EFACE490A2270
:10B100006E3908466430FDF76BF80621039805F0A8
:10B110004DFBC9492C200A39887206F0AFFDC64A9A
:10B120000A3A114608461430FDF72EFF022006E1C8
:10B13000C149C34855394161084610224B3003F0DC
:10B14000DDF9BD480A220A380299FDF749F80621BF
:10B15000039805F02BFBB8492C200A398872084661
:10B160000A461430FDF710FF0320E8E001992C2077
:10B170004876B149B24D3439084610222A30696107
:10B1800003F0BCF904202076002076E1022001F0D3
:10B190006DFF002826D003F0A3FE0021ABA0FEF730
:10B1A000DBFFA54905465A226E39FFF799F8284674
:10B1B000FEF788FF022001F0ADFF0020A0492076B5
:10B1C0008F609E4A0870937ADF252B4093728880A7
:10B1D0007078202880D10120A075801EE060FEF7E5
:10B1E00053FA63E796498A88501C88807D20C00006
:10B1F0008242F6D90B2020760E20E07556E701201A
:10B2000030708E48EF63807A4006EAD506202076BB
:10B2100000218B48FF22817042708180C76045E722
:10B22000022001F023FF00284ED0854E0025B58076
:10B230008BA0FFF739F9012808D00B202076757014
:10B240000320E075022001F065FF2FE7012184A0B3
:10B25000FEF782FF05464068622828460DD0FEF7BB
:10B2600031FF04201AE04AE13DE120E107E150E12D
:10B27000BDE075E065E04BE033E06F4962226E3976
:10B28000FEF7E0FF2846FEF71DFF019800782C2806
:10B2900003D1009840782C2804D00520E0750B20BD
:10B2A0002076CFE7644920220A390846643803F043
:10B2B000BFF806F0E3FC604A0A3A1146084614302B
:10B2C000FDF74AFE0720EBE75D488188491C89B2FB
:10B2D00081807D20C000814290D90B2020760F20F4
:10B2E0008BE755486E38014664312EC92EC00146A1
:10B2F00020225431113003F09BF806F0BFFC4E4A77
:10B300000A3A114608461430FDF726FE082016E0DA
:10B31000494910220A390298FCF762FF4649202267
:10B320000A390846223803F083F806F0A7FC424A9F
:10B330000A3A114608461430FDF70EFE0920207621
:10B34000B4E63D486E38014664312EC920302EC027
:10B350000A20207602F0EEFA012000F089FEA5E630
:10B36000354814216E3808F00DFA334F2C206E3F0B
:10B37000387515262020395C2C2906D0B955761C45
:10B38000401CC0B2F6B22D28F5D32D48C6800098D7
:10B3900001F040FE284814226E380099FCF774FF33
:10B3A0000004000C05D0274828630920E0750B2015
:10B3B000C5E700200125224B761EF1B218610EE090
:10B3C0007A5C303A0B2A04D30A21E1750B212176ED
:10B3D00007E06A4310180A225543491EC9B21529CD
:10B3E000EED21861207E0B28AAD00D20A7E7144DBD
:10B3F00000262E706E70022001F038FE002804D165
:10B40000A8887D21C900884236D9022001F082FE39
:10B410000A492676887A9D22104088722E706E70B6
:10B42000AE800420A075401FE060FEF72DF903F008
:10B4300057FD3BE65C270020162400203024002026
:10B4400014200020FFFFFF7F807C0200736563757E
:10B45000726974795F6465766963652E74787400C7
:10B4600073656375726974795F7365727669636514
:10B470002E74787400000000401CA88016E601209D
:10B4800030702648EF63806A686325482349006965
:10B4900028632448A8852448E8850E202076803932
:10B4A000887ABD221040887202F048FAFEE50F202B
:10B4B0002076707840280ED0022812D00420A07583
:10B4C000286BE060FEF7E0F8FEF792F81449C860D8
:10B4D00000203070EAE50220A07511490020487074
:10B4E000EEE70320EBE70020FFF7F9F80C222146F6
:10B4F0000020FFF76FF810203071EF63D6E50B499D
:10B50000E86B4018B84294D201F00EFE0020307172
:10B51000CCE50B20207611206FE60000B02400203F
:10B5200014200020A57F00003412000088130000C2
:10B5300010B5312005F01EFE0148407810BD000016
:10B540009A31002010B5392005F014FE01484078EA
:10B5500010BD00009A31002010B54721202007F0CF
:10B560000BFE0120FDF7CDFB0921212007F004FE91
:10B570004021222007F000FE0021232007F0FCFDDF
:10B580004821242007F0F8FD0821322007F0F4FDBF
:10B590000121332007F0F0FD262005F0EBFD2A21E4
:10B5A000302007F0E9FD312005F0E4FD002010BD5A
:10B5B00010B500F00DF810BD10B52F2005F0DAFD24
:10B5C00002484078C006C00E10BD00009A3100202D
:10B5D00010B5214C6078002813D03F21382007F0A7
:10B5E000CBFD30213A2007F0C7FD10213B2007F0AA
:10B5F000C3FD0A213C2007F0BFFD20213D2007F0BC
:10B60000BBFD0021322007F0B7FD0021332007F0F9
:10B61000B3FD4721202007F0AFFD0021212007F0D6
:10B62000ABFD6078002801D0842100E004212220B5
:10B6300007F0A2FD1821232007F09EFD48212420B9
:10B6400007F09AFD99212E2007F096FD0021252074
:10B6500007F092FD002010BD3025002010B50446F3
:10B66000282005F027FD062202492046FCF7B8FDF8
:10B6700010BD00009B31002010B50F2005F07AFDB1
:10B680000148407810BD00009A310020134610B5E3
:10B690000A46194600F04CF910BD10B5032905D033
:10B6A000022907D0012908D0002909D000F078F834
:10B6B000002010BD00F040F8FAE700F0A5F8F7E729
:10B6C00000F00CF8F4E7134610B50A46194600F0EE
:10B6D000E5F810BD10B500F0CBF810BD30B5134D36
:10B6E0000024287885B0002802D02C7000F0A4F93E
:10B6F00000F0BAF90E49C720087016200D49002342
:10B700000191049002940394012200940849184680
:10B710000BF058FC08F064FB2878002803D10120C6
:10B72000287000F0EDF805B030BD00002C2000209E
:10B73000903100209A31002070B5164E04463078C2
:10B74000002586B0002802D0357000F075F900F0B1
:10B750008BF9114852210170210C4170210A81702E
:10B76000C47016200D4900230191049002950395A1
:10B7700004220095084918460BF024FC08F030FB21
:10B780003078002803D10120307000F0B9F806B0FD
:10B7900070BD00002C200020903100209A31002044
:10B7A00070B5164E04463078002586B0002802D0C9
:10B7B000357000F041F900F057F91148202101706F
:10B7C000210C4170210A8170C47016200D4900239C
:10B7D00001910490029503950422009508491846AA
:10B7E0000BF0F0FB08F0FCFA3078002803D10120C0
:10B7F000307000F085F806B070BD00002C200020ED
:10B80000903100209A31002070B5164E04463078F1
:10B81000002586B0002802D0357000F00DF900F048
:10B8200023F91148D8210170210C4170210A81703F
:10B83000C47016200D4900230191049002950395D0
:10B8400004220095084918460BF0BCFB08F0C8FA22
:10B850003078002803D10120307000F051F806B094
:10B8600070BD00002C200020903100209A31002073
:10B870000EB500F045F8074901200870684600F051
:10B8800087F8694604480978C174694649780175A2
:10B890000EBD00002C20002050240020F7B50F46DC
:10B8A000164E0446C51930786D1E002803D00020BE
:10B8B000307000F0C1F8200A290A0002090288420B
:10B8C00003D139462046029A0DE0FF21201A0131AA
:10B8D0000D1AA9B22046029A06F0DEFD029A791BE3
:10B8E0006019521989B206F0D7FD3078002803D1CB
:10B8F0000120307000F004F8FEBD00002C20002074
:10B9000000B5094985B0B920087000201621074A02
:10B910000192049102900390034600900122024993
:10B920000BF050FB05B000BD903100209A31002093
:10B93000F7B5154D04462878002686B00F46002836
:10B9400002D02E7000F078F8104803210170210C0D
:10B950004170210A8170C4700898042201AC85C42A
:10B960001621002304910096084918460BF02AFB83
:10B970000BF09CF82878002803D101202870FFF7ED
:10B98000BFFF09B0F0BD00002C2000209031002046
:10B99000F0B5174D06462878002485B0002802D05F
:10B9A0002C7000F049F81349902008704C708C708E
:10B9B000CC700C714C71162006210F4F002303919F
:10B9C000049002940122019700940A4918460BF052
:10B9D000F9FA0BF06BF83879307078797070287854
:10B9E000002803D101202870FFF78AFF05B0F0BDC1
:10B9F0002C200020903100209A31002010B50C48F6
:10BA000086B005210170AA21417000201621022272
:10BA1000084C04910290034601940392009004495B
:10BA20000BF0D0FA0BF042F8607806B010BD0000C1
:10BA3000903100209A31002000B5094985B0AB2033
:10BA4000087000201621074A019204910290039089
:10BA500003460090012202490BF0B4FA05B000BD84
:10BA6000903100209A31002010B50E480024017852
:10BA700086B0002902D00470FFF7DEFF0A490620D5
:10BA80000870162009490023019104900294039440
:10BA900001220094044918460BF094FA08F0A0F92A
:10BAA00006B010BD2C200020903100209A310020DB
:10BAB00010B50846024902F03FFDC0B210BD0000BB
:10BAC000E89C020010B50A46002809D0012809D0D8
:10BAD00002280CD003280CD0042807D106A102E0CC
:10BAE00008A100E009A1104602F026FD10BD09A141
:10BAF000F9E70AA1F7E70000CEB4BDD3C0B4B5E7BB
:10BB000000000000BEA9B6AB00000000636C696EC7
:10BB100067000000B6CCD0C500000000CEA2D0C5A2
:10BB2000000000000520704710B5002806D001284D
:10BB300001D0022801D100F073F810BD084600F0D2
:10BB40000BF810BD03480021C17003214171012190
:10BB5000C1717047702B002010B508490022CA70CF
:10BB60000122012807D04A718871CA710449002056
:10BB700002F0E0F910BD0F234B71F5E7702B0020A8
:10BB8000B80B000070B5FDF733FD244C0546E07995
:10BB9000002801D001F054F9E279204E0020022162
:10BBA000403E130002F0F3FC060604070D1A2B06B4
:10BBB000E171207170BD0120F563FFF729F80320C2
:10BBC00027E0F06B6430A842F4D20020FFF720F8A1
:10BBD0000420E071F563E078401C1DE0F06BFF305D
:10BBE0009130A842E6D2E078032806D30520E07120
:10BBF0002079401C2071F56370BDE17170BD7D231B
:10BC0000F26B1B01D218AA42F8D2227963799A42C8
:10BC100001D3E07170BDE171E07070BD702B002048
:10BC200010B503490020C871FEF7F2FF10BD0000F7
:10BC3000702B00208307FF22DB0E9A408907090E34
:10BC4000994000280BDA0007000F083883080848DD
:10BC50009B001818C36993430B43C3617047830863
:10BC600004489B001B1818689043084318607047ED
:10BC700000ED00E000E400E070B505460024204639
:10BC8000B030C0B207F092FA102007F08FFA00200F
:10BC900007F08CFA1F200AF049F92946802007F0A6
:10BCA00053FA641CE4B28035042CE8D370BD10B59F
:10BCB0000446AE2007F07AFAD52007F077FAC120C3
:10BCC00007F074FAA82007F071FA1F2007F06EFA47
:10BCD000AD2007F06BFA002007F068FA202007F08B
:10BCE00065FA022007F062FAD32007F05FFA00201D
:10BCF00007F05CFA402007F059FA8D2007F056FA59
:10BD00008D2007F053FA142007F050FAA02007F016
:10BD10004DFAC82007F04AFADA2007F047FA122055
:10BD200007F044FA204600F019F8D92007F03EFA4F
:10BD3000222007F03BFADB2007F038FA002007F05A
:10BD400035FAA42007F032FAA62007F02FFA10BD2A
:10BD500001498020C86070470005005010B50446B6
:10BD6000812007F023FA204607F020FA10BD10B515
:10BD7000002801D0AF2000E0AE2007F017FA10BD78
:10BD8000034806210171024900201439C870704728
:10BD9000042A002010B5084CFDF78AF9002802D0CB
:10BDA0000120FDF751F92079002801D0002010BDB5
:10BDB0000120207110BD0000042A002070B5264C1F
:10BDC000FDF716FC05462079002801D001F038F86F
:10BDD00020790126030002F0DAFB0835050D1C214D
:10BDE000352B3635FDF704FC206007200AF09EF85D
:10BDF000022026E02068281A672823D917498020C6
:10BE0000C8600220FCF77DFF07200AF08FF80320AE
:10BE100017E0CC20FFF74BFF042012E00E4D143D3D
:10BE2000EE70FDF7E5FB0E4948636E73052008E0F0
:10BE30000020FFF79CFFFFF78BFFFDF7D9FB206089
:10BE40000720207170BDFDF7D3FB2168401A6728D9
:10BE5000F8D90020F5E70000042A00200005005072
:10BE6000B027002002480078002800D00120704749
:10BE7000102A002010B50BA0FEF716FB00280CD0EE
:10BE80000CA0FEF711FB012808D00CA0FEF70CFB5C
:10BE9000012802D00BA0FEF707FB10BD07F02AFA1D
:10BEA00010BD00006F74615F73746172742E7478DA
:10BEB000740000006170702E62696E0073642E62FF
:10BEC000696E000063792E62696E000010B5064944
:10BED0000028087007D00548007C5A2803D90021A3
:10BEE000072002F027F810BD102A0020302400207F
:10BEF00010B55D2109010E48FCF799F90C49322073
:10BF000048600C49642008800220E0310873072053
:10BF100080310871084A0021117406490822A039AD
:10BF2000CA700870024805498030416610BD0000A3
:10BF3000C02B0020402F002000310020CCCC00007E
:10BF400000487047C02B00200148C07870470000AF
:10BF5000A02E0020F7B5414C86B020684049401C17
:10BF60002060096E0026401AFF21F5313D4F8842BE
:10BF700003D90020387202F08DFF38483A49083062
:10BF80000190009106A80EC802A805F0F1FD02ABD1
:10BF900007CB683407C4314D00237435743C02F07C
:10BFA000F7FF696800290FD029686960401AC0103E
:10BFB0000818286003F0C8FC002807D000200226DB
:10BFC000387202F067FF0AE06860F2E723486168B0
:10BFD0008030808F884202D9304609B0F0BD06F02B
:10BFE00089F906AB07CB02F059FC1D489838014689
:10BFF00020310EC90EC007F0C3F91C4D00280ED029
:10C0000006AF07CF012302F015FF15480121A03824
:10C01000017506F021FF2868401C286004E006AF87
:10C0200007CF002302F006FF06F00AF900280ED021
:10C030000C48A0388178002909D1C078032600284F
:10C0400002D06868401C6860012000F011F806AD5D
:10C0500007CDE36F07F034FBBEE70000C02B0020E4
:10C06000402D0020402F0020CA7C020030200020FC
:10C070000349002801D0034800E003488860704766
:10C0800030200020C0390600300B01003EB5AA2147
:10C0900068460170BB210171CC210172124C6A46C5
:10C0A000012100200AF02CF8012101AA08460AF01B
:10C0B00027F802AA012102200AF022F809F092FFD3
:10C0C000FDF7FEF90020207446206074E074FDF74F
:10C0D0008FFA606000202A212218401CC0B211771C
:10C0E0000828F9D33EBD0000182A00200C48C17E64
:10C0F000407E5A2901D25A2811D3884207D9421AC0
:10C10000D2B20A2A0BD35007400F081806E00A1AC9
:10C11000D2B2102A03D35007400F081AC0B270479A
:10C12000102A0020F8B52C4C2C4E207C0427F56BEF
:10C13000002811D0022811D0032815D004280CD1D2
:10C1400001F00AF9002808D020682D1A05F0D0FA6D
:10C15000022700281FD119E02774F8BD03202560AD
:10C16000207409F0BFFFF8BD00F06AFE207A0028B5
:10C17000F9D00020207220682D1A022D01D906F076
:10C180009FFA192DEFD909F02DFFE5E7134820306C
:10C190000078002802D0012DDED8F8BD10484B21D0
:10C1A000007CC900022803D0032801D0042801D153
:10C1B000F06E810A8D42F0D308486038007F002875
:10C1C000EBD0FDF715FA0549064A8039896B8918C5
:10C1D0008142C1D9F8BD0000182A0020B0240020F7
:10C1E000302B00208813000030B50446A1B0032096
:10C1F000402269468003FEF787F90D49FF22CB7D77
:10C200006D462046002B0ED0834200D8002044000B
:10C210002B5D64196478182B05D23C2C03D24B7526
:10C220008C7521B030BD4A758A750020F9E7000091
:10C23000502B0020F0B5A1B06E46FEF7EFFE0025B2
:10C24000204C002808D020481F4FC07A603F0028AB
:10C2500007D0387E042804D9A5742574657421B0EC
:10C26000F0BDE07D00281ED00320402269468003F7
:10C27000FEF74AF9B97E00208E46797EE37D8C4632
:10C280000FE031787278B61C18290CD23C2A0AD2F9
:10C290008C4502D1964510D301E08C450DD3401C4E
:10C2A000C0B28342EDD8A57425746574E07D002882
:10C2B000D5D00020FFF798FFD1E70120A0742174AA
:10C2C0006274F3E7502B002030250020F0B50327DF
:10C2D000A1B00446BF036E463846FEF700FA207848
:10C2E0000D4D4008E875202802D92020E87501E0AE
:10C2F000002802D00020FFF777FF4022611C304663
:10C30000FBF76EFF402231463846FEF763F9062000
:10C31000287621B0F0BD0000502B0020F8B5FDF7C5
:10C3200067F92C4C0546207E002801D000F088FDDE
:10C33000217E284E00270120203E0B0002F027F925
:10C340000705151B293914461400A17C00290BD0C0
:10C350002149237C4A7E9A4206D3897E627C91429F
:10C3600002D32076E7742775F8BD0120F562FEF749
:10C370004FFC02201BE0F06AC830A842F4D2002033
:10C38000FEF746FC03202076F562E07C401CE0745A
:10C39000F8BDF16AFF319131A942F9D2E17C03295C
:10C3A00005D304202076207D401C2075F8BD207622
:10C3B000F8BD0A4AF16A8918A942F9D2217D0229F9
:10C3C00001D30620F3E72076E774F8BDFFF732FFCC
:10C3D0002776F8BD502B0020D024002030750000B7
:10C3E00010B50C4607F0B2F8024801684C60012114
:10C3F000817210BD3C230020F8B5154C0E4607464F
:10C40000E088012189021546884202D30020C043FA
:10C41000F8BD07F09BF8216800200860216848609B
:10C420002168C87321688D8121684E8121688877D1
:10C4300021682020887321687F20C8770120A0729E
:10C44000206839464089FEF78DF90620205EF8BD48
:10C450003C23002010B50D4CE188814215D307F034
:10C4600075F820688089002801D0FDF7B1FB2068AD
:10C470004089FDF7ADFB2068C17F7F2905D13F21B1
:10C48000C1770120A07200F083F810BD3C2300208A
:10C4900010B50C4607F05AF806490968C87F7F288E
:10C4A00001D0002010BD20222046FBF799FE01207C
:10C4B00010BD00003C23002010B50C4607F046F8E4
:10C4C0000348214600684089FEF732F9012010BD7B
:10C4D0003C23002010B507F039F802480068C07B03
:10C4E00010BD00003C23002070B500200A4C01263E
:10C4F000E0800546B602284607F028F82068C07F8D
:10C50000FF2806D0E0886D1C401CADB2E080B5422B
:10C51000F1D3E08870BD00003C2300200148C088B2
:10C52000704700003C23002070B514460D4607F00C
:10C530000DF80448016889892980006840682060F6
:10C5400070BD00003C23002010B50C4606F0FEFF35
:10C55000024801680C810121817210BD3C2300203A
:10C5600010B50C4606F0F2FF024801680C6001218C
:10C57000817210BD3C23002010B50C4606F0E6FF8A
:10C5800002480168CC730121817210BD3C23002058
:10C5900010B5064CA07A002807D0208921468008D3
:10C5A0008039FEF761F80020A07210BD3C23002006
:10C5B00010B507490020FDF7F3FF05490846803014
:10C5C00001600021818001818172FFF78DFF10BD24
:10C5D000BC22002010B50649002008604860886031
:10C5E000C86003494039086048600AF0EBFE10BD9E
:10C5F0004011014010B5064A0121064807F060FECF
:10C60000002803D004A21D2107F019FE002010BD50
:10C6100089C801003C2000202E2E5C736F75726368
:10C62000655C5254432E630010B5024800F004F8D4
:10C63000002010BD8F0200007CB5054600201F4C75
:10C6400000900190606CA84203D1FCF7D1FFA06478
:10C650007CBDFCF7CDFF6564FCF7CAFFA0646846AB
:10C6600007F026FE01AAE16A009807F01BFE206C85
:10C670000199E26B4018A18D114E4904490C4118F3
:10C68000C80B1218C003081AE2632064306807F070
:10C69000D9FE00222946306807F092FE002803D018
:10C6A00008A25A2107F0CBFD206C203020640348FB
:10C6B0002C3007F0FDFDFCF79BFF7CBDB024002073
:10C6C0003C2000202E2E5C736F757263655C5254A3
:10C6D000432E63000A4B10B5084A5943926A074B30
:10C6E000521A203310215956E1239B00594309B2B5
:10C6F00052180146104600F047F810BDB024002043
:10C70000805101000A4B10B5084A5943926A074B01
:10C710005218203310215956E1239B00594309B286
:10C7200052180146104600F02FF810BDB02400202A
:10C730008051010030B509493C258A6A20318C7E40
:10C74000CB7E6C43E318497EE12424016143C91880
:10C75000034B58434018101A30BD0000B02400208D
:10C760008051010010B5074910228B6A20318A568A
:10C77000E12189004A439A180146104600F004F866
:10C7800010BD0000B0240020F8B50C4606462E4926
:10C79000FBF7FCFC05462C48E1216843371A2B487F
:10C7A00020800126A670E67009013846FBF7EEFCF2
:10C7B000C0B2E121607109014843381A3C21FBF7FE
:10C7C000E5FCA0713C213846FBF7E0FCE171072154
:10C7D000E81CFBF7DBFC2171FF2300216F335F1E98
:10C7E000228890071DD03846854206D3521C491C2A
:10C7F0002D1AC9B22280C829F2D32078800712D01E
:10C80000134900200A5CAA4208D8A278521CA270E0
:10C810000A5C401CAD1AC0B20C28F3D37019E0704A
:10C82000F8BD1846E0E70A4900200C390A5CAA4224
:10C83000F4D8A278521CA2700A5C401CAD1AC0B297
:10C840000C28F3D3EAE7000080510100B207000092
:10C85000BC7D020010B5FCF7CBFE0A497D22896C35
:10C8600012018918814208D206488038007A0028CF
:10C8700004D001200004FFF7DFFE10BD01204004BA
:10C88000F9E70000B0240020FEB501A807F010FD74
:10C89000344D6A46E96A019807F004FD00980126C4
:10C8A000C40BE0030090E96A2F4608180002000A52
:10C8B000E8622D4840370674B88A0019B882E0B2A1
:10C8C000FCF7F2FAE0B2FCF739FAFCF79DFA00281F
:10C8D00009D0FEF7A3FB002805D0FCF7DFFB0028FA
:10C8E00001D0FCF795FBE86B0019E863A86A001912
:10C8F000A862387E802801D200193876788BFF2113
:10C900002D31884201D20019788316483430FFF760
:10C9100029FF14482030817E827C914210D006711C
:10C920008174014660314A79002A09D0427ECB7970
:10C930009A4205D30B7A9A4202D28A79521E8A71A0
:10C94000C17D427C914204D086714174074A062120
:10C950001176C27C417E8A4203D00C2900D14671F7
:10C96000C174FEBDB0240020102A0020502B0020EE
:10C970007CB5002500950195FCF73AFE1A4E044659
:10C98000307F002802D0684600F078F81748006928
:10C99000000CC007C00F06D0FEF7CAFD317F00298A
:10C9A00002D005F0DDF87CBD04F0BCFC0E48E030A0
:10C9B00040780028F7D0FEF7C5FD4007F3D50A48B8
:10C9C0007D222038816FD200611A914209D2856799
:10C9D000FEF724FB0028E6D00021084601F0AAFA61
:10C9E0007CBD84677CBD0000502400200005005001
:10C9F00010B50A20FCF785F9FEF7DAFDFEF73CFEDC
:10CA00000249487400F04AF810BD0000502400208C
:10CA100010B588B0044604A804F0C8FA04A80FC8EA
:10CA200003936B4607C3230001F0B1FD0E261316D6
:10CA3000262626191C261F0D0810222669460420CA
:10CA4000085E08B010BD6846407BFAE76846807B08
:10CA5000F7E76846007AF4E76846407AF1E7684607
:10CA6000C07AEEE76846807AEBE76846007BE8E745
:10CA700069460620085EE4E70020E2E71CB502886C
:10CA800069460A8042884A80808888800199009897
:10CA900002F0E0F806F0AEFB1CBD000010B50C4C37
:10CAA000FCF7A6FD0121206021710020E08020819B
:10CAB0006081A0812061A07320756075A075E1750B
:10CAC000A076E076207661762077607710BD000052
:10CAD0003C2B0020F8B57A4C0026FCF789FD7949FB
:10CAE000896B471A022004F0F9FD0125002804D1C2
:10CAF000032004F0F3FD00280CD072482030007FA2
:10CB0000002807D07048874204D9182161561E2991
:10CB100000DDA57620790027022801D0032804D162
:10CB2000E17D02290DD003290BD0012802D1E07D3F
:10CB3000012806D067752079022806D0032804D082
:10CB400009E0607D401C6075F5E71522A256142AA5
:10CB500001DBA57506E0012804D1152161560A29DB
:10CB600000DBA7752179E17500F0F6FB002802D003
:10CB70002776657602E0207E401C2076A07D002886
:10CB800024D0207F4006000E2077617F012902D14A
:10CB9000284320776777207FC306DB0E8446002179
:10CBA00008462A4682401A4201D0491CC9B2401C9C
:10CBB000C0B20528F5D3032900D3A77560468007C6
:10CBC00004D018216156002900DDA775182161568F
:10CBD000052913DD012004F081FD00280DD1182165
:10CBE00061561E290ADD022004F078FD002804D1D8
:10CBF000032004F073FD002800D06776012004F0C4
:10CC00006DFD00280CD0E07E002805D0012801D061
:10CC1000022803D0032615E0052613E0012611E0C3
:10CC2000022004F05BFD002804D1032004F056FD2F
:10CC3000002807D0E07E00280DD0012801D002286E
:10CC40000BD00A26E07E002809D0012801D0022856
:10CC500007D05A2006E00C26F4E70826F2E7642005
:10CC600000E050200E2161561F2901DA491CA173F2
:10CC70000C22A25E82420ADB032004F02FFD002872
:10CC800004D1022004F02AFD002800D0A5760C2152
:10CC9000615EB14201DB012000E0002006F092FE5F
:10CCA000A7812775216900202A468240114202D1BE
:10CCB000227D521C2275401CC0B21028F4D3F8BD4E
:10CCC0003C2B00203024002040771B00024801212B
:10CCD00081764177704700003C2B002010B5084852
:10CCE000816801290AD107494968490706D5002109
:10CCF0008160084609F058FE0AF09AF810BD00005D
:10CD0000003100400033004010B50021014809F017
:10CD100091F810BD00400040FEB50020C043124D08
:10CD200002906869019068462E6908F07DFB07460D
:10CD300008F0D4FD0446002F08D002AA01990098FB
:10CD400008F092FB029808F013FE06E0029808F043
:10CD50000FFE002801D1002C02D0304607F00EFE55
:10CD600000206871FEBD00007420002004490122EB
:10CD70000878504008704968002900D0084770477B
:10CD80005C20002010B508484068002808D0804783
:10CD9000002804D0FF21054A2A3107F050FA10BDBF
:10CDA00008F000FD10BD0000BC200020789E0200AD
:10CDB0007CB50020009001A807F07AFA0F4C6A4673
:10CDC000E16A019807F06EFA206C00994618009607
:10CDD0007D21E06BC9004843FBF722FC05460C4669
:10CDE0003046FBF71DFC064A064BFBF777FB2A464D
:10CDF0002346FBF759FAFBF745FC7CBDB024002025
:10CE0000FCA9F1D24D62404008B50020064B042237
:10CE10000321009007F07AFA002803D003A24721EB
:10CE200007F00DFA08BD0000A43100202E2E5C731F
:10CE30006F757263655C737973636C6B2E6300004E
:10CE400010B50248FFF7F8FB10BD00008F0200008C
:10CE50000148002101707047412000200149002055
:10CE6000087070474120002010B5034A012111705D
:10CE700028DF03F0BBFD10BD4120002010B5034C9E
:10CE80000223237029DF03F0B1FD10BD41200020F3
:10CE900000B50023FCF76AFE00BD0000F0B591B0BC
:10CEA0002C4F002501266C46360304222146A81982
:10CEB000FDF72AFB2078FF2802D04035B542F4D395
:10CEC000B54203D33046FDF70AFC00254021204639
:10CED000FBF7ADF978680090201D01F035F91D4988
:10CEE0002046A4394A7E203002730A7E42738A7E2D
:10CEF00082730A7FC273CA7E02743A7B42744A7A92
:10CF00008274154AD27DC274144A527C82750A7C9E
:10CF10000276002A01D1012202760E4A1C32937F4A
:10CF20004376D27F82760E4A127CC2760A68120E4F
:10CF300002770A68120C42770A88120A8277097807
:10CF4000C17740222146A819FDF744FB012011B00A
:10CF5000F0BD0000D4240020502B002070270020BA
:10CF6000F029002010B5044CFCF752F8E08A0121AA
:10CF70000843E08210BD00008427002010B5FDF7B3
:10CF8000B6FBFCF73BFFFDF7B3FA02490020C86788
:10CF900010BD00003024002010B585B0044668465E
:10CFA00000F038F86846007C20706846407C60706D
:10CFB0006846807CA0706846C07CE07005B010BDFB
:10CFC00010B586B00446684600F024F80FA120464C
:10CFD00001F0B2FA6946C0B2097C2154401C69468E
:10CFE000C0B2497C2154401C6946C0B2897C21549E
:10CFF000401C6946C0B2C97C2154401CC0B200210B
:10D000002154401CC0B206B010BD00004342414E46
:10D01000442000003CB514490A6A0092496A019113
:10D020004821017049214170432181704221C17022
:10D030006A460021535C1B09092B01D9372400E003
:10D040003024E3184C0024182371535C1B071B0F7A
:10D05000092B01D9372500E03025EB18491C89B28E
:10D0600063710829E6D33CBD40000010054A014623
:10D07000537C0020002B03D08B4200D1012070474D
:10D080005174FBE73024002000B587B0FFF7CCFADD
:10D0900018216846FBF7CBF86846FFF7BBFFFDF7A2
:10D0A000AFFFFCF739FE002804D0FDF7B7FF0028DA
:10D0B0000CD00EE0FDF7B2FF002801D0002000E008
:10D0C0000120FDF714FBFCF799FE02E00120FDF7BB
:10D0D00019FBFDF70DFA00F04FFF02F075FBFEF7AC
:10D0E000C9FE01F095F9FBF7CFFE07B000BD0000C7
:10D0F00010B5074CFBF7D2FF002806D0FBF788FFDE
:10D10000E08A80210843E08210BD00F00DF810BDD8
:10D110008427002003494A7C824201D100204874C0
:10D12000704700003024002010B5FDF777FF00287D
:10D1300001D0FFF7B3FE35DF10BD000010B508F0D9
:10D1400081FB002805D00E490C484860C8130D49E2
:10D1500088610D48018CC9B201290ED1818C090763
:10D160000BD1018D0906090F042906D1808D000617
:10D17000000F02D105490120886010BDDFFF07C004
:10D1800000050040006C0040C00F00F000060040A9
:10D1900006490548C96B0160002101728180C18088
:10D1A000FF21373101827047282B0020B024002056
:10D1B000F0B5CBB0334CFCF71BFA0646207A0028BA
:10D1C00017D0314D012817D0012702281ED003287F
:10D1D0000DD100F0C1F8002809D0E86B2168451A8C
:10D1E00004F096FA002847D0022D00D927724BB0E0
:10D1F000F0BD03202072FAE7FDF79EFCE86B20608B
:10D2000002202072E660FDF785FCF0E7E0680F3051
:10D21000B042ECD2402008F00FFD1A4D383DA887EF
:10D22000042008F009FDE88703202072FDF77EFC4A
:10D23000FF22A7742D3215496846FAF7D1FFE0881E
:10D24000A2881349801A4843002101E0801A491C32
:10D250000028FBDC0F4A0020FF256B462C3591424D
:10D2600007DA1E5C401CB700F619921B00B2A842F8
:10D27000F5DBC8302082BAE74B20C0008542B5D824
:10D28000B5E70000282B0020B0240020309D0200CC
:10D29000A086010068F00100F8B51B4DFCF7A8F965
:10D2A00007461A4928684118B94205D22979002051
:10D2B000002900D02871687115480069C00AC007AC
:10D2C000C00F20D100F0B2FB0446FF281BD0A006FF
:10D2D000460F6007400F0090700701D5012100E064
:10D2E0000021284605F080FF60060CD5F00703D02A
:10D2F0002846009906F046F9B00704D53A46284674
:10D30000009903F033FBF8BD78270020DC0500000E
:10D3100000050050084800214279002A04D001711C
:10D3200041718171062070478279002A02D0817193
:10D33000C079704700207047782700200148407C62
:10D34000704700007027002010B500F027FB002078
:10D3500000F014F810BD000010B5FBF749FD0028DF
:10D3600001D0002010BD0148407C10BD7027002076
:10D370000148807B704700007027002010B503280B
:10D3800003D0002000F0F6FB10BD0220FAE70000F9
:10D3900070B504460D461646FCF72AF93246294672
:10D3A0002046FEF7D7FD04001CD0FEF7CDFD012876
:10D3B00019D0002816D0E10714D00E4C022815D041
:10D3C00003280FD1A06C401CA06403F0EFFEE16CB9
:10D3D0004018E064FCF70CF92067FFF777FC0120A8
:10D3E000FBF7BEFC70BD00F027F870BD606C401C00
:10D3F0006064EAE73024002070B5FDF70FFE0028D6
:10D4000016D00C4C00252079002802D004F04EFBE9
:10D410002571A079002802D004F0D2FAA5716079B4
:10D42000002805D003486571A0388566FFF736FBF4
:10D4300070BD0000D024002010B5FEF78DF8094C17
:10D4400001202077FCF7D4F821462039886300209A
:10D45000A07700F0AFFB002802D00320FFF78EFF7B
:10D4600010BD00005024002070B50546FCF7C0F840
:10D4700019490446002D08D1087F00282AD0887F4A
:10D48000401CC0B28877022824D300200877FFF719
:10D4900075FFFBF7ADFC002803D00021042000F04D
:10D4A00049FDFBF705FE002802D00020FBF7CCFD6C
:10D4B000FEF78EF8FEF71CFD074D0849203DA86BCE
:10D4C0004018A04202D20020FEF7D2FD04490120FC
:10D4D000AC63487270BD000050240020E09304004B
:10D4E000B02B0020F7B501462A48002692B014461A
:10D4F000002925D06846FFF7EDF802AF002540224D
:10D50000D00139462818FCF7FFFF3878FF2834D0BF
:10D5100002996A46029809049278090EC0B28A42BA
:10D5200026D16946C978814222D113980126042860
:10D5300025D006282CD0072826D0092821D125E07F
:10D540001399042906D006290FD0072906D00929E6
:10D5500007D108E041688068081801E0006905E02B
:10D56000106001260DE0806AFAE7C0680009F7E75D
:10D570000120000340358542C1D3002000E004981B
:10D580002060304615B0F0BD0698F9E70398F7E73C
:10D590000598F5E770240020F0B5044687B0002018
:10D5A000FFF7C8F869460491224900264018059003
:10D5B000E681268266826F4601252673102290023C
:10D5C00039463018FCF7A0FF3878FF2810D00098B3
:10D5D00010364000400800900599884224D90498EC
:10D5E000007B022806D003280CD0042810D019E0B4
:10D5F000103619E0E0893C30E081032D0FD0042D76
:10D600000DD00FE0208A3C302082042D07D004E0AA
:10D61000608A3C306082032D01D0022D02D1207B34
:10D62000401C20730498057B0120C0038642C5D3AB
:10D6300007B0F0BD4057FFFFF0B504468DB00020A5
:10D64000FFF778F800260C960896079600960B9040
:10D65000266066602681668102ADE6822F462675C9
:10D660001022900239463018FCF74EFF3878FF2818
:10D6700018D002980B99400040081036029088425A
:10D680002AD9287A697A4018216809182160EA7A2B
:10D6900061688918616000280BD02089A97A401838
:10D6A00020810AE00C98002801D101200C9010364E
:10D6B00012E06089A97A40186081A87B00280BD00D
:10D6C0000098401C0090697B079808180790042177
:10D6D000695E0898081808900120C0038642BFD3ED
:10D6E0000098002809D001460798FAF74FFD2075E9
:10D6F00000990898FAF74AFD01E000202075E082C1
:10D700000DB0F0BDF0B5044687B00020FFF712F869
:10D7100000250595049506906560A56025616E4617
:10D72000E560374625601022900239462818FCF73C
:10D73000EBFE3878FF281FD000980699400040087B
:10D7400010350090884222D9317A606840186060B4
:10D75000717AA0684018A060F17AE0684018E06033
:10D76000B17A206940182061307B02280CD0032850
:10D770000AD0042808D00AE00498002802D1012029
:10D7800005950490103502E020683C3020600120AF
:10D79000C0038542C7D3E0680001E0602069000152
:10D7A0002061059807B0F0BDF0B585B00020FEF708
:10D7B000C1FF69460491174900254A7E2C466E46F2
:10D7C0000C2A01D3144A01E0134A5242871810224E
:10D7D000900231462018FCF797FE3078FF280FD0D2
:10D7E00000981034400040080090B8420BD90498CB
:10D7F000007B022806D0032804D0042802D002E0CF
:10D80000103400E03C350120C0038442DFD32846B9
:10D8100005B0F0BDD0240020C0A8000038B50D46EA
:10D8200004460121284603F01FFB684603F002FD71
:10D830003D48806A3C38206068464088A08068780F
:10D840002072A87860722879A072E878E07228784F
:10D85000207368460078607368464078A073E88853
:10D86000E08000F04DFD0A21401DFAF78FFC000713
:10D870002D49000FE0732031097809010843E07356
:10D88000607A217A40183C2803D92748002180304B
:10D89000017168464078002830D0FBF7A9FE234983
:10D8A000496F401A2249884228D9607A962807D9B8
:10D8B00096382D2802D9400894301EE086301CE0AE
:10D8C000502805D950382D2800D940087D3014E063
:10D8D000217A4018782805D97838232800D94008BB
:10D8E0006F300AE0642801D9801C06E0502801D975
:10D8F000103002E03C2801D917306073E088012124
:10D90000C9030843E080607B282805D907496031B6
:10D91000CA7E904201D9C87638BD121AD2B21E2AE8
:10D92000F9D952088018F6E7B0240020B029002069
:10D9300060EA000010B5FEF7DBFA10BD10B50CA0D0
:10D94000FCF7B2FD012802D001F0E6FF10BD012175
:10D9500007A0FCF701FC04461C220B49FCF772FCF3
:10D960002046FCF7AFFB02A0FCF758FB10BD0000FF
:10D9700061637469766974795F696E69745F746FE5
:10D9800074616C2E736B640070240020704700007B
:10D99000014900200860704700250040F0B50020D4
:10D9A0002149A1B00446C20053185C60401C8C544D
:10D9B00000B25C700528F6DB00206946FF220A549D
:10D9C000401C00B28028FADB05F0EAFE852501261E
:10D9D000202719E06846047045708670032103F023
:10D9E00065FD68460770012103F060FD022168466D
:10D9F00003F03AFD68460078852803D168464078F0
:10DA0000112809D006F012FB684600788528E1D17C
:10DA1000684640781128DDD11321684603F024FDC3
:10DA200006F004FB21B0F0BD9C330020F0B589B0B6
:10DA300020216846FAF7FBFB6E4620210024317056
:10DA400025460121304603F031FD0A21304603F01E
:10DA50000BFD68460078812802D006F0E7FA03E063
:10DA600068464078062802D2FF2009B0F0BD3F4A40
:10DA7000107A1070507A5070107C1072507C507276
:10DA8000107E1074507E1746507420373878107608
:10DA9000787850766846C0783870684640797870F3
:10DAA000042003F00DFE002800D00424042003F01D
:10DAB0001FFD002802D12E4800210170042003F030
:10DAC00017FD002812D0032003F012FD002840D0DB
:10DAD000022003F00DFD00283BD000267978507E0F
