:020000040001F9
:10400000B83F0020554101006741010069410100AE
:1040100000000000000000000000000000000000A0
:104020000000000000000000000000006B410100E3
:1040300000000000000000006D4101006F41010020
:104040007141010071410100259A01007141010097
:104050007141010000000000279A0100119A01003F
:104060007141010071410100714101007141010084
:104070007141010071410100714101007141010074
:104080007141010039D3010071410100714101000A
:104090004FD30100F9CC0100FBE2010071410100A6
:1040A00071410100714101000000000000000000AA
:1040B0000000000000000000000000000000000000
:1040C000034885460AF010FB00480047E943010019
:1040D000B83F0020401E00BF00BF00BF00BF00BFB0
:1040E00000BF00BF00BF00BF00BF00BF00BFF1D1D5
:1040F00070470000401E00BF00BF00BF00BF00BFF0
:1041000000BF00BF00BF00BF00BF00BF00BFF1D1B4
:1041100070470000401E00BF00BF00BF00BF00BFCF
:1041200000BF00BF00BF00BF00BF00BF00BFF1D194
:1041300070470000401E00BF00BF00BF00BF00BFAF
:1041400000BF00BF00BF00BF00BF00BF00BFF1D174
:1041500070470000074802680F210A4302600648C2
:10416000804706480047FEE7FEE7FEE7FEE7FEE77A
:10417000FEE700002405004089410100C140010024
:10418000234922480860704710B500F01DF8002848
:1041900005D021491F484860C8132049886120483C
:1041A000018CC9B201290ED1818C09070BD1018D77
:1041B0000906090F042906D1808D0006000F02D1DF
:1041C00018490120886010BD1548018CC9B2012929
:1041D00017D1818C090714D1018D09060A0F03D16B
:1041E000828D1206120F0ED0090F012903D1828D84
:1041F0001206120F07D0032903D1808D0006000F8D
:1042000001D0002070470120704700000024F40016
:1042100000200020DFFF07C000050040006C0040C8
:10422000C00F00F000060040F8B500257E22E948E6
:1042300000950270112141708170C1700271457149
:104240008571C571E44F2E462C4628460146103133
:104250003954401CC0B28028F8D3DF48803006F0C3
:1042600005FADD4880300078EF2804D1DA48803044
:104270004078132800D00125009806F0FCFA802130
:10428000D54A080106F0C8FAD34A802180320801D5
:1042900006F076FAD04B00208033CF491A5C095CD7
:1042A0001F468A4201D0012503E0401CC0B280288D
:1042B000F3D3C94A08218032412006F0E9FDC549FF
:1042C00000200A5C3B5C9A4201D0012603E0401CBE
:1042D000C0B20828F5D32A4632430121BF48002A3C
:1042E00007D0002D09D0002E05D001D0C470047174
:1042F000F8BDC17006E0C170F9E7002DF8D1002EBD
:10430000F6D0C4700171F8BDF8B5B44E01207070DC
:1043100005F003FA00F004F9AF4D0027A035E86B73
:10432000C01D00901B2080012C1802F079FF07F0BF
:10433000A7F9A07E012804D0E96B00988142F4D14E
:10434000777005F00AFA00F0EBF8E86B451D02F013
:1043500067FF07F095F9E07E012805D09E48A03060
:10436000C06BA842F3D1777005F017FA00F0D8F8C7
:104370009948A030C56B6D1D02F052FF07F080F91F
:10438000207F012805D09448A030C06BA842F3D10B
:10439000777005F0AAF900F0C3F88F48A030C56B1C
:1043A0006D1D02F03DFF07F06BF9207E012805D05E
:1043B0008948A030C06BA842F3D1777005F07DF931
:1043C00000F0AEF88448A030C56B6D1D02F028FFE8
:1043D00007F056F9607E012805D07F48A030C06BF9
:1043E000A842F3D17770F8BD7B4808B57C49A0306E
:1043F00009F0FFFF7B48002505607B4805600560EC
:104400007A4805600560056079480560794805606F
:104410000560794805607948056000F065FA00F0AC
:104420003CFC02F089FE002030DF00F021F906F0AC
:10443000BEFCCC2005F02EFF05F0F2F800F079F874
:1044400000907D20C00009F02DFEFFF7EDFE00F08A
:1044500070F80746FFF758FF05F0E2F800F069F83A
:10446000064606F0A7FE5D4CE07101206072A07068
:104470000099012903D1012F01D1012E39D02572D4
:1044800005F06BFE607100F060F8E2780E201043DA
:10449000E27940001043627840001043A27A400065
:1044A0001043627A4D4D40001043203D6875A0785E
:1044B000227A400010436279400010432279400084
:1044C00010434449A2794000491E10430870A87562
:1044D00002F0A6FE687D00F0DCF8012009F0E2FDA4
:1044E000A87D00F0D6F805F00FFC287D012802D049
:1044F0000DE02072C4E70124414E6402B4609620AE
:1045000009F0D0FDF4607D20C00009F0CBFD3DDF57
:104510000028DDD0FF213BA2BE3100F0A7F8D7E78D
:104520002E4900202039087648768876C8760877A4
:10453000704710B5002405F0BEFF002804D0641CAD
:104540000120E4B2C82CF6D310BDF8B5002505F063
:104550006DF919260024760102F062FE304609F05A
:10456000A1FD641CE4B2042CF6D305F059F8002434
:1045700002F056FE304609F095FD641CE4B2022CB0
:10458000F6D305F06BF91448144EA030C46B002725
:10459000203E7777083402F043FE07F071F8707F11
:1045A000012811D00C48A030C06BA042F3D106F016
:1045B0000BFC0A4CA07105F069F9002D06D0012012
:1045C000A07205F030F8F8BD0125F0E7A77205F0FC
:1045D00044F8F8BD052000202C210020AC28002044
:1045E000EC0600000025004000350040004500407A
:1045F0000075004000F500400025014000350140F5
:10460000000500502E2E5C6D61696E2E6300000067
:104610003EB5FEA00068FEA1029003C90090019182
:10462000CC2009F0B5FDFC4D0024285D09F0B0FD5B
:10463000641CE4B2142CF8D3DD2009F0A9FD002499
:1046400002AD285D09F0A4FD641CE4B2022CF8D38D
:10465000EE2009F09DFD00246D46285D09F098FDCF
:10466000641CE4B2062CF8D33EBDD1E700F060F93B
:1046700010B5EA48FF2100224931C06808F026FF42
:10468000002801D000F054F910BD00F051F900F0FD
:104690004FF910B5010003D0DF48243807F04AF97C
:1046A00010BD01B594B000216846DD4B01700DCB03
:1046B0001090DA481293119241603C2101A809F050
:1046C00098FE02200190012168464172818114A860
:1046D0000490684603210590018410A809900021E8
:1046E00001A807F067FA002801D000F021F915B001
:1046F00000BDF0B589B01421684609F07AFE0020AB
:104700006946087001900872C44C039060680325E4
:1047100028261E27002806D0012806D002281ED0F1
:1047200003282FD123E00120606005A807F0B7FF20
:1047300000282BD16846007E002803D108A8007805
:10474000002807D002256846057205A803900420BA
:10475000FFF7A7FF684665600682478212E00520E2
:10476000FFF79FFF68460682478265600AE00520E2
:10477000FFF797FF1921C90168460182B4214182E0
:1047800004206060684673DF002801D000F0D0F894
:1047900009B0F0BD10B50868002802D1087900F012
:1047A0000BF910BD10B50868002805D19B4A0120FF
:1047B0001070087900F000F910BD10B5974809682D
:1047C0008068002907D001290BD108F0BAFE002823
:1047D00007D000F0ADF801210022890308F076FE31
:1047E000F5E710BD704700F0A3F810B5044607F0D8
:1047F00007FE204607F07CFB87482146483808F032
:104800009DFA85482146383808F0B6FB8248214693
:10481000243806F0B1FF804821460C3808F01CFB14
:10482000204600F02FF910BD10B509F09EF910BD1B
:1048300000F07EF87D20C00009F034FC00F078F82C
:1048400000F076F8744810B5143073DF002801D0FA
:1048500000F06EF810BD10B56F4988B000235022EB
:10486000A4390D2009F01CFD002835D16D4809F050
:1048700034FD002830D16C4809F037FD00282BD1D9
:1048800009F0DAF9002827D1684800240290019441
:104890006846857007F03BFF00281DD100F050F8F6
:1048A0000520FFF7FEFE00F08CF81C21684609F099
:1048B000A0FD0520C00301900290032100946846EA
:1048C0000173C4810121017459480690059468461A
:1048D00007F0B9FA002801D000F02AF800F0C1F87A
:1048E000FFF707FF08B010BD10B505F0AFF84A4854
:1048F00000F08FF905F068F8FFF7ADFF05F0BEF89E
:104900004C49FF20487106F01DF902F0E9FB05F063
:10491000D3FE05F02AF906F0FCFE4048464A012184
:104920000C3008F08CFD002801D000F001F810BD1B
:10493000BFF34F8F42494148C860BFF34F8FFEE736
:1049400000B587B04321684601716C21417169212E
:1049500081716E21C171672101725F2141722E49FF
:104960000A7C82724A7CC2728A7C0273C97C41735F
:10497000012001461031684601700A2201A97CDF3E
:10498000002815D10920800178DF002810D104907B
:104990001022694605900A8220224A8288821420C9
:1049A000C88204A87ADF002802D177DF002801D06E
:1049B000FFF7BEFF07B000BD002801D117490870FE
:1049C00070471CB50024684600940470601C010701
:1049D000090F68462031417084700F486946543889
:1049E00008F054FB002839D1164800900A4869465F
:1049F000483808F0B8F9002830D100F070F800F01D
:104A000090F806484470104800901FE056350000AA
:104A100041553037303300005C2900201020002041
:104A20007CEC0100EB4701002948010031480100FE
:104A3000E7470100CC2100206B4601000400FA0585
:104A400000ED00E095470100E54701004B4801906B
:104A500069464B4808F0ECF9002801D0FFF768FFE1
:104A60001CBD48491E2008808878E122400840008B
:104A70001040DF220C30104088700720C8701020D2
:104A80000871704710B53F49028810394B88192AC0
:104A900022D00ADC102A13D0112A16D0132A13D1DF
:104AA000384A002118467FDF06E0392A01D0552A0E
:104AB0000AD11321184676DF002805D0FFF738FF0A
:104AC00000224A608088488010BD0020C043488092
:104AD00007F005FD0028F1D1FFF70BFE10BD3EB534
:104AE00029480090254800240190029468460472E9
:104AF000601C0107090F684620314172601C0107E4
:104B0000090F6846203181721D4869462C3808F02B
:104B100059FA002801D0FFF70BFF1A48103804702B
:104B20003EBD00B585B01421684609F062FC174807
:104B30000090012168460171002102910173481C17
:104B40000107090F6846103141730120014668468C
:104B500010318173002001466846C173012001466F
:104B600068461031017406486946183806F0C6FEDA
:104B7000002801D0FFF7DCFE05B000BD8F46010024
:104B80005029002020200020A5470100BB4701003C
:104B9000F0B5044610460022994E0AE02578070A2F
:104BA0007D406D00755B00024540521CA8B292B278
:104BB000641C8A42F2D35840F0BD0023E8E73CB5BC
:104BC00090490A6A0092496A01914821017049217D
:104BD0004170432181705721C1706A460021535CA6
:104BE0001B09092B01D9372400E03024E3184C00BD
:104BF00024182371535C1B071B0F092B01D9372580
:104C000000E03025EB18491C89B263710829E6D30E
:104C10003CBD10B585B004466846FFF7D0FF684636
:104C20000078207068464078607068468078A07090
:104C30006846C078E070684600792071684640791F
:104C4000607168468079A0716846C079E0716846F5
:104C5000007A20726846407A60726846807AA07254
:104C60006846C07AE0726846007B20736846407BE5
:104C700060736846807BA0736846C07BE0736846BB
:104C8000007C20746846407C60746846807CA07418
:104C90006846C07CE07405B010BD00B587B018212F
:104CA000684609F0A6FB6846FFF789FF02F0A8FAFC
:104CB00007B000BD544A0146137E0020002B03D0EC
:104CC0008B4200D1012070471176FBE7F1B54E4DC4
:104CD00096B05C3502A8002604AC3746019005204A
:104CE000000304223018019905F0DCFE01980078D9
:104CF000FF2804D07F1CFFB24036102FEFD3102FB7
:104D000007D11698002833D00520000305F0C2FE15
:104D100000262868206068686060A868A060E8686D
:104D2000E0602869206138496869803160614869BC
:104D3000020E0198203082754A69120CC2758A8A67
:104D4000120A0276097D41762F490A68120E02770F
:104D50000A68120C42770A88120A82770978C177AA
:104D60000520000340223018019905F0A2FE012021
:104D700017B0F0BD10B5002302E00478E318401C22
:104D8000491EFAD2180E1070180C5070180A907044
:104D9000D37010BD10B51D4C03F06FFF20890121A9
:104DA0000843208110BD10B5184C03F066FF208920
:104DB00080210843208110BD10B5144C03F05DFF25
:104DC000208908210843208110BD10B50C4600F051
:104DD00077FA002C01D002F0ABF810BD0120FFF7EC
:104DE00075FFBFF34F8F0B490948C860BFF34F8F62
:104DF000FEE705490A7E824201D10020087670470D
:104E000088EC010040000010CC210020DC240020B0
:104E10000400FA0500ED00E041780078090208433B
:104E20007047C1780A02817811430A0241780078FC
:104E30001143090208437047F0B5FF4CA1B0A18CA3
:104E4000206A09F085FA0025264620803836FB4F77
:104E500017E06946284605F0EDFDF74880226946CF
:104E6000383009F09FFA00204100715AB94202D04F
:104E70002188491C2180401C80B24028F4D36D1C3D
:104E8000ADB26069A842E4D80025EB49A57038317D
:104E9000284605F0CFFDE570657121B0F0BDF8B58D
:104EA000E54AE64E9078134685011446D1781B8872
:104EB000383410E04F00E75BB7420BD1E0484E00BA
:104EC000A05368185B1C1380491CD170012180B26B
:104ED0005171F8BD491C4029ECD30F2149028B4286
:104EE00033D0D5494979002903D0D349383105F069
:104EF000AAFD0027D04C25E0A078884225D2401C8E
:104F0000CD49C0B24035A070ADB2383105F092FD48
:104F1000C948002138304A00825AB2420ED1C64AEE
:104F2000C7484B003832D05222886818521C228061
:104F3000491CE170012180B26171F8BD491C402912
:104F4000E9D37F1C6169B942D6D80020F8BD10B5FD
:104F5000B9484179002904D0B7498078383105F043
:104F600072FD10BD70B581098901411AB24D8004EE
:104F70002971040EA878A0420FD06979002903D0C6
:104F80002946383105F05FFDAB49AC702046383119
:104F900005F050FD0020E870687170BD704710B5D5
:104FA0000C46FFF7DFFFA44801790246490038327A
:104FB00054520121417110BD10B5FFF7D3FF9E4837
:104FC0009D49007940003831085A10BD9A480F2198
:104FD00000880904C001081A70479A487047F0B564
:104FE000A7B0954C02206D46A0608021284609F0AC
:104FF00000FA2946012005F047FD2946022005F068
:1050000043FD8020E08120820120A0840F20400207
:10501000608504263002A685208541100720800285
:10502000E08570206061204620300127269087713E
:10503000A66148102162E061F02280212846259275
:1050400009F0D7F90B2280A1284609F0ABF980209E
:105050006946C872002008734F738E73C8730F744B
:1050600048748E74C8741E220A75259A4A753F22A8
:105070000A764876FF228A76C87608774877887756
:10508000C877FFF7AAFF08A9C871020A0A72020CC2
:105090004A72000E8872A08A69468875000AC8752F
:1050A000802008A90871292088712846132269A147
:1050B0002B3009F077F92946002005F0E5FCE1895D
:1050C000284609F096F9552018A98877AA20C877AC
:1050D0002946032005F0D8FC00207F27249036E0E5
:1050E000FF228021284609F07DF901202F54801CE1
:1050F0008028FBD32599FF220846D243104328700D
:10510000080A120A10436870080C12121043A870A3
:10511000080EFF210843E8702946002005F093FCA3
:1051200001260EE0FF228021284609F05BF90120CC
:105130002F54801C8028FBD32946304605F083FC81
:10514000761C6069B042EDD82498401C24902698C3
:10515000817924988142C3D827B0F0BD10B5382199
:10516000354809F046F9FFF73AFF10BD32480021F3
:10517000816002210173704770B5C0B02E4C694642
:10518000002005F07BFC8020E0816D4620A90320F3
:1051900005F074FC3FA80230FFF73EFE32490026BE
:1051A00088426BD128463630FFF73BFE2F4900027C
:1051B000884263D102A80330FFF72EFEE1898842BE
:1051C0005CD105A80230FFF727FE60616846007CCD
:1051D00026210855012851D16846407BA08404A8A7
:1051E0000130FFF719FE208504A80330FFF714FEF5
:1051F000608503A80230FFF70FFEA0850120E1893A
:10520000000409F0A5F80546608DA84236D3A18CAC
:10521000401B09F09DF8E08502202562A060A08D6A
:10522000A061208D00282AD06808E061E08DE18926
:105230004000401E08181CE084290020FF7F000069
:10524000FF3F00006A5DDA40EBFE904D53444F5340
:10525000352E30004E4F204E414D45202020204617
:10526000415420202020200055AA0000004641542F
:1052700004E009F06DF86169884202D9002040B06D
:1052800070BD0020C0432063A6860120F7E7000020
:1052900010B504464078401CC0B2607001280ED1A1
:1052A00000206070A088FFF787FEF849884206D08A
:1052B0004910884203D04910884200D0A08010BD18
:1052C00010B51821F24809F094F8FFF7B5FD00F089
:1052D00014FB10BD70B5EE4A044641788088183240
:1052E00005F09CFB2078A1680918A160802811D3E3
:1052F000002626706078401CC0B26070012809D179
:105300006670FFF7CCFD050006D0A0882946FFF7A0
:1053100046FEA580012070BD6670002070BD10B5EE
:1053200004001FD0207C00281CD12078002802D047
:105330002046FFF7CFFF608A00F0D3FB0146608A6A
:1053400000F09CFBA18A608A00F08EFB608AA16855
:1053500000F080FBFFF7FBFD00F090FA0020A07545
:1053600000F0B4FA10BD10B5C948807D002805D002
:10537000C748FFF7D4FFC7490020087710BD70B5B4
:10538000A8B00646FFF7EFFF00F0E4FA050014D0DE
:10539000002410E0A0B220A900F0F9FA002809D0FA
:1053A000A0B2694600F0D9FA3146684609F033F8F0
:1053B000002805D0641CAC42ECD3002028B070BD9E
:1053C0000120FBE770B5A8B00646FFF7CCFF00F060
:1053D000C1FA0500F2D0002414E020A9204600F014
:1053E000D6FA00280CD06946204600F0B6FA3146BD
:1053F000684609F010F8002802D1204600F08EFA25
:10540000641CA4B2AC42E8D3D8E7F7B5A8B00E4606
:105410000024FFF7A8FF00F09DFA0746002542E0B0
:105420006946284600F0B3FA00283AD0289884420A
:1054300035D1019808AF010E2A98315401982A9C61
:10544000000C641C30550198641C000A3055641C23
:105450000198305568460089641C000A305568463A
:105460000089641C305539462846641C00F075FAE2
:10547000384608F0C9FF401C85B27F20001B80B26F
:10548000854200D90546002078553555641C3019F1
:105490002A46394608F086FF60192BB0F0BD641C1F
:1054A000A4B26D1CADB2BD42BAD32A98F5E7F1B5EE
:1054B0000026A8B03546FFF756FF00F04BFA074626
:1054C00000212898002F016001D0002415E0002061
:1054D00029B0F0BD20A9204600F059FA00280AD0D2
:1054E000761CB6B26946204600F037FA684608F0E6
:1054F0008BFF45190835641CA4B2BC42EAD3289836
:1055000005603046E4E7F0B5CDB00D4624A9019121
:1055100004A900910146802204A808F043FFFFF788
:1055200022FF5B4C00262574012D21D0FFF784FC5F
:10553000FFF7B5FC05004AD0FFF7B1FC69460881CA
:10554000020046D02946009800F04AFA411C42D099
:10555000711EA1822670608069460989A180E18060
:105560006670A66060820120A07549484DB0F0BD0C
:1055700000F0F0F907002AD0002510E0A8B244A9F5
:1055800000F005FA002809D0A8B2019900F0E5F969
:105590000099019808F03FFF002802D06D1CBD4221
:1055A000ECD3BD4213D2A8B2608203AA02A900F0D4
:1055B00044FA802020706670608A608068460089A6
:1055C000A080E0800398A060E060A675CDE7002091
:1055D000CCE7284604E02846FFF7E0FC684600894F
:1055E000FFF7DCFCF3E7F8B516460F46050007D0D9
:1055F000A868B04200D2C6B22878802802D004E061
:105600000020F8BD284600F004F9287820498219C6
:105610009831802A09D241183246384608F0C2FE35
:1056200028783446801928701FE08022121AD4B2DC
:1056300041182246384608F0B5FE381900901CE0A3
:10564000301BC7B2802F00D3802711493A469831CA
:10565000009808F0A7FEE019C4B20098C0190090A5
:10566000802F0AD02F70B442EAD3A868A04200D29B
:10567000C4B2001BA8602046F8BD284600F0C9F857
:10568000F1E7C1688068081A70470000FFFF00005A
:105690003C2A00204C28002070B50446C0680D4606
:1056A000A84201D2002070BD401BA060E088A0800D
:1056B00004E080B2FFF780FCA080803D802DF8D20E
:1056C000002128066170000E207008D0A088574A7B
:1056D00005F098F92046FFF7DBFD012070BD802022
:1056E0002070FAE78368C268D21A8A4201D9511A37
:1056F00000E00021D0E70028C6D080680028C3D091
:105700000120C1E7F8B516460F46050015D0AA8A54
:1057100031463846FFF751FAA88228784349821962
:105720008039802A0BD240183246394608F03AFEBA
:10573000287834468019287028E00020F8BD80229F
:10574000121AD4B240182246394608F02BFE3819F6
:105750000090802028702846FFF7BCFD002813D158
:1057600014E0301BC7B2802F00D380272F483A4661
:105770008038009908F016FEE019C4B20098C019EC
:105780000090802F04D02F70B442EAD32046F8BD99
:10579000802028702846FFF79DFD0028F4D1F5E70A
:1057A000F7B514000F460ED01046FFF7A4FF0028EF
:1057B0000AD0A0680025B84200D2C7B22078009E67
:1057C000802802D01AE00020FEBD204600F021F81B
:1057D00014E0217815486D1C405C30702078761CF0
:1057E000401CC0B2EDB22070802802D1204600F0EB
:1057F00010F821780D48405C0A2801D0BD42E8D35A
:1058000000203070A168A94200D9481BA060009810
:10581000FEBD10B5044641788088044A05F0F2F8D0
:105820002046FFF735FD0020207010BDD42A00204F
:1058300010B5042906D020290BD040290CD0CA1F4E
:10584000F93A03D005F017F8002010BD05F085F8EF
:10585000FAE705F036F8F7E705F059F8F4E71346EC
:1058600010B50A46194604F08BFF10BD134610B55B
:105870000A46194604F0D0FF10BD000010B5A84C30
:10588000A07A002807D0208921468008803905F0B9
:10589000ECF80020A07210BD70B5A14CA188814227
:1058A00013D08508A080AD00401B214640018039FF
:1058B00008182060FFF7E2FF2089A84205D02146A2
:1058C0002581A808803905F0C7F870BD70B50020A3
:1058D000934C0126E0800546B6022846FFF7DCFF20
:1058E0002068C07FFF2806D0E0886D1C401CADB248
:1058F000E080B542F1D3E08870BD894910B58039A8
:10590000002005F0A9F8864985488039016000210A
:10591000818001818172FFF7D9FF10BD10B5804CE5
:10592000E188814215D3FFF7B7FF206880890028FE
:1059300001D0FFF733FB20684089FFF72FFB206879
:10594000C17F7F2905D13F21C1770120A072FFF7D8
:1059500095FF10BD7248C088704710B50C46FFF720
:105960009BFF6F48224600680021408905F04AF8F5
:10597000012010BD70B50D46FFF78EFF684C202248
:105980002946206808F00EFD0120A07270BD10B5F8
:105990000C46FFF781FF62490968C87F7F2801D064
:1059A000002010BD2022204608F0FCFC012010BD84
:1059B00010B50C46FFF770FF5948224600680121D8
:1059C000408905F02BF810BD10B50C46FFF764FFB9
:1059D0005348224600680121408905F013F810BDA4
:1059E000F8B54F4C0E460746E0880121890215465E
:1059F000884202D30020C043F8BDFFF74DFF216865
:105A00000020086021683A4648602168C873216810
:105A10008D8121684E8121688877216820208873D4
:105A200021687F20C8770120A0722068002140896A
:105A300004F0F4FF0620205EF8BD70B514460D4654
:105A4000FFF72AFF36480168898929800068406885
:105A5000206070BD10B50C46FFF71EFF304801688E
:105A60004C600121817210BD10B50C46FFF714FF88
:105A70002B4801680C810121817210BD10B50C46C4
:105A8000FFF70AFF26480168CC730121817210BD1F
:105A900010B50C46FFF700FF214801688C73012107
:105AA000817210BD10B50C46FFF7F6FE1C48016868
:105AB0000C600121817210BD10B5FFF7EDFE184892
:105AC0000068406810BD10B5FFF7E6FE1448006896
:105AD000006810BD10B5FFF7DFFE11480068807B3D
:105AE00010BD10B5FFF7D8FE0D480068C07B10BD93
:105AF000F8B500243F270126094DB6022046FFF7DE
:105B0000CBFE2968C87FFF2808D07F2802D1CF7735
:105B10000120A872641CA4B2B442EFD3F8BD000007
:105B2000D42B0020F8B5FE4800900746807A08374D
:105B3000401CB8703846A430FFF7B9FCC3B23C46ED
:105B4000A0346370FF20F870E2203871B8783D46C9
:105B500078718035686A3E46C01D6862000CB87175
:105B6000A88C0221000AF871A88C38720020E86124
:105B70006073A86220701936012281559055032068
:105B800020738B5579703A700098002B0270A273C5
:105B900001D000203FE00020217B06E03B185B7E27
:105BA000AA6AD218401C80B2AA628142F6D8A86ABA
:105BB0004A1C000E22738855A86A020C207B411CE7
:105BC00021738255288D020A207B411C2173825546
:105BD000207B2A8D411C217382553846227B314619
:105BE000093008F0DFFB607B10306073E86910302B
:105BF000E8610099022008700120FFF7FAF8F8BD6B
:105C0000227B402A0BD2C0B23146FFF7FEFB207345
:105C10000098401C80B2009061788142F0D8C0B2F8
:105C2000207084460020217B06E03B185B7EAA6A38
:105C3000D218401C80B2AA628142F6D8627894459C
:105C400018D1A86A4A1C000E22738855A86A217BC5
:105C5000020C481C20738A55288D217B020A481C9F
:105C600020738A55207B2A8D411C21738255012087
:105C7000FFF7BFF8384610223146093008F092FB92
:105C8000E8691030E861607B10306073F8BDF0B5F2
:105C900091B0A34C0A940834FFF7CEF8FFF796F9B9
:105CA0000746FFF757FE01218902081A00B20028B3
:105CB00000DA0020A1783E23491CA17021468031E2
:105CC00009910A464B62FF21E170E2212171A1781E
:105CD00061710021A171E17123722546D161A03566
:105CE00026466973062219368A558D490123F439EF
:105CF000897D99558A490222F439497D915588490F
:105D00000323F439C97D995585490422F439C97CA6
:105D1000915583490523F439097D9955390E062299
:105D200091550723390C99550822390A91550923B1
:105D30009F550A22011291550C210B232973985566
:105D4000701803F0A1F8287B401CC0B2287380199A
:105D500003F09EF8287B7449401C28737148089012
:105D6000008F884205D16F48383003C801910090F8
:105D700004E020226946500204F094FE00206F46A1
:105D80003B5C2A7B401C511C2973C0B293550228EE
:105D9000F6D30898428F287B411C297382550898B6
:105DA000408F020A287B411C2973825504203B5CEA
:105DB0002A7B401C511C2973C0B293551028F6D37E
:105DC0000BA8FEF7FCFE00200BAF3B5C2A7B401CBF
:105DD000511C2973C0B293551428F6D3297B304641
:105DE0008A19FEF7C7FF287B4D49001DC0B22873F2
:105DF00080190422F43908F0D5FA287B001DC1B2BD
:105E000029738A193046FEF7B5FF287B0127001D4C
:105E100028730620607027700A98102207702046A9
:105E20003146093008F0BEFAAF7309980999C06984
:105E30001030C861687B1030687311B0F0BDFEB5DA
:105E40003749F4390C46FF31F434CD3101940091D7
:105E500001210834FFF757FB00990028886131D0F1
:105E6000C06825468035401C6862A0780022401C2E
:105E7000A070FF20E070E2202071A0786071686A55
:105E80002646000CA071A88CA036000AE071A88CF0
:105E90002072EA6172732746012003231937307399
:105EA000D3556370207001990870B073686A4028F8
:105EB0000CD90098791C80694022FFF794FB307B55
:105EC00040300EE00120FEF794FFFEBD401EC2B23E
:105ED0000098791C8069FFF786FB307BA98C4018FD
:105EE000401E3073204610223946093008F05AFA15
:105EF000E8691030E861707B103070730098806939
:105F0000FFF7F9FB002806D100988069FFF707FA30
:105F10000120FEF76EFF696AE8698842D5D305E083
:105F2000C02200208C240020A57F000001980221BF
:105F30000170FEBDF0B50178FE4CA1B00902E16030
:105F40004278051D51180902E16082785118090252
:105F5000E160C2785018E0602A786D1C22722946F0
:105F600001A808F01FFA002101A8FFF7CCFAF249B6
:105F7000A06100270091002824D001A9EFA008F01B
:105F80004AFA26468036002823D001A9EEA008F060
:105F900042FA002821D07777B777207A7A22411900
:105FA000151AE068A8421BD8C2B2A069FFF7AAFB85
:105FB000A069FFF7B4F9B17F707FFEF706FFE760D5
:105FC0007777B7770120FEF714FF0098077721B0A5
:105FD000F0BD0120B0777777DFE701207077DBE74E
:105FE000EAB2A069FFF78EFBE068401BE060EEE7D5
:105FF00070B5D04CA034254680356878002876D01E
:10600000267821464A7901208979330008F03DFC41
:1060100011820A0D632E44158282822B281C1F7068
:106020007E18820000F058FB74E00120FEF742FE6B
:10603000002871D0FFF776FD6CE0FFF728FE69E0DD
:10604000BC49EC39087465E000F075FB62E00120A2
:10605000FEF730FE00285FD00120FEF7CAFE59E0AF
:10606000B549087756E0FEF79EFE53E0A9686868D8
:1060700088424FD90120FEF71DFE00284CD06868E9
:10608000802803D8A01CFFF755FF02E0601C00F039
:106090007DFB6868A8603DE00120FEF70BFE00284C
:1060A0003AD0E41C2046FFF78DF92146ACA008F059
:1060B000B2F900280AD02146ACA008F0ACF90028BB
:1060C00007D000200021FEF780FEC5E70121002057
:1060D000F9E70120F6E70120FEF7ECFD00281BD0D0
:1060E0009449A2780A72E01CFFF7A9FE12E013E0BF
:1060F000A448A3780376E3781B02436124791B1933
:106100001B029A1812025118416103E002F087FE47
:1061100002F0B3FD0020687070BDF8B5994E803E66
:106120003546FF359D35687B3446297B0246FF3670
:106130001032FC34CD36914235D2002812D0081AE4
:1061400080B2287321466A7B19315218002804D185
:1061500008E013780B70491C521C0346401E80B2A5
:10616000002BF6D100206873607802281CD0032829
:1061700019D1B069FFF7BFFA002814D0287B193471
:1061800001194022B069FFF72EFA297B08182873FD
:10619000B069FFF7B0FA002805D1B069FFF7BFF882
:1061A0000120FEF726FEF8BD68782F78B842FAD9AC
:1061B000287B26461936009009E02A7B402A09D21E
:1061C000F8B23146FFF721F97F1C2873BFB2687817
:1061D000B842F2D8F8B228708446204680302A7B34
:1061E000009906E067187F7E836ADB19491C89B233
:1061F00083628A42F6D86B789C45D4D1816A0B0EB3
:106200001146521C2A738B55816A0B0C297B4A1C40
:106210002A738B55018D2A7B0B0A511C29739355C8
:10622000028D287B411C29738255B9E770B5554E04
:10623000803E3446FC34F43601F019F8524949786E
:10624000002902D0FFF7D4FE70BD00F009FA002843
:10625000FAD1384800211838827D0125002A04D05F
:106260008175162102F061FD70BD30780128FBD1E7
:1062700020780028F8D12046A030017B407B814265
:10628000F2D320468030416AC0698142ECD9FFF7E1
:1062900044FF00F0B0F9257070BD3A4910B580395F
:1062A0000846FC3082780223521C8270FF22A13201
:1062B0005350FF22C270E2220271827842710022A2
:1062C0008271C27103720824447282724470012484
:1062D0000470F4310B70A030827310BDF8B52949F9
:1062E000092274310091887A0D46401C8872FF2083
:1062F000C872E22008730835887A48730F468837D9
:10630000072000217862A971E97128722E46A03613
:10631000F9617173B9622C46317019340A55012044
:106320006A7028700099184B0870B0731433997A0A
:1063300001552BE0982300204C28002070726F66D6
:10634000696C652E747874004461696C794D696C70
:106350006573746F6E6542797465732E736B640038
:1063600070726F66696C652E747874004461696C34
:10637000794D696C6573746F6E6542797465732EBF
:10638000736B64004C220020B8240020DA7A0321C9
:10639000317302200255E01C0422194608F002F86D
:1063A00007203073284610222146093007F0FAFFF3
:1063B00010207073F861009902200870F8BDF8B5DC
:1063C000FC4F10213D46FC35A8782E46401CA87095
:1063D000FF20A130C151FF20E870E1202871A036D4
:1063E000012131732C460020193439460055601CB8
:1063F0000A221031F43707F0D5FF0B223273002048
:10640000687001202870022038702146681D07F04E
:10641000C9FF0020B073F8BD70B5E74CE548A57D15
:106420005C30002D27D1FF252570E12565700725FB
:10643000A570456880682818050CE570050A257167
:1064400060710020A071E07120724D2060723F20C9
:10645000A072180AE0722373080C6073080AA07314
:10646000E173100A20746274122162182046FEF74C
:1064700081FC0120A07570BDF8B50646CE4D32787E
:106480008020B835CB4C002A15D0002102420CD018
:1064900001272F70687014223146A81C07F082FF74
:1064A000707A607680356F70F8BD491C4008C9B2BB
:1064B0000829EBD3F8BDB278002AFBD000210242B4
:1064C00009D0217C81432174617C81436174A17C6A
:1064D0000143A174F8BD491C4008C9B20829EED394
:1064E000F8BDF8B555060446B34F6D0E1646401973
:1064F000B837103610221D3007F054FF38462146B9
:106500006268012380301D311035802A08D9B242DB
:1065100001D9802D10D34370A2783A70466007E00D
:10652000AA4209D8627F3A70082A06D043704560B3
:106530008022781C07F036FFF8BD9F48B8380178F4
:106540000229F9D100210170A0308173F8BD70B526
:10655000994C01781834090221804278974D8918A6
:106560008AB2002396492280AA420DD14B608B60EB
:106570008178C01CA170002903D0012903D1FFF745
:106580007BFFFFF71CFF70BD8C4D6D1CAA4218D11C
:106590004B608B60C1780902616002791143090286
:1065A00061604279114361608179A170811D00228F
:1065B0002046FFF796FFA0780828E4D0FFF76DFE8D
:1065C00070BD7E49891C8A4202D0491C8A42F7D19B
:1065D000C1780A0201791143427909020A43811DF7
:1065E0002046FFF77EFFE9E77348B83800780028B7
:1065F00000D001207047F8B56E4E10223446FC34AE
:10660000A078254660718035E8692746000CA071A6
:10661000A88BA037000AE071287F2072797B204682
:106620001930091820460930F43607F0BBFEE86936
:106630001030E861787B103078730120B873FF2048
:106640006A6AE969E070914207D3E4202071022070
:1066500030700120FEF7CDFBF8BDE3202071F8BDBE
:10666000F8B50646534805462F460446FC342178C3
:10667000FF37FF357D37F4309D35012902D00229DF
:106680000FD01DE01621E01C02F04FFBA87B002874
:1066900004D00220207000203E631AE00020207009
:1066A00018E0396BFF31F531B14213D2297D03294E
:1066B00008D90321017000202070A87328753E635B
:1066C0000020F8BD1621E01C02F02FFB3E63287D60
:1066D000401C28750120F8BD10B53948354C80386C
:1066E0004078217C01432174617C01436174C106BF
:1066F00006D4C10905D000F0BAFD31491431086152
:1067000010BD0B212B4A89015118498F0307527E76
:10671000C9B2002B06DA9142F2D1FEF74DFB002000
:10672000607610BD4307FCD4C007FAD09142F8D17F
:10673000FEF730FB10BDF8B51E4910270846FC30A7
:1067400082780546521C82708035FF226F62C270CB
:10675000E22202718278427100268671C671044677
:106760000772A0342673EE6166730C224270012218
:1067700002700222F4310A700146102219310930E8
:1067800007F010FEA673EF616773F8BDF8B50A4C09
:1067900000261834E2680B4F002A15D0802A18D939
:1067A000803AE260A369014680221846FEF7AAFFFC
:1067B000F8BD0000CC21002080230020E5FF000070
:1067C000B82400204C2800200120FEF712FB3E7761
:1067D000EEE7A3690146D2B21846FEF793FFA0691F
:1067E000FEF79DFD25468035A97F687FFEF7EDFA0F
:1067F000E6606E77AE77E7E770B5002316E0C45C1D
:106800002409092C01D9372500E030252C195D0019
:106810004C55C45C2407240F092C01D9372600E00D
:10682000302634196D185B1C6C70DBB29342E6D3D2
:1068300070BD70B5002354081DE05E00825D392AEA
:1068400001D8303A04E0462A01D8373A00E0573AF6
:106850001207150ECD5432185278392A01D8303A21
:1068600004E0462A01D8373A00E0573AD2B215433D
:10687000CD545B1CDBB29C42DFD870BD70B5FB4AC7
:10688000F948931F00219C1FA51F565C06705E5C93
:106890004670665C86706E5CC670491CC9B2001D8D
:1068A0000429F2D370BDF04978390A4678320020C5
:1068B0008867C8679060D0607047002208E0835CFA
:1068C000002B07D0612B01D3203B8354521CD2B242
:1068D0008A42F4D3704770B50D46064600F0C7FCF7
:1068E000002406E00A2107F033FD30313155641CE5
:1068F000E4B2AC42F6D370BDDE49DD48488770474C
:10690000F0B5DC4C85B0383400F0B1FC064602200E
:10691000FEF76FFAD44861690A3804906E3802466F
:106920000A32039216320292D34A05234030DB0129
:106930000090D318032001930002D04F15180B00CC
:1069400007F0A3FF100927516D7CB6C6F0EFEEEDFE
:10695000ECEBEAE9E8EBC848007C810606D50120AB
:10696000FE6060612020607405B0F0BD410604D572
:106970000520FE606061402009E0800706D5C04820
:10698000FE6038610D206061022000E00020687226
:10699000EAE701202872FF206E603870B248FE607E
:1069A0007838FEF70CF9B048B04964381839786186
:1069B00007F040FFAC490A2278390846643007F0F6
:1069C000F1FC06210498FFF786FFA7492C20143913
:1069D0008872FFF753FFA44AA348143A114602F005
:1069E000D9F9022006E1A04910225F3908464B3050
:1069F0007961FFF701FF9C480A221438039907F0D8
:106A0000D1FC06210498FFF766FF97492C20143922
:106A100088720A46944802F0BDF90320EAE0029920
:106A20002C204876904910223E3908462A30796158
:106A3000FFF7E2FE04206061002073E10220FEF710
:106A400039F9002828D0FFF72EFF00218DA0FEF78E
:106A50005AFD85495A2278390090FEF753FE009876
:106A6000FEF75DFC0220FEF7C4F900206061BE6005
:106A7000814938700B7CDF2213400B744B7C134030
:106A80004B74B880687A202882D10120A074801EBF
:106A9000A060FFF723FC67E7B888411CB9807D211F
:106AA000C9008842F7D90B2060610E20E0745BE7D3
:106AB0000120287270486E60007C4006EBD50620ED
:106AC00060610020B870FF217970B880FE604BE7EC
:106AD0000220FEF7EFF800284BD00025BD806EA005
:106AE000FEF74DFC012808D00B2060617D7003206B
:106AF000E0740220FEF77DF936E7012166A0FEF77B
:106B000002FD0546C068622828460CD0FEF707FC47
:106B1000042019E034E118E106E13EE1D6E06BE043
:106B200060E048E031E0504962227839FEF75BFDD1
:106B30002846FEF7F4FB029800782C2803D1009831
:106B400040782C2804D00520E0740B206061D0E749
:106B500045492022143908466438FFF76AFEFFF7DA
:106B60008DFE414A4048143A114602F02AF90720A6
:106B7000ECE7B8887D21401C80B2C900B88088420B
:106B800089D90B2060610F2090E73748783801469B
:106B900064312EC92EC00146202254311130FFF736
:106BA00048FEFFF76BFE304A2F48143A114602F0B8
:106BB00008F908201EE02C4910221439039807F028
:106BC000F1FB29492022143908462238FFF731FE0B
:106BD000FFF754FE244A2448143A114602F0F1F813
:106BE000092007E020487838014664312EC920305A
:106BF0002EC00A206061B7E61B4814217838FFF7E1
:106C00005CFE194E2C20783E307515252020315C15
:106C10002C2906D071556D1C401CC0B2EDB22D2838
:106C2000F5D3FD800098FDF7CAFF0F48142278388D
:106C3000009907F00BFC0004000C06D001991048E5
:106C4000C8670920E0740B20D4E7002001226D1EE4
:106C5000E9B2386132E0735C303B0B2B28D30A2158
:106C6000E1740B2161612BE0582C0020A0EE0100A3
:106C7000341200008C240020CC2100202820002089
:106C8000FFFFFF7F73656375726974795F64657672
:106C90006963652E747874007365637572697479BD
:106CA0005F736572766963652E7478740000000006
:106CB000534318180A235A43491EC9B21529CAD288
:106CC000386160690B2896D00D2093E700253D7050
:106CD0007D700220FDF7EEFF002804D1B8887D21E9
:106CE000C90088421DD90220FEF783F83C4A65613D
:106CF000107CDF23517C18401940BF2318401940F5
:106D0000FD2318401074194051743D707D70BD8092
:106D10000420A074401FA060FFF7E0FAFFF7C3FD56
:106D200022E6401CB8801FE6012028720E206E600B
:106D300060612B48BF23027C417C1A401940FD232F
:106D40001A400274194041740EE60F206061687A9F
:106D500040280ED0022811D00420A0740198C06FE2
:106D6000A060FFF7BBFA00F082FAF86000202872FA
:106D7000FAE50220A07400207870EFE70320ECE72A
:106D80000126B603304603F085FE08222146304630
:106D900003F08FFE0020E860E6E50B206061112023
:106DA00084E610B50F4C08222146D00203F07AFE8B
:106DB0000020E074A0740E20606121460A48383932
:106DC000488710BD0120704710B5064C0020C04315
:106DD00020800120800303F05DFE0020606110BD73
:106DE000CC210020C424002034120000F1B5A4B04E
:106DF0005F4C80216846249AFEF7D2FC002875D0AB
:106E00006A465CA1204607F015FD684607F0FCFACB
:106E100025462035287080216846249AFEF7C0FC5C
:106E2000002863D0684607F020FB80B20A2107F0F3
:106E30008FFA608480216846249AFEF7B1FC00280E
:106E400054D0684607F011FBA08480216846249A3C
:106E5000FEF7A6FC002849D0684607F006FB0A2189
:106E600007F08CFAA87180216846249AFEF798FCF6
:106E700000283BD0684607F0F8FA0004000C01D166
:106E80000120E87180216846249AFEF789FC0028D9
:106E90002CD0002028720746044606466846805DCE
:106EA000002825D02C2829D020A90855641CE4B23C
:106EB000761CF6B2802EF1D380216846249AFEF724
:106EC0006FFC002812D080216846249AFEF768FCE7
:106ED00000280BD080216846249AFEF761FC002828
:106EE00004D080216846249AFEF75AFC25B0F0BDF4
:106EF000002020A90855002FDED1D9E7002120A8C5
:106F00000155002F03D000247F1CFFB2D0E707F00B
:106F1000ACFA2872F8E710B5012117A0FEF7F3FAD2
:106F2000040004D0FFF762FF2046FEF7F8F910BD19
:106F300070B50F4C2A21403C20464030054607F0F2
:106F400058FA8020A0630FA1284607F073FC214661
:106F5000603108701E228A71962068840023CB71EC
:106F600024202267A8860B72FFF7D5FF70BD0000B2
:106F7000682200202573000070726F66696C652EB0
:106F800074787400436C696E67000000F8B50C46B5
:106F90000646914907F0DCF905468F48E121684330
:106FA000371A8E4820800126A670E67009013846FF
:106FB00007F0CEF9C0B2E121607109014843381AE7
:106FC0003C2107F0C5F9A0713C21384607F0C0F913
:106FD000E1710721E81C07F0BBF92171FF230021B3
:106FE0006F335F1E228890071DD03846854206D336
:106FF000521C491C2D1AC9B22280C829F2D320780C
:10700000800712D0764900200A5CAA4208D8A278EC
:10701000521CA2700A5C401CAD1AC0B20C28F3D3FB
:107020007019E070F8BD1846E0E76D4900200C3992
:107030000A5CAA42F4D8A278521CA2700A5C401CD6
:10704000AD1AC0B20C28F3D3EAE7664910228B6A66
:1070500020318A56E12189004A439A180146104698
:1070600094E71CB55F4CE06A002811D001A806F037
:10707000D1FA6A46E16A019806F0D1FA0098C00B8D
:10708000C1030091E26A51180902090AE16205E0B0
:1070900054482C3006F0BEFAE06AC00BE16B0918C8
:1070A000E163A16A0818A0624E483430FFF7CDFFB3
:1070B0004C4801212030827E837C9A4201D00171AC
:1070C0008274C27D437C9A4201D081714274C37C38
:1070D000427E934203D00C2A00D14171C2741CBD80
:1070E00010B5414A0121414806F0A9F9002803D012
:1070F0003FA21D21FDF7BAFA002010BD70B5394D31
:107100000446686CA04203D100F0B1F8A86470BDD9
:107110006C6400F0ACF8A864344D286806F011FAED
:1071200000222146286806F0D1F90028EFD030A2CD
:107130004121FDF79BFA70BD10B53048FFF7DEFF27
:1071400028490020C86210BD10B500F090F825490C
:1071500001224B6C1204934208D0896C7D231B01E1
:10716000C918814202D21046FFF7C8FF10BD1A4B62
:107170001C4A5943926A1B4B52182033102159560E
:10718000E1239B00594309B2521801461046FDE61F
:10719000114B144A5943926A124B521A2033102150
:1071A0005956E1239B00594309B252180146104633
:1071B000ECE630B50B493C258A6A20318C7ECB7ECB
:1071C0006C43E318497EE12424016143C918024B52
:1071D00058434018101A30BD80510100B20700001A
:1071E000B2EE0100CC21002063700100402000209D
:1071F0002E2E5C5254432E63000000008F020000CC
:1072000009480121C160CA05426082680A43826060
:10721000064801600020704700207047002070473A
:107220000449034808607047000501400000014020
:107230003546526E00060140002800DA4042704791
:1072400010B507F01FF907F0F5FC07F02FF910BD96
:1072500010B500231A4606E0C40701D05B1CDBB260
:107260004008521CD2B28A42F6D3184610BD10B55F
:1072700002F094FB10BD10B506F014FF10BD000025
:1072800070B50E460446C7211546C900FE4807F0F2
:10729000B0F8322C01D0012070BDFB48FB4984605E
:1072A000858064208882042E01D0022070BDF849B8
:1072B0000220087307208031F54A08710021C0328E
:1072C0001163F2490822C0394A6320310874EE483C
:1072D000F04980308166002070BD10B5C721C9001B
:1072E000E94807F086F810BDE7480168491C0160CD
:1072F0007047FFB584B00D9F0220385E069A05994D
:1073000042439446079A0E9B414350431C46002239
:1073100030335500EE190425755F0C265643009650
:10732000A659AE466E437118009E521C361900963F
:10733000766812B26E4365467519009EAC46B66813
:10734000754675432818042AE3DB0022029296460C
:1073500001925500EE190E25755F0C2656430396D3
:1073600000959E59521C7543039EAE44F618039631
:10737000009D766812B27543019EAD190195039E7A
:10738000009DB6687543029EAD190295042AE0DBA4
:107390003A783D7B7646521B11418E1B6146019F18
:1073A0001141C91B1041029A801A2E4129412841DE
:1073B00084468E46032000960C214143CA18154688
:1073C0000C3DE0CDE0C209190A460C3A64CA64C11A
:1073D000401E00B20028EFDC0C214843C51800997C
:1073E000724663460EC5031905AD07CD07C3049960
:1073F0000098724663460DC108B0F0BDF8B5A24CC6
:10740000A14D9434206800285CD060682060A96F8A
:10741000091AC9100818606060692061A06960617C
:10742000E069A0616068E06161692069401AFFF766
:1074300003FF0646A1692069401AFFF7FDFEB0422E
:1074400000DD0646E1692069401AFFF7F5FEB0420B
:1074500000DD0646A0688019A060207B401CC0B2F9
:107460002073202805D3A0684010A060207B40082E
:107470002073854F8748D43786422BDDA18D412963
:1074800024D9206A06F07AFF40422064A18D606A08
:1074900006F074FF40426064A18DA06A06F06EFFA2
:1074A0004242A2640023616C206C00F0C7FFFFF72A
:1074B000C7FEE06401207549387440392868042605
:1074C000886504E0A86F2060A86FA4E7002600F09C
:1074D000BEFF1DE0A08D401CA085206AE96E40180B
:1074E0002062606A296F40186062A06A696F401864
:1074F000A062A08D6849884201D9032608E0962839
:1075000001D9012604E0412801D9022600E0002625
:10751000387C002834D1A968A08F4900884224D241
:10752000206BE96E40182063606B296F4018606320
:10753000A06B696F4018A063A08F401C81B2A18727
:10754000206B06F01BFF40422064A18F606B06F0A9
:1075500015FF40426064A18FA06B06F00FFF404210
:10756000A0640120C002E0640AE02046403007C861
:10757000002300F063FFFFF763FEE064012038742E
:107580004248C038032E02D0012E05D00DE0416BD9
:1075900007290AD0072105E0416B012905D00729F9
:1075A00003D0012141630120F8BD0020F8BDF0B5F2
:1075B000354B1C46FF34253425460C3DE0CDE0C458
:1075C000183C07C4F833DC6A20181C6B61185C6B2C
:1075D000A218C40F201840105861C80F401840105E
:1075E0009861D00F80184010D8612748C16E59604B
:1075F000016F9960416FD960012119820068986319
:10760000F0BDF8B5204CF834E36B1818E063206C3B
:1076100040182064606C8018606420464030018906
:10762000491C89B20181FA290BD3E16B4910E1634E
:10763000216C49102164616C491061640189490819
:10764000018111490A68E16D491D8A4237D90689CD
:10765000E06B3146404206F091FE0546206C314613
:10766000404206F08BFE0746606C3146404206F011
:1076700085FEE26C0146A81AC0101018E064226D65
:10768000B81AC010101809E0682C0020283000201B
:1076900028310020CCCC0000701700002065626DFE
:1076A000881AC01010186065E16C226D494352437E
:1076B000891840430818A065E06D401DE065F8BDDD
:1076C000F7B582B005460E46FE4C607800281BD008
:1076D0002246F83A1068A16B401A2178002936D06A
:1076E000002121700D2837DA6068D16E4018606083
:1076F000A068116F4018A060E068516F4018E0600A
:10770000208A401C20823DE0012060706842606158
:107710007042A06104984042E06100200C212246A2
:107720004143143209198CCA20318CC1401C0228F3
:10773000F4DB04986D437643A91940430818A0650B
:107740002046143007C84C3407C405B0F0BD642887
:10775000CADD4C3407CC13E0208A009060680099A1
:1077600006F00CFE40420190A068009906F006FE6B
:107770004742E068009906F001FE4242394601980E
:10778000FFF715FF31462846049AFFF73AFFDCE77A
:10779000FFB50746CB48FB21F838044681B0890085
:1077A000C94EFF3440180A9A9134316C002A5FD0D8
:1077B000C4481D4688300079C00706D0F06B081A0F
:1077C000FFF73AFD3564F563F0621F20820011195E
:1077D0000A468032D36913622218203AD37F235499
:1077E000401ECA6900B20A620028EFDCB549204693
:1077F000F83980300A68012502622570002323626F
:10780000406A002809D06578022D06D1101A642834
:1078100003D909229201A01803731F2083001A19AB
:10782000FF328132136C401E53640028F6DC25467B
:10783000FF358135A54AE86A82186A64A34A524234
:10784000904201DD0A682A63A14A904201DD0A687C
:107850006A63A04A904201DD0868A863204600F0F0
:107860001CFE23463846039A029900F04CFE6CE752
:10787000994200DA3364F16B994200DDF3638030A2
:107880008168C9198160C26802995118C160026992
:1078900003995118016158E7F8B50F46998C1C46B9
:1078A0001646054600292DD0A06906F067FD286020
:1078B000A18CE06906F062FD6860A18C206A06F088
:1078C0005DFDA860E06FA061204680300168E16145
:1078D000406820620120A08407CE07C7616BA06AC0
:1078E0000C3E401840103060A16BE06A4018401018
:1078F0007060E16B206B40184010B06000F060FEDB
:107900002067F8BD002028606860DAE7FFB56D4F9A
:107910000646783F384608306A4C07C81D4681B095
:107920009834002300F08AFD08370ECF00F070FE77
:10793000002D11D080346449206AC031226C0028A7
:1079400005D0002A03D0801A4003000C03E05D48F4
:10795000F8380089400088805A48009578380368D4
:107960003046039A0299FFF713FFEEE6F8B5554C3F
:10797000F83C25466B6F296F9E4623468033186F6F
:10798000EA6E8446DF6E08465E6FD21971469A60D1
:10799000891919616044D860034660467A434343BD
:1079A000D01871434118204680304F42009006465F
:1079B00080360760306EFF34401C3066B26D6D3427
:1079C000511AB165802807DBC811F065FFF734FC58
:1079D000B765B06601203066F06D0099381A4860CE
:1079E000616821603C496060884210DB22688A42FD
:1079F0000DDCA068022802D0002806D023E0286809
:107A0000216988421FD9001D206101201AE03249F6
:107A10004942884217DC2068884214DBA1680220B2
:107A2000012902D000290DD00DE029682269914278
:107A300009D9A169491CA1612968091D2161A060BA
:107A40000120F8BDA0600020F8BDF3B51D4F1D4C0E
:107A5000F83FB888983481B0002804D01F480090BF
:107A6000407D002801D00020FEBD0920800125189E
:107A7000A87901214006000EA871AA88142A01D213
:107A80000843A8712046029900F059FE002865D1EC
:107A90009720800026180B48A988F8388068400095
:107AA00006F056FC401CC005000E3070042855D26C
:107AB00004482746FF37F83881378168BA6BCB0016
:107AC000D2180DE0602D0020782F0020333353FFB3
:107AD000333383003333330048E1FAFF8832002028
:107AE0000068824202D8A879002837D1029800287D
:107AF00001D0B06F00E0706F06F02AFC014620460E
:107B000000F0DEFD002829D12046029900F043FE56
:107B1000002823D1FB487D22417F4038406CD200B1
:107B2000904216D800221046CB0700D0521C4908BC
:107B3000401C0828F8D3F448796B83680068DB00A0
:107B4000C918814205D80098007D002801D0012A7B
:107B500004D8204600F0C7FD002885D00120FEBDD6
:107B6000F8B50C46C92189006618E64FFF21A531FA
:107B70003F1F0851002811D12546FF35A135A878AF
:107B8000002807D138463C38406D2021FFF760FBC4
:107B9000022801D9002000E070786872FF34FF34B9
:107BA00002342021606DFFF753FB0A2804D9B8691D
:107BB000002801D001203070F8BDF8B504469720A8
:107BC0008000201800210170CF481546806887008A
:107BD000A022125908468B001B1980331B6AD31A46
:107BE000BB4203D8635C002B00D0401C491C2029F9
:107BF000F1DB0100074602D00022104608E0022611
:107C000022E083001B19FF3381335B6C9A18401C00
:107C10008842F6DB104606F0B1FB09229201A1185A
:107C20008988142903D3002803DD192909D20326E2
:107C300008E0B64A8018002803DD162901D2032681
:107C400025E00226032E22D000213846FFF7FDFE54
:107C5000002800D005263146204600F0EBFD2246E4
:107C6000A900FF320B19A1321F2D19D01E468036F4
:107C7000716A002914D0366A711A0026967001269E
:107C8000022806D0042804D0032807D008E00121E8
:107C9000DBE70E2904D20020967001E00D29FAD30B
:107CA000072106465172C92021468000241802206F
:107CB00048551E6255703046FFF752FF3046022E7F
:107CC00003D0032E01D0042802D12089401C20813A
:107CD000F8BDF0B58B4E04466036707D87B0002845
:107CE0007ED12246FF32A132049200210922884F20
:107CF00092010846A51882001219FF320132126A59
:107D0000BA4201D200211DE0491CC9B20C2917D288
:107D100018E0225C012A11D102222254049A12781E
:107D2000072A04D92A8A521C2A82062203E06A8A78
:107D3000521C6A82002283001B191A62401CC0B2C6
:107D40002028E6D3401CC0B22028D4D36D48062199
:107D500020380590007FFFF77BFA032846D8307D56
:107D600000280DD06748007F052809D9FF20B530CD
:107D70000159654882680068D2008918814235D36C
:107D800060480A2140380090406DFFF761FA317D6C
:107D9000002905D0052803D30598007D002825D1AA
:107DA00000980A21806DFFF753FA317D002901D038
:107DB00005281BD200210A460846235C012B0DD161
:107DC00083001B19A026F658002E07D0FF3301337D
:107DD0001B6ABB4202D2491CC9B20246401C00E0E9
:107DE00023E0C0B20828E8D3042902D2012007B05A
:107DF000F0BD121DD0B216E0215C012911D1022183
:107E0000215404990978072904D9298A491C29820F
:107E1000062103E0698A491C698200218200121947
:107E20001162401CC0B22028E6D30020DFE7F8B57D
:107E3000384C00262546FF35A1356E720921AE70FB
:107E400089012E7267181020385E002804DD401E5C
:107E500038822146062007E01220385E002806DD21
:107E6000401E788221460020FFF77AFE32E0387B00
:107E7000002809D1204600F05AFD002822D1012017
:107E80003873788A00281DD12E7221461F200A5C83
:107E9000012A04D0401E40B20028F8DA12E000287F
:107EA00010DB092292018A18D68182001119164A24
:107EB0008031096A1268914202D3411C102901DB0A
:107EC000002801DA0020F8BD1249C2B22439204648
:107ED000FFF773FE0120F8BDFEB5002504460561DD
:107EE0000948227B876800923B469340A26800685D
:107EF00049009A180E19029082420DD9B08A401C8E
:107F0000B08244E028320020682C00209A99290091
:107F1000A0090100F82D002000993846491C88402E
:107F20000A2106F015FA009901903846C91C8840CC
:107F30000A2106F00DFA01460298A06000204200D6
:107F40001219928A5519019A954201D920600EE0C2
:107F5000401CC0B23228F2D30BE042001219928AC0
:107F600055198D4201D9606003E0401CC0B232282F
:107F7000F3D30020014642001219401CC0B2918286
:107F80003228F8D3B08A401CB08201202061207CC6
:107F9000FEBD10B582698A4201DA816103E042695F
:107FA0008A4200DD4161426800238A4210DD046894
:107FB000A2420DDD8468FF34F534A24202DD847BE9
:107FC000641C8473447B641C44730124047306E0C2
:107FD0008A4204DA0468A24201DA82600373FE4C2A
:107FE000247E002C00D00361037B002B036904D0A6
:107FF0005B1A03610260416010BD5B18F9E7FFB5D1
:1080000087B00A9CF4480A9DFC34E0382B4661682E
:108010008268FF338A180168213303931C3302936B
:108020001C33FF351D3501938A427DD8616003986A
:108030000799069000F0DAFC074602980899059027
:1080400000F0D4FC009009990198049000F0CEFC57
:1080500006462078400020706078400060706878A4
:1080600040006870A0694000A061E0694000E061E4
:10807000002F0ED0009800280BD0002E09D0874288
:1080800017DDB0420ADD3146780006F077F9A660C8
:108090000CE000202870A060E06040E0B74201469C
:1080A0001ADD780006F06AF90099A1600021E76006
:1080B00018E0B74205DD3146400006F05FF9A660E2
:1080C00006E0B042394607DD400006F057F9A760E8
:1080D0000099E160012105E0700006F04FF9A7600A
:1080E0000221E660E970C9B21C225143091924310A
:1080F0008B7B2B70497B2175082803D921780122BD
:10810000114321700A2803D9607801210843607067
:108110002878072803D36878012108436870207DF8
:108120000A280DD3FF2100E040E0E0682D318842AD
:1081300006D3AA49884203D8A06901210843A06157
:10814000207D032803D8E06901210843E061202154
:10815000A069FFF77DF80A990E468031E0361028B5
:1081600006D3012030759C48E0380068886702E03B
:10817000307D002811D09848896FE038984A00680F
:108180008918884201D9002030750621A069FFF7BF
:108190005FF8022801D200203075069800F022FC1A
:1081A000059800F01FFC049800F01CFC8A48007E33
:1081B000002811D0A8781C214000A870E878484316
:1081C0000019406BFFF738F886492061884203D2D6
:1081D000A87801210843A87007990398FFF7D9FEF2
:1081E00008990298FFF7D5FE09990198FFF7D1FE8B
:1081F0000BB0F0BDF8B57C4C1E462346069DFFF73C
:10820000FEFE28460727794D00280FD072482F70B0
:10821000E0380068A0600020014642001219401CAE
:1082200091823228F9D380342167F8BD7049481013
:10823000002E01DD301800E0801B06F09FF8064696
:10824000312800D931262046F1B27830FFF744FEBC
:10825000002814D0E16F0A2901D92F700FE0A26F16
:108260001E20002A02D02978083103E0002906D018
:108270002978091DC9B229701E2900D92870F1B2C8
:108280002046FFF729FE0028CFD02046002180306D
:108290000167216161684A1E042A02D20221016736
:1082A000F8BD23680122002B04D00F2902D92F70BA
:1082B0002261F8BD0267F8BD474810B54C38017B14
:1082C000806806F05BF8C013062800DD0620062152
:1082D000081AC0B210BDFFB5074646483E4C85B0EF
:1082E0000375E03C20684449401C206020460C3067
:1082F00001901E4600910025394602A8079B069A68
:10830000FEF7F7FF02AB07CB6C3407C4002300F085
:1083100095F86168002927D021686160401AC01073
:1083200008182060FFF76AF8002800D0022500F046
:1083300096F83846079A0699FFF7C2F926480C3096
:10834000034620330ECB0EC0FFF710FB00280DD0E4
:1083500001233846079A0699FFF7D8FA1E480121EB
:10836000017600F074F807E06060DAE70023384631
:10837000079A0699FFF7CAFAFFF759FD1B4C103C04
:10838000002802D0A07C002802D0002D02D006E0F8
:10839000032504E000F09CFA002800D006250E48D2
:1083A0000096603803683846079A0699FFF722FF5F
:1083B000A8070BD53146284600F01FFB0B48303884
:1083C000406B012802D1FFF777FF6076304600F05E
:1083D0004BFB284609B0F0BD482D0020DC0500000D
:1083E000C40900001027000028310020982F002029
:1083F000AE47010088320020ECEE0100FD494875CF
:108400007047FD4880887047FA48A038006B022802
:1084100006D0012806D1F848B038007C0A2801D3DC
:108420000120704700207047F348D038406B7047F8
:10843000F149D03948637047F048704718411941F5
:108440001A41404349434018524380187047EB4853
:108450009430002181850162416281627047F8B5E4
:10846000E6488030056E002D16D0E44F2946384688
:108470006C3051C8C00205F081FF0090E00229462F
:1084800005F07CFF0446F002294605F077FF01461F
:1084900000983C677967F866F8BDF0B5D64AD64BC8
:1084A000D03AD26BD64C0021F033A24218DCD54D25
:1084B000D54E002294002418FF348134646C67196F
:1084C000B74201D2002103E0491CC9B2052907D8EF
:1084D000002C04D004DC521CD2B2202AEAD37AE762
:1084E000FF300721A1300170C44800689860002067
:1084F00001464200D218401CC0B291823228F8D303
:108500008033196767E7F8B58446972080001C1808
:108510001D468E461F2081004919FF310131CB696C
:10852000401E0B620028F6DC803420462C3089C8BF
:10853000A66A21463C31A66389C1204618308BC803
:1085400028348BC4383CE768A36861692069E76117
:10855000A361616220626046A06070462261E060B3
:10856000981BFEF769FE0646E16BE069401AFEF7CC
:1085700063FE8619216C206A401AFEF75DFE8019A1
:10858000FF2121314851A14A00208100FF234919D0
:1085900021335B5893420BD3FF23C5335B58002B29
:1085A00006DC096A042903D0401C0A28EDDB01E03F
:1085B0000A2804DB09210020890169180873F8BD25
:1085C00070B58D4C1C34E16C206C226D401A616CCE
:1085D000636D891AA26CD21A0623FFF72FFF054696
:1085E0002046583007C80623FFF728FF06466434A4
:1085F00007CC0623FFF722FF3018C111002D05DD3F
:10860000002903DD284605F0B9FE70BD802070BD4D
:10861000FFB5794C06461C342146E0684F688B68EC
:108620000A69097D002581B0B04212DC002924D0FE
:10863000874222DB834220DB82421EDB2246214628
:1086400020462346643258313430FFF725F925752A
:1086500016E0012911D087420FDC83420DDC8242F3
:108660000BDC22462146204623464C32403128303E
:10867000FFF712F90120207502E0204600F01FFAF2
:1086800002AF07CF23467C33E0679A605960A06849
:108690006060E068A06020692661E060206F2328A8
:1086A00001DD656702E0606F401C6067206F202875
:1086B00002DDA56705B08EE6A06F401CA067F9E754
:1086C00097229200801802788A4200D201700178C5
:1086D000072902D90721017001E0042901D30120F3
:1086E00070470020704770B505464248414C007DF8
:1086F000643C002820D009208001281880790821B6
:10870000FEF7A6FD032816D33C48FF358135826865
:10871000696BD2000068891881420CD80A21E0698F
:10872000FEF796FD032806D32034A0780821FEF733
:108730008FFD072801D8002070BD012070BD70B5E5
:1087400006462E48324CF830002909D1FF21B531B8
:108750008A592A498B680968DB00D2188A4201D9F4
:10876000254602E02B4C2B4DCD3C806DFEF768FD7D
:108770000121C902884204D92749800040182946AE
:1087800002E0081A8000214605F0E2FD014630466D
:10879000FFF796FF70BDF0B58C46164E9721890005
:1087A000803E4518314620391A4C496C727F0423AB
:1087B0004234A1423CD8FF21B531104C0F58A1687A
:1087C0002468C9007918A14204D9327F6146002982
:1087D00000D1062300210C46D60701D0491CC9B29E
:1087E000641C5208E4B2082CF6D3994216D32970BF
:1087F0001CE000008832002038300020682C002067
:1088000033338300CDCCAC0085EB2100C0D4010014
:10881000330700009A05000000E0FFFF012907D997
:108820000921890140188079002801D00120D2E572
:108830000020D0E5F8B5AC4F0446787DA94E0D4632
:10884000002843D13046C030406D2021FEF700FDA6
:10885000397D002908D03146E031097D002903D057
:108860000A2801D30620F8BD02282FD99F4B4920A2
:10887000C00099680059090141182046FF301A6864
:10888000A130914202D9017807291FD0FF348134E9
:108890009449626A8031032A05D0096F022914D0F5
:1088A00001290FD012E00722027000220A6718681F
:1088B000B060104641008919401C80B28A8232287B
:1088C000F8D303E000780A2800D306252846F8BD2F
:1088D00070B587480921890100244118097B0346A6
:1088E000103B2246254600291ED1465C012E08D1A8
:1088F0008E0036188036366A002E02D00124521CB3
:10890000D2B2491CC9B22029EFD3002C0CD0197B5C
:1089100091420AD0FF211A73A5310D50FF30072173
:10892000A1304172012070BD1D73002070BD70B573
:108930000178012954D16D4909220B680021920167
:108940000C4682188D002D1880352D6A5B1B1E2960
:108950000AD9425C012A33D1890009188031096A99
:1089600000292DD0002070BD642B21D900231AE0EE
:10897000455C012D15D102254554FF25A1352D5CFF
:10898000072D07D9158A8E006D1C1582062536180D
:10899000356206E0558A6D1C55828D002D185B1CD2
:1089A0002C62491CC9B22029E2D3032B00D2548285
:1089B0008B001B188033491C1B6AC9B22029C1D304
:1089C0000021425C012A03D1491CC9B22029F8D3F5
:1089D000042905D3491EC9B2FFF77BF90028C2D08C
:1089E000012070BD00218173417370474369826922
:1089F0008161D21A416110467047F8B53C4E074676
:108A00003546FF358135686A00282CD02C46F8079A
:108A10008034002812D0606D012140006065A06D97
:108A20004000A0656A6A062A02D0032A04D005E045
:108A3000606D0843606501E00843A0652021A06DDA
:108A4000FEF706FC686A04280DD12021606DFEF750
:108A5000FFFB0A2807D9FF360020A1367072F807FD
:108A600001D006206862F8BD1E4930B50C391F4B95
:108A7000002802D10A78002A08D000224A70002873
:108A800001D0186848600A810A7030BD487806280D
:108A9000FBD218684A68831A164A0020C400155988
:108AA0009D4207D8A4180D89A488A54202D3401C72
:108AB0000728F3D3062800D90620487030BDC26FBE
:108AC00081698918816101468031C2690B68D218B9
:108AD000C261026A496851180162818C491C818413
:108AE000704700002831002088320020682C0020C8
:108AF000F82D002004EF0100F3B5002097B00546E3
:108B0000119001900C46401C0107090F6846103176
:108B1000017100200146684641718079F92738408B
:108B2000F721801C0840EF210840410849006846B1
:108B3000817104734573F04E1C2104A805F059FCA3
:108B4000012C10D0022C0ED0032C0CD0042C0AD0F7
:108B5000052C0CD0062C0AD0072C08D0082C06D0E7
:108B6000119819B0F0BD6946087C102102E06946F1
:108B7000087C0821084369460874E000841903A8AA
:108B80000590022168460183418301A8089007955A
:108B9000099501210A956846817217990181012082
:108BA0000146684610310095017001200146684673
:108BB000103141708078F7213840801C0840EF2147
:108BC0000840410849006846817014210CA8A41C83
:108BD00005F00FFC02A80C90684614210D90018747
:108BE0004587818712A81090B08823460CAA04A953
:108BF000A2DFB6E710B50120FCF7FBF8FCF7B3FBEA
:108C000010BD38B5BC4CFFF7F5FF20464A3061DF98
:108C10000121684681701F21C9430180221D6946D8
:108C20000120A0DF002827D10121B448FFF764FF0D
:108C3000B2480221401CFFF75FFFB0480321801CAF
:108C4000FFF75AFFAD480421C01CFFF755FFAB48A2
:108C50000521001DFFF750FFA8480621401DFFF722
:108C60004BFFA6480721801DFFF746FFA3480821B8
:108C7000C01DFFF741FF002038BD10B59E4C1321E9
:108C8000E08876DF002803D09DA2C921FBF7EEFC27
:108C90000220E06410BD10B5974CFBF7D3FD052012
:108CA000E06410BD10B502889349192A2DD00CDC60
:108CB000012A13D0102A16D0112A19D0132A03D151
:108CC000C888924A00217FDF10BD392A03D0502A7C
:108CD00018D0552AF8D1FFF7D0FF10BD4031887A5F
:108CE000401C887210BD8088C8800420C86410BDF4
:108CF0000020C043C8800120C86403F0F0FBFFF7E8
:108D000079FF10BD00F0CDF810BD80790028FBD1AF
:108D1000C86C0528F8D1FFF7BEFF10BD764840307B
:108D2000807A002800D00120704710B5724C0022D4
:108D300086B000280AD0162908D14178E1290DD043
:108D4000E22906D0E32906D0E42906D0002006B0A7
:108D500010BD012202E0022200E0032214216B4632
:108D600019820021D2000091019102911219039100
:108D700052891A8001229A70998004A9801C02915C
:108D80000390E0881946A6DF4034A07A401EA07206
:108D90000120DCE730B50C468DB0154601461022A7
:108DA000684605F0FFFA1022214604A805F0FAFAF9
:108DB00068464ADF1022284608A905F0F3FA0DB0EC
:108DC00030BD70B5FEB015460E46044600F0B9FB46
:108DD00000231A462146684600F019FA684600F05A
:108DE00088FA40232A463146684600F06AFB7EB086
:108DF00070BD4148C06C042801D00020704701209C
:108E000070473D48C06C052801D000207047012004
:108E100070473F48007F002800D0012070473D4840
:108E2000017C4906490E0174417C4906490E417492
:108E3000704770B5304CE06C030005F026FD050B63
:108E4000040B0B0C0B002089002801D000F068F8FF
:108E5000FFF721FF70BDFDF7B5FF0028FAD0FEF740
:108E600006FA05462A48007F0028F3D12948007CED
:108E70000006EFD57D212068C9004018A842E9D23C
:108E8000FDF7CAFA256070BD1F21017001207047EF
:108E90001CB50446684665DF68468088207001205E
:108EA0001CBD10B5C28B1449801D86B0142A36D162
:108EB000FF226B461A704B8D0288934201D1E52147
:108EC0000EE04B8E934201D1E62109E04B8F934295
:108ED00001D1E72104E04031498891421FD1E821C6
:108EE0006A465170002143185418491C9B7EC9B230
:108EF000A3701429F7D30FE0DC240020E1FF000069
:108F00002E2E5C62746C652E6300000044200020ED
:108F10004C280020CC2100201046FDF718FB16E756
:108F200010B5204C2089010602D58021884310E02D
:108F3000C10712D0FDF748FF00F029F80520000313
:108F400001F0A8FD7821184805F053FA208940085F
:108F500040002081FBF742FF10BD010704D500F05F
:108F600016F8208908210FE0C10606D51021884394
:108F700020810120FBF7AAFE10BD810601D520212A
:108F800002E04106F8D540218843208110BD10B58C
:108F9000002001F09EFDFCF7E1F800210846FBF7F8
:108FA00014FF10BDDC24002028220020FEB58248DA
:108FB00001680291002101608048016A0191806A84
:108FC000009000F029FE01207D4C8006A0608510F5
:108FD000A5600420FBF77EF82069400102D52069D6
:108FE000C0010CD400261127E5600420FBF772F8BD
:108FF000A5600420FBF76EF82069400101D5012629
:1090000001E07F1EF0D26D480199016200998162F2
:109010006949029808603046FEBD70B5664C00256F
:109020002560256000F0F2FD66488560C561182066
:10903000A0601A20E060CD20C0046062614A6149EE
:10904000E43A3831002044DF002804D0FF205EA13C
:109050001330FBF71AFB012043DF002804D0FF2068
:1090600059A11630FBF711FB05202060FFF79EFF8A
:1090700070BDFFB5002481B01F4616460546002A84
:1090800012D0FFF793FF00280ED04B4968088031BB
:109090008860E80702983A46314602D000F03BF873
:1090A00001E000F004F80446204605B0F0BDF0B53C
:1090B0004A4C9646002922D03F4A0378D361401C8F
:1090C000474E01258446B5603E4B0027D8690028ED
:1090D0000ED0002C0ED0DF61491E0906090E10D0FB
:1090E000604602783448C2616046401C8446EDE721
:1090F000641EEBD15F60756158680028FCD00020C9
:10910000F0BD7046002804D05F6075615868002883
:10911000FCD00120F0BDF8B5304E0C00074614D04D
:10912000012C14D02E4A27491C323831002044DF4C
:10913000012042DF234800258560294A0121116072
:1091400020488168002909D00AE00020F8BD244A9F
:109150001C4914323831002044DFE9E7761EEFD194
:109160008560002E0DD0144989693970641EE4B2FF
:109170007F1C012C10D0002C15D019490120086249
:10918000DEE710484560164A012151614168002917
:10919000FCD0012043DFD8E7114A0A4914323831A4
:1091A000002044DFE9E741680029FCD04560012048
:1091B00043DF0120F8BD000000450040400700509B
:1091C00000050050004100402E2E5C7477695F68F6
:1091D000775F6D61737465722E630000204E00002E
:1091E0000040004001064000002901DA1B214840F0
:1091F000C0B270470A6812BA02604A6812BA426086
:109200008A6812BA8260C96809BAC1607047FEB53F
:1092100005460C46E748FF2100901E46F5312846DA
:1092200005F0E7F8002E11D0012E61D10E20288024
:1092300021462846082610311430FFF7DBFF21466F
:10924000281DFFF7D7FF6E80374644E00A202880AC
:109250000426F4E7B80001902C583146384605F052
:109260008DF8002918D1D448E2B20068825C13025C
:109270002204120E825C12041A4323021B0EC35CEA
:109280001B061343220E805C009A184312781406C2
:1092900044400098401C0090082E13D1042911D19D
:1092A000C54822040068120EE1B2825C415C1202E1
:1092B0000A432102090E415C09041143220E805C1D
:1092C00004060C43B81B80004019416801986140B6
:1092D00040197F1C416028888000001DB842B9DC1D
:1092E0000020FF350146E135401C29711028FBDBC9
:1092F000FEBDF0B5054600881435800032E02C68CC
:10930000AE4BAF4E610031402246E609DF091A40FC
:109310003E40921BAB4EFF43324051400E464A0046
:109320001E403A40F709F61BA64F3E4072401746D2
:109330001F40A34B56001E40FB09FB1AA14F3B40A8
:109340005E400B4674405340734061401826F14123
:10935000594062401023DA414A400821CC41544030
:1093600010C5401E0428CADCF0BDF0B50E4695B00D
:109370000188079109010F18042014378100891909
:1093800080393F1FCA6F3B685A40CA67401EF5D1FB
:1093900090E00423481E1090D81C8007000F30581E
:1093A000010E85484068425C991C8907090F715875
:1093B0000902090E415C0491591C8907090F715A71
:1093C0000904090E455C9907090F715C445C10980B
:1093D000844551DA0499104648400390FFF702FF94
:1093E00004990690694008461191FFF7FBFE04902E
:1093F00028466040FFF7F6FE089020465040FFF7F1
:10940000F1FE1390049906984840FFF7EBFE0B908D
:10941000049908984840FFF7E5FE0B990A904840E8
:10942000FFF7E0FE864611980B9960404140704678
:10943000414006986A40414006910A9962404A407C
:1094400070464240049903984A4044400B99704644
:109450004C404440089806994440039845400A9877
:10946000454070464540139845400806110408439E
:1094700021020843284306E0049910060904084322
:109480002902084320439A000CA951188039C86763
:109490005B1E81D104200CA982005318803B3F1F22
:1094A000DB6F3C6892196340803AD367401EF3D16A
:1094B0006046401C07998446884200DA69E715B087
:1094C000F0BDF0B50E4601468DB0FF310746E531DF
:1094D000154668460C91FFF78DFE1C46103C2AD4B9
:1094E000314608A8FFF786FE08A80FC8079304AB0B
:1094F00007C304A93846FFF738FF00990498103CC9
:10950000484000BA2860019905981036484000BAD2
:10951000686002990698484000BAA86003990798C5
:10952000484000BAE86008A80FC803936B4607C319
:109530001035002CD4DA08A90C98FFF75BFE0DB0AB
:10954000F0BDF8B5FEF778FF1B4C00222060FF301D
:10955000013060600121FF3001309300FF26C150CF
:10956000CD091C364B0075436B405940521CFF2AF5
:10957000F3D96326256800232E70FF21C91A8900BC
:10958000415A0A020A43110957097940970979405B
:10959000D709794051409A00714082585B1CA95408
:1095A000FF2BEAD306CC00200B5CD054401CFF28D4
:1095B000FAD9F8BD3CEF01004C200020808080806B
:1095C000FEFEFEFE1B1B1B1BF8B5BC480121490219
:1095D000044604F00EFFBA48BA494618B94980312A
:1095E0004518B9494318B84980314018B749002295
:1095F0000F7837704F782F708F781F70CF78077083
:10960000521C92B2401C091D5B1C6D1C761C462A24
:10961000EED3204600F0E2FD012000F029FEF8BD67
:10962000D2E7D1E7D0E700B5FFB082B0802168462D
:1096300004F0DFFE802160A804F0DBFE012310228D
:10964000A3A120A801F060FC684600F0C7FD01203E
:1096500000F00EFE7FB002B000BD00B5FFB082B0DA
:109660008021684604F0C5FE802160A804F0C1FE98
:10967000012310229CA120A801F046FC684600F0BE
:10968000ADFD012000F0F4FDE4E700B5FFB082B0CD
:109690008021684604F0ADFE802160A804F0A9FE98
:1096A0000123102296A120A801F02EFC684600F0AC
:1096B00095FD012000F0DCFDCCE700B5FFB082B0E5
:1096C0008021684604F095FE802160A804F091FE98
:1096D0000123102290A120A801F016FC684600F09A
:1096E0007DFD012000F0C4FDB4E700B5FFB082B0FD
:1096F0008021684604F07DFE802160A804F079FE98
:109700000123102289A120A801F0FEFB684600F089
:1097100065FD012000F0ACFD9CE700B5FFB082B014
:109720008021684604F065FEFF22202120A804F075
:1097300059FEFF22202140A804F054FE602128A8F1
:1097400004F057FEE02148A804F053FE684600F0FC
:1097500045FD012000F08CFD7CE700B5FFB082B034
:10976000B021684604F045FEFF2220212CA804F019
:1097700039FEFF2220214CA804F034FE602134A8D9
:1097800004F037FEB02154A804F033FE684600F020
:1097900025FD012000F06CFD5CE700B5FFB082B054
:1097A000E021684604F025FEFF22202138A804F0BD
:1097B00019FEFF22202158A804F014FE602140A8C1
:1097C00004F017FE802160A804F013FE684600F044
:1097D00005FD012000F04CFD3CE700B5FFB08CB06A
:1097E000802101A804F005FE802161A804F001FE9B
:1097F00053A187A805F01EF8524853A100780090A5
:1098000050482038C37F827F81A805F013F80123D8
:10981000102281A921A801F077FB01A800F0DEFC4D
:10982000012000F025FD7FB00CB000BD00B5FFB0F9
:1098300082B08021684604F0DCFD802160A804F03D
:10984000D8FD0123102245A120A801F05DFB684648
:1098500000F0C4FC012000F00BFDFBE600B5FFB0FA
:1098600082B08021684604F0C4FD802160A804F025
:10987000C0FD012310223FA120A801F045FB68464E
:1098800000F0ACFC012000F0F3FCE3E600B5FFB013
:1098900082B08021684604F0ACFD802160A804F00D
:1098A000A8FD0123102238A120A801F02DFB684655
:1098B00000F094FC012000F0DBFCCBE650250020FA
:1098C000CC210020A1030000A104000002FD010042
:1098D0002020E79AAEE882A4E6B58BE8AF953A4F30
:1098E0004B202020000000002020E79AAEE882A450
:1098F000E6B58BE8AF953A6661696C200000000020
:109900002020E6B8A9E5BAA6E6B58BE8AF95666172
:10991000696C2020000000002D2D2D2D2D2D2D2DCA
:109920003E3E3E3E3E3E3E3E000000003C3C3C3C57
:109930003C3C3C3C2D2D2D2D2D2D2D2D00000000CF
:109940000D0A0000AC280020505047E6B58BE8AF68
:10995000953A25642E25642E25642000E79AAEE80A
:1099600082A4E6A380E6B58B357320E5BC80E5A72D
:109970008B20000020202020E8AFB7E8A7A6E691C2
:10998000B82038732020200020202020E8AFB7E640
:109990009DBEE5BC80203873202020001CB500202F
:1099A000009001A803F036FE134C6A46E16A019864
:1099B00003F035FE00987D2240090090E16BD20053
:1099C000514308181CBD704708B500200B4B0722F7
:1099D0000521009003F0E1FC002803D008A24221F9
:1099E000FAF744FE08BD002070477047704710B575
:1099F0000648FDF783FB10BDCC210020A0320020DB
:109A00002E2E5C737973636C6B2E63008F020000E3
:109A10000A4802680021002A03D001220160084898
:109A20004260704770470748C16B002904D000218D
:109A3000C1630549012008707047000000710040B3
:109A400000700040406100405420002038B50024E0
:109A50001E230E2208210D20009404F0AEFB0548C1
:109A6000446038BD10B504F09CFB10BD02490020D5
:109A700008607047002300400025004070B50322B5
:109A80001146152000F067F90121142000F053F968
:109A9000B5480224046000221146052000F05BF95D
:109AA000B14D68352C602C600021092000F043F98D
:109AB000AD485C300460AC4854300460AA48303093
:109AC00004600121084600F036F90022022110202E
:109AD00000F041F901211D2000F02DF9032211466B
