:020000040001F9
:10800000003E0020558101006F8101007181010057
:108010000000000000000000000000000000000060
:10802000000000000000000000000000738101005B
:108030000000000000000000758101007781010050
:10804000798101007981010035DC0100DDCE01007C
:1080500009CF01000000000049AB01008D8901003B
:108060007981010079810100798101007981010024
:108070007981010079810100798101007981010014
:1080800079810100D5C70100798101007981010062
:1080900019CF01006DCF010085CF0100798101006A
:1080A00079810100798101000000000000000000DA
:1080B00000000000000000000000000000000000C0
:1080C0000348854600F024FC00480047A15F0200F9
:1080D000003E0020401E00BF00BF00BF00BF00BF29
:1080E00000BF00BF00BF00BF00BF00BF00BFF1D195
:1080F00070470000401E00BF00BF00BF00BF00BFB0
:1081000000BF00BF00BF00BF00BF00BF00BFF1D174
:1081100070470000401E00BF00BF00BF00BF00BF8F
:1081200000BF00BF00BF00BF00BF00BF00BFF1D154
:1081300070470000401E00BF00BF00BF00BF00BF6F
:1081400000BF00BF00BF00BF00BF00BF00BFF1D134
:10815000704700000321094802680A43026008488A
:1081600002680A4302600748804707480047FEE765
:10817000FEE7FEE7FEE7FEE7FEE70000240500401D
:10818000540500403DD30100C180010030B50B46CD
:10819000014600202022012409E00D46D5409D42E1
:1081A00005D31D469540491B254695404019154667
:1081B000521E002DF1DC30BD70B50024254600288C
:1081C00001DA01244042002901DA01254942FFF782
:1081D000DDFFAC4200D04042002C00D0494270BDCF
:1081E00010B5431A934209D28318881803E0401E41
:1081F00001785B1E1970521EF9D210BD03460B4365
:108200009B0703D009E008C9121F08C0042AFAD24C
:1082100003E00B780370401C491C521EF9D210BDBC
:10822000D2B201E00270401C491EFBD2704700220E
:10823000F6E710B513460A4604461946FFF7F0FF65
:10824000204610BD421C0178401C0029FBD1801A39
:10825000704710B5002200E0521C835C8C5CA34286
:1082600001D1002BF8D1D8B2E1B2401A10BD30B51F
:1082700004460020034600E05B1C934203D2E05C0E
:10828000CD5C401BF8D030BD30B50546002003461C
:1082900000E05B1C934205D2EC5CC85C201A01D163
:1082A000002CF6D130BD0000F0B507460846584016
:1082B00087B0C00F049048000E4659004008490896
:1082C000BC1A884105D2384631461E4617460B4631
:1082D00002465800400810434CD0300D0390400532
:1082E0005900400D490D0590401A0290402872DA5D
:1082F00018030121000B090508430190049800921E
:10830000002805D001995242002088410092019036
:10831000029840210A1A0199009800F015FA0546C2
:108320000C466B4607CB00F030FAC0197141039A36
:108330000E0D0023D71756401A467A40164344D0F4
:10834000049A002A2DD0029A012A039A15DC1205FC
:10835000C01A914101263605001C7141D20F059EBD
:10836000D2070093019202962A46234600F02DFA86
:1083700007B0F0BD38463146FAE71605224A0F46E7
:10838000B218C01AB74101210905001C4F4100185D
:108390007F41114618187941E20F10436D1964416D
:1083A00013E0E2076D0815436408C2071443039AFB
:1083B00001261205C01A91413605001C7141CE07F5
:1083C000400830434908C01851412A46234600F06E
:1083D000EFF9CDE7FFE7049801224000C117121A18
:1083E00000238B4104983146C417381AA141EEE7A7
:1083F00030B40124E407634030BC55E730B40124B5
:10840000E407614030BC4FE70000E0FFF0B51FB467
:1084100088B00B990998002448400999C00F490079
:1084200049080991C0070B990090490049080B9130
:1084300009990898A64608431CD00B990A98084346
:1084400018D0099801244000420D4800410D0998B8
:1084500024050003000B204309900B980003000B38
:1084600020430B9050181C494018002201901446DC
:10847000104605E0002001460DB0F0BD032801DAEA
:10848000034600E003239C46C11A0AAE0AE05F00DF
:1084900008ADED5B4F00F75B7D430027AA187C41D8
:1084A000491C5B1E6145F2DD410004AB5A522104B8
:1084B000120C0A43240C401C0828DFDB01980290B0
:1084C0000099704601910090059B049A07990698BF
:1084D00000F07BF9D0E700000DFCFFFFF0B50C4683
:1084E0005C4085B0E40FE40703944C000026640868
:1084F00059009446490802460296224321D062461A
:108500000A431ED06200570D4A000E032303550D87
:10851000012402462C492405781B1B0B360B4018FE
:1085200023432643614600901C46501AB44103D3AE
:108530000098401C009002E0921800985B410028CF
:1085400003DA0020014605B0F0BD00200121090535
:108550000746864611E064461D46141BB54106D306
:108560006546521BB341744607430C43A646CD07EC
:1085700040084908284392185B4105460D43EAD15B
:108580001046184313D060461946504071400843C6
:1085900006D06046101AB34106D20122002306E03D
:1085A00000220123DB0702E00122D243531000988E
:1085B00074460105381C6141029C039D0019694104
:1085C00000F0F6F8BFE70000FD03000070B54B00B7
:1085D0005B0803430BD04B005C0D0026334665421D
:1085E000B341D417AD1AA34102DB0020014670BD90
:1085F00012053018514170BD0EB5C217C10F504061
:10860000CA0740180021054B0293019200910A46C7
:108610000B4600F0DAF803B000BD000033040000A0
:108620000EB505490291002100910A460B460191C1
:1086300000F0CBF803B000BD3304000070B5CD0FDF
:108640004A0009030123090B1B0519430B4BED07D6
:108650000024520D9A4201DA002070BD074B3433DA
:108660009A4203DC9A1A00F07FF802E0044951189C
:1086700088402C43F1D0404270BD0000FF03000051
:10868000CDFBFFFF4A0009030123090B1B0519431A
:10869000094B10B5520D9A4201DA002010BD064B6D
:1086A00034339A4203DC9A1A00F05EF810BD034995
:1086B0005118884010BD0000FF030000CDFBFFFFF4
:1086C00010B5002904DB0124E40740428C41214617
:1086D000002B04DB1C460123DB075242A3418B42E3
:1086E00000D1824210BD0000F0B51FB40646002044
:1086F00082B005464024019100901BE0019922467A
:108700000F46304600F030F8049A059B801A9941D4
:1087100010D310461946224600F016F8361A8F413B
:108720000197224601200021009F00F00DF8381823
:108730004D4100902046641E0028DFDC019B00981C
:108740002946324607B0F0BD10B5202A04DB0146A9
:10875000203A9140002010BD914020239C1A0346EE
:10876000E3401943904010BD10B5202A04DB0846B1
:10877000203AD040002110BD0B46D340D0402024E9
:10878000A21A91400843194610BD10B5202A06DBF5
:10879000CB170846203A1041C1170B4306E00B46A1
:1087A0001341D0402024A21A91400843194610BD1D
:1087B00010B5002B08DA0024401C614192185B417F
:1087C0001A4301D14008400010BDF0B51FB482B07B
:1087D00005460C0003D0084606F02AF802E006F031
:1087E00027F820300246009021462846FFF7ACFFCC
:1087F000049B059A04460F4618431143084314D0BE
:10880000184610431BD0009840210A1A18460599B3
:10881000FFF7AAFF05460E46009A05990498FFF750
:1088200093FF084305D0012004E02046394607B0F5
:10883000F0BD0020C11705430E432C433743009978
:108840000E986305401A7905E40A00220C43FD0ADC
:108850000A3002D500200146E9E7010510196941F7
:108860000C9C0D9D00196941FFF7A2FFDFE7FEB5E3
:1088700000231A461B1A8A4103DB0020014603B07D
:10888000F0BD4A000D0301212D0B0905520D0D43CA
:10889000D10702D100186D41521E5110FF31FF3136
:1088A0000131002704463E463846009701910246B2
:1088B000012100200905FFF757FFC3197141F8187E
:1088C000324684468E464A4161462846611A9041A6
:1088D00004D36046241A954176461F462419009811
:1088E0006D41401C00903428E1DDF919304670419B
:1088F000091BA84103D20022D243134601E0002203
:10890000134601980105381C7141FFF751FFB6E786
:10891000064C0125064E05E0E36807CC2B430C3CD2
:1089200098471034B442F7D3FFF7CEFBF4D30200DC
:1089300014D4020070B58C180578401C6B075B0FCF
:1089400001D10378401C2A1106D10278401C03E0B3
:1089500006780E70401C491C5B1EF9D12B0705D40C
:108960000023521E0DD40B70491CFAE70378401CFB
:10897000CB1A921C03E01D780D70491C5B1C521E23
:10898000F9D5A142D8D3002070BD00000448026888
:108990000021002A03D00122016002484260704792
:1089A0000071004000700040F0B50E4601468DB0E9
:1089B000FF310746E531154668460C9100F05EF937
:1089C0001C46103C2AD4314608A800F057F908A8E4
:1089D0000FC8079304AB07C304A9384600F066F834
:1089E00000990498103C484000BA28600199059805
:1089F0001036484000BA686002990698484000BAAC
:108A0000A86003990798484000BAE86008A80FC812
:108A100003936B4607C31035002CD4DA08A90C98D1
:108A200000F02CF90DB0F0BDF0B505460088143506
:108A3000800032E02C681A4B1A4E61003140224609
:108A4000E609DF091A403E40921B174EFF433240B1
:108A500051400E464A001E403A40F709F61B124F9D
:108A60003E40724017461F400E4B56001E40FB0909
:108A7000FB1A0D4F3B405E400B4674405340734021
:108A800061401826F141594062401023DA414A40C2
:108A90000821CC41544010C5401E0428CADCF0BD5A
:108AA00080808080FEFEFEFE1B1B1B1BF0B50E4669
:108AB00095B00188079109010F180420143781002F
:108AC000891980393F1FCA6F3B685A40CA67401EE8
:108AD000F5D18FE00423481E1090D81C8007000FAA
:108AE0003058010E47484068425C991C8907090FBD
:108AF00071580902090E415C0491591C8907090F3C
:108B0000715A0904090E455C9907090F715C445CB0
:108B10001099059888424FDA04991046484003900E
:108B200000F030F90499069069400846119100F070
:108B300029F904902846604000F024F90890204666
:108B4000504000F01FF9139004990698484000F037
:108B500019F90B9004990898484000F013F90B9903
:108B60000A90484000F00EF9844611990B98614034
:108B700041406046414006986A4041400A98624040
:108B800042406046424004984240039844400B985B
:108B900044406046444008984440039845400A9841
:108BA0004540604645401398454008061104084377
:108BB00021020843284306E00499100609040843EB
:108BC0002902084320439A000CA951188039C8672C
:108BD0005B1E82D104200CAA81008B18803B3F1FB2
:108BE000DB6F3C68891963408039CB67401EF3D145
:108BF0000598401C07990590884200DA6AE715B08D
:108C0000F0BD000000200020F0B5C1B003F092FAE2
:108C1000194BC11DF93103C3002201216C46FF2706
:108C2000CE091C37A1544D007E4375406940521C4B
:108C3000FF2AF4D9632500230570FF27F91A615C28
:108C40000A020A4311095609714096097140D60972
:108C500071405140E25C69405B1C8154FF2BEDD3B5
:108C6000054900200A684968135CC854401CFF2865
:108C7000FAD941B0F0BD0000002000200A6812BA05
:108C800002604A6812BA42608A6812BA8260C96891
:108C900009BAC16070470000FEB505460C4637486A
:108CA000FF2100901E46F5312846FFF7C0FA002E3E
:108CB00011D0012E61D10E20288021462846082699
:108CC00010311430FFF7DAFF2146281DFFF7D6FFD9
:108CD0006E80374644E00A2028800426F4E7B80076
:108CE00001902C5831463846FFF766FA002918D112
:108CF0002348E2B20068825C13022204120E825CF6
:108D000012041A4323021B0EC35C1B061343220EDC
:108D1000805C009A18431278140644400098401C66
:108D20000090082E13D1042911D11548220400689F
:108D3000120EE1B2825C415C12020A432102090E6A
:108D4000415C09041143220E805C04060C43B81BED
:108D50008000401941680198614040197F1C4160C2
:108D600028888000001DB842B9DC0020FF3501468C
:108D7000E135401C29711028FBDBFEBD5C80020040
:108D80000020002001064000002901DA1B21484094
:108D9000C0B27047002800DA4042704710B5002387
:108DA0001A4606E0C40701D05B1CDBB24008521C27
:108DB000D2B28A42F6D3184610BD10B50DF004FAAF
:108DC00010BD10B5FFF718FC0EF0E0FBFFF736FC06
:108DD00010BD00000648817A022907D0C17C142901
:108DE00002D8807C782801D9002070470120704784
:108DF0004425002007498A7A022A09D00A46AC3A5B
:108E0000127F002A04D18A7C782A01D8101888742D
:108E1000704700004425002004498A7A022A04D0C1
:108E2000CA7C142A01D81018C87470474425002041
:108E300010B502F0EBF9002810D102F0F5F9002886
:108E40000CD100F031F80C49002802D000204883F2
:108E500004E0488BFF212D31884201D2002010BD53
:108E600000F005F900F076F9002801D000F02CF9A7
:108E700001F0F6FE012010BD38250020094800B59C
:108E8000002201460274C0310A824A8300F00CF8C5
:108E9000002804D002208875CA778A7700BD8A75B9
:108EA00000BD00007824002004480069800CC00741
:108EB000C00F01D00020704701207047000500500E
:108EC00000B5FFF7F1FF002803D10448007C132808
:108ED00001D9002000BD012000BD00007824002041
:108EE000F8B5164C00F0E0FB0146E07A002813D0FC
:108EF000012814D0022812D10D4608F0D5FA2074AA
:108F0000617C26460027CC3E00290FD0677402F012
:108F10007DF9002804D005E0204605F0E1FEF8BD0B
:108F2000207C06E0A07A022805D005E0317C88424A
:108F300002D23074F6E72560E772F8BD44250020C0
:108F400010B501F051FF10200DF018F903494882C7
:108F5000012048770220C87510BD00003825002088
:108F600000B50246FFF7A0FF002808D00449088A90
:108F7000801880B2034A0882904200D90A8200BD5C
:108F800038250020302A000010B51F4B002286B083
:108F900000282FD016292DD14178E1290BD0E229C4
:108FA00004D0E32904D0E42904D023E0012202E024
:108FB000022200E00322142469460C820024D1001E
:108FC000009401940294C91803948A8B69460A801C
:108FD00001228A708C8004A9801C02910390988AD7
:108FE0006946A6DF08494031002806D0074A90426A
:108FF00000D10C77002006B010BD087F012801D9F0
:10900000401E08770120F6E7F42700200430000016
:1090100070B5FEB015460E460446FFF7F5FD002379
:109020001A4621466846FFF737FE6846FFF7FCFC04
:1090300040232A4631466846FFF7B6FC7EB070BD35
:1090400030B50C468DB01546014610226846FFF734
:10905000C7F81022214604A8FFF7C2F868464DDF82
:109060001022284608A9FFF7BBF80DB030BD7047A5
:1090700010B50878152818DD212804D0222807D03B
:10908000232812D10AE010000FD009A20D490AE0EE
:1090900010000AD0E52106A2890004E0100004D0E7
:1090A000084903A2891D0BF06AFB002010BD0000D7
:1090B0002E2E5C736F757263655C62746C652E63D3
:1090C000000000009103000010B5074C1321A08A96
:1090D00076DF002803D005A2D6210BF050FB02203A
:1090E0004034607710BD0000F42700202E2E5C7302
:1090F0006F757263655C62746C652E6300000000BE
:1091000070B50646FFF7D0FE00250C4C002809D1AB
:10911000FFF7D6FE002805D002F078F8002801D02D
:10912000657770BD002E01D0A57701E00120A07702
:1091300001F070FE0520607770BD0000342800202B
:109140001CB50446684666DF6846808820700120AA
:109150001CBD00000348407F042801D00020704758
:1091600001207047342800200348407F002801D0A8
:1091700000207047012070473428002070B52C4A29
:109180000346008811460025403117281AD01ADC02
:10919000012823D0102826D0112813D1681E9082D0
:1091A00001201446487709F035FF00F045F802F039
:1091B00031FEA07D800705D402F04EFF002801D0CB
:1091C00004F0B2F870BD192823D0392803D05028F4
:1091D0001BD05528F6D1FFF777FF70BD087F1A7AAC
:1091E0008018087770BD98889082042014460E4637
:1091F000487700F059FA2060F57700F055FA0D49EC
:10920000486020465C3062DF70BD184609F0A2FA63
:1092100070BD98790028FBD1487F0528F8D1887F58
:10922000022803D00020FFF76BFF70BD4D7770BDA3
:10923000F42700207824002005480021017641769B
:109240008181C1810348817A4906490E8172704744
:10925000F42700207824002038B51E4C09F0DAFEEF
:1092600020465C3062DF0121684681701F21C943BE
:1092700001802246123269460120A0DF002827D152
:10928000012115480BF0D8FB13480221401C0BF0BC
:10929000D3FB11480321801C0BF0CEFB0E480421A8
:1092A000C01C0BF0C9FB0C480521001D0BF0C4FBD2
:1092B00009480621401D0BF0BFFB07480721801D10
:1092C0000BF0BAFB04480821C01D0BF0B5FB0020D1
:1092D00038BD0000F4270020E1FF000010B5104861
:1092E00004464034617F0B0005F0B9FA050F040F06
:1092F0000F120F00C08A002801D006F0B3FDA07F36
:10930000002803D00020FFF7FBFE10BD0120FAE784
:1093100001F07CFF0028F8D000F004F810BD000038
:10932000F427002070B500F0BFF90546394C02F073
:1093300093FE002807D0384920684018A84267D219
:1093400003F0F2FF64E0A07E0A2802D901F0DAFD02
:109350005EE0324920684018A8420ED2FFF76CFF49
:1093600001F0D0FD2E48007E022803D0032801D052
:10937000042807D1FFF7A8FE04E0A089002801D146
:1093800000F05EF82748807A000641D5E089A1897F
:10939000884205D20120C00300F06EFB00280DD1E9
:1093A000607E217E884225D2208A01263603FF284E
:1093B00006D8304600F0A2FA002801D0012070BD86
:1093C000607E401CC0B26076217E88420DD20020B3
:1093D00020820122052114A001F01AF9A0600028C2
:1093E00008D0304600F08AFAE8E7012205210EA0F5
:1093F00001F00EF97D216068C9004018A84207D22B
:1094000001F080FD00F034FA6560A07E401CA0767B
:10941000002070BDF427002030750000204E0000B1
:10942000982B00207824002065706F63680000008E
:109430000248007F002800D0012070473428002017
:1094400070B50D4D0120C002A8810024EC810521DA
:109450000AA000F0FFFE0006000E28766C7606D00B
:109460000022052105A001F0D3F8A8602C82054850
:109470000475447570BD0000F427002065706F63AB
:109480006800000058260020F0B59BB006460F4645
:109490003022374902A8FEF7A3FE35493022303189
:1094A0000EA8FEF79DFE334C0525E8000019B821F3
:1094B000BC2203460958125880335A64196480301C
:1094C000DA6899686D1E19612D0642612D0EECD186
:1094D00020468030476106616038417A002909D012
:1094E00000214172C02006518034304639466764FD
:1094F0001BB0F0BD002000900EAE0190E8000119F5
:109500009022525880314B69311803C9FEF77EFF13
:10951000019B009AFEF7C8FE6D1CEDB20191009010
:10952000062DEBD300252E460127F8000119C02295
:10953000525880314B6C02A9091803C9FEF766FF27
:109540002A463346FEF7B0FE7F1CFFB205460E46A4
:10955000062FEAD3019B009AFEF750FFC02210515C
:1095600080346164FFF76AF800B2FFF745F8BFE79F
:1095700018820200882A0020164830B501460122D0
:1095800020310A724A720021CA00121800231363A4
:10959000536313661546536680352B616B618032C9
:1095A000491C2B64C9B253640629EDD3014630220D
:1095B000E0310A744A740346074A80330021DA67AF
:1095C0009967803306C30A46FF30034901301A60A9
:1095D000C16030BD882A00200000F03FF0B59BB08C
:1095E00006460F4630222E4902A8FEF7F9FD2C4907
:1095F000302230310EA8FEF7F3FD2A4C0525E80095
:109600000019C26D816D42660166C26A816A6D1E73
:1096100042632D0601632D0EF1D120466763203091
:109620002663017A002907D000210172676630465F
:10963000394626661BB0F0BD002000900EAE0190AA
:10964000E80001194B6B0A6B311803C9FEF7DEFE07
:10965000019B009AFEF728FE6D1CEDB2019100906F
:10966000062DEDD300252E460127F80001194B6E7B
:109670000A6E02A9091803C9FEF7C8FE2A46334636
:10968000FEF712FE7F1CFFB205460E46062FECD3F6
:10969000019B009AFEF7B2FE61662066CAE70000F1
:1096A000B8810200882A002010B503F081FC10BDAB
:1096B00070B5214A01781346A03B0902198044780D
:1096C0001E4D091989B200241980A9420DD11460D8
:1096D00054608178C01C9970002903D0012903D1FE
:1096E0000AF03EFE00F072F870BD144D6D1CA942E8
:1096F0000FD114605460C178090259600279114396
:1097000009025960427911435960817999700022A8
:109710000DE00A4A921C914202D0521C9142E3D1C0
:10972000C1780A0201791143427909020A43811D75
:1097300018460AF071F970BD28270020E5FF0000E7
:10974000F8B520480090051D80792F46401CA87070
:10975000FF20E870E2202871A87868718037072020
:1097600078620020A871E871072129722E46A03680
:10977000F8617073B8622C4630700B2219340255B0
:1097800001216A70297000980F4B0170987A085572
:10979000DA7A0321317302200255E01C04221946B3
:1097A000FEF71EFD0720307328461022214609309F
:1097B000FEF716FD10207073F86100980221017009
:1097C000F8BD0000AC250020D8270020F8B5154EC4
:1097D00010213446FF343934A0782746401CA0704D
:1097E000FF20DD308151FF20E070E1202071A037A3
:1097F0002546012219353A73002149553146681C26
:1098000009220A31261FFEF7EBFC0A223A730020D8
:10981000607001202070022030702946601DFEF724
:10982000DFFCF8BD7824002070B5104B10221846DC
:10983000FF3039308178FF24491C8170FF21DD31F0
:10984000CA50FF21C170E1210171E5340122E254C7
:109850000146002618251931755445700270031F02
:1098600002241C70401DFEF7BBFC70BD7824002054
:1098700070B5204C2546FF35F1352879FF34FB348F
:10988000002836D1FF202070E12060701620A070E3
:1098900018488030816A090EE170816A090C2171D3
:1098A000018D090A6171008D1249A0714A6C886CA2
:1098B0008018020EE271020C2272020A6272A07219
:1098C0000D48028E1212E272008E2073086D00099C
:1098D000020A6273A073C86C0009010AE173207464
:1098E0000548E0384078607403F028FEA074012039
:1098F000287170BD78240020782B0020F0B58DB041
:10990000064668460C9004A80B9068460890584C90
:1099100004A809902079002802D16079002802D09B
:1099200001200DB0F0BDA079524D002820D00027B5
:1099300019E0A88900010A90B04217D26968042290
:109940000818694600F020FF0098042240004008F3
:10995000009069680A980818694600F06FFFA889A6
:10996000401CA8817F1C2089B842E2D80020A07149
:10997000A8890701B74201D30020D2E70120208146
:1099800015E068681022C0190C9900F0FDFE0C98D3
:109990000078FF2806D00098002803DA400040082D
:1099A000009006E0A889401C80B2A8810701B74258
:1099B000E7D3B7424BD2A889070145E06868102277
:1099C000C0190B9900F0E0FE0B980078FF283ED0FC
:1099D000049800283BDA400040080099049088422F
:1099E00035D9099881790898807981422FD10998D1
:1099F000C1790898C079814229D10998017A0898DB
:109A0000007A814223D10998417A0898407A8142AC
:109A10001DD10998817A0898807A814217D10998D6
:109A2000C1890898C089814211D10998C17A0898E2
:109A3000C07A81420BD10998017B0898007B814252
:109A400005D12089401C20811037B742B6D3238925
:109A5000012B01D9092201E00023082220460A3007
:109A6000089907F04BF901202071607158E7000058
:109A700068260020F8270020F0B591B0064601A81E
:109A8000079008A80C9001A80690574C08A80D90C4
:109A90002079002802D16079002802D0012011B07D
:109AA000F0BDA079514D00281ED0002717E068892D
:109AB0000001B04216D204221303C01801A900907D
:109AC00000F01AFE0198042240004008019001A90C
:109AD000009800F077FE6889401C68817F1C20890F
:109AE000B842E4D80020A07168890701B74201D3C9
:109AF0000020D4E70120208115E0102290023818C0
:109B0000079900F0F9FD07980078FF2806D0019822
:109B1000002803DA40004008019006E06889401CF4
:109B200080B268810701B742E7D3B7424BD2688958
:109B3000050145E01022900228180C9900F0DCFD88
:109B40000C980078FF283ED0089800283BDA4000A7
:109B5000400801990890884235D90D988179069876
:109B6000807981422FD10D98C1790698C0798142C0
:109B700029D10D98017A0698007A814223D10D9857
:109B8000417A0698407A81421DD10D98817A0698D3
:109B9000807A814217D10D98C1890698C089814287
:109BA00011D10D98C17A0698C07A81420BD10D98D7
:109BB000017B0698007B814205D12089401C2081D1
:109BC0001035B542B6D32389012B01D9092201E012
:109BD0000023082220460A30069907F08FF801205A
:109BE000207160715AE7000068260020F8270020E5
:109BF00010B5002405F0AAFB002803D0641CE4B2D1
:109C0000052CF7D310BD0000F0B504461046002225
:109C1000084E0AE02578070A7D406D00755B00025A
:109C20004540521CA8B292B2641C8A42F2D35840FA
:109C3000F0BD000018830200F0B51A4CE1B0607B63
:109C400000282CD000206073A17B002900D0A073D5
:109C5000E17B002923D0E073124A217C113268464F
:109C600003F0F0FF002635466F4609E020A87A5D34
:109C700080190DA104F0C8FD80196D1CC6B2EDB2AB
:109C8000207CA842F2D8207B002808D020AA08A176
:109C900040A804F0B9FDC1B240A800F02DF861B0B1
:109CA000F0BD000078250020253032782C0000001F
:109CB0005B4442475D2025730000000010B5017829
:109CC0000C4B00290ED0012201290ED0022908D107
:109CD0005A73DA734278811C18461A741130FEF7F1
:109CE0007FFA10BD4078187310BD5A739A7340788C
:109CF000187410BD78250020F3B5234E84463446F1
:109D0000FF343934261F307881B001283AD02078CA
:109D1000002837D1A0782746401CA07080370298D1
:109D20007862FF20E070E2202071A078607100204E
:109D3000A071E071029921722546A035F861224692
:109D40006873193201210092297314238354204629
:109D500061461A30029AFEF743FA297B02981022D4
:109D6000081828731420607001202070307020467D
:109D700009300099FEF734FAF8691030F861687B11
:109D800010306873FEBD00007824002010B50C462A
:109D900009F088FE044801790246490030325452E5
:109DA0000121417110BD00003C2100200348132116
:109DB00000888903C001081A704700003C21002078
:109DC00070470000F8B52B4A2B4E9078134685015A
:109DD0001446D1781B88303410E04F00E75BB7425F
:109DE0000BD126484E00A05368185B1C1380491CF9
:109DF000D170012180B25171F8BD491C4029ECD3CA
:109E00001321C9018B4233D01A494979002903D063
:109E10001849303100F0FEFC0027164C25E0A078F0
:109E2000884225D2401C1349C0B24035A070ADB263
:109E3000303100F08FFC0F48002130304A00825A48
:109E4000B2420ED10B4A0D484B003032D05222881C
:109E50006818521C2280491CE170012180B2617196
:109E6000F8BD491C4029E9D37F1CE168B942D6D826
:109E70000020F8BD3C210020FF7F0000FF3F0000D4
:109E800010B509F00FFE0348024900794000303157
:109E9000085A10BD3C210020F0B5194CA1B0A18B8F
:109EA000A069FEF773F90025264620803036154F4D
:109EB00017E06946284600F04DFC114880226946AB
:109EC0003030FEF78DF900204100715AB94202D0BE
:109ED0002188491C2180401C80B24028F4D36D1C8D
:109EE000ADB2E068A842E4D800250549A57030313C
:109EF000284600F02FFCE570657121B0F0BD000030
:109F00003C210020FF7F000070B5C0B0344C694692
:109F1000002000F009FC802020816D4620A903204C
:109F200000F002FC3FA8023001F040F92D49002664
:109F300088424CD12846363001F03DF92A490002CA
:109F4000884244D102A8033001F030F921898842C7
:109F50003DD105A8023001F029F9E0606846007C97
:109F6000A077012833D16846407BA08304A8013044
:109F700001F01CF9208404A8033001F017F9608473
:109F800003A8023001F012F9A08401202189000405
:109F9000FEF7FCF80546608CA84218D3A18B401B45
:109FA000FEF7F4F8E0840220A071A561A08C206186
:109FB000208C00280CD068086061E08C218940006A
:109FC000401E0818FEF7E2F8E168884202D9002036
:109FD00040B070BD0020C043A062A6850120F7E715
:109FE0003C21002055AA00000046415410B5302104
:109FF0000248FEF71CF900F003F810BD3C210020D8
:10A00000F0B5A7B05A4C02206D46A07180212846B9
:10A01000FEF70DF92946012000F0EDFB294602204C
:10A0200000F0E9FB8026268166810120A0831320B1
:10A03000C00160840427F000A784208441100F2011
:10A04000C001E0841E20E0600120A0772761A161AB
:10A0500000026061F022802128462592FEF7E7F891
:10A060000B2244A12846FEF7BBF86946CE720020B9
:10A07000087301224A738F73C8730A7448748F740B
:10A08000CE7409220A75259A4A753F220A764876C7
:10A09000FF228A76C876087748778877C8770BF0EA
:10A0A000E1FD08A9C871020A0A72020C4A72000E88
:10A0B0008872A08969468875000AC87508A90E715A
:10A0C00029208871284613222DA12B30FEF788F80D
:10A0D0002946002000F08FFB21892846FEF7A7F8CB
:10A0E000552018A98877AA20C8772946032000F0B0
:10A0F00082FB00207F26249035E0FF228021284625
:10A10000FEF78EF801202E54801C8028FBD3FF21FF
:10A110002598C943014329701E4A010A11436970F9
:10A12000010C12121143A970000EFF210843E870C0
:10A130002946002000F06EFB01270EE0FF2280215F
:10A140002846FEF76DF801202E54801C8028FBD392
:10A150002946384600F05EFB7F1CE068B842EDD827
:10A160002498401C2490A17F8142C6D827B0F0BD1E
:10A170003C210020EBFE904D53444F53352E3000D0
:10A180004E4F204E414D4520202020464154202056
:10A1900020202000FFFFFF0010B50548417900296D
:10A1A00004D003498078303100F034FB10BD00004A
:10A1B0003C210020F1B50026A8B0354600F0AEF8ED
:10A1C00002F0ACFA074600212898002F016001D068
:10A1D000002415E0002029B0F0BD20A9204602F09F
:10A1E00057FA00280AD0761CB6B26946204602F01B
:10A1F00063FA6846FEF726F845190835641CA4B2D0
:10A20000BC42EAD3289805603046E4E770B5A8B0B0
:10A21000064600F083F802F081FA050018D0002409
:10A2200014E020A9204602F033FA00280CD0694639
:10A23000204602F041FA31466846FEF70AF8002847
:10A2400002D1204602F006FA641CA4B2AC42E8D364
:10A2500028B070BDF3B5A9B0299800260F46002894
:10A2600024D0002F22D000F059F802F057FA050050
:10A270001CD001A80024009016E0A0B221A902F091
:10A2800007FA00280FD0A0B201A902F015FA0020A9
:10A2900006E000990A5C2999095C8A4203D1401CB6
:10A2A000B842F6D3761C641CAC42E6D330462BB0E1
:10A2B000F0BD000010B504002DD0E07C00282AD1AC
:10A2C000A07C002802D020460AF05AF9E08902F06A
:10A2D00001FAE2890146104602F04EFA218AE0892D
:10A2E00002F032FA0C48808E02040B482030817D47
:10A2F00011430A02C17DE089114302F031FAE0897D
:10A30000216802F06DF9FFF747FF02F041FA0020E3
:10A31000207502F0E9F910BDF824002010B50548B9
:10A32000007D002805D00348FFF7C4FF002001F09E
:10A33000C7FE10BDEC210020002803D000680028D3
:10A3400000D0012070470000F0B5CDB00D4624A923
:10A35000019104A900910146802204A8FDF740FF65
:10A36000FFF7DCFF324C0026E574012D26D0FFF705
:10A3700093FDFFF71BFD0521C90288424CD3FFF76F
:10A3800021FD050048D0FFF71DFD69460881020048
:10A3900044D02946009802F02FF9411C40D0711E8C
:10A3A0002182A6742081694609896181A181266084
:10A3B000E081012020751E484DB0F0BD02F0AEF9DD
:10A3C000070029D0002510E0A8B244A902F060F9E6
:10A3D000002809D0A8B2019902F06EF900990198FD
:10A3E000FDF737FF002802D06D1CBD42ECD3BD4203
:10A3F00012D2A8B2E08103AA02A902F095F9802046
:10A40000A074E0892081684600896081A08103985A
:10A41000206060602675CEE70020CDE7284604E086
:10A420002846FFF7CDFC68460089FFF7C9FCF3E733
:10A43000EC210020F8B516460F46050007D0286825
:10A44000B04200D2C6B2A87C802802D004E000202E
:10A45000F8BD284608F0E6FDA87C1C498219802A30
:10A4600009D2411832463846FDF7BAFEA87C344678
:10A470008019A8741EE08022121AD4B24118224614
:10A480003846FDF7ADFE381900901BE0301BC7B20F
:10A49000802F00D380273A460C490098FDF7A0FE94
:10A4A000E019C4B20098C0190090802F0AD0AF7490
:10A4B000B442EBD32868A04200D2C4B2001B28608B
:10A4C0002046F8BD284608F0ADFDF1E784220020C3
:10A4D000F8B516460F46050014D02A8A314638468C
:10A4E00002F0D6FD2882A87C1F498219802A0BD24F
:10A4F000401832463946FDF773FEA87C3446801971
:10A50000A87427E00020F8BD8022121AD4B24018A7
:10A5100022463946FDF764FE381900908020A87461
:10A5200028460AF02DF8002812D113E0301BC7B2DC
:10A53000802F00D380273A460B480099FDF750FE44
:10A54000E019C4B20098C0190090802F04D0AF74F5
:10A55000B442EBD32046F8BD8020A87428460AF008
:10A560000FF80028F4D1F5E704220020F7B5A8B0D1
:10A570000E460024FFF7D2FE02F0D0F80746002571
:10A5800042E06946284602F083F800283AD028982D
:10A59000844235D1019808AF010E2A9831540198B0
:10A5A0002A9C000C641C30550198641C000A30552C
:10A5B000641C0198305568460089641C000A3055B7
:10A5C00068460089641C305539462846641C02F0F0
:10A5D00073F83846FDF736FE401C85B27F20001B1D
:10A5E00080B2854200D90546002078553555641C57
:10A5F00030192A463946FDF7F3FD60192BB0F0BD3E
:10A60000641CA4B26D1CADB2BD42BAD32A98F5E762
:10A61000F7B5AAB00020009001200F460190FFF787
:10A620007DFE02F07BF8050024D002AE00241FE07E
:10A63000A0B222A902F02CF8002818D0A0B202A9DA
:10A6400002F03AF8002005E02A99325C095C8A425F
:10A650000DD1401CB842F7D32C9800280DD001989A
:10A6600000280AD0A0B201F0F5FF00200190641C80
:10A67000AC42DDD300982DB0F0BD01213046FFF78C
:10A6800063FE002805D081890122C90112048918BE
:10A690000091FFF70FFEEDE770B5A8B00646FFF793
:10A6A0003DFE02F03BF8050014D0002410E0A0B2FB
:10A6B00020A901F0EDFF002809D0A0B2694601F001
:10A6C000FBFF31466846FDF7C4FD002805D0641C39
:10A6D000AC42ECD3002028B070BD0120FBE70000A5
:10A6E00010B518210348FDF7A2FDFFF7D5FB02F0D6
:10A6F0005FF810BDEC21002070B50D460446C1097D
:10A700001646042000F0BCF8002807D01320800370
:10A7100020183246294601F0B3F870BDFF2280218F
:10A720002846FDF77DFD70BD70B504460D462146F7
:10A73000002000F0A5F8002805D0E001802229467D
:10A7400001F09EF870BDFF2280212846FDF768FDCC
:10A7500070BD000070B504460D462146012000F092
:10A760008FF8002808D00748802200692946001980
:10A77000C00101F085F870BDFF2280212846FDF759
:10A780004FFD70BD3C21002010B501F079F810BDDF
:10A7900070B504460D462146022000F071F80028ED
:10A7A00008D007488022406929460019C00101F0FD
:10A7B00067F870BDFF2280212846FDF731FD70BD8E
:10A7C0003C21002070B50E460446C109A0B01546D4
:10A7D000042000F055F800280BD02A463146684680
:10A7E000FDF7FEFC1320800320182A46694601F07D
:10A7F00064F820B070BD70B504460D4621460020B7
:10A8000000F03EF8002804D0E0018022294601F043
:10A8100054F870BD70B504460D462146012000F085
:10A820002FF8002807D00448802200692946001923
:10A83000C00101F042F870BD3C21002030B5A1B04C
:10A84000054614466846FDF7CBFC22466946284675
:10A8500001F033F821B030BD70B504460D462146F5
:10A86000022000F00DF8002807D00448802240693B
:10A8700029460019C00101F020F870BD3C210020DC
:10A8800010B5030003F0EBFF0504070A0D102100CB
:10A8900004290DD219E0FC290AD216E0FF2907D8B5
:10A8A00013E00F20C00101E00120400281420CD3DF
:10A8B00000F0ACFC002801D0002000E0012000F0F6
:10A8C0000EF802F015FD002010BD012010BD13216F
:10A8D000890310B54018032100F0D9FF10BD70B5F1
:10A8E000054600F014F80446284600F003F8001965
:10A8F00080B270BD014610B50020002906D013219A
:10A9000010248903204604F0C1FD204610BD10B577
:10A910004C240021204604F0B9FD204610BD000063
:10A9200070B504460D4621460320FFF7A9FF002815
:10A9300008D007488022806929460019C00100F02C
:10A940009FFF70BDFF2280212846FDF769FC70BD86
:10A950003C21002070B504460D4621460320FFF738
:10A960008FFF002807D004488022806929460019FB
:10A97000C00100F0A2FF70BD3C210020FFB58BB0EC
:10A980006C480024009025460C98FDF75BFCC0B293
:10A9900006900C9802900D98002709903E46089763
:10A9A0000298FDF74FFCC0B212E00299895D203990
:10A9B0005E2903D87F1C761CFFB2F6B20299895D2E
:10A9C000C90905D00899491CC9B2F61CF6B208910C
:10A9D0008642EAD30998102804D0082807D0002618
:10A9E000554F93E00899F8000901401800E0F8007D
:10A9F000C6B2F5E70C98405C0246203A5E2A4BD876
:10AA00000D99102902D0082928D01EE00001FF3836
:10AA10004A4BFF380238C018009A1021786001F0C4
:10AA200081F80E98012813D0E000290141180B98F5
:10AA30000822081802900099FDF7D2FB02980099AD
:10AA4000082280300831FDF7CBFB641CE4B25DE0E6
:10AA50008020801B4010E1004018E6E7C00017236B
:10AA6000FF389B030138C018009A0821386001F0B4
:10AA700059F80E98012806D006200B99604340181B
:10AA800006220099DFE78020801B411006206043EA
:10AA900009180B980818F3E7C0093ED00C98009AE3
:10AAA000081820218E4626498C46017809070B0C90
:10AAB000417880788906090D194383069B0E0B4364
:10AAC000180A01464E39DBB2512909D80002C018D4
:10AAD0001C494001411860460818714601F022F8EF
:10AAE0000E9801281ED0E000290141180B98102271
:10AAF000081801900099FDF773FB01980099102246
:10AB000080301031FDF76CFB6D1CEDB26800281829
:10AB100001190698814200D26CE7802E08D8304691
:10AB20000FB0F0BD8020801B4010E1004018DBE733
:10AB3000FF20F5E7002C00200820002000C30500BE
:10AB400000C905000040F6FF0348C16B002901D091
:10AB50000021C163704700004061004010B5002132
:10AB6000132006F0F3FD6420FEF727F901211320DE
:10AB700006F0ECFD10BD000010B52F480224046063
:10AB8000001D04600121204606F0E0FD2A480C303B
:10AB90000460001D0460001D04600121062006F011
:10ABA000D5FD0121072006F0D1FD234820300460A7
:10ABB0000021092006F0CAFD1F4828300460032246
:10ABC00011460B2006F0B4FD1B4830300460001D18
:10ABD0000460001D0460001D04600022022110209A
:10ABE00006F0A6FD14484430046003220021122020
:10ABF00006F09EFD0121132006F0A8FD0322114658
:10AC0000152006F095FD0121162006F09FFD0A484B
:10AC10005C30046008486430046007486C300460AD
:10AC2000001D0460001D0460001D046000211F2041
:10AC300006F08CFD10BD0000000700500120044903
:10AC4000C00748600321062033DF06202EDF70474F
:10AC50000063004010B500F089F902F01DFC10BD42
:10AC600010B50021142006F071FD1E490020087265
:10AC70001D4902200860091D0860091D08601A4965
:10AC800010310860091D0860091D0860091D086071
:10AC9000091D0860091D0860091D0860091D08607C
:10ACA000091D0860091D0860091D0860091D08606C
:10ACB000091D0860091D08600B4958310860091D0D
:10ACC0000860091D0860091D0860091D0860091D4C
:10ACD0000860091D0860091D0860091D0860091D3C
:10ACE000086010BD782400200007005010B5012135
:10ACF000142006F02BFD02490120087210BD00004F
:10AD0000782400201CB50449086A496A0090019122
:10AD100068460BF013FA1CBD88810200014902202D
:10AD2000086070473C07005010B501210F2006F065
:10AD30000DFD10BD1CB5002812D0012810D1094905
:10AD4000094C0869496901910090207D002807D0CD
:10AD500068460BF077FA002020750120FEF72DF8E9
:10AD60001CBD000088810200782400201CB500284A
:10AD700011D001280FD10849084C8868C968019191
:10AD80000090207D002806D168460BF073FA012060
:10AD90002075FEF712F81CBD88810200782400207F
:10ADA00000B587B0002819D00D49002203C90490CE
:10ADB000CD20C00405910290182000901A20019027
:10ADC00003206946087304A80BF088FA04A80BF066
:10ADD00051FA044901200875FDF7EFFF07B000BDE7
:10ADE00088810200782400201CB504498869C9695B
:10ADF0000090019168460BF0A1F91CBD888102000A
:10AE000010B5002801D0012100E00021092006F042
:10AE10009DFC10BD10B517489AB000681890062424
:10AE200030216846FDF703FA6846C47001210182AB
:10AE300018A8059030210CA8FDF7F9F9022108A8FF
:10AE400001740CA9684609F0C9FD7D24E4000028BE
:10AE500003D02046FDF7B1FF35DF03F0C5FF0648FC
:10AE600073DF002803D02046FDF7A7FF35DF1AB0B7
:10AE700010BD0000B0810200D823002010B5084C9E
:10AE8000FEF712FC20464030C17F002907D0002188
:10AE90008177FEF719F9E08A02210843E08210BDAC
:10AEA000F427002010B5FFF721FF02F0C5FE03F0E4
:10AEB000CBFFFFF761FE0022104910460CF01EF890
:10AEC0000F490120C874FFF76BFF03F003FB01F08B
:10AED000D7F900F0F9FC02F0C1F8FFF7AFFE01F07E
:10AEE00087FEFDF7CBFF02F053FA00F0E3F84B20AA
:10AEF000C000FDF762FF02F027FB10BD556D020098
:10AF0000782400207CB5164CFEF7CEFB054601F0F8
:10AF1000A3F800280AD126464036F07F00281CD12D
:10AF20001048114A41688918A94201D900207CBD06
:10AF30004560C82168460180FF21413141800421DC
:10AF400081804B21C900C18009F0F6FD002804D1A1
:10AF50000120F07720465C3062DF01207CBD0000DC
:10AF6000F4270020782400201027000070B51B482B
:10AF7000194C00690025400DC007C00F00D0012505
:10AF80002078A84226D0FEF78FFB0646A800257041
:10AF90000019466002F054F82078002818D1E660C5
:10AFA00000F034F9002813D000F0EEFF0C49012026
:10AFB000C875FEF779FB0B49486602F069FF002867
:10AFC00002D000210A2001E00021072003F014F93B
:10AFD000012070BD002070BDE82B0020000500504E
:10AFE000582A0020F8270020F8B57D202D4C40017C
:10AFF0000090617820782C4F01262C4D814215D18C
:10B00000002815D100F002F900280ED0FEF74CFB05
:10B010006168401A0099884207D3E07C401CE074C4
:10B02000AE750920E875FEF7FFFBF8BD002814D0C7
:10B03000A0686146091A0A29F7D36168401A217C81
:10B0400000292AD0B84228D200202074607C401CFD
:10B050006074AE750720E875F8BDFEF725FB6168E2
:10B06000401A0A28F8D3B84215D300206070207423
:10B07000A07C401CA074AE750820E8750C48007ACE
:10B08000002805D0FF210A482D31C0304183F8BD8A
:10B0900002F04AF9F8BD2674F8BD667000202074ED
:10B0A000F8BD0000E82B0020DC050000D8270020B8
:10B0B0007824002070B50948074D00690024400D30
:10B0C000C007C00F00D001246C702C70FEF7ECFAA2
:10B0D000A1004919486070BDE82B00200005005010
:10B0E000F1B52C4C82B02546E035687C2874FF20F1
:10B0F000FF210130053100590959274A274BFDF737
:10B10000D3F822468032D1679067287CFDF788FA11
:10B110000F4606460022224BFDF7C6F802460B46B4
:10B1200030463946FDF7DAF9E21DF932D160906018
:10B1300006460F46287C02990090081AFDF75CFA33
:10B1400032463B46FDF762F906460F460098FDF78A
:10B1500067FA32463B46FDF7A7F80022114BFDF790
:10B16000A3F8FDF78FFA6874E01DF930C3688268B0
:10B1700000200D49FDF73CF9F822FC2312591B5918
:10B18000FDF744F9FF2201321051A4186160687C78
:10B19000FEBD0000882A00202D431CEBE2363A3F1A
:10B1A000000070400000E03F0000F03F4178007870
:10B1B000090208437047C1780A02817811430A02E4
:10B1C00041780078114309020843704710B5074CD5
:10B1D0000020FFF77CFB01200003FFF778FB002035
:10B1E000207620606060A06010BD0000CC270020A9
:10B1F00010B5054C0C2221460020FFF77DFA0020F7
:10B20000E0752076A07510BDCC27002004480549C4
:10B21000808A884201D101207047002070470000D9
:10B22000B8270020A57F00000148007A7047000081
:10B23000D8270020F0B585B0FA4CFEF735FA054660
:10B24000022002F067F8F848217E03466E3B039027
:10B2500018460A300290163001901B22F348520122
:10B2600086180322120287181846403000900B00FF
:10B2700003F0F5FA110A2B567484BDCEFAF9F8F7EB
:10B28000F6F5F4F3F2F1F500E848807A810607D587
:10B29000E748C560012020762020607505B0F0BD2C
:10B2A000410605D5E248C5600520207640200AE029
:10B2B000800707D5DE48DF49C56001610D20207693
:10B2C000022000E000207072E8E701203072D84EC2
:10B2D000FF207D663070D448F5606E3801F09AFF2B
:10B2E000D148D5495A38706103F08EFACE490A2206
:10B2F0006E3908466430FCF773FF0621039805F0A9
:10B300005FFCC9492C200A39887206F0F7FEC64A4C
:10B310000A3A114608461430FDF792FE022006E173
:10B32000C149C34855394161084610224B3003F0EA
:10B330004DFABD480A220A380299FCF751FF06214E
:10B34000039805F03DFCB8492C200A39887208465C
:10B350000A461430FDF774FE0320E8E001992C2022
:10B360004876B149B24D3439084610222A30696115
:10B3700003F02CFA04202076002076E1022001F070
:10B3800075FF002826D003F015FF0021ABA0FEF7C3
:10B39000DBFFA54907465A226E39FFF799F8384670
:10B3A000FEF788FF022001F0B5FF0020A0492076BB
:10B3B0008D609E4A0870937ADF252B4093728880B7
:10B3C000707A202880D10120A075801EE060FEF7F1
:10B3D000B7F963E796498888421C8A807D21C900B5
:10B3E0008842F6D90B2020760E20E07556E7012022
:10B3F00030728E487D66807A4006EAD50620207637
:10B4000000218B48FF22817042708180C56045E732
:10B41000022001F02BFF00284ED0854E0025B5807C
:10B420008BA0FFF739F9012808D00B202076757022
:10B430000320E075022001F06DFF2FE7012184A0B9
:10B44000FEF782FF05464068622828460DD0FEF7C9
:10B4500031FF04201AE04BE13EE121E107E151E137
:10B46000BDE075E065E04BE033E06F4962226E3984
:10B47000FEF7E0FF2846FEF71DFF019800782C2814
:10B4800003D1009840782C2804D00520E0750B20CB
:10B490002076CFE7644920220A390846643803F051
:10B4A0002FF906F02BFE604A0A3A1146084614307E
:10B4B000FDF7AEFD0720EBE75D488188491C89B2A6
:10B4C00081807D20C000814290D90B2020760F2002
:10B4D0008BE755486E38014664312EC92EC00146AF
:10B4E00020225431113003F00BF906F007FE4E4ACA
:10B4F0000A3A114608461430FDF78AFD082016E086
:10B50000494910220A390298FCF76AFE464920226E
:10B510000A390846223803F0F3F806F0EFFD424AF4
:10B520000A3A114608461430FDF772FD09202076CC
:10B53000B4E63D486E38014664312EC920302EC035
:10B540000A20207602F04AFB012000F08BFEA5E6DF
:10B55000354814216E3808F001FC334E2C206E3E25
:10B56000307515252020315C2C2906D071556D1CB5
:10B57000401CC0B2EDB22D28F5D32D48C5800098EF
:10B5800001F048FE284814226E380099FCF77CFE32
:10B590000004000C05D02748B8650920E0750B2091
:10B5A000C5E700200127224B6D1EE9B218610EE0AD
:10B5B000725C303A0B2A04D30A21E1750B21217603
:10B5C00007E07A4310180A225743491EC9B21529C9
:10B5D000EED21861207E0B28AAD00D20A7E7144DCB
:10B5E00000262E706E70022001F040FE002804D16B
:10B5F000A8887D21C900884236D9022001F08AFE40
:10B600000A492676887A9D22104088722E706E70C4
:10B61000AE800420A075401FE060FEF791F803F0B3
:10B62000C9FD3BE6CC2700205E24002078240020C2
:10B630005C200020FFFFFF7F788202007365637546
:10B64000726974795F6465766963652E74787400D5
:10B6500073656375726974795F7365727669636522
:10B660002E74787400000000401CA88016E60120AB
:10B67000307226487D66806AF8652548254900694C
:10B68000B8652548BD2281822449C1821F490E2008
:10B6900020768039887A1040887202F0A3FAFDE59E
:10B6A0000F202076707A40280ED0022812D0042075
:10B6B000A075B86DE060FEF743F8FDF7F5FF14499B
:10B6C000C86000203072E9E50220A0751049002012
:10B6D0004870EEE70320EBE70020FFF7F8F80C22B4
:10B6E00021460020FFF76EF8102030737D66D5E507
:10B6F0000B49786E4018A84293D201F015FE002045
:10B700003073CBE50B20207611206EE6F824002064
:10B710005C200020A57F0000B82700203412000024
:10B720008813000010B5312005F062FF0148407811
:10B7300010BD00000A32002010B5392005F058FF76
:10B740000148407810BD00000A32002010B54721A2
:10B75000202007F0B7FF0120FDF72FFB0921212052
:10B7600007F0B0FF4021222007F0ACFF002123208A
:10B7700007F0A8FF4821242007F0A4FF0821322069
:10B7800007F0A0FF0121332007F09CFF262005F0E1
:10B790002FFF2A21302007F095FF312005F028FFE8
:10B7A000002010BD10B500F00DF810BD10B52F2011
:10B7B00005F01EFF02484078C006C00E10BD000014
:10B7C0000A32002010B5214C6078002813D03F21A8
:10B7D000382007F077FF30213A2007F073FF10215F
:10B7E0003B2007F06FFF0A213C2007F06BFF202170
:10B7F0003D2007F067FF0021322007F063FF0021A2
:10B80000332007F05FFF4721202007F05BFF002176
:10B81000212007F057FF6078002801D0842100E044
:10B820000421222007F04EFF1821232007F04AFFB1
:10B830004821242007F046FF99212E2007F042FFDF
:10B840000021252007F03EFF002010BD78250020B4
:10B8500010B50446282005F06BFE0622024920465A
:10B86000FCF7BEFC10BD00000B32002010B50F200D
:10B8700005F0BEFE0148407810BD00000A320020ED
:10B88000134610B50A46194600F04CF910BD10B524
:10B89000032905D0022907D0012908D0002909D0A1
:10B8A00000F078F8002010BD00F040F8FAE700F052
:10B8B000A5F8F7E700F00CF8F4E7134610B50A46D0
:10B8C000194600F0E5F810BD10B500F0CBF810BD3A
:10B8D00030B5134D0024287885B0002802D02C7094
:10B8E00000F0A4F900F0BAF90E49C720087016203C
:10B8F0000D490023019104900294039401220094C5
:10B90000084918460BF000FE08F010FD28780028C2
:10B9100003D10120287000F0EDF805B030BD000023
:10B9200074200020003200200A32002070B5164E2C
:10B9300004463078002586B0002802D0357000F02B
:10B9400075F900F08BF9114852210170210C4170FA
:10B95000210A8170C47016200D49002301910490C2
:10B960000295039504220095084918460BF0CCFD7A
:10B9700008F0DCFC3078002803D10120307000F0A2
:10B98000B9F806B070BD000074200020003200201D
:10B990000A32002070B5164E04463078002586B075
:10B9A000002802D0357000F041F900F057F9114835
:10B9B00020210170210C4170210A8170C470162071
:10B9C0000D490023019104900295039504220095EE
:10B9D000084918460BF098FD08F0A8FC30780028BC
:10B9E00003D10120307000F085F806B070BD000072
:10B9F00074200020003200200A32002070B5164E5C
:10BA000004463078002586B0002802D0357000F05A
:10BA10000DF900F023F91148D8210170210C417073
:10BA2000210A8170C47016200D49002301910490F1
:10BA30000295039504220095084918460BF064FD11
:10BA400008F074FC3078002803D10120307000F039
:10BA500051F806B070BD00007420002000320020B4
:10BA60000A3200200EB500F045F8074901200870A1
:10BA7000684600F087F8694604480978C174694649
:10BA8000497801750EBD0000742000209824002024
:10BA9000F7B50F46164E0446C51930786D1E0028BE
:10BAA00003D00020307000F0C1F8200A290A0002FB
:10BAB0000902884203D139462046029A0DE0FF214F
:10BAC000201A01310D1AA9B22046029A06F0F4FE9E
:10BAD000029A791B6019521989B206F0EDFE30788E
:10BAE000002803D10120307000F004F8FEBD0000F2
:10BAF0007420002000B5094985B0B92008700020E5
:10BB00001621074A01920491029003900346009087
:10BB1000012202490BF0F8FC05B000BD0032002004
:10BB20000A320020F7B5154D04462878002686B065
:10BB30000F46002802D02E7000F078F8104803213C
:10BB40000170210C4170210A8170C4700898042290
:10BB500001AC85C4162100230491009608491846BB
:10BB60000BF0D2FC0BF044FA2878002803D1012016
:10BB70002870FFF7BFFF09B0F0BD0000742000205F
:10BB800000320020F0B5174D06462878002485B015
:10BB9000002802D02C7000F049F81349902008705A
:10BBA0004C708C70CC700C714C71162006210F4FAC
:10BBB00000230391049002940122019700940A4902
:10BBC00018460BF0A1FC0BF013FA38793070787935
:10BBD00070702878002803D101202870FFF78AFFB1
:10BBE00005B0F0BD74200020003200200A32002091
:10BBF00010B50C4886B005210170AA2141700020C3
:10BC000016210222084C04910290034601940392EB
:10BC1000009004490BF078FC0BF0EAF9607806B06C
:10BC200010BD0000003200200A32002000B5094992
:10BC300085B0AB20087000201621074A01920491BC
:10BC40000290039003460090012202490BF05CFC35
:10BC500005B000BD003200200A32002010B50E48A9
:10BC60000024017886B0002902D00470FFF7DEFFBF
:10BC70000A49062008701620094900230191049002
:10BC80000294039401220094044918460BF03CFCF2
:10BC900008F04CFB06B010BD7420002000320020DC
:10BCA0000A32002010B50846024902F0ADFDC0B2CC
:10BCB00010BD0000E8D1020010B50A46002809D0E6
:10BCC000012809D002280CD003280CD0042807D161
:10BCD00006A102E008A100E009A1104602F094FDCF
:10BCE00010BD09A1F9E70AA1F7E70000CEB4BDD362
:10BCF000C0B4B5E700000000BEA9B6AB000000006C
:10BD0000636C696E67000000B6CCD0C5000000000F
:10BD1000CEA2D0C5000000000520704710B5002855
:10BD200006D0012801D0022801D100F073F810BD1F
:10BD3000084600F00BF810BD03480021C172032132
:10BD400041730121C1737047D82B002010B50849F9
:10BD50000022CA720122012807D04A738873CA736D
:10BD60000449002002F05AFA10BD0F234B73F5E787
:10BD7000D82B0020B80B000070B5FDF795FC244CC3
:10BD80000546E07B002801D001F05AF9E27B204E05
:10BD900000200221603E130002F061FD0606040748
:10BDA0000D1A2B06E173207370BD01207566FFF735
:10BDB00027F8032027E0706E6430A842F4D20020F8
:10BDC000FFF71EF80420E0737566E07A401C1DE062
:10BDD000706EFF309130A842E6D2E07A032806D395
:10BDE0000520E073207B401C2073756670BDE173F5
:10BDF00070BD7D23726E1B01D218AA42F8D2227B3D
:10BE0000637B9A4201D3E07370BDE173E07270BD51
:10BE1000D82B002010B503490020C873FEF7F0FFAF
:10BE200010BD0000D82B00208307FF22DB0E9A40B4
:10BE30008907090E994000280BDA0007000F08381F
:10BE4000830808489B001818C36993430B43C361D8
:10BE50007047830804489B001B18186890430843E8
:10BE60001860704700ED00E000E400E070B50546A2
:10BE700000242046B030C0B207F03EFC102007F08E
:10BE80003BFC002007F038FC1F200AF0F1FA29469D
:10BE9000802007F0FFFB641CE4B28035042CE8D35B
:10BEA00070BD10B50446AE2007F026FCD52007F083
:10BEB00023FCC12007F020FCA82007F01DFC1F2058
:10BEC00007F01AFCAD2007F017FC002007F014FC67
:10BED000202007F011FC022007F00EFCD32007F011
:10BEE0000BFC002007F008FC402007F005FC8D202B
:10BEF00007F002FC8D2007F0FFFB142007F0FCFB8D
:10BF0000A02007F0F9FBC82007F0F6FBDA2007F0C5
:10BF1000F3FB122007F0F0FB204600F019F8D920BF
:10BF200007F0EAFB222007F0E7FBDB2007F0E4FB49
:10BF3000002007F0E1FBA42007F0DEFBA62007F0BD
:10BF4000DBFB10BD01498020C86070470005005030
:10BF500010B50446812007F0CFFB204607F0CCFB4C
:10BF600010BD10B5002801D0AF2000E0AE2007F0D2
:10BF7000C3FB10BD034806210171024900201C3992
:10BF8000C8727047742A002010B5084CFDF7ECF811
:10BF9000002802D00120FDF7B3F82079002801D055
:10BFA000002010BD0120207110BD0000742A002067
:10BFB00070B5264CFDF778FB05462079002801D0A6
:10BFC00001F03EF820790126030002F048FC083514
:10BFD000050D1C21352B3635FDF766FB206007204B
:10BFE0000AF046FA022026E02068281A672823D99A
:10BFF00017498020C8600220FCF7DFFE07200AF006
:10C0000037FA032017E0CC20FFF74BFF042012E0A3
:10C010000E4D1C3DEE72FDF747FB0E49C8656E756F
:10C02000052008E00020FFF79CFFFFF78BFFFDF7DE
:10C030003BFB20600720207170BDFDF735FB2168B8
:10C04000401A6728F8D90020F5E70000742A00207C
:10C0500000050050F82700200248007A002800D090
:10C0600001207047782A002010B50BA0FEF714FBC2
:10C0700000280CD00CA0FEF70FFB012808D00CA064
:10C08000FEF70AFB012802D00BA0FEF705FB10BD4E
:10C0900007F0FAFB10BD00006F74615F737461728A
:10C0A000742E7478740000006170702E62696E00E6
:10C0B00073642E62696E000063792E62696E0000FF
:10C0C00010B506490028087207D00548007C5A2898
:10C0D00003D90021072002F0A1F810BD782A002022
:10C0E0007824002010B55D2109010E48FCF79FF867
:10C0F0000C49322048600C49642008800220E0315D
:10C100000873072080310871084A0021117406491C
:10C110000822A039CA70087002480549803041667B
:10C1200010BD0000302C0020B02F00207031002006
:10C13000CCCC000000487047302C00200148C0786B
:10C1400070470000102F0020F7B5414C86B02068E2
:10C150004049401C2060096E0026401AFF21F5313D
:10C160003D4F884203D90020387202F0FDFF384865
:10C170003A4908300190009106A80EC802A805F0BF
:10C1800037FF02AB07CB683407C4314D0023743549
:10C19000743C03F067F8696800290FD0296869606A
:10C1A000401AC0100818286003F03AFD002807D094
:10C1B00000200226387202F0D7FF0AE06860F2E73A
:10C1C000234861688030808F884202D9304609B0A8
:10C1D000F0BD06F09FFA06AB07CB02F0C9FC1D4884
:10C1E0009838014620310EC90EC007F093FB1C4D54
:10C1F00000280ED006AF07CF012302F085FF1548B7
:10C200000121A038017507F0CDF82868401C28608E
:10C2100004E006AF07CF002302F076FF06F020FA15
:10C2200000280ED00C48A0388178002909D1C078A8
:10C230000326002802D06868401C6860012000F0D6
:10C2400011F806AD07CDE36F07F026FDBEE700004D
:10C25000302C0020B02D0020B02F0020C282020020
:10C26000782000200349002801D0034800E003485B
:10C270008860704778200020C0390600300B01002C
:10C280003EB5AA2168460170BB210171CC21017223
:10C29000124C6A46012100200AF0D4F9012101AABA
:10C2A00008460AF0CFF902AA012102200AF0CAF9D1
:10C2B0000AF03AF9FDF760F9002020744620607416
:10C2C000E074FDF7F1F9606000202A212218401C7B
:10C2D000C0B211770828F9D33EBD0000882A00209B
:10C2E0000C48C17840785A2901D25A2811D3884283
:10C2F00007D9421AD2B20A2A0BD35007400F0818A6
:10C3000006E00A1AD2B2102A03D35007400F081AC7
:10C31000C0B27047982A0020F8B52C4C2C4E207CD7
:10C320000427F56B002811D0022811D0032815D05E
:10C3300004280CD101F010F9002808D020682D1A2B
:10C3400005F014FC022700281FD119E02774F8BD5E
:10C350000320256020740AF067F9F8BD00F070FE34
:10C36000207A0028F9D00020207220682D1A022D92
:10C3700001D906F0B9FB192DEFD90AF0D5F8E5E798
:10C38000134820300078002802D0012DDED8F8BDF7
:10C3900010484B21007EC900022803D0032801D099
:10C3A000042801D1F06E810A8D42F0D3084860382C
:10C3B000007F0028EBD0FDF777F90549064A803960
:10C3C000896B89188142C1D9F8BD0000882A0020F4
:10C3D000F8240020982B00208813000030B5044674
:10C3E000A1B00320402269468003FEF785F90D497C
:10C3F000FF22CB7F6D462046002B0ED0834200D813
:10C40000002044002B5D64196478182B05D23C2C65
:10C4100003D24B778C7721B030BD4A778A770020E2
:10C42000F9E70000B82B0020F0B5A1B06E46FEF78A
:10C43000EDFE0025204C002808D020481F4FC07A70
:10C44000603F002807D0387E042804D9A5762576D9
:10C45000657621B0F0BDE07F00281ED00320402289
:10C4600069468003FEF748F9B97E00208E46797E42
:10C47000E37F8C460FE031787278B61C18290CD215
:10C480003C2A0AD28C4502D1964510D301E08C4556
:10C490000DD3401CC0B28342EDD8A57625766576D3
:10C4A000E07F0028D5D00020FFF798FFD1E70120DA
:10C4B000A07621766276F3E7B82B0020782500205D
:10C4C00070B50326A0B00446B6036D463046FEF7AD
:10C4D000FEF920780E494008C877202802D920208C
:10C4E000C87701E0002802D00020FFF777FF402244
:10C4F000611C2846FBF774FE402229463046FEF7B1
:10C5000061F9034906202031087020B070BD000099
:10C51000B82B0020F8B5FDF7C7F82E4D0646287851
:10C52000002801D000F08CFD07232B491B02CF18F7
:10C530001D232A789B01CC180120130002F08FF9EB
:10C540000705161C293736453600A17E00292DD057
:10C550002149237EA0314A7E9A4227D3897E627E7A
:10C56000914223D328700020E0761EE001207E65F2
:10C57000FEF746FC02202BE0786DC830B04215D2A1
:10C580000020FEF73DFC032028707E65E07E401C05
:10C5900019E0796DFF319131B14207D2E17E032973
:10C5A00016D304202870207F401C2077F8BD0B4A4A
:10C5B000796D8918B142F9D2217F022901D3062071
:10C5C00006E028700020E076F8BDFFF72DFF002080
:10C5D0002870F8BDD82B002078240020307500008A
:10C5E00010B50C4607F07CFA024801684C60012146
:10C5F000817210BD84230020F8B5154C0E46074605
:10C60000E088012189021546884202D30020C043F8
:10C61000F8BD07F065FA21680020086021684860CD
:10C620002168C87321688D8121684E8121688877CF
:10C6300021682020887321687F20C8770120A0729C
:10C64000206839464089FEF785F90620205EF8BD4E
:10C650008423002010B50D4CE188814215D307F0EA
:10C660003FFA20688089002801D0FDF7A9FB2068E7
:10C670004089FDF7A5FB2068C17F7F2905D13F21B7
:10C68000C1770120A07200F083F810BD8423002040
:10C6900010B50C4607F024FA06490968C87F7F28C0
:10C6A00001D0002010BD20222046FBF799FD01207B
:10C6B00010BD00008423002010B50C4607F010FACE
:10C6C0000348214600684089FEF72AF9012010BD81
:10C6D0008423002010B507F003FA02480068C07BED
:10C6E00010BD00008423002070B500200A4C0126F4
:10C6F000E0800546B602284607F0F2F92068C07FC0
:10C70000FF2806D0E0886D1C401CADB2E080B54229
:10C71000F1D3E08870BD0000842300200148C08868
:10C72000704700008423002070B514460D4607F0C2
:10C73000D7F9044801688989298000684068206029
:10C7400070BD00008423002010B50C4607F0C8F926
:10C75000024801680C810121817210BD84230020F0
:10C7600010B50C4607F0BCF9024801680C600121C5
:10C77000817210BD8423002010B50C4607F0B0F97B
:10C7800002480168CC730121817210BD842300200E
:10C7900010B5064CA07A002807D0208921468008D1
:10C7A0008039FEF759F80020A07210BD84230020C4
:10C7B00010B507490020FDF7EBFF0549084680301A
:10C7C00001600021818001818172FFF78DFF10BD22
:10C7D0000423002010B506490020086048608860E6
:10C7E000C86003494039086048600BF08DF810BDFF
:10C7F0004011014010B5064A0121064808F000F832
:10C80000002803D004A21D2107F0B9FF002010BDAD
:10C8100089CA0100842000202E2E5C736F7572631C
:10C82000655C5254432E630010B5024800F004F8D2
:10C83000002010BD8F0200007CB5054600201F4C73
:10C8400000900190606CA84203D1FCF72DFFA0641A
:10C850007CBDFCF729FF6564FCF726FFA0646846F1
:10C8600007F0C6FF01AAE16A009807F0BBFF206C41
:10C870000199E26B4018A18D114E4904490C4118F1
:10C88000C80B1218C003081AE2632064306808F06D
:10C8900079F800222946306808F032F8002803D0E1
:10C8A00008A25A2107F06BFF206C20302064034857
:10C8B0002C3007F09DFFFCF7F7FE7CBDF82400202C
:10C8C000842000202E2E5C736F757263655C525459
:10C8D000432E63000A4B10B5084A5943926A074B2E
:10C8E000521A203310215956E1239B00594309B2B3
:10C8F00052180146104600F047F810BDF8240020F9
:10C90000805101000A4B10B5084A5943926A074BFF
:10C910005218203310215956E1239B00594309B284
:10C9200052180146104600F02FF810BDF8240020E0
:10C930008051010030B509493C258A6A20318C7E3E
:10C94000CB7E6C43E318497EE12424016143C9187E
:10C95000034B58434018101A30BD0000F824002043
:10C960008051010010B5074910228B6A20318A5688
:10C97000E12189004A439A180146104600F004F864
:10C9800010BD0000F8240020F8B50C4606462E49DC
:10C99000FBF7FCFB05462C48E1216843371A2B487E
:10C9A00020800126A670E67009013846FBF7EEFBF1
:10C9B000C0B2E121607109014843381A3C21FBF7FC
:10C9C000E5FBA0713C213846FBF7E0FBE171072154
:10C9D000E81CFBF7DBFB2171FF2300216F335F1E97
:10C9E000228890071DD03846854206D3521C491C28
:10C9F0002D1AC9B22280C829F2D32078800712D01C
:10CA0000134900200A5CAA4208D8A278521CA270DE
:10CA10000A5C401CAD1AC0B20C28F3D37019E07048
:10CA2000F8BD1846E0E70A4900200C390A5CAA4222
:10CA3000F4D8A278521CA2700A5C401CAD1AC0B295
:10CA40000C28F3D3EAE7000080510100B207000090
:10CA5000F482020010B5FCF727FE0A497D22896C9A
:10CA600012018918814208D206488038007A0028CD
:10CA700004D001200004FFF7DFFE10BD01204004B8
:10CA8000F9E70000F8240020FEB501A807F0B0FE89
:10CA9000344D6A46E96A019807F0A4FE0098012621
:10CAA000C40BE0030090E96A2F4608180002000A50
:10CAB000E8622D4840370676B88A0019B882E0B29D
:10CAC000FCF74EFAE0B2FCF795F9FCF7F9F900280B
:10CAD00009D0FEF79BFB002805D0FCF73BFB0028A4
:10CAE00001D0FCF7F1FAE86B0019E863A86A0019B5
:10CAF000A862387E802801D200193876788BFF2111
:10CB00002D31884201D20019788316483430FFF75E
:10CB100029FF14482030817E827C914210D006711A
:10CB20008174014660314A79002A09D0427ECB796E
:10CB30009A4205D30B7A9A4202D28A79521E8A719E
:10CB4000C17D427C914204D086714174074A06211E
:10CB50001170C27C417E8A4203D00C2900D14671FB
:10CB6000C174FEBDF8240020782A0020D82B0020B4
:10CB70007CB5002500950195FCF796FD1A4E0446FC
:10CB8000307F002802D0684600F078F81748006926
:10CB9000000CC007C00F06D0FEF7C4FD317F00298E
:10CBA00002D005F01DFA7CBD04F0F8FD0E48E0301F
:10CBB00040780028F7D0FEF7BFFD4007F3D50A48BC
:10CBC0007D222038816FD200611A914209D2856797
:10CBD000FEF71CFB0028E6D00021084601F01EFBF2
:10CBE0007CBD84677CBD00009824002000050050B7
:10CBF00010B50A20FCF7E1F8FEF7D4FDFEF736FE8B
:10CC00000249487400F04AF810BD00009824002042
:10CC100010B58AB0044605A804F006FC142205A944
:10CC20006846FBF7DDFA230001F019FE0E26131605
:10CC3000262626191C261F0D0810222669460420C8
:10CC4000085E0AB010BD6846C07AFAE76846007B05
:10CC5000F7E768468079F4E76846C079F1E7684607
:10CC6000407AEEE76846007AEBE76846807AE8E7C4
:10CC700069460E20085EE4E70020E2E71CB5028862
:10CC800069460A8042884A80808888800199009895
:10CC900002F04AF906F078FD1CBD000010B50C4CFE
:10CCA000FCF702FD0121206021710020E08020813D
:10CCB0006081A0812061A07320756075A075E17509
:10CCC000A076E076207661762077607710BD000050
:10CCD000AC2B0020F8B57A4C0026FCF7E5FC79492E
:10CCE000896B471A022004F037FF0125002804D180
:10CCF000032004F031FF00280CD072482030007F60
:10CD0000002807D07048874204D9182161561E298F
:10CD100000DDA57620790027022801D0032804D160
:10CD2000E17D02290DD003290BD0012802D1E07D3D
:10CD3000012806D067752079022806D0032804D080
:10CD400009E0607D401C6075F5E71522A256142AA3
:10CD500001DBA57506E0012804D1152161560A29D9
:10CD600000DBA7752179E17500F0F6FB002802D001
:10CD70002776657602E0207E401C2076A07D002884
:10CD800024D0207F4006000E2077617F012902D148
:10CD9000284320776777207FC306DB0E8446002177
:10CDA00008462A4682401A4201D0491CC9B2401C9A
:10CDB000C0B20528F5D3032900D3A77560468007C4
:10CDC00004D018216156002900DDA775182161568D
:10CDD000052913DD012004F0BFFE00280DD1182124
:10CDE00061561E290ADD022004F0B6FE002804D197
:10CDF000032004F0B1FE002800D06776012004F083
:10CE0000ABFE00280CD0E07E002805D0012801D020
:10CE1000022803D0032615E0052613E0012611E0C1
:10CE2000022004F099FE002804D1032004F094FEAF
:10CE3000002807D0E07E00280DD0012801D002286C
:10CE40000BD00A26E07E002809D0012801D0022854
:10CE500007D05A2006E00C26F4E70826F2E7642003
:10CE600000E050200E2161561F2901DA491CA173F0
:10CE70000C22A25E82420ADB032004F06DFE002831
:10CE800004D1022004F068FE002800D0A5760C2111
:10CE9000615EB14201DB012000E0002007F038F8BC
:10CEA000A7812775216900202A468240114202D1BC
:10CEB000227D521C2275401CC0B21028F4D3F8BD4C
:10CEC000AC2B00207824002040771B000248012171
:10CED0008176417770470000AC2B002010B50848E0
:10CEE000816801290AD107494968490706D5002107
:10CEF0008160084609F0FAFF0AF03CFA10BD000014
:10CF0000003100400033004010B50021014809F015
:10CF100033FA10BD00400040FEB50020C043124D62
:10CF200002906869019068462E6908F01DFD074669
:10CF300008F074FF0446002F08D002AA0199009857
:10CF400008F032FD029808F0B3FF06E0029808F0FE
:10CF5000AFFF002801D1002C02D0304607F0AEFF11
:10CF600000206871FEBD0000BC20002004490122A1
:10CF70000878504008704968002900D00847704779
:10CF8000A420002010B508484068002808D0804739
:10CF9000002804D0FF21054A2A3107F0F0FB10BD1C
:10CFA00008F0A0FE10BD00000421002078D302008C
:10CFB0007CB50020009001A807F01AFC0F4C6A46CF
:10CFC000E16A019807F00EFC206C00994618009663
:10CFD0007D21E06BC9004843FBF722FB05460C4668
:10CFE0003046FBF71DFB064A064BFBF777FA2A464D
:10CFF0002346FBF759F9FBF745FB7CBDF8240020DD
:10D00000FCA9F1D24D62404008B50020064B042235
:10D010000321009007F01AFC002803D003A2472147
:10D0200007F0ADFB08BD0000143200202E2E5C730B
:10D030006F757263655C737973636C6B2E6300004C
:10D0400010B50248FFF7F8FB10BD00008F0200008A
:10D05000014800210170704789200020014900200B
:10D06000087070478920002010B5034A0121117013
:10D0700028DF03F0F7FE10BD8920002010B5034C17
:10D080000223237029DF03F0EDFE10BD892000206C
:10D0900000B50023FCF7B8FD00BD0000F0B591B06D
:10D0A0002C4F002501266C46360304222146A81980
:10D0B000FDF722FB2078FF2802D04035B542F4D39B
:10D0C000B54203D33046FDF702FC0025402120463F
:10D0D000FBF7ADF878680090201D01F0A9F91D4913
:10D0E0002046A4394A7E203002730A7E42738A7E2B
:10D0F00082730A7FC273CA7E02743A7B42744A7A90
:10D100008274154AD27FC274144A527E82750A7C98
:10D110000276002A01D1012202760E4A1C32937F48
:10D120004376D27F82760E4A127EC2760A68120E4B
:10D1300002770A68120C42770A88120A8277097805
:10D14000C17740222146A819FDF73CFB012011B010
:10D15000F0BD00001C250020B82B0020D82700209F
:10D16000582A002010B5044CFBF7AEFFE08A0121DD
:10D170000843E08210BD0000F427002010B5FDF741
:10D18000AEFBFCF733FFFDF7ABFA02490020C8679E
:10D1900010BD00007824002010B585B00446684614
:10D1A00000F038F86846007C20706846407C60706B
:10D1B0006846807CA0706846C07CE07005B010BDF9
:10D1C00010B586B00446684600F024F80FA120464A
:10D1D00001F01AFB6946C0B2097C2154401C694623
:10D1E000C0B2497C2154401C6946C0B2897C21549C
:10D1F000401C6946C0B2C97C2154401CC0B2002109
:10D200002154401CC0B206B010BD00004342414E44
:10D21000442000003CB514490A6A0092496A019111
:10D220004821017049214170432181704221C17020
:10D230006A460021535C1B09092B01D9372400E001
:10D240003024E3184C0024182371535C1B071B0F78
:10D25000092B01D9372500E03025EB18491C89B28C
:10D2600063710829E6D33CBD40000010054A014621
:10D27000537C0020002B03D08B4200D1012070474B
:10D280005174FBE77824002000B587B0FFF7CCFA93
:10D2900018216846FAF7CBFF6846FFF7BBFFFDF79A
:10D2A000A7FFFCF731FE002804D0FDF7AFFF0028F0
:10D2B0000CD00EE0FDF7AAFF002801D0002000E00E
:10D2C0000120FDF70CFBFCF791FE02E00120FDF7C9
:10D2D00011FBFDF705FA00F0C3FF02F0E1FBFEF7DA
:10D2E000C3FE01F0FDF9FBF72BFE07B000BD000007
:10D2F00010B5074CFBF72EFF002806D0FBF7E4FE25
:10D30000E08A80210843E08210BD00F00DF810BDD6
:10D31000F427002003494A7C824201D1002048744E
:10D32000704700007824002010B5FDF76FFF00283B
:10D3300001D0FFF7B3FE35DF10BD000010B508F0D7
:10D3400021FD002805D00E490C484860C8130D493E
:10D3500088610D48018CC9B201290ED1818C090761
:10D360000BD1018D0906090F042906D1808D000615
:10D37000000F02D105490120886010BDDFFF07C002
:10D3800000050040006C0040C00F00F000060040A7
:10D3900006490548C96B0160002101728180C18086
:10D3A000FF21373101827047982B0020F82400209C
:10D3B000F0B5CBB0334CFCF777F90646207A00285D
:10D3C00017D0314D012817D0012702281ED003287D
:10D3D0000DD100F0C1F8002809D0E86B2168451A8A
:10D3E00004F0D4FB002847D0022D00D927724BB09F
:10D3F000F0BD03202072FAE7FDF796FCE86B206091
:10D4000002202072E660FDF77DFCF0E7E0680F3057
:10D41000B042ECD2402008F0B1FE1A4D203DA88465
:10D42000042008F0ABFEE88403202072FDF776FCB0
:10D43000FF22A7742D3215496846FAF7D1FEE0881D
:10D44000A2881349801A4843002101E0801A491C30
:10D450000028FBDC0F4A0020FF256B462C3591424B
:10D4600007DA1E5C401CB700F619921B00B2A842F6
:10D47000F5DBC8302082BAE74B20C0008542B5D822
:10D48000B5E70000982B0020F824002030D20200DD
:10D49000A086010068F00100F8B51B4DFCF704F907
:10D4A00007461A4928684118B94205D2297900204F
:10D4B000002900D02871687115480069C00AC007AA
:10D4C000C00F20D100F024FC0446FF281BD0A0068A
:10D4D000460F6007400F0090700701D5012100E062
:10D4E0000021284606F026F960060CD5F00703D087
:10D4F0002846009906F010FBB00704D53A462846A6
:10D50000009903F03DFCF8BDE8270020DC05000091
:10D5100000050050084800214279002A04D001711A
:10D5200041718171062070478279002A02D0817191
:10D53000C079704700207047E82700200148407EEE
:10D5400070470000D827002010B500F095FB0020A0
:10D5500000F014F810BD000010B5FBF7A5FC002882
:10D5600001D0002010BD0148407E10BDD82700200A
:10D570000148807D70470000D827002010B503289F
:10D5800003D0002000F064FC10BD0220FAE7000088
:10D5900070B504460D461646FCF786F83246294615
:10D5A0002046FEF7D1FD04001CD0FEF7C7FD012880
:10D5B00019D0002816D0E10714D00E4C022815D03F
:10D5C00003280FD1A06C401CA06404F02DF8E16C7E
:10D5D0004018E064FCF768F82067FFF777FC01204B
:10D5E000FBF71AFC70BD00F043F870BD606C401C86
:10D5F0006064EAE77824002030B5A1B0FDF706FEAC
:10D60000002826D0144C00252079002812D004F0E0
:10D610008BFC204625716030007B00280AD0204614
:10D620002038826A0DA1684601F0EEF8C1B2684662
:10D63000FCF762FBA079002802D004F0FFFBA57183
:10D640006079002805D004486571A0388566FFF729
:10D6500025FB21B030BD0000182500205B5452414D
:10D66000434B494E475D2074696D653A202564003F
:10D6700010B5A0B0FEF76AF80F4C01202077FCF738
:10D6800013F82146203988630020A07700F000FCC1
:10D69000002802D00320FFF771FF0748E030007B2D
:10D6A000002807D005A1684601F0AEF8C1B268466F
:10D6B000FCF722FB20B010BD982400205B414354AE
:10D6C00049564954595D202D20454E544552206CF1
:10D6D0006F7720706F776572202D200030B5A1B074
:10D6E0000546FBF7E1FF1F490446002D08D1087FDE
:10D6F000002835D0887F401CC0B2887702282FD3FD
:10D70000002008771748E030007B002807D016A1DA
:10D71000684601F079F8C1B26846FCF7EDFA0020DE
:10D72000FFF72CFFFBF7C0FB002803D000210420EB
:10D7300000F074FDFBF718FD002802D00020FBF775
:10D74000DFFCFEF73FF8FEF7CDFC064D0E49203D0D
:10D75000A86B4018A04202D20020FEF783FDAC6304
:10D7600021B030BD982400205B41435449564954B0
:10D77000595D202D2045584954206C6F7720706FDB
:10D78000776572202D200000E0930400F7B5014674
:10D790002A48002692B01446002925D06846FFF793
:10D7A00099F802AF00254022D00139462818FCF72D
:10D7B000A3FF3878FF2834D002996A4602980904FA
:10D7C0009278090EC0B28A4226D16946C978814250
:10D7D00022D113980126042825D006282CD007280A
:10D7E00026D0092821D125E01399042906D006293D
:10D7F0000FD0072906D0092907D108E041688068C1
:10D80000081801E0006905E0106001260DE0806A5B
:10D81000FAE7C0680009F7E70120000340358542B8
:10D82000C1D3002000E004982060304615B0F0BD60
:10D830000698F9E70398F7E70598F5E7B82400207C
:10D84000F0B5044687B00020FFF774F869460491EC
:10D850002249002640180590E681268266826F469E
:10D86000012526731022900239463018FCF744FF38
:10D870003878FF2810D000981036400040080090FB
:10D880000599884224D90498807A022806D0032872
:10D890000CD0042810D019E0103619E0E0893C3093
:10D8A000E081032D0FD0042D0DD00FE0208A3C30F5
:10D8B0002082042D07D004E0608A3C306082032D72
:10D8C00001D0022D02D1207B401C20730498857A60
:10D8D0000120C0038642C5D307B0F0BD4057FFFF0B
:10D8E000F0B504468DB00020FFF724F800260C9612
:10D8F0000896079600960B902660666026816681E2
:10D9000002ADE6822F462675102290023946301865
:10D91000FCF7F2FE3878FF2818D002980B994000E7
:10D9200040081036029088422AD9A879E97940182F
:10D930002168091821606A7A616889186160002885
:10D940000BD02089297A401820810AE00C98002801
:10D9500001D101200C90103612E06089297A40181C
:10D960006081287B00280BD00098401C0090E97A49
:10D970000798081807900421695E0898081808900D
:10D980000120C0038642BFD30098002809D0014679
:10D990000798FAF7FBFB207500990898FAF7F6FB51
:10D9A00001E000202075E0820DB0F0BDF0B5044626
:10D9B00087B00020FEF7BEFF002505950495069070
:10D9C0006560A56025616E46E560374625601022DA
:10D9D000900239462818FCF78FFE3878FF281FD0B0
:10D9E000009806994000400810350090884222D9DE
:10D9F000B179606840186060F179A0684018A06053
:10DA0000717AE0684018E060317A2069401820613E
:10DA1000B07A02280CD003280AD0042808D00AE0E3
:10DA20000498002802D1012005950490103502E0E9
:10DA300020683C3020600120C0038542C7D3E068E5
:10DA40000001E060206900012061059807B0F0BD89
:10DA5000F0B585B00020FEF76DFF694604911749C7
:10DA600000254A7E2C466E460C2A01D3144A01E05A
:10DA7000134A524287181022900231462018FCF7B0
:10DA80003BFE3078FF280FD000981034400040084B
:10DA90000090B8420BD90498807A022806D0032857
:10DAA00004D0042802D002E0103400E03C3501200C
:10DAB000C0038442DFD3284605B0F0BD18250020FE
:10DAC000C0A8000038B50D4604460121284603F0E1
:10DAD00007FC684603F0ECFD3D48806A3C38206056
