:020000040001F9
:10800000303C0020558101006F8101007181010029
:108010000000000000000000000000000000000060
:10802000000000000000000000000000738101005B
:108030000000000000000000758101007781010050
:10804000798101007981010055B101002DA701005E
:1080500059A70100000000001D950100E186010004
:108060007981010079810100798101007981010024
:108070007981010079810100798101007981010014
:108080007981010075A301007981010079810100E6
:1080900069A70100BDA70100D5A7010079810100F2
:1080A00079810100798101000000000000000000DA
:1080B00000000000000000000000000000000000C0
:1080C0000348854600F0FAFA004800470D04020014
:1080D000303C0020401E00BF00BF00BF00BF00BFFB
:1080E00000BF00BF00BF00BF00BF00BF00BFF1D195
:1080F00070470000401E00BF00BF00BF00BF00BFB0
:1081000000BF00BF00BF00BF00BF00BF00BFF1D174
:1081100070470000401E00BF00BF00BF00BF00BF8F
:1081200000BF00BF00BF00BF00BF00BF00BFF1D154
:1081300070470000401E00BF00BF00BF00BF00BF6F
:1081400000BF00BF00BF00BF00BF00BF00BFF1D134
:10815000704700000321094802680A43026008488A
:1081600002680A4302600748804707480047FEE765
:10817000FEE7FEE7FEE7FEE7FEE70000240500401D
:10818000540500404DAD0100C180010030B50B46E3
:10819000014600202022012409E00D46D5409D42E1
:1081A00005D31D469540491B254695404019154667
:1081B000521E002DF1DC30BD70B50024254600288C
:1081C00001DA01244042002901DA01254942FFF782
:1081D000DDFFAC4200D04042002C00D0494270BDCF
:1081E00010B5431A934209D28318881803E0401E41
:1081F00001785B1E1970521EF9D210BD03460B4365
:108200009B0703D009E008C9121F08C0042AFAD24C
:1082100003E00B780370401C491C521EF9D210BDBC
:10822000D2B201E00270401C491EFBD2704700220E
:10823000F6E710B513460A4604461946FFF7F0FF65
:10824000204610BD421C0178401C0029FBD1801A39
:10825000704710B5002200E0521C835C8C5CA34286
:1082600001D1002BF8D1D8B2E1B2401A10BD30B51F
:1082700004460020034600E05B1C934203D2E05C0E
:10828000CD5C401BF8D030BDF0B5074608465840DD
:1082900087B0C00F049048000E46590040084908B6
:1082A000BC1A884105D2384631461E4617460B4651
:1082B00002465800400810434CD0300D0390400552
:1082C0005900400D490D0590401A0290402872DA7D
:1082D00018030121000B090508430190049800923E
:1082E000002805D001995242002088410092019057
:1082F000029840210A1A0199009800F04BF90546AE
:108300000C466B4607CB00F066F9C0197141039A21
:108310000E0D0023D71756401A467A40164344D014
:10832000049A002A2DD0029A012A039A15DC12051C
:10833000C01A914101263605001C7141D20F059EDD
:10834000D2070093019202962A46234600F063F971
:1083500007B0F0BD38463146FAE71605224A0F4607
:10836000B218C01AB74101210905001C4F4100187D
:108370007F41114618187941E20F10436D1964418D
:1083800013E0E2076D0815436408C2071443039A1B
:1083900001261205C01A91413605001C7141CE0715
:1083A000400830434908C01851412A46234600F08E
:1083B00025F9CDE7FFE7049801224000C117121A02
:1083C00000238B4104983146C417381AA141EEE7C7
:1083D00030B40124E407634030BC55E730B40124D5
:1083E000E407614030BC4FE70000E0FFF0B50C4609
:1083F0005C4085B0E40FE40703944C000026640859
:1084000059009446490802460296224321D062460A
:108410000A431ED06200570D4A000E032303550D78
:10842000012402462C492405781B1B0B360B4018EF
:1084300023432643614600901C46501AB44103D39F
:108440000098401C009002E0921800985B410028C0
:1084500003DA0020014605B0F0BD00200121090526
:108460000746864611E064461D46141BB54106D3F7
:108470006546521BB341744607430C43A646CD07DD
:1084800040084908284392185B4105460D43EAD14C
:108490001046184313D060461946504071400843B7
:1084A00006D06046101AB34106D20122002306E02E
:1084B00000220123DB0702E00122D243531000987F
:1084C00074460105381C6141029C039D00196941F5
:1084D00000F094F8BFE70000FD0300000EB5054969
:1084E0000291002100910A460B46019100F093F899
:1084F00003B000BD330400004A0009030123090B47
:108500001B051943094B10B5520D9A4201DA0020A0
:1085100010BD064B34339A4203DC9A1A00F04AF835
:1085200010BD03495118884010BD0000FF03000032
:10853000CDFBFFFFF0B51FB40646002082B0054614
:108540004024019100901BE0019922460F463046DD
:1085500000F030F8049A059B801A994110D3104618
:108560001946224600F016F8361A8F410197224626
:1085700001200021009F00F00DF838184D410090B7
:108580002046641E0028DFDC019B00982946324605
:1085900007B0F0BD10B5202A04DB0146203A914017
:1085A000002010BD914020239C1A0346E34019434C
:1085B000904010BD10B5202A04DB0846203AD04078
:1085C000002110BD0B46D340D0402024A21A914078
:1085D0000843194610BD10B5202A06DBCB17084604
:1085E000203A1041C1170B4306E00B461341D0401F
:1085F0002024A21A91400843194610BD10B5002B43
:1086000008DA0024401C614192185B411A4301D1F1
:108610004008400010BDF0B51FB482B005460C0004
:1086200003D0084603F0E2F902E003F0DFF920305E
:108630000246009021462846FFF7ACFF049B059AAE
:1086400004460F4618431143084314D018461043FC
:108650001BD0009840210A1A18460599FFF7AAFF77
:1086600005460E46009A05990498FFF793FF0843C4
:1086700005D0012004E02046394607B0F0BD0020B7
:10868000C11705430E432C43374300990E986305E9
:10869000401A7905E40A00220C43FD0A0A3002D58B
:1086A00000200146E9E70105101969410C9C0D9D68
:1086B00000196941FFF7A2FFDFE70000064C012522
:1086C000064E05E0E36807CC2B430C3C984710347A
:1086D000B442F7D3FFF7F8FC3843020058430200D6
:1086E000044802680021002A03D0012201600248E8
:1086F00042607047007100400070004010B507F004
:10870000C1FF10BD07498A7A022A09D00A46AC3A4D
:10871000127F002A04D18A7C782A01D81018887424
:108720007047000058240020094800B50022014687
:108730000274C0310A824A8300F00CF8002804D089
:1087400002208875CA778A7700BD8A7500BD00004F
:108750008C23002004480069800CC007C00F01D0A2
:1087600000207047012070470005005000B5FFF75A
:10877000F1FF002803D10448007C132801D9002010
:1087800000BD012000BD00008C23002010B500F0CA
:108790009FFF102007F050FF0349488201204877CF
:1087A0000220C87510BD00004C24002000B5024610
:1087B000FFF7D0FF002808D00449088A801880B24B
:1087C000034A0882904200D90A8200BD4C2400204E
:1087D000302A000010B50878152818DD212804D0AB
:1087E000222807D0232812D10AE010000FD009A2B6
:1087F0000D490AE010000AD0E52106A2890004E034
:10880000100004D0084903A2891D06F016FA0020C2
:1088100010BD00002E2E5C736F757263655C627410
:108820006C652E63000000009103000010B5074C3A
:108830001321A08A76DF002803D005A2D62106F0F6
:10884000FCF902204034607710BD000008270020AA
:108850002E2E5C736F757263655C62746C652E633B
:108860000000000070B50646FFF774FF00250C4CB1
:10887000002809D1FFF77AFF002805D000F0D6FFC5
:10888000002801D0657770BD002E01D0A57701E0EA
:108890000120A07700F032FF0520607770BD000056
:1088A000482700200348407F042801D0002070475B
:1088B00001207047482700200348407F002801D04E
:1088C00000207047012070474827002070B52C4ACF
:1088D0000346008811460025403117281AD01ADCBB
:1088E000012823D0102826D0112813D1681E908289
:1088F00001201446487705F07BFA00F045F801F0B6
:1089000077FAA07D800705D401F094FB002801D000
:1089100002F0D8F970BD192823D0392803D0502887
:108920001BD05528F6D1FFF781FF70BD087F1A7A5A
:108930008018087770BD98889082042014460E46EF
:10894000487700F073F82060F57700F06FF80D4974
:10895000486020465C3062DF70BD184604F0E2FEDD
:1089600070BD98790028FBD1487F0528F8D1887F11
:10897000022803D00020FFF775FF70BD4D7770BD52
:10898000082700208C23002005480021017641762D
:108990008181C1810348817A4906490E81727047FD
:1089A000082700208C23002038B51E4C05F020FA43
:1089B00020465C3062DF0121684681701F21C94377
:1089C00001802246123269460120A0DF002827D10B
:1089D0000121154806F08EFA13480221401C06F0CA
:1089E00089FA11480321801C06F084FA0E480421FC
:1089F000C01C06F07FFA0C480521001D06F07AFA2B
:108A000009480621401D06F075FA07480721801D18
:108A100006F070FA04480821C01D06F06BFA002029
:108A200038BD000008270020E1FF000010B501F06C
:108A3000E7FE10BDF3B5234E84463446FF34393487
:108A4000261F307881B001283AD02078002837D10D
:108A5000A0782746401CA070803702987862FF20DB
:108A6000E070E2202071A07860710020A071E071B8
:108A7000029921722546A035F861224668731932A1
:108A800001210092297314238354204661461A3031
:108A9000029AFFF7A5FB297B029810220818287379
:108AA0001420607001202070307020460930009939
:108AB000FFF796FBF8691030F861687B1030687337
:108AC000FEBD00008C23002010B50C4605F002FE10
:108AD0000448017902464900303254520121417163
:108AE00010BD0000D820002003481321008889030E
:108AF000C001081A70470000D8200020704700000D
:108B0000F8B52B4A2B4E9078134685011446D17840
:108B10001B88303410E04F00E75BB7420BD126488A
:108B20004E00A05368185B1C1380491CD1700121B2
:108B300080B25171F8BD491C4029ECD31321C90101
:108B40008B4233D01A494979002903D01849303172
:108B500000F058FB0027164C25E0A078884225D26B
:108B6000401C1349C0B24035A070ADB2303100F0A6
:108B7000EDFA0F48002130304A00825AB2420ED13D
:108B80000B4A0D484B003032D05222886818521CD4
:108B90002280491CE170012180B26171F8BD491C3D
:108BA0004029E9D37F1CE168B942D6D80020F8BD3E
:108BB000D8200020FF7F0000FF3F0000F0B5194CD7
:108BC000A1B0A18BA069FFF7E1FA0025264620801D
:108BD0003036154F17E06946284600F0B7FA1148BD
:108BE000802269463030FFF7FBFA00204100715ABD
:108BF000B94202D02188491C2180401C80B2402803
:108C0000F4D36D1CADB2E068A842E4D80025054954
:108C1000A5703031284600F099FAE570657121B0F1
:108C2000F0BD0000D8200020FF7F000070B5C0B06C
:108C3000344C6946002000F073FA802020816D4694
:108C400020A9032000F06CFA3FA8023000F0D0FD0C
:108C50002D49002688424CD12846363000F0CDFD03
:108C60002A490002884244D102A8033000F0C0FD26
:108C7000218988423DD105A8023000F0B9FDE060AD
:108C80006846007CA077012833D16846407BA083EA
:108C900004A8013000F0ACFD208404A8033000F0EB
:108CA000A7FD608403A8023000F0A2FDA08401208B
:108CB00021890004FFF76AFA0546608CA84218D3A0
:108CC000A18B401BFFF762FAE0840220A071A5612E
:108CD000A08C2061208C00280CD068086061E08C9A
:108CE00021894000401E0818FFF750FAE1688842C9
:108CF00002D9002040B070BD0020C043A062A6850C
:108D00000120F7E7D820002055AA00000046415472
:108D100010B530210248FFF78AFA00F003F810BDC1
:108D2000D8200020F0B5A7B05A4C02206D46A071A3
:108D300080212846FFF77BFA2946012000F053FAEC
:108D40002946022000F04FFA802626816681012004
:108D5000A0831320C00160840427F000A78420842E
:108D600041100F20C001E0841E20E0600120A077A8
:108D70002761A16100026061F022802128462592CE
:108D8000FFF755FA0B2244A12846FFF729FA694656
:108D9000CE720020087301224A738F73C8730A745D
:108DA00048748F74CE7409220A75259A4A753F2239
:108DB0000A764876FF228A76C876087748778877D9
:108DC000C87707F085F908A9C871020A0A72020C6F
:108DD0004A72000E8872A08969468875000AC875B3
:108DE00008A90E7129208871284613222DA12B3045
:108DF000FFF7F6F92946002000F0F5F92189284609
:108E0000FFF715FA552018A98877AA20C8772946B0
:108E1000032000F0E8F900207F26249035E0FF22AF
:108E200080212846FFF7FCF901202E54801C802861
:108E3000FBD3FF212598C943014329701E4A010A2B
:108E400011436970010C12121143A970000EFF2129
:108E50000843E8702946002000F0D4F901270EE00D
:108E6000FF2280212846FFF7DBF901202E54801CC9
:108E70008028FBD32946384600F0C4F97F1CE068FF
:108E8000B842EDD82498401C2490A17F8142C6D8D6
:108E900027B0F0BDD8200020EBFE904D53444F5337
:108EA000352E30004E4F204E414D4520202020468B
:108EB0004154202020202000FFFFFF0010B505486E
:108EC0004179002904D003498078303100F09AF9C3
:108ED00010BD0000D820002070B5A8B0064600F0F4
:108EE00053F801F0EBF9050018D0002414E020A994
:108EF000204601F09DF900280CD06946204601F07B
:108F0000ABF931466846FFF7A4F9002802D12046A4
:108F100001F070F9641CA4B2AC42E8D328B070BD73
:108F200010B504002DD0E07C00282AD1A07C0028B8
:108F300002D0204605F082FDE08901F09BF9E2892C
:108F40000146104601F0E8F9218AE08901F0CCF9E8
:108F50000C48808E02040B482030817D11430A02A8
:108F6000C17DE089114301F0CBF9E089216801F06E
:108F700007F9FFF7A3FF01F0DBF90020207501F0EE
:108F800083F910BD0C24002010B50548007D002891
:108F900005D00348FFF7C4FF002001F07FF810BDA3
:108FA00088210020F0B5CDB00D4624A9019104A977
:108FB00000910146802204A8FFF712F9FFF7E4FFB1
:108FC000324C0026E574012D26D0FFF7F7FDFFF7A0
:108FD0008BFD0521C90288424CD3FFF791FD0500A6
:108FE00048D0FFF78DFD69460881020044D029462C
:108FF000009801F0D1F8411C40D0711E2182A67466
:109000002081694609896181A1812660E081012072
:1090100020751E484DB0F0BD01F050F9070029D071
:10902000002510E0A8B244A901F002F9002809D0F7
:10903000A8B2019901F010F900990198FFF709F918
:10904000002802D06D1CBD42ECD3BD4212D2A8B2A2
:10905000E08103AA02A901F037F98020A074E08919
:109060002081684600896081A0810398206060604B
:109070002675CEE70020CDE7284604E02846FFF716
:109080003DFD68460089FFF739FDF3E788210020A0
:1090900070B5A8B00646FFF777FF01F00FF905009D
:1090A00014D0002410E0A0B220A901F0C1F80028DB
:1090B00009D0A0B2694601F0CFF831466846FFF703
:1090C000C8F8002805D0641CAC42ECD3002028B0BE
:1090D00070BD0120FBE7000010B518210348FFF721
:1090E000A6F8FFF76BFD01F033F910BD88210020D1
:1090F00070B50D460446C1091646042000F0AAF8D2
:10910000002807D01320800320183246294600F09B
:1091100021FC70BDFF2280212846FFF781F870BD39
:1091200070B504460D462146002000F093F8002853
:1091300005D0E0018022294600F00CFC70BDFF2222
:1091400080212846FFF76CF870BD000070B504461A
:109150000D462146012000F07DF8002808D0074880
:109160008022006929460019C00100F0F3FB70BDA0
:10917000FF2280212846FFF753F870BDD820002039
:1091800070B504460D462146022000F063F8002821
:1091900008D007488022406929460019C00100F024
:1091A000D9FB70BDFF2280212846FFF739F870BD3A
:1091B000D820002070B50E460446C109A0B015465F
:1091C000042000F047F800280BD02A4631466846B4
:1091D000FFF706F81320800320182A46694600F09E
:1091E000D6FB20B070BD70B504460D462146002068
:1091F00000F030F8002804D0E0018022294600F079
:10920000C6FB70BD70B504460D462146012000F036
:1092100021F8002807D00448802200692946001957
:10922000C00100F0B4FB70BDD820002070B504462A
:109230000D462146022000F00DF8002807D0044812
:109240008022406929460019C00100F0A0FB70BDD2
:10925000D820002010B5030002F0DFFB0504070A48
:109260000D10210004290DD219E0FC290AD216E0C4
:10927000FF2907D813E00F20C00101E001204002C0
:1092800081420CD300F0D2FA002801D0002000E087
:10929000012000F00EF801F0F9FC002010BD0120C3
:1092A00010BD1321890310B54018032100F059FBAC
:1092B00010BD70B5054600F014F80446284600F0CD
:1092C00003F8001980B270BD014610B500200029D6
:1092D00006D0132110248903204602F061FD2046A8
:1092E00010BD10B54C240021204602F059FD204647
:1092F00010BD000070B504460D4621460320FFF75F
:10930000A9FF002808D00748802280692946001953
:10931000C00100F01FFB70BDFF2280212846FEF730
:109320007FFF70BDD820002070B504460D46214651
:109330000320FFF78FFF002807D0044880228069B0
:1093400029460019C00100F022FB70BDD820002082
:10935000FFB58BB06C480024009025460C98FEF7B2
:1093600071FFC0B206900C9802900D9800270990EA
:109370003E4608970298FEF765FFC0B212E00299D8
:10938000895D20395E2903D87F1C761CFFB2F6B2B6
:109390000299895DC90905D00899491CC9B2F61C12
:1093A000F6B208918642EAD30998102804D008281A
:1093B00007D00026554F93E00899F800090140189E
:1093C00000E0F800C6B2F5E70C98405C0246203A8F
:1093D0005E2A4BD80D99102902D0082928D01EE00A
:1093E0000001FF384A4BFF380238C018009A10219C
:1093F000786000F001FC0E98012813D0E0002901EC
:1094000041180B980822081802900099FEF7E8FE10
:1094100002980099082280300831FEF7E1FE641CB2
:10942000E4B25DE08020801B4010E1004018E6E7D8
:10943000C0001723FF389B030138C018009A082189
:10944000386000F0D9FB0E98012806D006200B9951
:109450006043401806220099DFE78020801B4110FE
:109460000620604309180B980818F3E7C0093ED09E
:109470000C98009A081820218E4626498C460178BF
:1094800009070B0C417880788906090D194383067A
:109490009B0E0B43180A01464E39DBB2512909D8FD
:1094A0000002C0181C494001411860460818714666
:1094B00000F0A2FB0E9801281ED0E00029014118FF
:1094C0000B981022081801900099FEF789FE019868
:1094D0000099102280301031FEF782FE6D1CEDB233
:1094E0006800281801190698814200D26CE7802E86
:1094F00008D830460FB0F0BD8020801B4010E1003E
:109500004018DBE7FF20F5E7FC29002000200020C1
:1095100000C3050000C905000040F6FF0348C16B09
:10952000002901D00021C163704700004061004064
:1095300010B52F4802240460001D0460012120465C
:1095400003F0F4FC2A480C300460001D0460001D88
:1095500004600121062003F0E9FC0121072003F04B
:10956000E5FC2348203004600021092003F0DEFCE4
:109570001F4828300460032211460B2003F0C8FC6A
:109580001B4830300460001D0460001D0460001D95
:10959000046000220221102003F0BAFC1448443079
:1095A000046003220021122003F0B2FC01211320E9
:1095B00003F0BCFC03221146152003F0A9FC012195
:1095C000162003F0B3FC0A485C300460084864309D
:1095D000046007486C300460001D0460001D0460D6
:1095E000001D046000211F2003F0A0FC10BD00003E
:1095F0000007005001200449C007486003210620ED
:1096000033DF06202EDF70470063004010B50121D4
:10961000142003F08BFC02490120087210BD0000E9
:109620008C2300201CB50449086A496A0090019106
:10963000684606F0E1FF1CBD5C23020001490220E0
:10964000086070473C07005010B501210F2003F05F
:109650006DFC10BD1CB5002811D001280FD10849A0
:10966000084C8868C96801910090207D002806D1C7
:10967000684607F045F801202075FFF73FF81CBD4C
:109680005C2302008C23002000B587B0002819D08D
:109690000D49002203C90490CD20C0040591029019
:1096A000182000901A20019003206946087304A82E
:1096B00007F05AF804A807F023F8044901200875B8
:1096C000FFF71CF807B000BD5C2302008C230020CC
:1096D0001CB504498869C96900900191684606F083
:1096E0008BFF1CBD5C23020010B5002801D00121B6
:1096F00000E00021092003F019FC10BD10B5174847
:109700009AB000681890062430216846FEF78FFD55
:109710006846C4700121018218A8059030210CA868
:10972000FEF785FD022108A801740CA9684605F022
:10973000B3FB7D24E400002803D02046FEF7DEFFC3
:1097400035DF02F087F9064873DF002803D0204692
:10975000FEF7D4FF35DF1AB010BD000084230200ED
:109760007423002010B5FFF751FF01F0F5FC02F063
:10977000A1F9FFF7DDFE00221049104607F096FD23
:109780000F490120C874FFF77FFF02F049F800F08D
:10979000CDFC00F003F901F089F8FFF72BFF00F092
:1097A00099FFFEF7C1FF01F0FBFA00F00BF84B2028
:1097B000C000FEF7A3FF01F009FB10BDE911020094
:1097C0008C23002070B50948074D00690024400D26
:1097D000C007C00F00D001246C702C70FFF726F971
:1097E000A1004919486070BDE4290020000500501F
:1097F00041780078090208437047C1780A028178ED
:1098000011430A0241780078114309020843704766
:1098100010B5054C0C2221460020FFF769FC002002
:10982000E0752076A07510BDE026002004480549AB
:10983000808A884201D101207047002070470000D3
:10984000CC260020A57F00000148007A7047000068
:10985000EC26002010B54721202004F019FD01203E
:10986000FEF74CFF0921212004F012FD40212220A7
:1098700004F00EFD0021232004F00AFD48212420DD
:1098800004F006FD0821322004F002FD01213320FE
:1098900004F0FEFC262003F01FFB2A21302004F0F8
:1098A000F7FC312003F018FB002010BD10B500F0CC
:1098B00001F810BD10B5214C6078002813D03F216D
:1098C000382004F0E5FC30213A2004F0E1FC1021BE
:1098D0003B2004F0DDFC0A213C2004F0D9FC2021CF
:1098E0003D2004F0D5FC0021322004F0D1FC002101
:1098F000332004F0CDFC4721202004F0C9FC0021D6
:10990000212004F0C5FC6078002801D0842100E00B
:109910000421222004F0BCFC1821232004F0B8FC10
:109920004821242004F0B4FC99212E2004F0B0FC3E
:109930000021252004F0ACFC002010BD8C24002068
:1099400010B50F2003F0C8FA0148407810BD0000A0
:109950003A300020134610B50A46194600F04CF97B
:1099600010BD10B5032905D0022907D0012908D060
:10997000002909D000F078F8002010BD00F040F870
:10998000FAE700F0A5F8F7E700F00CF8F4E7134663
:1099900010B50A46194600F0E5F810BD10B500F004
:1099A000CBF810BD30B5134D0024287885B00028C1
:1099B00002D02C7000F0A4F900F0BAF90E49C720CB
:1099C000087016200D49002301910490029403941D
:1099D000012200940849184607F06EFF05F00AF8C6
:1099E0002878002803D10120287000F0EDF805B098
:1099F00030BD000014200020303000203A3000201C
:109A000070B5164E04463078002586B0002802D086
:109A1000357000F075F900F08BF911485221017092
:109A2000210C4170210A8170C47016200D49002359
:109A30000191049002950395042200950849184667
:109A400007F03AFF04F0D6FF3078002803D1012058
:109A5000307000F0B9F806B070BD0000142000208E
:109A6000303000203A30002070B5164E0446307871
:109A7000002586B0002802D0357000F041F900F0D2
:109A800057F9114820210170210C4170210A817081
:109A9000C47016200D49002301910490029503958E
:109AA000042200950849184607F006FF04F0A2FFBB
:109AB0003078002803D10120307000F085F806B01E
:109AC00070BD000014200020303000203A3000200B
:109AD00070B5164E04463078002586B0002802D0B6
:109AE000357000F00DF900F023F91148D82101700C
:109AF000210C4170210A8170C47016200D49002389
:109B00000191049002950395042200950849184696
:109B100007F0D2FE04F06EFF3078002803D1012058
:109B2000307000F051F806B070BD00001420002025
:109B3000303000203A3000200EB500F045F80749DB
:109B400001200870684600F087F8694604480978E3
:109B5000C1746946497801750EBD000014200020CB
:109B6000AC230020F7B50F46164E0446C5193078D1
:109B70006D1E002803D00020307000F0C1F8200ACC
:109B8000290A00020902884203D139462046029A76
:109B90000DE0FF21201A01310D1AA9B22046029AC8
:109BA00003F03AFE029A791B6019521989B203F048
:109BB00033FE3078002803D10120307000F004F823
:109BC000FEBD00001420002000B5094985B0B92071
:109BD000087000201621074A019204910290039018
:109BE000034600900122024907F066FE05B000BD61
:109BF000303000203A300020F7B5154D0446287863
:109C0000002686B00F46002802D02E7000F078F8AB
:109C1000104803210170210C4170210A8170C47029
:109C20000898042201AC85C41621002304910096F3
:109C30000849184607F040FE07F0B2FB28780028D4
:109C400003D101202870FFF7BFFF09B0F0BD00006D
:109C50001420002030300020F0B5174D064628783B
:109C6000002485B0002802D02C7000F049F8134978
:109C7000902008704C708C70CC700C714C71162058
:109C800006210F4F002303910490029401220197B3
:109C900000940A49184607F00FFE07F081FB387957
:109CA0003070787970702878002803D101202870EE
:109CB000FFF78AFF05B0F0BD1420002030300020EF
:109CC0003A30002010B50C4886B005210170AA2159
:109CD0004170002016210222084C04910290034694
:109CE000019403920090044907F0E6FD07F058FB49
:109CF000607806B010BD0000303000203A300020FF
:109D000000B5094985B0AB20087000201621074A2C
:109D100001920491029003900346009001220249AF
:109D200007F0CAFD05B000BD303000203A300020F9
:109D300010B50E480024017886B0002902D00470C6
:109D4000FFF7DEFF0A4906200870162009490023A4
:109D5000019104900294039401220094044918464E
:109D600007F0AAFD04F046FE06B010BD1420002046
:109D7000303000203A30002010B50846024901F08A
:109D800021FEC0B210BD0000C840020010B50A4656
:109D9000002809D0012809D002280CD003280CD0B3
:109DA000042807D106A102E008A100E009A110469D
:109DB00001F008FE10BD09A1F9E70AA1F7E70000CC
:109DC000CEB4BDD3C0B4B5E700000000BEA9B6ABA9
:109DD00000000000636C696E67000000B6CCD0C55F
:109DE00000000000CEA2D0C5000000000520704792
:109DF00010B503490020C875FFF776FC10BD0000C0
:109E0000CC2900208307FF22DB0E9A408907090E28
:109E1000994000280BDA0007000F0838830808482B
:109E20009B001818C36993430B43C36170478308B1
:109E300004489B001B18186890430843186070473B
:109E400000ED00E000E400E070B505460024204687
:109E5000B030C0B204F036FA102004F033FA00201B
:109E600004F030FA1F2006F049FD2946802004F056
:109E7000F7F9641CE4B28035042CE8D370BD10B54A
:109E80000446AE2004F01EFAD52004F01BFAC120CF
:109E900004F018FAA82004F015FA1F2004F012FAB2
:109EA000AD2004F00FFA002004F00CFA202004F09A
:109EB00009FA022004F006FAD32004F003FA002085
:109EC00004F000FA402004F0FDF98D2004F0FAF9C6
:109ED0008D2004F0F7F9142004F0F4F9A02004F028
:109EE000F1F9C82004F0EEF9DA2004F0EBF91220C1
:109EF00004F0E8F9204600F019F8D92004F0E2F95E
:109F0000222004F0DFF9DB2004F0DCF9002004F06B
:109F1000D9F9A42004F0D6F9A62004F0D3F910BD95
:109F200001498020C86070470005005010B5044604
:109F3000812004F0C7F9204604F0C4F910BD10B523
:109F4000002801D0AF2000E0AE2004F0BBF910BD26
:109F5000034806210171024900201C39C87270476C
:109F60008829002010B5084CFEF7A6FC002802D076
:109F70000120FEF777FC2079002801D0002010BDD9
:109F80000120207110BD00008829002070B5264CEA
:109F9000FEF74CFD05462079002801D000F078FC42
:109FA00020790126030001F038FD0835050D1C213C
:109FB000352B3635FEF73AFD2060072006F09EFC73
:109FC000022026E02068281A672823D91749802014
:109FD000C8600220FEF792FB072006F08FFC0320EA
:109FE00017E0CC20FFF74BFF042012E00E4D1C3D84
:109FF000EE72FEF71BFD0E49C8656E75052008E080
:10A000000020FFF79CFFFFF78BFFFEF70FFD20609E
:10A010000720207170BDFEF709FD2168401A6728EE
:10A02000F8D90020F5E7000088290020000500503D
:10A030000C2700200248007A002800D00120704739
:10A040008C29002010B50BA0FFF722F800280CD0B7
:10A050000CA0FFF71DF8012808D00CA0FFF718F896
:10A06000012802D00BA0FFF713F810BD04F04EF941
:10A0700010BD00006F74615F73746172742E747828
:10A08000740000006170702E62696E0073642E624D
:10A09000696E000063792E62696E000010B5064992
:10A0A0000028087207D00548007C5A2803D90021EF
:10A0B000072001F093FA10BD8C2900208C2300208A
:10A0C00010B55D2109010E48FEF7B1F80C493220A8
:10A0D00048600C49642008800220E03108730720A2
:10A0E00080310871084A0021117406490822A039FC
:10A0F000CA700870024805498030416610BD0000F2
:10A10000602A0020E02D0020A02F0020CCCC0000F1
:10A110000349002801D0034800E0034888607047E5
:10A1200018200020C0390600300B010070470020C5
:10A130007047000030B50446A1B0032040226946B4
:10A140008003FEF7D5FF0D49FF22CB796D462046EF
:10A15000002B0ED0834200D8002044002B5D6419F0
:10A160006478182B05D23C2C03D24B718C7121B032
:10A1700030BD4A718A710020F9E70000CC29002027
:10A1800010B50C4604F0C4FA024801684C60012185
:10A19000817210BD20230020F8B5154C0E460746ED
:10A1A000E088012189021546884202D30020C0437D
:10A1B000F8BD04F0ADFA216800200860216848600D
:10A1C0002168C87321688D8121684E812168887754
:10A1D00021682020887321687F20C8770120A07221
:10A1E000206839464089FFF79FF80620205EF8BDB9
:10A1F0002023002010B50D4CE188814215D304F0D6
:10A2000087FA20688089002801D0FEF777FC206853
:10A210004089FEF773FC2068C17F7F2905D13F216B
:10A22000C1770120A07200F083F810BD2023002028
:10A2300010B50C4604F06CFA06490968C87F7F28FF
:10A2400001D0002010BD20222046FDF7C9FF0120CB
:10A2500010BD00002023002010B50C4604F058FA71
:10A260000348214600684089FFF744F8012010BDEB
:10A270002023002010B504F04BFA02480068C07B90
:10A2800010BD00002023002070B500200A4C0126DC
:10A29000E0800546B602284604F03AFA2068C07FFE
:10A2A000FF2806D0E0886D1C401CADB2E080B542AE
:10A2B000F1D3E08870BD0000202300200148C08851
:10A2C000704700002023002070B514460D4604F0AE
:10A2D0001FFA044801688989298000684068206065
:10A2E00070BD00002023002010B50C4604F010FAC9
:10A2F000024801680C810121817210BD20230020D9
:10A3000010B50C4604F004FA024801680C60012103
:10A31000817210BD2023002010B50C4604F0F8F91E
:10A3200002480168CC730121817210BD20230020F6
:10A3300010B5064CA07A002807D020892146800855
:10A340008039FEF773FF0020A07210BD202300208B
:10A3500010B507490020FEF713FF05490846803075
:10A3600001600021818001818172FFF78DFF10BDA6
:10A37000A022002010B506490020086048608860CF
:10A38000C860034940390860486007F071FC10BD9F
:10A390004011014010B5064A0121064804F08EFC28
:10A3A000002803D004A21D2104F047FC002010BDAA
:10A3B000F5A50100242000202E2E5C736F757263BA
:10A3C000655C5254432E630010B5024800F004F857
:10A3D000002010BD8F0200007CB5054600201F4CF8
:10A3E00000900190606CA84203D1FEF71FFBA064AF
:10A3F0007CBDFEF71BFB6564FEF718FBA064684696
:10A4000004F054FC01AAE16A009804F049FC206CB5
:10A410000199E26B4018A18D114E4904490C411875
:10A42000C80B1218C003081AE2632064306804F0F5
:10A4300007FD00222946306804F0C0FC002803D044
:10A4400008A25A2104F0F9FB206C20302064034854
:10A450002C3004F02BFCFEF7E9FA7CBD0C24002024
:10A46000242000202E2E5C736F757263655C52543D
:10A47000432E63000A4B10B5084A5943926A074BB2
:10A48000521A203310215956E1239B00594309B237
:10A4900052180146104600F047F810BD0C24002069
:10A4A000805101000A4B10B5084A5943926A074B84
:10A4B0005218203310215956E1239B00594309B209
:10A4C00052180146104600F02FF810BD0C24002051
:10A4D0008051010030B509493C258A6A20318C7EC3
:10A4E000CB7E6C43E318497EE12424016143C91803
:10A4F000034B58434018101A30BD00000C240020B4
:10A500008051010010B5074910228B6A20318A560C
:10A51000E12189004A439A180146104600F004F8E8
:10A5200010BD00000C240020F8B50C4606462E494C
:10A53000FDF72CFE05462C48E1216843371A2B48CD
:10A5400020800126A670E67009013846FDF71EFE40
:10A55000C0B2E121607109014843381A3C21FDF77E
:10A5600015FEA0713C213846FDF710FEE171072170
:10A57000E81CFDF70BFE2171FF2300216F335F1EE6
:10A58000228890071DD03846854206D3521C491CAC
:10A590002D1AC9B22280C829F2D32078800712D0A0
:10A5A000134900200A5CAA4208D8A278521CA27063
:10A5B0000A5C401CAD1AC0B20C28F3D37019E070CD
:10A5C000F8BD1846E0E70A4900200C390A5CAA42A7
:10A5D000F4D8A278521CA2700A5C401CAD1AC0B21A
:10A5E0000C28F3D3EAE7000080510100B207000015
:10A5F0009C2302007CB501A804F058FB334D6A4649
:10A60000E96A019804F04CFB00982E46C40BE00365
:10A610000090E96A403608180002000AE862B08A31
:10A620000019B082E0B2FEF7C1F8E0B2FEF76AF8B6
:10A63000FEF79CF8002809D0FFF7F8F8002805D0AD
:10A64000FEF730F9002801D0FEF7F0F8E86B0019AA
:10A65000E863A86A0019A862307E802801D2001938
:10A660003076708BFF212D31884201D20019708322
:10A6700016483430FFF746FF144801222030817E0F
:10A68000837C994210D002718174014660314B790C
:10A69000002B09D0437ECC79A34205D30C7AA34288
:10A6A00002D28B795B1E8B71C17D437C994204D0B1
:10A6B00082714174064B06211972C37C417E8B4224
:10A6C00003D00C2900D14271C1747CBD0C24002040
:10A6D000CC29002010B50A20FEF710F8FFF7E6F8A5
:10A6E000FFF72EF90249487400F004F810BD00008D
:10A6F000AC23002010B50C4CFEF798F90121206026
:10A7000021710020E08020816081A0812061A07300
:10A7100020756075A075E175A076E076207661768B
:10A720002077607710BD0000A829002010B50848E8
:10A73000816801290AD107494968490706D50021DE
:10A740008160084606F0AAFD06F0ECFF10BD00008F
:10A75000003100400033004010B50021014806F0F0
:10A7600051F810BD00400040FEB50020C043124D1E
:10A7700002906869019068462E6905F02BFB074638
:10A7800005F082FD0446002F08D002AA0199009826
:10A7900005F040FB029805F0C1FD06E0029805F0C7
:10A7A000BDFD002801D1002C02D0304604F0BCFDD4
:10A7B00000206871FEBD00005C20002004490122D9
:10A7C0000878504008704968002900D00847704751
:10A7D0004420002010B508484068002808D0804771
:10A7E000002804D0FF21054A2A3104F026FA10BDC2
:10A7F00005F0AEFC10BD0000A4200020BC42020009
:10A800007CB50020009001A804F050FA0F4C6A4675
:10A81000E16A019804F044FA206C00994618009609
:10A820007D21E06BC9004843FDF758FE05460C4604
:10A830003046FDF753FE064A064BFDF7D7FD2A4684
:10A840002346FDF721FDFDF757FE7CBD0C240020BB
:10A85000FCA9F1D24D62404008B50020064B04220D
:10A860000321009004F050FA002803D003A24721EE
:10A8700004F0E3F908BD0000443000202E2E5C7384
:10A880006F757263655C737973636C6B2E63000024
:10A8900010B50248FFF7A0FD10BD00008F020000B8
:10A8A0000148002101707047292000200149002043
:10A8B000087070472920002010B5034A012111704B
:10A8C00028DF02F023F910BD2920002010B5034C29
:10A8D0000223237029DF02F019F910BD292000207E
:10A8E000F0B591B02C4F002501266C4636030422AA
:10A8F0002146A819FEF7FCFB2078FF2802D040353E
:10A90000B542F4D3B54203D33046FEF7CAFC002566
:10A9100040212046FDF78BFC78680090201D00F058
:10A920002DFF1D492046A4394A7E203002730A7E3D
:10A9300042738A7E82730A7FC273CA7E02743A7B34
:10A9400042744A7A8274154AD279C274144A527E89
:10A9500082750A7C0276002A01D1012202760E4A13
:10A960001C32937F4376D27F82760C4A603A127E05
:10A97000C2760A68120E02770A68120C42770A88B9
:10A98000120A82770978C17740222146A819FEF77A
:10A9900011FC012011B0F0BD30240020CC29002092
:10A9A000EC26002010B585B00446684600F038F863
:10A9B0006846007C20706846407C60706846807CF9
:10A9C000A0706846C07CE07005B010BD10B586B0C0
:10A9D0000446684600F024F80FA1204600F0F2FF7C
:10A9E0006946C0B2097C2154401C6946C0B2497C0A
:10A9F0002154401C6946C0B2897C2154401C6946E0
:10AA0000C0B2C97C2154401CC0B200212154401C5A
:10AA1000C0B206B010BD00004342414E44200000C9
:10AA20003CB514490A6A0092496A019148210170B3
:10AA300049214170432181704221C1706A46002141
:10AA4000535C1B09092B01D9372400E03024E3189B
:10AA50004C0024182371535C1B071B0F092B01D9D1
:10AA6000372500E03025EB18491C89B263710829AD
:10AA7000E6D33CBD4000001070B5A4B00026FFF73F
:10AA8000A3FC03F089FCFEF7C3FEFEF7CFF8454CAC
:10AA900025468035A03400282ED0FEF7C7FE0028BA
:10AAA00069D0E37EA27E617EE07D03936B4607C39F
:10AAB000A37DAA8E3CA104A800F084FFC4B204AD1B
:10AAC000281932463DA100F07DFF0019C0B22818B8
:10AAD00047A100F077FF04A800F04CFBFEF7FCFA5A
:10AAE00000F09EFD01F0B0F9FFF7ACFA00F05AFF5C
:10AAF000FDF74CFE24B070BDFEF798FE002816D07E
:10AB00000020FEF7D6FB0646E37EA27E617EE07D56
:10AB100003936B4607C3A37DAA8E23A104A800F06C
:10AB200051FFC4B204AD2819324632A115E001200C
:10AB3000FEF7BFFB0646E37EA27E617EE07D0393C7
:10AB40006B4607C3A37DAA8E17A104A800F03AFFA5
:10AB5000C4B204AD2819324633A100F033FF001906
:10AB6000C0B2281822A100F02DFF04A800F002FBBB
:10AB7000FEF7CEF8B2E70120FEF7A6FB0646E37E1D
:10AB8000A27E617EE07D03936B4607C3A37DAA8E00
:10AB900005A104A800F016FFC4B204AD281932467E
:10ABA0002DA190E78C23002025642D25642D25649C
:10ABB0002C2025643A25643A256420005B4D4149E8
:10ABC0004E5D20594553204641542C205945532071
:10ABD000415554482C2065726173652025642062BC
:10ABE0006C6F636B73202834204B422920000000D7
:10ABF0000D0A00005B4D41494E5D204E6F204641DD
:10AC0000542C205769746820417574682C20657233
:10AC100061736520256420626C6F636B7320283438
:10AC2000204B4229200000005B4D41494E5D204EE3
:10AC30006F204641542C204E6F20417574682C20A3
:10AC4000657261736520256420626C6F636B73208D
:10AC50002834204B422920005B4D41494E5D20594C
:10AC60004553204641542C204E6F20415554482CCA
:10AC700020657261736520256420626C6F636B735D
:10AC8000202834204B4229200000000010B5074C3A
:10AC9000FDF708FE002806D0FDF7C8FDE08A8021F8
:10ACA0000843E08210BD00F00DF810BD0827002019
:10ACB00003494A7C824201D1002048747047000059
:10ACC0008C23002030B51348A5B0C17DC47E837E9F
:10ACD000427E6D461EC5837D2038828E0EA104A85B
:10ACE00000F070FEC4B2281910A100F06BFE00192C
:10ACF000C0B2281814A100F065FE04A800F03AFACA
:10AD0000FEF794FD002801D0FFF7EAFD35DF25B0FE
:10AD100030BD00002C24002025642D25642D2564E1
:10AD20002C2025643A25643A256420005B5359534E
:10AD300054454D5D2072657374617274696E67204D
:10AD400073797374656D00000D0A000010B505F08D
:10AD50004FFA002805D00E490C484860C8130D4929
:10AD600088610D48018CC9B201290ED1818C090777
:10AD70000BD1018D0906090F042906D1808D00062B
:10AD8000000F02D105490120886010BDDFFF07C018
:10AD900000050040006C0040C00F00F000060040BD
:10ADA00070470000084800214279002A04D0017150
:10ADB00041718171062070478279002A02D0817129
:10ADC000C079704700207047FC26002010B500F0C5
:10ADD000D5F9002000F00AF810BD012070470000EE
:10ADE0000148807D70470000EC26002010B5032844
:10ADF00003D0002000F00AFA10BD0220FAE700009C
:10AE000010B5A0B0FEF726FD0F4C01202077FDF70E
:10AE10000DFE2146203988630020A07700F016FA45
:10AE2000002802D00320FFF7E1FF0748E030007B55
:10AE3000002807D005A1684600F0C4FDC1B26846ED
:10AE4000FDF7F8FD20B010BDAC2300205B4143545A
:10AE500049564954595D202D20454E544552206C89
:10AE60006F7720706F776572202D2000F7B501464F
:10AE70002A48002692B01446002925D06846FFF7DC
:10AE8000F9FA02AF00254022D00139462818FEF712
:10AE90002FF93878FF2834D002996A4602980904BD
:10AEA0009278090EC0B28A4226D16946C978814299
:10AEB00022D113980126042825D006282CD0072853
:10AEC00026D0092821D125E01399042906D0062986
:10AED0000FD0072906D0092907D108E0416880680A
:10AEE000081801E0006905E0106001260DE0806AA5
:10AEF000FAE7C0680009F7E7012000034035854202
:10AF0000C1D3002000E004982060304615B0F0BDA9
:10AF10000698F9E70398F7E70598F5E7CC230020B2
:10AF2000F0B5044687B00020FFF7D4FA0025059558
:10AF3000049506906560A56025616E46E56037461C
:10AF400025601022900239462818FEF7D1F838788B
:10AF5000FF281FD000980699400040081035009047
:10AF6000884222D9317A606840186060717AA0689E
:10AF70004018A060F17AE0684018E060B17A20697A
:10AF800040182061307B02280CD003280AD0042806
:10AF900008D00AE00498002802D101200595049009
:10AFA000103502E020683C3020600120C00385425B
:10AFB000C7D3E0680001E0602069000120610598C6
:10AFC00007B0F0BDF0B585B00020FFF783FA694601
:10AFD0000491174900254A7E2C466E460C2A01D35F
:10AFE000144A01E0134A5242871810229002314657
:10AFF0002018FEF77DF83078FF280FD00098103425
:10B00000400040080090B8420BD90498007B022809
:10B0100006D0032804D0042802D002E0103400E057
:10B020003C350120C0038442DFD3284605B0F0BD83
:10B030002C240020C0A8000010B5FFF741F810BD77
:10B0400030B5C1B02548264C00216B4662568D00B4
:10B05000FF325032491CC9B25A514029F6D300225E
:10B0600011468C001C59491CA218C9B24029F8D3BA
:10B07000911100240181224695005D59521C6D1AE0
:10B080006D432C19D2B2402AF6D3A211FF394B39A5
:10B090004281112903D90B460D330D2B06D2092A03
:10B0A00002DA6F21C90013E06F2111E0112906DDDA
:10B0B000092A01DADE210BE0FF214E3108E00D23E1
:10B0C000D94206DA092A02DAFF21BD3100E005493A
:10B0D000818100F0C5F841B030BD00009A29002000
:10B0E000202A00202B02000070B5184CFEF7ACFAA5
:10B0F0000A20FDF703FBFEF795FA0A20FDF7FEFA9A
:10B10000402005F099FA25460E3DE8810A20FDF71A
:10B11000F5FA042005F090FA28820A20FDF7EEFAED
:10B12000FEF78CFA0A20FDF7E9FA00F033FD084932
:10B130003F200A18203AD27F0A54401E0006000E13
:10B14000F7D1A079B130087070BD00009A290020B5
:10B15000202A00207047000018B500241E230E226C
:10B1600008210D20009405F0ADFF0148446018BD92
:10B170000023004000B505F0D5FF00BDF0B500206C
:10B180002149A1B00446C20053185C60401C8C5495
:10B1900000B25C700528F6DB00206946FF220A54E5
:10B1A000401C00B28028FADB03F0DAFA852501267C
:10B1B000202719E06846047045708670032101F06D
:10B1C000EBFE68460770012101F0E6FE02216846A9
:10B1D00001F0C0FE68460078852803D168464078B3
:10B1E000112809D003F020FC684600788528E1D1B9
:10B1F000684640781128DDD11321684601F0AAFE87
:10B2000003F012FC21B0F0BD3C32002008B5002153
:10B210006A461170022806D0812050700221104623
:10B2200001F0BAFE08BD8320F7E7000010B5FEF775
:10B2300099FE7D210901012000F0BEF9024802219A
:10B2400081720121C17510BD6C2900200348007A6C
:10B25000002801D000207047012070476C29002091
:10B2600010B50248012101F0DBFA10BD682700206B
:10B2700005480021C27B0548142A00D20170162A15
:10B2800000D90170704700006C2900202C24002098
:10B29000F8B5C44DFDF7CAFBEC1DFF340646FA3481
:10B2A000E07B002812D0207B0027030000F0B5FBD4
:10B2B0000E0E083A55C18499CBF1F016AEEFEE0EA2
:10B2C000607B002803D0677302F06AFEF8BD03CDEF
:10B2D0004018B042FAD27D21C90080E0607B00288E
:10B2E00012D06773FDF736FA002803D1FDF73EFA56
:10B2F000002805D07D21C9000B2000F05DF9F8BDC4
:10B30000012001F037F8F8BD7D202968C000081839
:10B31000B04203D3FFF764FD0028F4D07D2109017A
:10B32000072011E0607B0028EDD06773FEF77EFAFE
:10B3300000280DD0FDF71AFA002802D00B20207348
:10B3400004E07D21C900082000F036F9AE60F8BDA8
:10B3500003207D21A073C900CFE7607B002804D0C3
:10B360000122052167730F2016E003CD083D401828
:10B37000B042ECD27D20C0002E606860FEF764FA17
:10B38000002810D087488849DC38406E301A88423F
:10B3900005D201220021102000F038FDF8BD8148BF
:10B3A0007C380772F8BDFEF745FE002802D0032066
:10B3B000E0743AE0002112E0607B002802D067735D
:10B3C0000E2013E003CD4018B042EBD2FEF72EFA68
:10B3D000002802D02520E07415E07D2149010220DB
:10B3E0008BE7607B002806D067730A20E074012198
:10B3F00000F0CEFFF8BD03CD4018B042FAD2FEF700
:10B4000015FA0028E9D07D2149018CE0607B0028F5
:10B4100005D066486773007C00F000FE96E77D204B
:10B42000A96800010818B042E4D27D21C9000820B3
:10B4300063E7607B002801D06773BBE703CD40184A
:10B44000B042CAD3F8BDFEF7F5FD002807D00320AF
:10B45000E0747D21C900082000F0AEF814E0FEF78A
:10B46000E5F9002808D0FEF7EFF9002808D00320FE
:10B470007D21A073C90015E07D214901022011E062
:10B4800003F0B4F9002805D0AE600DE061E04CE0B7
:10B4900036E038E003CD083D4018B04204D2FF2129
:10B4A0009131082000F088F8E17E414800900029A1
:10B4B00001D0477A00E002277D20C0004743E07CAE
:10B4C000102808D1FFF789FC002804D00098877A5B
:10B4D0007D20C0004743A868C019B042B2D2FDF732
:10B4E00039F9002809D03348A9680818B042A9D210
:10B4F0000D202073FFF784FCF8BD0D202073F8BDEC
:10B5000001F014FBF8BD607B00280AD06773E07C73
:10B51000252801D1207DE074C0B2012100F0C6FED3
:10B52000F8BDFF21F5310720E7E6607B00280AD04F
:10B53000012367731A461221002000F01DFCAE6043
:10B54000E7742775F8BD1B48A9680818B042D4D322
:10B55000F8BD03CD4018B042FAD2FEF7F9FC2773CC
:10B56000E775E776FFF784FEE07C014618390A2983
:10B570000BD92338012808D9207D132805D00D28A0
:10B5800003D0FDF7E7F8002801D0E77401E025209B
:10B59000E07406482030007F002800D00320FFF729
:10B5A00025FCF8BD6827002060EA00008C230020FD
:10B5B0008C2400201027000010B5074CE21DFF323C
:10B5C000FA32137B0C2B06D0012353731073616086
:10B5D000FDF72CFA206010BD6827002070B50C46DE
:10B5E0000546FFF755F9FEF7BDFCFDF71FFA0A49BE
:10B5F000001B486601200949002DC87502D00021B2
:10B60000284605E0FFF722FE002803D000210A208B
:10B61000FFF7D2FF70BD00000C2700206C2900202E
:10B6200013480021016081801E220271962303804D
:10B6300041718261242282830E4A82605200C2607C
:10B640000D4A0261426181770122C2772030017088
:10B6500041708170C1704171C17101720171052227
:10B66000427219228272054AD175C1727047000078
:10B670006C240020A0BB0D00C0270900AC290020CD
:10B6800030B50378394A1C02437823431C0283787F
:10B690002343C4781B021C43354B001D9C4263D3DB
:10B6A00094600478091F25024478C9B22C4325020E
:10B6B00084782C432502C478001D2C439C4253D32C
:10B6C000D4600478091F25024478C9B22C432502AE
:10B6D00084782C432502C478001D2C439C4243D31C
:10B6E00014610478091F25024478C9B22C4325024D
:10B6F00084782C432502C478001D2C439C4233D30C
:10B700001C4B54611361037893774378D377837824
:10B7100020321370C3785370037900230A39937071
:10B72000C9B2801DD37003291ED3047854714478A4
:10B73000D4718478C91E1472C9B2C01C1371022955
:10B7400012D3037853724378801C891E09069372C2
:10B75000090E09D00378401C074C491E0906E37501
:10B76000090E01D00078D07230BD00006C2400209A
:10B77000E093040088130000AC29002010B526498E
:10B78000421C8B681B0E43708B681B0C83700B89EB
:10B790001B0AC3700B7A0371CB681B0E4371CB6815
:10B7A0001B0C53718B891B0A93710B7BD3710B6933
:10B7B0001B0E13720B691B0C53720B8A1B0A9372BC
:10B7C0000B7CD3724B691B0E13734B691B0C5373A9
:10B7D0008B8A1B0A93730B7DD3738B7F1374CB7F80
:10B7E000537420310B7893744B78D3748B78137522
:10B7F000CB7853754B799375CB79D3750B7A1376D8
:10B800004B7A53768B7A9376044BDB7DD376C97A69
:10B8100011771D21017010BD6C240020AC2900207F
:10B8200010B588B0AA2168460170BB210171CC21F6
:10B830000172112101732221017433210175442108
:10B84000354C017606F0F1FC9021012006F02AFD2E
:10B850008021082006F060FD0221092006F05CFD31
:10B860006A460121002006F029FD012101AA0846AF
:10B8700006F024FD02AA0121022006F01FFD01208E
:10B88000FCF73CFF7B21132006F046FD6B211420C2
:10B8900006F042FD0121152006F03EFD0021162094
:10B8A00006F03AFD0120FCF729FF03AA012113202D
:10B8B00006F004FD04AA0121142006F0FFFC05AAED
:10B8C0000121152006F0FAFC06AA0121162006F037
:10B8D000F5FC00210E2006F0E5FC00211E2006F0FC
:10B8E000E1FC0021112006F0DDFC70211D2006F096
:10B8F000D9FC7021102006F0D5FC20211F2006F075
:10B90000D1FC2021122006F0CDFC06F081FC0020A5
:10B910002070607008B010BD1C2A00200020704705
:10B920007CB50D4601461A4C6846FEF7BBFD6A46DB
:10B93000D178927800208300C3181E1976788E4241
:10B9400007D1E35C934204D181004018011905221C
:10B9500013E0401CC0B20528EDD300216846FEF775
:10B96000A1FD69466078C97888420BD16946207884
:10B970008978884206D1052221462846FCF730FC0A
:10B9800001207CBD00202871E870A8707CBD0000FB
:10B99000A423002002490148086070473546526ED2
:10B9A0000006014005480121C160CA044260826866
:10B9B0000A43826002480160002070470005014090
:10B9C000000001400FB410B504A9074B02AA039868
:10B9D00001F0D4FF044602A9002002F091FC2046A9
:10B9E00010BC08BC04B0184701E301002021020C80
:10B9F00001D010211046020A01D010460839020970
:10BA000001D01046091F820801D01046891E420845
:10BA100001D0881E7047081A704730B47446641EFF
:10BA20002578641CAB4200D21D46635D5B00E318C1
:10BA300030BC184702E008C8121F08C1002AFAD11A
:10BA400070477047002001E001C1121F002AFBD19E
:10BA50007047000010B518210D48FCF7E8FB0C48B2
:10BA600000210170416001720A498C7E002C08D0CF
:10BA7000094BF0220382012C428201D102208876F8
:10BA800010BDA02202821E2242820120F7E70000A0
:10BA9000742300204C2700206406000010B50446E3
:10BAA00003F01AFE204603F0CFFA2046FCF70EFF03
:10BAB00010BD000010B588B000F036F8FEF7CCFEDF
:10BAC000FEF768FC002000F067FA01F095F9FCF73A
:10BAD0006BFF7D24E400002803D02046FCF70EFE17
:10BAE00035DF1C216846FCF7A2FB4B21890401913C
:10BAF00001218903002002910090052269460A7302
:10BB0000C88101220A74059006480690684603F031
:10BB100071FA002803D02046FCF7F0FD35DF08B0AD
:10BB200010BD000051F401001CB500234822164945
:10BB30000E2005F037FB7D24E400002803D02046CA
:10BB4000FCF7DCFD35DF00200090694601900870AD
:10BB5000684660DF002803D02046FCF7CFFD35DFC4
:10BB60000A4805F015FB002803D02046FCF7C6FD67
:10BB700035DF074805F02EFB002803D02046FCF7F0
:10BB8000BDFD35DF1CBD00002C2300209DBA010047
:10BB900049E70100F0B5FFB08AB0FF22214C913295
:10BBA000214904A8FCF71CFB608822881F49801AE1
:10BBB0004843002101E0801A491C0028FBDC1C4A94
:10BBC0000020FF2504AB9035914205DA1E5C401C35
:10BBD000921B00B2A842F7DB643005B215486F46ED
:10BBE000C17DC67E837E427E4EC7837D2038828E95
:10BBF00011A168A8FFF7E6FE0095C6B268AF63889A
:10BC00002288B81911A1FFF7DDFE8019C0B23818DB
:10BC100016A1FFF7D7FE68A8FFF7ACFAE5807FB062
:10BC20000AB0F0BD9A290020104102001027000040
:10BC3000064600002C24002025642D25642D256453
:10BC40002C2025643A25643A2564200074686572C6
:10BC50006D3A2025642020706F7765723A20256444
:10BC6000202074656D703A20256400000D0A0000E4
:10BC700070B51A491A48FCF7DAFA1948002420303E
:10BC800004772038C4730121817332210174047355
:10BC900065214173124D2020A03528741149281ABE
:10BCA00081623430FEF72EFCE87D6874A87EA874AB
:10BCB0000D49062008720D4804600D4804600460B8
:10BCC0000C480460046004600B4804600B48046086
:10BCD00004600B4804600B48046070BD94060000CB
:10BCE0008C23002020797C53CC29002000250040A3
:10BCF00000350040004500400075004000F5004060
:10BD00000025014000350140FFB50D4607460121E1
:10BD100081B0164649021648FCF789FA154C3A4696
:10BD2000E019FF30FF3002300178002002F0DCF82B
:10BD30006019FF30FF30023001782A20401A0006D7
:10BD4000400E2A462A3002F0CFF8A019FF30FF300B
:10BD5000023001788020401AC0B2324602F0C4F8A6
:10BD60000498002801D002F0B7F905B0F0BD00003A
:10BD700074270020C023020070B516460A46054607
:10BD80001C460121104601F061FA284601F026F90F
:10BD9000304602F0E7F9002C01D002F09DF970BDA9
:10BDA00070B50D4604461CE0FF2C08D9002128463A
:10BDB000FDF7D7FD012000052D18FF3C0FE0102CEA
:10BDC00002D32804000C0FD0082C01D3680414D02F
:10BDD00003212846FDF7C5FD012000032D18641E30
:10BDE000A4B2002CE0D170BD01212846FDF7B9FDB9
:10BDF000012000042D18103CF2E702212846FDF72F
:10BE0000B0FD0120C0032D18083CE9E7F8B50F4646
:10BE1000002516462C46012101F018FAFCF79AFC81
:10BE2000002800D00125FCF73DFD002800D00124AA
:10BE30002146284601F0C0F9384602F093F9002E59
:10BE400001D002F049F9F8BDF0B5504F91B03C4631
:10BE5000643C0026FDF7EAFC002857D06D4604221A
:10BE6000900229463018FDF743F92878FF2804D0BE
:10BE70000120000340368642F1D3002E57D03F20E8
:10BE80008001402229463018FDF732F90098786089
:10BE9000297908461638112802D8681DFFF7F0FBEB
:10BEA0003A4E2035287BA43E7076687B3076A87B9E
:10BEB000B076E87B3077287CF076687C3873304643
:10BEC000B430FEF71FFB3046A030C17D4174817E47
:10BED00081742046FFF724F8E063206860616068A1
:10BEE000A061A068E061E068206220696062FFF7FD
:10BEF00069F8A062A87C70722549E87CC871254960
:10BF0000A87D4876287E002814D014E02046FFF74C
:10BF100007F8E06320696062E0682062A068E06181
:10BF2000206860616068A061FFF74CF8A0620020A3
:10BF300011B0F0BD322030741448697E1C30817716
:10BF4000A97EC1771249E87E60390876287F306083
:10BF5000697F000208433060A97F00020843306017
:10BF6000E97F000208433060010E01D0002000E0AC
:10BF7000401C306001200003FDF793F978681E3003
:10BF80007860FEF7ADFC0120D2E7000030240020ED
:10BF9000CC290020EC2600207FB5054604F058FE91
:10BFA0007D24E400002803D02046FCF7A7FB35DF02
:10BFB000002D01D0012000E000206946087303A88D
:10BFC00003F0A8FD002803D02046FCF797FB35DFDF
:10BFD00001A805210130FCF72AF9694648790122B8
:10BFE0001043E1210840DF210C30084069464871C8
:10BFF000072088711020C871064800900A71064811
:10C0000003F0AEFE002803D02046FCF777FB35DFB7
:10C010007FBD0000D587010008200020F1B592B057
:10C0200001213F4849021090FCF701F9FCF792FB0F
:10C030009D2100286846017003D09F21417002268F
:10C0400000E001260F2084460020364D2FE0364ABE
:10C05000614651188D22D2008A186946095C334C1A
:10C0600049000919FF31FF31023113460988304C6C
:10C0700080330919002408E00F7817704F78641C8A
:10C080001F70891C521CA4B25B1C6F463F5C7F5D15
:10C09000A742F1D8711E88426946095C4A5D614633
:10C0A00000D0491D511889B2401C8C4680B2B04264
:10C0B000CDD31298642803D364202B23129005E07B
:10C0C0002B2148436421FCF761F883B216491948D3
:10C0D000184A0818803289180022FC243F2509E0FC
:10C0E0000678521C264306700E78401C2E430E70B4
:10C0F00092B2491C9A42F3D30FA16846129AFFF7F5
:10C1000061FC0748002310226946DA30FDF720F968
:10C110001098FDF799FE0120FDF711FF13B0F0BD57
:10C1200074270020C02402008C230020C2270200B4
:10C13000C42F0200790400002564252500000000BA
:10C14000F3B50746007800248BB000285BD00026AA
:10C1500035460A216846FCF76AF86846395D0A46A2
:10C16000203A5E2A0AD8641C0835EDB2E4B2702D7C
:10C1700010D38455761CF6B200250BE0C9090BD00C
:10C18000682D03D38455761CF6B20025E41C1035C7
:10C19000E4B2EDB2802CE1D3002D00D084550C998F
:10C1A00049060C0E005D00282FD0002C2ED06946C9
:10C1B00009192039CD7F401BC6B2202103A8FCF706
:10C1C00036F87919324603A8FCF70AF80023102242
:10C1D00003A91048FDF7BCF8684601194978002901
:10C1E00011D0045D081BC5B2202103A8FCF71FF87D
:10C1F00039192A4603A8FBF7F3FF0023102203A9ED
:10C200000548FDF7A5F80DB0F0BD002468460025EF
:10C210000678D2E77427002074280020F0B50025A6
:10C220009646844603462C461BE07046005D1C4F34
:10C230004600BE5B1B4FF7191B4E305C002605E025
:10C240003A781A70761C5B1CF6B27F1C8642F7D3D4
:10C250002818C5B28C4201D2ED1CEDB2641CE4B2C8
:10C260005B1D8C42E1D38024601B40100206120E3D
:10C27000604614D07F30831A0021A21A05E01C7892
:10C280000470491C401EC9B25B1E8A42F7DC0022C2
:10C29000802904D2491C0270C9B2401EF8E7F0BDE3
:10C2A000C2270200C42F0200C023020070B504465A
:10C2B0002F48C51DFF35FA35002C07D0621F042A10
:10C2C00008D8204600F058F92C7570BD084600F0DB
:10C2D00051F8F9E722460A3A052A03D8204600F029
:10C2E00057F8F1E72246103A012A0BD8102C04D057
:10C2F000112CE9D100F094FAE6E70B4601220C215B
:10C30000082016E0204618380A2803D8204600F0F6
:10C3100057F9D9E720461338042803D8204600F0FF
:10C320005FF8D1E7122C07D306D80B4605220F2160
:10C330000B20FFF721FDC7E72046233801280ED840
:10C340000B46232C07D0242CBFD196228D21882088
:10C35000FFF7DAFC70BD8B228A218920F8E7032CD5
:10C36000F8D10B46002211211046FFF705FD70BDE4
:10C370006827002010B50446FCF7ECF90028224697
:10C3800001D0032100E002210120FFF73FFD10BD95
:10C3900010B50A380300FFF740FB06090E131C17FF
:10C3A00004220B4601220E210A2016E00B46012230
:10C3B0000921072011E00B4601220A210E200CE082
:10C3C0000B4600220B2107E00B46062213210F200B
:10C3D00003E00B46002207210020FFF7CDFC10BD33
:10C3E000F3B5044693B0002001251290690253482A
:10C3F000FBF71DFF204613387D26E127F6003F019D
:10C400004F4C0300FFF709FB05041168863A6100F1
:10C410004CA102A8FFF7D6FAC1B20C2202A800F084
:10C42000BDFA0B2000F0DAFD4FE0FCF7FFFA2169BE
:10C43000401A3146FBF7AAFE05463946FBF7A6FE31
:10C440000446E120000160432D1A3C212846FBF7F9
:10C450009DFE03463C205843281A009022463BA1EB
:10C4600002A8FFF7AFFAC4B23CA10AA8FFF7AAFAE4
:10C470000021C3B20D200191009048E02169E069DC
:10C48000401A3146FBF782FE05463946FBF77EFE31
:10C490000446E120000160432D1A3C212846FBF7A9
:10C4A00075FE03463C205843281A009022462CA1D2
:10C4B00002A8FFF787FA0222C1B20B200192129B59
:10C4C00000900AAA02A800F0B3F91498002801D03D
:10C4D00001F002FE15B0F0BDFEF77FFC002808D089
:10C4E000FDF725FE024621A102A8FFF76BFAC4B2B0
:10C4F00005E09821684601720124002141721CA1C7
:10C500000AA8FFF75FFAC3B20820019500900AAAB3
:10C510002146D7E70A4861698038006D401AA16951
:10C520000818020911A102A8FFF74CFAC4B211A120
:10C530000AA8FFF747FAC3B20320E6E774270020F2
:10C540000C24002030302E303000000025643A25C5
:10C550003032642E25303264000000002D2C2C0077
:10C5600025643A25642E256400000000256400003F
:10C570002C2D2C002C2C2D0038B5401F0F4C0122E7
:10C580000300FFF74AFA05170413080F0E000223F1
:10C590000092012202E0032300920222204600F0D2
:10C5A0007FFA38BD042300920322F7E708230092A4
:10C5B0000422F3E7052300921A46EFE768270020DC
:10C5C00070B50E460546012190B0002449024B4843
:10C5D000FBF72DFE4A48183D007E2B00FFF71DFAA1
:10C5E0000B071137414B555F696F83791E00002897
:10C5F00001D044A100E045A16846FFF7E3F945A159
:10C6000008E0002801D046A100E047A16846FFF7F6
:10C61000D9F946A108A8FFF7D5F9C4B237480123D4
:10C62000102269468030FCF793FE354808AA21465F
:10C630007838FFF7F3FD0B2000F0D0FC102000F05D
:10C64000CDFC002E01D001F047FD10B070BD0028D8
:10C6500001D039A100E03AA16846FFF7B3F939A14A
:10C66000D8E7002801D03AA100E03BA16846FFF7D7
:10C67000A9F93CA1CEE7002801D03DA100E03EA1F0
:10C680006846FFF79FF93EA1C4E7002801D03FA10B
:10C6900000E040A16846FFF795F940A1BAE70028FD
:10C6A00001D041A100E042A16846FFF78BF942A109
:10C6B000B0E744A16846FFF785F945A1AAE700283D
:10C6C00001D046A100E047A16846FFF77BF947A1EA
:10C6D000A0E7002801D048A100E049A16846FFF783
:10C6E00071F949A196E7002801D048A100E049A1CD
:10C6F0006846FFF767F949A18CE70000742700201E
:10C700006C290020E5BE92E6ADA5000057616C6B78
:10C71000000000002D2C2C2C2C2C2C2C2C0000008C
:10C72000E8B791E6ADA5000052756E002C2D2C2CBB
:10C730002C2C2C2C2C000000E58892E888B90000F5
:10C74000526F77002C2C2D2C2C2C2C2C2C00000024
:10C75000E6A4ADE59C860000456C6C697074696365
:10C76000616C00002C2C2C2D2C2C2C2C2C0000006F
:10C77000E6A5BCE6A2AF00005374616972730000C5
:10C780002C2C2C2C2D2C2C2C2C000000E58D95E82D
:10C79000BDA600004379636C650000002C2C2C2C96
:10C7A0002C2D2C2C2C000000E69C89E6B0A7000064
:10C7B0004165726F626963002C2C2C2C2C2C2D2C63
:10C7C0002C00000050696C6F78696E6700000000F3
:10C7D0002C2C2C2C2C2C2C2D2C000000E585B6E5C7
:10C7E000AE8300004F746865727300002C2C2C2CF3
:10C7F0002C2C2C2C2D000000E688B7E5A496000018
:10C800004F7574646F6F72002D2C0000E5AEA4E5C7
:10C8100086850000496E646F6F7200002C2D000049
:10C8200010B50B4601220D210920FFF7A5FA10BD16
:10C83000FFB5544A7D20C00015188D20C000111886
:10C840009D20C00083B0121800209E460646029527
:10C850000092019139E0039B9F5D312F04D1801C30
:10C86000891C921CC0B2AD1C474C7B001C190123D3
:10C870009B02E3181B88454C1C19454BFB5C0027A9
:10C880009C460BE023782B7063780B70A3781370B1
:10C890007F1C491C521CE41CFFB26D1C6745F1D380
:10C8A000049B6044491C521C6D1CC0B29E4201D2C4
:10C8B000401CC0B2039B9B5D312B04D1C01CC91C22
:10C8C000D21CC0B2ED1C761CF6B2049B9E42C2D3B1
:10C8D0000D9B029C009A0199002B2FD08023181ADF
:10C8E000401005062D0E29D07F34601B84467F3111
:10C8F0007F324F1B561B00205D1B009510E06346E6
:10C900001D7825703D780D70357815705B1E401CC4
:10C91000491E521E641E761E009D9C46C0B27F1E9C
:10C920008542ECDC0023802808D223700B70137042
:10C93000401C491E521EC0B2641EF4E77046002817
:10C940001AD014480021104F104D13E0059A124CD4
:10C95000525C5300FB5AA45C5B19002205E01E7870
:10C960000670521C401CD2B25B1CA242F7D3491C79
:10C97000C9B2401D7145E9D30C9800F02FFB07B0F8
:10C98000F0BD00008C230020C2270200C42F02004B
:10C99000C025020030290020C0230200F7B58E46D2
:10C9A0003B487D21C90044188D21C90042189D21B2
:10C9B000C90043188CB000200094844605460993B2
:10C9C0000A922BE00C983349465D344F70004018B2
:10C9D00001218902401800882F49F75D4018002680
:10C9E0000BE0017821704178117081781970761C04
:10C9F000C01C521C5B1CF6B2641CBE42F1D36046E4
:10CA0000C019C0B2521C5B1C641C8446754503D21D
:10CA10006046401CC0B284466D1CEDB27545D1D352
:10CA200063468027FB1A5B10009A09990A981C0636
:10CA3000240E28D07F32131B9C467F307F31061B8B
:10CA40000D1B00233C1B10E067463F7817706746BC
:10CA50007F1EBC46377807702F780F705B1C401E16
:10CA6000491E521E6D1EDBB2761E9C42ECDC002479
:10CA7000802B08D2147004700C705B1C401E491E81
:10CA8000DBB2521EF4E70E9800F0A8FA0FB0F0BD2A
:10CA90008C230020C2270200C42F0200C025020000
:10CAA00070B5FF30FF3002301546C07D1C46049A39
:10CAB00000280B4600D0042221462846FFF75CF9E7
:10CAC00070BD000010B50949094B4C7D5A7E9B7E14
:10CAD000002C03D000244C7506A102E001244C7503
:10CAE00007A1FEF76FFFC0B210BD00006C29002047
:10CAF0002C240020253032643A25303264000000B6
:10CB000025303264202530326400000070B5064DB7
:10CB100000242878002806D00220FBF7EFFD641CD3
:10CB2000E4B2642CF5D370BD2920002010B5174C59
:10CB3000217C607C0B00FEF770FF050B041C1424A5
:10CB40001300012100F0EAF8002809D000200EE0CF
:10CB5000002100F0E3F816E000210820FEF72CFD8C
:10CB600010BD012100F01CF90028F9D0022020742A
:10CB700010BD002100F014F90028F9D0082020731E
:10CB800010BD00F08DF80028E6D110BD6829002006
:10CB9000F8B505468020401B0C4CC0B22746002645
:10CBA000009060192146009AFBF71AFB8034761C2E
:10CBB000042EF6DB3C46002629462046FBF737FBD1
:10CBC0008034761C042EF7DBF8BD000074270020AB
:10CBD000F8B50421091A0E4DC0012E1ACFB2002457
:10CBE00008E0802231462846FBF7FAFA641C803DB3
:10CBF000E4B2803EBC42F4D306E080212846FBF735
:10CC000016FB641CE4B2803D042CF6D3F8BD000092
:10CC1000F4280020F8B505468020401B0D4CC7B213
:10CC2000002661193A462046FBF7DAFA8034761C72
:10CC3000042EF6DB08487D21C019C90046180024DF
:10CC400029463046FBF7F3FA641C8036042CF7DBE8
:10CC5000F8BD0000742700208C230020F8B50421C3
:10CC6000091A0E4DC0014619CFB2002408E08022F7
:10CC700031462846FBF7B4FA641C8035E4B28036AE
:10CC8000BC42F4D306E080212846FBF7D0FA641CAE
:10CC9000E4B28035042CF6D3F8BD000074270020E0
:10CCA000F8B51B4CA07C401CC0B2A074062803D36E
:10CCB0000020A0740120F8BDA07D0021FFF7F6FA46
:10CCC000A07C144D01281DD0052817D00C21484305
:10CCD000114900264418183C217828460F46FBF7D6
:10CCE000A6FA6078A178C019C0B22818E41CFBF736
:10CCF0009EFA761CF6B28035042EEDD301F0ECF9E5
:10CD00000020F8BD012149022846FBF790FAF5E71B
:10CD10006829002074270020413F0200F8B51E4C0E
:10CD20000746A07C0025401CC0B2A0740A2803D38B
:10CD30000020A0740120F8BD184E002913D0607D9A
:10CD40000021FFF7B3FA0020A17C04E0325C521905
:10CD5000401CD5B2C0B28142F8D8012F284614D069
:10CD6000FFF716FF13E0A07D0021FFF79FFA802157
:10CD70000020A27C04E0335CC91A401CC9B2C0B2D6
:10CD80008242F8D8012F0846EAD0FFF743FF01F0AE
:10CD9000A3F90020F8BD000068290020363F0200FA
:10CDA00070B5144C0546A07C401CC0B2A074042889
:10CDB00003D30020A074012070BD002907D0607D3E
:10CDC0000021FFF773FAA07C032D0AD00FE0A07DAD
:10CDD0000021FFF76BFAA07C0421081AC0B2032DD2
:10CDE00005D0FFF73BFF01F077F9002070BDFFF79A
:10CDF000EFFEF8E76829002010B588B069461120D9
:10CE0000087003A8FDF7E2FD0A2203A968467CDF4B
:10CE10007D24E400002803D02046FBF76FFC35DFBB
:10CE20001120800178DF002803D02046FBF766FC44
:10CE300035DF002001900290C82168468180FF21E3
:10CE40004131C180042101814B21C9004181FBF79F
:10CE5000EDFD0649486001A87ADF002803D020468E
:10CE6000FBF74CFC35DF08B010BD00008C23002020
:10CE700030B51848A1B0007D6946FCF77DFF6846D3
:10CE80000078002824D0002108460A466B469C5CA6
:10CE90002546203D5E2D08D8702802D3491CC9B212
:10CEA0000020521CD2B2083009E0E4090AD06828F8
:10CEB00002D3491CC9B20020D21CD2B21030C0B279
:10CEC000802AE4D3002801D0491CC9B2491C480873
:10CED00021B030BD6C290020802100B508430A49EB
:10CEE00085B00870002048700221084A0192039121
:10CEF00004910A46029003460090034904F0DCFCCA
:10CF000004F04EFA05B000BD303000203A30002069
:10CF100083000548920018180260002902D0090415
:10CF200011430160704700000007005010B5074C26
:10CF3000032283001B191A60012282400448002941
:10CF400001D0826010BDC26010BD0000000700501B
:10CF5000000500503EB50D460D49040003C902917D
:10CF6000019004D00B48007D002802D004E0082086
:10CF70003EBD0120FCF76EFB002000902B462246B0
:10CF8000482101A803F0AAFC0028F1D001203EBDF1
:10CF9000903F02008C230020FEB50E4C0746E5684A
:10CFA000A06801900C480295007D0E46002802D131
:10CFB0000120FCF74FFB0020009033463A46482101
:10CFC00001A803F093FC04460120FBF797FBE0B2B5
:10CFD000FEBD0000903F02008C230020F0B500262B
:10CFE00095B000282FD0694C01282ED0022831D0CE
:10CFF000032836D0042839D005283CD006283FD055
:10D00000634D0E2842D029460127497D07284ED07E
:10D010000F2858D0082862D009286DD00A2874D06B
:10D020000B286FD010286ED00C286DD00D280AD197
:10D03000584812230522009057490196BB384118E1
:10D04000102000F0DDFE15B0F0BD524A21468032BE
:10D05000102003E04F4A2146BA32102001F02AF88E
:10D06000F1E74C4A2146A0320D20F7E7494A214614
:10D070006A320B20F2E7474A2146DA320F20EDE709
:10D080004448454ABB382146BA3218E0EA7C43A1FD
:10D0900004A8FEF797FCC5B20023082204A9204685
:10D0A000FCF756F9002DCED000243E4F6AE000294F
:10D0B00007D03848384ABB386E752146403A821846
:10D0C00018E06F75BFE73248324A6030007A1A3292
:10D0D000042802D100290BD1F3E721460AE0FDF72D
:10D0E0007CFE2C4A3A320028F7D0687D0028E8D030
:10D0F0006E75F2E71020B1E7264A21465A32082021
:10D10000ACE702E015E016E01AE002A90020FEF705
:10D1100007FC6846807A2449420051180322120213
:10D1200089180A8A1B49214BBB3952182146C05C19
:10D1300094E71F4AD1E71E4A1449FA326F31D9E702
:10D14000144815491738009017230522A438019672
:10D15000203174E704A8005D134942008A5A0D4942
:10D16000385CBB39521813498B197D21C9005918F5
:10D1700000F0A0FF04A8005D761C385C8019641CD8
:10D1800086B2A4B2AC42E5D35DE70000742700206C
:10D190006C2900207F3002007302000025303264C9
:10D1A00000000000C0230200C22702004825020040
:10D1B000173202008C23002070B505461F481C243E
:10D1C000007C00290AD01E4B1E4A002116781E70D2
:10D1D000491CC9B2521C5B1C0529F7D318491A4ACD
:10D1E0001739002D0AD000231B3215780D705B1CF7
:10D1F000DBB2491C521C152BF7D309E00023921D0A
:10D2000015780D705B1CDBB2491C521C152BF7D333
:10D210000B21FAF7BBFF00280ED0092800D90920FE
:10D2200007491539002205E00B78521C23430B7087
:10D23000D2B2491C8242F7D370BD00008C2300207B
:10D240008B270020F42F0200C42F0200F3B50646FE
:10D250000020AFB0044626902D9001212E90490267
:10D26000FA48FAF7E4FF032028908D21F848C90016
:10D27000411823919D21C900411824912F21490172
:10D280004518012E2AD04018C07C022E2BD0032E28
:10D290002CD0042E4ED0062E52D0EE4F112E5CD044
:10D2A000052E6AD0082E7FD0092E73D00A2E72D098
:10D2B0000B2E71D08E2120208F23072E6DD0132EA0
:10D2C0006CD00C2E6BD00D2E6AD00E2E69D0122E83
:10D2D00068D00F2E67D0102E7ED00CE102A8FFF789
:10D2E000F1FB06468BE025AA042125E025AA0621AC
:10D2F000FDF7BCFD25987D21C9000646FAF746FFDB
:10D3000084B27D20C0006043301A80B20A21FAF74F
:10D310003DFF03462246D0A102A8FEF753FBC0B250
:10D32000992202A90A54401CC0B293220A544CE12B
:10D33000C6B264E025AA0721FDF798FD259A63E0AF
:10D34000C7A102A8FEF73EFBC6B2C04800231022C8
:10D3500002A9A830FBF7FCFFC5E001202E907A7AE5
:10D36000C2A102A8FEF72EFB787A2D90012310228D
:10D3700002A92398FBF7ECFFA8E1FEF7CFFA0A21F8
:10D38000FAF704FF0B460246BAA102A8FEF71AFB01
:10D39000A8E009E035E03CE045E04EE056E06EE014
:10D3A0007DE0E5E013E11CE125AA0921FDF75EFD22
:10D3B0003C212598FAF7EAFE04463C212590FAF72D
:10D3C000E5FE82B23C205043201A86B2ABA102A8EF
:10D3D000FEF7F8FAC0B200E008E1922102AC215455
:10D3E000401CC7B2E0193246A5A1FEF7EBFAC019FE
:10D3F000C0B293212154401CC6B20020A055012484
:10D4000071E0FCF7F3FC02469CA102A8FEF7DAFAF1
:10D410008EE702A9FCF7BAFC0123102202A9249886
:10D42000FBF796FF07E0287D02A9FCF7A5FCE97C45
:10D4300002A8FEF785FE012448E16A461172507287
:10D440009372D0729020107305264EE081484030D0
:10D45000C17900290ED04279FF2A0BD08379FF2BA6
:10D4600008D0182A06D23C2B04D287A102A8FEF7C6
:10D47000A9FA5DE786A102A8FEF7A4FA58E7FDF72E
:10D48000ACFC002804D0FCF752FE02467BA126E04B
:10D4900098216846017201260021417225E07E48EC
:10D4A000007800284BD01A20385E6F21C9008842CE
:10D4B00004D17AA102A8FEF785FA13E06F2836D0CE
:10D4C000644916228A5EDE2835D00146FF394E397E
:10D4D0002BD06F3931D0734988420CD172A102A888
:10D4E000FEF770FAC6B2002E05D002A93046289A7F
:10D4F00000F08CFD26903098002871D0554A269B6C
:10D50000983A8027FB1A5B10239924981E06360E42
:10D5100066D07F318B1B7F302A93831B7F32299308
:10D52000931B9C460023BE1B82E061A1D7E7182213
:10D53000BA5E61A1D3E761A1D1E761A1CFE7FDF7B1
:10D540004CFC0028A4D01426BE5F0A213046FAF70E
:10D5500033FE82B20A205043301A83B245A102A89A
:10D56000FEF730FAC0B2972102AA1154401CB9E765
:10D570002BA90020FEF7D4F9952194220028E87CFD
:10D5800011D0C00702AC684604D0017228A80F224F
:10D59000825603E0027228A81022825637A1601C2E
:10D5A000FEF710FA0DE0C00702AC684603D0017226
:10D5B000204644A102E00272204643A1401CFEF72F
:10D5C00001FA401CC0B297212154401CB0E65323FD
:10D5D0006A4613724F2656729372D07211730CE022
:10D5E00074E002A8FDF7DEF9042607E06A4611722E
:10D5F00050729372D0728C201073052601203090E7
:10D6000073E72A9F5B1C3F780F702A9F491E7F1E7D
:10D610002A97299F9BB23F780770299F401E7F1E43
:10D62000299767463F78177067467F1EBC46521E93
:10D630009E42E6DC0026802B48D20E7006705B1CF2
:10D640001670401E491E9BB2521EF4E7742700203C
:10D650008C2300208C29002025642E253032640084
:10D6600031383232313636353130370025642025B5
:10D670002500000025642E256400000025640000BC
:10D68000253032640000000025643A253032640001
:10D69000303A3030000000000D200020504153533C
:10D6A000000000002B0200004C4A2564000000002E
:10D6B000484A2564000000004A25640048256400AB
:10D6C0004C2564003135000032320000687E204273
:10D6D0000BD0124A12480823002104781470491C08
:10D6E00089B2401C521C9942F7D32E98002813D0BF
:10D6F0000A4900206039F02203E0401C0A7080B221
:10D70000491C2D9B9842F8D38022642804D2401CE7
:10D710000A7080B2491CF8E731B0F0BD62290020E0
:10D720009130020070B5184CC18B2246403A801DE2
:10D73000142928D1FF211170A38F01888B4201D1B8
:10D74000E5210FE0234640339D888D4201D1E6213B
:10D7500008E09D898D4201D1E72103E09B8A8B423D
:10D7600011D1E8215170002143185518491C9B7EA6
:10D77000C9B2AB701429F7D3034901203C3988742E
:10D78000FBF754F9206070BD0827002070B52049D0
:10D79000204C497D052816D0072813D1182927D0F9
:10D7A000192927D01A2927D01B2927D01C2927D08F
:10D7B0001D2927D01F2927D01E2927D0202901D194
:10D7C0000920207070BD134D0026203D132906D07E
:10D7D0001429E3D1FBF72AF9E861267070BDFBF745
:10D7E00025F928610B48A038006DAE61686170BDF5
:10D7F0000120E6E70220E4E70720E2E70420E0E773
:10D800000520DEE70320DCE70820DAE70620D8E77A
:10D81000682900202C240020F7B5164D04462878EE
:10D82000002686B00F46002802D02E70FCF768FA5A
:10D83000FCF77EFA104802210170210C4170210A88
:10D840008170C47016200D490396019104900296D0
:10D850000097042208490020089B04F02DF801F0ED
:10D86000C9F82878002803D101202870FCF7ACF90A
:10D8700009B0F0BD14200020303000203A300020E4
:10D8800030B5ABB0182124A8FAF7D1FC24A8FDF7D5
:10D89000C7F80F486D46C17DC47E837E427E1EC59B
:10D8A000837D2038828E0BA104A8FEF78BF8C4B2CA
:10D8B000281924AA0CA1FEF785F80019C0B228186F
:10D8C00010A1FEF77FF804A8FDF754FC2BB030BD83
:10D8D0002C24002025642D25642D25642C2025640E
:10D8E0003A25643A256420002323232320207379DA
:10D8F0007374656D207265626F6F742020282573C4
:10D90000290000000D0A0000F0B51549A5B0087BFC
:10D910004C7B05090007000D04430846A030C17D7B
:10D92000C67E837E427E6F464EC7837D2038828EC0
:10D930000C4904A8FEF746F8C6B2B81923462A4691
:10D9400009A1FEF73FF880190649C0B238183031F6
:10D95000FEF738F804A8FDF70DFC25B0F0BD000077
:10D960008C230020D4D80100232323232076657242
:10D970003A2025642E25642000000000FFB591B0F8
:10D980000F460546002606E025280AD0149A13996A
:10D9900090476D1C761C28780028F5D1304615B0CC
:10D9A000F0BD002400940121F34A029400E00443F6
:10D9B0006D1C2B780846203B98401042F7D1287800
:10D9C0002A280ED0022128780246303A092A15D892
:10D9D000009A0A235A43303A80180C436D1C009079
:10D9E000F1E701CF0090002805DA0120400304434D
:10D9F000009840420090022004436D1C28782E2895
:10DA000015D10420044368786D1C2A280AD101CF5F
:10DA10006D1C02900BE002990A22514330394018E4
:10DA20006D1C02902878014630390929F3D92878ED
:10DA30006C2810D006DC4C281AD068280ED06A2832
:10DA400017D104E0742813D07A2812D110E00120F5
:10DA5000400504430CE00121090501E0032109050B
:10DA60000C436978814203D10120000524186D1C04
:10DA70006D1C287803906E281ED00CDC632831D0F2
:10DA800004DC00288AD0582811D1B2E064287BD069
:10DA900069280CD178E073282DD004DC6F2870D071
:10DAA000702804D1A7E075286CD078286BD0149A20
:10DAB00013999047761C62E06002400F022807D05D
:10DAC00003280AD0042838680AD006603F1D56E0B3
:10DAD0003868F11706604160F8E738680680F5E7B6
